:020000040800F2
:10000000705E00203503000859160008031100082F
:1000100091150008AD0B00084D24000800000000F9
:100020000000000000000000000000007D02000849
:10003000E90B000800000000D10200088D1C000838
:100040004F0300084F0300084F0300084F03000848
:100050004F0300084F0300084F0300084F03000838
:100060004F0300084F0300084F0300084F03000828
:100070004F0300084F0300084F0300084F03000818
:100080004F0300084F0300084F0300084F03000808
:100090004F0300084F0300084F0300084F030008F8
:1000A0004F0300084F0300084F0300084F030008E8
:1000B000FD1C00084F0300084F0300084F03000811
:1000C0004F0300084F0300084F0300084F030008C8
:1000D0004F0300084F030008B12200084F03000837
:1000E0004F0300084F0300084F0300084F030008A8
:1000F0004F0300084F0300084F0300084F03000898
:100100004F0300084F0300084F0300084F03000887
:100110004F0300084F0300084F0300084F03000877
:100120004F0300084F0300084F0300084F03000867
:100130004F0300084F0300084F0300084F03000857
:100140004F0300084F0300084F0300084F03000847
:100150004F0300084F0300084F0300084F03000837
:100160004F0300084F0300084F0300084F03000827
:100170004F0300084F0300084F0300084F03000817
:100180004F0300084F03000800F002F800F067F882
:100190000AA090E8000C82448344AAF10107DA45E2
:1001A00001D100F05CF8AFF2090EBAE80F0013F0CD
:1001B000010F18BFFB1A43F001031847746A0000CF
:1001C000946A00000A444FF0000C10F8013B13F051
:1001D000070408BF10F8014B1D1108BF10F8015BA0
:1001E000641E05D010F8016B641E01F8016BF9D193
:1001F00013F0080F1EBF10F8014BAD1C0C1B09D1EA
:100200006D1E58BF01F801CBFAD505E014F8016B5B
:1002100001F8016B6D1EF9D59142D6D370470000ED
:100220000023002400250026103A28BF78C1FBD8FF
:10023000520728BF30C148BF0B607047642900F0E7
:10024000E580752900F0E280732900F02883002002
:1002500070471FB506F057FC1FBD10B510BD00F06C
:1002600073FB1146FFF7F5FF03F06CF800F091FB0C
:1002700003B4FFF7F2FF03BC02F0D5FD2A4B196867
:100280000868B0E8F04F80F30988BFF36F8F4FF034
:10029000000080F3118870470000000006480068E5
:1002A000006880F3088862B661B6BFF34F8FBFF372
:1002B0006F8F00DF00BF00BF08ED00E0DFF80C002B
:1002C000016841F470010160704700BF88ED00E0F3
:1002D000EFF30980BFF36F8F134B1A681EF0100FF6
:1002E00008BF20ED108A20E9F04F106008B44FF0ED
:1002F000500080F31188BFF34F8FBFF36F8F04F06E
:1003000067FE4FF0000080F3118808BC1968086888
:10031000B0E8F04F1EF0100F08BFB0EC108A80F369
:100320000988BFF36F8F7047E8000020EFF3058066
:10033000704700000948804709480047FEE7FEE78C
:10034000FEE7FEE7FEE7FEE7FEE7FEE7FEE7FEE785
:1003500004480549054A064B70470000A11C0008E7
:100360008901000870580020705E0020705A00203B
:10037000705A0020704700000FB4044910B503AA5A
:10038000029800F091FA10BC5DF814FBD400002034
:100390000FB41CB5074B06AA7B446946009005982C
:1003A00000F053FA0020694600F062FA1CBC5DF8C8
:1003B00014FB0000D504000070B50C460546012A68
:1003C00005D02878800600D5EA69002302E00123E1
:1003D00005E05B1C934202D2E05C0028F9D1A869D9
:1003E000E618C01AA861286A184428622846AFF3A4
:1003F000008004E0D5E9012114F8010B9047B442D4
:10040000F8D32846AFF3008070BD00002DE9F0411D
:100410000646002410687529314616A510D0AFF3A2
:100420000080002802DA404213A507E031688A07FD
:1004300001D512A502E0490704D511A5012401E068
:10044000AFF3008000210A2206F1240709E0B0FB87
:10045000F2FCB0FBF2F302FB1C003030785418467B
:10046000491C0028F3D123462A463046BDE8F04116
:1004700000F08CB9000000002D0000002B000000EF
:10048000200000002DE9F05F894604464FF0000A85
:10049000DFF824B1FB44C0F820A02046E16888477B
:1004A00000287DD0252806D0D4E901219047206A74
:1004B000401C2062F1E700255F462046E16888473E
:1004C0002028064607DB312E05D2B81910F8200C7B
:1004D00008B10543F1E7A80701D525F00405C4F8E4
:1004E0001CA00027C4F818A02A2E09D0304602F01C
:1004F00093FC38B304EB8708303EC8F8186019E065
:1005000059F8041B204604EB87029161E168884793
:10051000012F064618D1E069002820DA25F02005D1
:100520001DE0D8F8180000EB800006EB40003038E2
:10053000C8F818002046E1688847064602F06CFCBF
:100540000028EED1012F0AD02E2E08D12046E168D6
:1005500088477F1C0646022F45F02005C4DBA069B2
:10056000002803DA404245F00105A061E80701D008
:1005700025F01005A6B1A6F14100192802D82036B1
:1005800045F400654A463146204625604D46FFF752
:1005900055FE60B1012807D0ED1D25F0070000E0F1
:1005A00007E000F1080978E705F1040975E730462E
:1005B0007AE7206ABDE8F09F9066000040EA0103F8
:1005C000024630B59B0710D14FF0013400E008C25D
:1005D00008C91D1B9D4315EAC41FF8D013F0FF0185
:1005E00002F8011B0DD01B0AF8E711F8013B002BA4
:1005F00002F8013B05D011F8013B002B02F8013B4A
:10060000F3D130BD10B5431C02E010F8011B71B1ED
:100610008107FAD14FF0013202C88C1A8C4314EAD8
:10062000C211F9D0C01A0A0603D0C01E10BDC01AEC
:1006300010BD0A0401D0801E10BD0902FCD0401E6E
:1006400010BD032A40F2308010F0030C00F015803A
:1006500011F8013BBCF1020F624498BF11F801CBC5
:1006600000F8013B38BF11F8013BA2F1040298BF2A
:1006700000F801CB38BF00F8013B11F0030300F094
:100680002581083AC0F0088051F8043B083A51F837
:1006900004CBA0E80810F5E7121D5CBF51F8043B3D
:1006A00040F8043BAFF30080D20724BF11F8013BB0
:1006B00011F801CB48BF11F8012B24BF00F8013B12
:1006C00000F801CB48BF00F8012B704702F0FF0390
:1006D00043EA032242EA024200F002B84FF000026D
:1006E0000429C0F0128010F0030C00F01B80CCF144
:1006F000040CBCF1020F18BF00F8012BA8BF20F8B2
:10070000022BA1EB0C0100F00DB85FEAC17C24BF05
:1007100000F8012B00F8012B48BF00F8012B7047AF
:100720004FF0000200B5134694469646203922BF8A
:10073000A0E80C50A0E80C50B1F12001BFF4F7AFD5
:10074000090728BFA0E80C5048BF0CC05DF804EBB7
:10075000890028BF40F8042B08BF704748BF20F825
:10076000022B11F0804F18BF00F8012B7047704723
:1007700070477047704710B500F0DAF8006810BD98
:1007800010B5044600F0D4F8046010BD2DE9F04720
:100790000D4699469246044600F1240801688806F1
:1007A00004D5E06921F01001216000E00120A84299
:1007B00001DD471B00E00027A1697A1902EB09005F
:1007C000081AA0612078C00602D42046AFF300804A
:1007D000002608E0D4E901211AF806009047206AB3
:1007E000401C761C20624E45F4DB2078C0060AD5FA
:1007F0002046AFF3008006E0D4E901213020904785
:10080000206A401C2062381EA7F10107F4DC07E0D3
:10081000D4E9012118F805009047206A401C2062A5
:10082000281EA5F10105F3DC2046AFF300802078F7
:10083000000602D50220BDE8F0870120FBE700009A
:1008400001694A1C02610878704700B58FB0CDE994
:1008500001310021059105497944CDE90310114684
:100860006846FFF70FFE0FB000BD0000E5FFFFFF79
:100870000A6802F8010B0A60704710B5436913B1AA
:10088000AFF3008001E0FFF797FD012010BD127863
:1008900000F124010A7000224A700122EDE711687C
:1008A0004FF0FF32E9E70000074B70B50D467B447F
:1008B000FFF7CBFF0446284600F03EF810B14FF09A
:1008C000FF3070BD204670BDEB29000010B5203A06
:1008D000C0F00B80B1E81850203AA0E81850B1E8F9
:1008E0001850A0E81850BFF4F5AF5FEA027C24BFAF
:1008F000B1E81850A0E8185044BF18C918C0BDE8A6
:1009000010405FEA827C24BF51F8043B40F8043B6E
:1009100008BF7047D20728BF31F8023B48BF11F823
:10092000012B28BF20F8023B48BF00F8012B70477D
:10093000004870470C580020007B00F08000704792
:10094000004870470C5800207546FFF7F9FFAE4687
:1009500005006946534620F00700854618B020B5CB
:10096000FFF7F6FCBDE820404FF000064FF000070F
:100970004FF000084FF0000B21F00701AC46ACE847
:10098000C009ACE8C009ACE8C009ACE8C0098D46B4
:10099000704710B50446AFF300802046BDE8104014
:1009A000FFF766BC70B5F92000F011F80446F82096
:1009B00000F00DF80546F72000F009F8000340EAC2
:1009C000051040EA1410BDE8704002F035BA10B5C9
:1009D000044600F05BFCEC2000F028FC00F098FCE2
:1009E000204600F023FC00F093FC00F04FFCED20CB
:1009F00000F01CFC00F08CFC002000F0E3FB04463F
:100A000000F064FC204610BD0178427849018078EE
:100A100041EA82010143C9B2F52000F00BB84178E8
:100A200002784901807841EA82010143C9B2F42089
:100A3000AFF3008070B50D46044600F027FCEC20B3
:100A400000F0F4FB00F064FC204600F0EFFB00F047
:100A50005FFC284600F0EAFB00F05AFCBDE870405D
:100A600000F034BC7CB58820FFF7B1FF0446892034
:100A7000FFF7ADFF04EB00204B4C216808808A2073
:100A8000FFF7A5FF05468B20FFF7A1FF216805EBC7
:100A9000002048808C20FFF79AFF05468D20FFF745
:100AA00096FF216805EB002088808E20FFF78FFFDE
:100AB00005468F20FFF78BFF216805EB0020C880DB
:100AC0009020FFF784FF05469120FFF780FF216803
:100AD00005EB002008819220FFF779FF054693205F
:100AE000FFF775FF216805EB002048819420FFF790
:100AF0006EFF05469520FFF76AFF216805EB002091
:100B000088819620FFF763FF05469720FFF75FFF78
:100B1000216805EB0020C8819820FFF758FF0546A3
:100B20009920FFF754FF216805EB002008829A20E6
:100B3000FFF74DFF05469B20FFF749FF216805EBB6
:100B4000002048829C20FFF742FF05469D20FFF7CA
:100B50003EFF216805EB002088829E20FFF737FFCB
:100B600005469F20FFF733FF216805EB0020C88270
:100B7000B621E020FFF75EFF03208DF80000012181
:100B80008DF801108DF802006846FFF748FF00203D
:100B90008DF8040004218DF805108DF8060001A8D9
:100BA000FFF732FF7CBD000030000020FEE700B5FB
:100BB0000246B0EE402A084602F040FCD1ED0A0A97
:100BC000B0EE420AC2ED000A10465DF804EB02F0F6
:100BD00035BC0000034800220260426053213120EE
:100BE00001F0A4B8A00000207047F0B50022012752
:100BF0004FF0030C0B6807FA02F52B40AB422CD1E7
:100C0000066853000CFA03F4A64306600E79D0F888
:100C100000E09E4046EA0E0606600E79012E01D0E5
:100C2000022E12D18668A64386604E79D0F808E07D
:100C30009E4046EA0E0686604668AE4346604568BA
:100C40008E799640B6B235434560C568A543C56008
:100C5000CC799C40C3681C43C460521C102AC9D381
:100C6000F0BD4B07DB0E9A40C90810B500EB8100C0
:100C7000016A0F249C40A1430162016A1143016291
:100C800010BD418370470183704742694A40426109
:100C90007047000070B50E462DED068BF0EE408AD1
:100CA000B6EE000A8EB028EE808A0546FE4CB0EE05
:100CB00000AAF7EE00AA94ED010AD4ED030A94ED20
:100CC000021AFA4920EE200AD4ED000A00EEC10A09
:100CD00020EE0A0A8DED0B0A94ED000AD4ED010A0C
:100CE00094ED031A20EE200AD4ED020A00EE810AE8
:100CF00020EE0A0A8DED0C0A94ED010AD4ED010AEA
:100D000094ED021A20EE200AD4ED020A00EE810AC8
:100D1000F0EE6A0A40EE4A0ACDED0D0AB1F9000084
:100D200000EE100AB1F9020000EE900AB8EEC00A17
:100D3000B8EEE01A00EE900A20EE000AB1F90400C5
:100D4000F8EEE00A01EE200A00EE900AB8EEE01A92
:100D500000EE900AF8EEE00A01EE200A00F0BAFC7C
:100D6000A4F1580181ED030AB5F9000000EE900AE4
:100D7000F8EEE00A60EE800ACDED040AB5F9020053
:100D800000EE900AF8EEE00A60EE800ACDED050A6A
:100D9000B5F9040000EE900AC448F8EEE00A0C38F9
:100DA00020EE800A8DED060A9DED050ADDED0D0AA7
:100DB0009DED0C1A20EE200ADDED060A00EEC10AB8
:100DC0008DED000A9DED060ADDED0B0A9DED0D1A75
:100DD00020EE200ADDED040A00EEC10A8DED010AC5
:100DE0009DED040ADDED0C0A9DED0B1A20EE200AA4
:100DF000DDED050A00EEC10A8DED020AD0ED000A14
:100E00009DED001A91ED020A41EE000AC0ED000AC4
:100E100090ED011ADDED011A01EE801A80ED011A44
:100E2000D0ED021A9DED022A42EE001AC0ED021A20
:100E3000B5F90600DDED002A00EE100A9C48B8EE78
:100E4000C00A90ED002A20EE022A91ED010A00EE80
:100E5000222A72EE200ACDED000AB5F9081090EDB5
:100E6000002A00EE901AF8EEE00A60EE820A9DED8C
:100E7000012A40EE020A70EE810ACDED010AB5F9B1
:100E80000A1000EE901A90ED001AF8EEE00A60EEFB
:100E9000810A9DED021A40EE010A30EEA10A8DEDA5
:100EA000020A94ED010ADDED000A9DED011ADDED67
:100EB000011A20EEC00AD4ED020A9DED012ADDEDF3
:100EC000002A00EEC10AD4ED030A9DED021A00EEDD
:100ED000C10ADDED000A20EE081A94ED000A20EEAA
:100EE000200AD4ED030A00EEE10AD4ED020ADDED9A
:100EF000021A00EEA10ADDED001A60EE080A94ED78
:100F0000030A20EE210AD4ED001A01EE820AD4ED84
:100F1000011A9DED022A01EEC20AD4ED011A9DEDDF
:100F2000012A61EE821A94ED022A20EE080A42EEAE
:100F3000621A94ED002ADDED022A42EE221A94EDA7
:100F4000002A32EE011A61EE881A84ED001A94ED3F
:100F5000011A71EE200AC4ED010AD4ED020A30EE46
:100F6000800A84ED020A94ED030A30EE210A84ED32
:100F7000030A94ED000AD4ED000A94ED011A20EE64
:100F8000200AD4ED010A00EE810AD4ED020A94EDA4
:100F9000021A00EE810AD4ED030A94ED031A00EE62
:100FA000810A00F097FBD4ED000A434960EE800A05
:100FB000C4ED000AD4ED010A60EE800AC4ED010A16
:100FC000D4ED020A60EE800AC4ED020AD4ED030AF1
:100FD00020EE800A84ED030AB5F90A0000EE100A3B
:100FE0003448B8EEC00AD0ED000A20EE200A10EE18
:100FF000100A884204DC10EE100A3049884205D9F4
:10100000D6ED020A40EE280AC6ED020A2C4D2868E9
:1010100005F008FD94ED000AD4ED020A94ED031AE0
:1010200020EE0A0A41EC180B20EE200AD4ED010A4A
:1010300060EE8A0A00EEC10A10EE100A05F0F2FC1A
:1010400041EC100B01F01CFA53EC182B51EC100B77
:1010500005F028FA04F082FF7060286805F0E2FCD1
:1010600094ED010AD4ED010A41EC190B20EE0A0AB5
:1010700040EE60AA94ED020AD4ED020A20EE0A0ABC
:1010800040EE60AA1AEE900A05F0CCFC94ED020A3C
:10109000D4ED030A41EC180B20EE0A0A20EE200AD8
:1010A000D4ED000A0EE00000900000203003002084
:1010B000246B0008206B00089A99993F9A9999BF70
:1010C0001C6B000860EE8A0A94ED011A00EE810A9A
:1010D00010EE100A05F0A6FC41EC100BB0EE481A19
:1010E000F0EE681A01F0E8FC53EC192B51EC100BF0
:1010F00005F0D8F904F032FF30600EB0BDEC068B7D
:1011000070BDFEE770B50D4C0025C4F898520C4830
:10111000016821F440410160016841F480410160AF
:10112000C4F89C52022004F5267402F003F8012052
:101130002060022001F0FEFF256070BD008040426B
:10114000000402401CB50121022000F0D9FAC020A1
:10115000012400908DF8044000208DF80600032043
:101160008DF805008DF8074069460448FFF73DFDFE
:101170000348C0F89842C0F89C421CBD00040240DD
:101180000080404270B50D4C0026C4F898620C48AF
:10119000016821F440410160016841F4804101602F
:1011A0000125C4F89C52022004F5267401F0C2FF08
:1011B0002560022001F0BEFF266070BD0080404225
:1011C000000402402DE9F0478146164800240168DA
:1011D00021F44041016001680160134E2546274615
:1011E0004FF00108C6F89872022001F0A3FFC6F87C
:1011F00098826006040ED6F81C0208B1641CE4B2A2
:10120000012001F097FF6D1CEDB2082DEAD3B9F172
:10121000000F04D0FFF776FF2046BDE8F087FFF708
:10122000B1FFF9E700040240008040422DE9F0419F
:1012300005461448016821F440410160016841F409
:1012400080410160104E0027C6F898723C464FF06E
:101250000108E809C6F89C026806050E022001F0A4
:1012600069FFC6F89882022001F064FFC6F8987200
:10127000022001F05FFF641CE4B2082CE9D3BDE852
:10128000F0810000000402400080404270B50D482B
:10129000016821F440410160016841F4804101602E
:1012A000094C0120C4F89C02C4F89802042004F5FB
:1012B000267401F03FFF00256560042001F03AFF2D
:1012C000256070BD00040240008040420E4810B509
:1012D000016821F440410160016841F480410160EE
:1012E0000A4C0020C4F89802C4F89C02042004F5BB
:1012F000267401F01FFF012020606060BDE81040EF
:10130000042001F017BF00000004024000804042AA
:1013100070B512480024016821F440410160016861
:1013200001600F4D0126C5F89C62304601F002FFB6
:10133000C5F89862012001F0FDFE07E0641CE4B2EC
:10134000FA2C03D9FFF7C2FF012070BDD5F81C02AB
:101350000028F3D1C5F8980270BD000000040240D7
:10136000008040427CB514460D4606466B46062278
:101370003B21682000F080F800280BD1BDF8001058
:1013800049BA3180BDF8021049BA2980BDF804106D
:1013900049BA21807CBD7CB514460D4606466B4695
:1013A00006224321682000F067F800280BD1BDF821
:1013B000001049BA3180BDF8021049BA2980BDF841
:1013C000041049BA21807CBD10B580216B2000F04B
:1013D000C1F8642001F092FE00216B2000F0BAF801
:1013E000032000F083F8012000F07BF84FF4FA743A
:1013F000204600F098F80021382000F0ABF80021DA
:101400006A2000F0A7F80021232000F0A3F8802133
:10141000372000F09FF8752000F011F8682801D0FF
:10142000012010BD01216B2000F094F800216C20F8
:1014300000F090F8204600F076F8002010BD10B5BE
:101440000446FFF723FFD020FFF7F0FEFFF760FF11
:101450002046FFF7EBFEFFF75BFFFFF717FFD120FA
:10146000FFF7E4FEFFF754FF0020FFF7ABFE044652
:10147000FFF72CFF204610BD2DE9F0411C46154614
:101480000F460646FFF702FF7006000EFFF7CEFE7E
:10149000FFF73EFF20B1FFF719FF0120BDE8F08103
:1014A0003846FFF7C3FEFFF733FFFFF7EFFE0120DB
:1014B00000EB4600C0B2FFF7B9FEFFF729FF08E0D6
:1014C000012D0CD00120FFF77DFE6D1E04F8010BED
:1014D000EDB2002DF4D1FFF7F9FE0020DEE7002089
:1014E000F1E7C006010E1C2000F034B8C006010E62
:1014F0001B2000F02FB8BC2801D3012110E0622886
:1015000001D302210CE02A2801D3032108E014288A
:1015100001D3042104E00A2801D3052100E00621BB
:101520001A2000F017B810B504464FF47A708442C0
:1015300001D9044602E0042C00D20424B0FBF4F0EC
:10154000401EC1B2192000F005F86008BDE8104047
:10155000FFF7D1BF70B50C460546FFF797FED020C8
:10156000FFF764FEFFF7D4FE50B92846FFF75EFE92
:10157000FFF7CEFE2046FFF759FEFFF7C9FE18B170
:10158000FFF7A4FE012070BDFFF7A0FE002070BD94
:10159000FEE700002DE9FE436F463846B91C01AA5C
:1015A000FFF7E0FE02A9B81D8A1CFFF7F4FEDFF882
:1015B0009880264D002437F8141038F81400091AC2
:1015C000286820F81410032C17D230F9140004EB0B
:1015D000440100EE100A1D48103000EBC106B8EEC1
:1015E000C00A304601F074FE96ED020A2968BDEE8D
:1015F000C00A10EE100A21F81400022C1ED9E01EB9
:101600001149C0B20C3101EB80009FED121A90ED30
:10161000000A2968DFED0E0A20EE010A31F91420D4
:1016200001EE102AB8EEC11A01EE200A80ED000A80
:10163000BDEEC00A10EE100A21F81400641CE4B2DA
:10164000062CB8D3BDE8FE830C0300203800002030
:101650009A99193E9A99593F7047000030B50F2367
:10166000C27801780125FAB1144A126801F1E0212B
:1016700002F4E062C2F5E062C2F30722C2F10404A0
:10168000D3404278A24084781C401443220181F860
:101690000024007800F01F018D404009800000F117
:1016A000E020C0F8005130BD01F01F00854048091E
:1016B000800000F1E020C0F8805130BD0CED00E06A
:1016C0000249084302490860704700000000FA051B
:1016D0000CED00E010EE100AF6EE000A074960EE8D
:1016E000200AA1EB600000EE100AB7EE081A60EEC7
:1016F000800A00EEC01A21EE000A7047DF59375FFA
:10170000044A0029116801D0014300E081431160BF
:101710007047000030380240044A0029116801D0A7
:10172000014300E0814311607047000040380240EF
:10173000044A0029116801D0014300E0814311608F
:101740007047000020380240044A0029116801D087
:10175000014300E0814311607047000024380240DB
:1017600070B5204B1968204C11F00C0104D06610A4
:10177000042903D0082903D004601BE0066019E0A7
:10178000184A121F1168C1F38055116801F03F011A
:1017900015B1B6FBF1F101E0B4FBF1F11468126888
:1017A000C4F388146143C2F30142521C5200B1FBDE
:1017B000F2F1016019680F2202EA11110B4A545C20
:1017C0000168E14041601C68072505EA9424145D26
:1017D00021FA04F484601B6805EA5333D25CD140DB
:1017E000C16070BD083802400024F400D800002019
:1017F0001CB54FF000094E464D4601F05BFDDFF889
:1018000010B1DFF810814FF49F7A0190404F4FF0F4
:10181000FF300123009000221946786803F0BEFCD7
:10182000322101A803F030F93B4800F043F99BF85E
:101830000000B8F804105C46C00733D0514527D2E9
:10184000B8F8060040F26521884221D86D1CADB27F
:101850003C2D1ED30221786803F008FC20782F4F1E
:1018600020F00100207040F2F3152946384600F0C0
:10187000D9FC2946384600F0D7FC2946384600F006
:10188000D5FC2946384600F0D3FC25A0FEF774FDB0
:101890000025B8F8040047462D281CD8207820F0F1
:1018A00002001EE0514514D2B8F8060040F27B5108
:1018B00088420ED3761CB6B23C2EEAD30221786859
:1018C00003F014FC207840F00100207019A0FEF70E
:1018D00053FD0026DDE7B0F5997F04D9207840F06C
:1018E0000200207002E018A0FEF746FDB9F1000FDB
:1018F0008CD00024214637F8142018A0FEF73CFDB8
:10190000641CE4B2122CF5D313A0FEF735FD7DE77D
:101910000000002062030020480300200004004073
:10192000466C69676874206C6F636B656421210A7B
:1019300000000000466C6967687420756E6C6F6308
:101940006B656421210A0000756E6B6E6F77696E9E
:1019500067207374617465210A00000025642D2DD1
:101960002564200008B51A4C0025DFF868B06F1E0A
:101970004FF4FA764FF4C879A0464FF4007A012369
:10198000009700221946606803F008FC304603F017
:1019900045F885B1304603F041F849460E48FEF758
:1019A0009DFE0D4803F06CF90CA0FEF7E5FC0A491A
:1019B00013A0FEF7E1FC98F800005146C007584616
:1019C00002D0FFF762F9DAE7FFF75DF9D7E7000029
:1019D000000000200004024064010020C8CECEF1C7
:1019E000C3FB090909D4CBD0D0CAB1BCE409D4CB1C
:1019F000D0D0CBF9D5BCB0D9B7D6B1C80D0A00004C
:101A000025730D0A00000000AFF3008030B50121FE
:101A100087B00846FFF774FE01214804FFF77CFEFB
:101A2000082005900220204C8DF8180005A92046BA
:101A3000FFF7DBF8072203212046FFF712F91B48C6
:101A40000090A014ADF804008010ADF80800002448
:101A50000420174DADF80A00ADF80640ADF80C4073
:101A60006946284600F098FC26218DF810100520C4
:101A70008DF811008DF8124001208DF8130004A894
:101A8000FFF7ECFD012240F22551284600F06CFCE6
:101A9000012240F22441284600F066FC012128463C
:101AA00000F032FC07B030BD00000240A08601000B
:101AB000004400404188C1F30A0240490A80C278CC
:101AC0000379D20842EA4312C2F30A024A80027939
:101AD0004379920942EA8302837942EA8322C2F37C
:101AE0000A028A808279C379520842EAC312C2F399
:101AF0000A02CA80C279037A120942EA0312C2F3C7
:101B00000A020A81027A437AD20942EA4302837ABC
:101B100042EA4322C2F30A024A81827AC37A9208D5
:101B200042EA8312C2F30A028A81C27A037B520913
:101B300042EAC302CA81B0F80D20C2F30A020A8247
:101B4000827BC37BD20842EA4312C2F30A024A8272
:101B5000C27B037C920942EA8302437C42EA8322ED
:101B6000C2F30A028A82427C837C520842EAC31290
:101B7000C2F30A02CA82827CC37C120942EA0312BF
:101B8000C2F30A020A83C27C037DD20942EA4302FD
:101B9000437D42EA4322C2F30A024A83427D837DA7
:101BA000920842EA8312C2F30A028A83827DC07DD0
:101BB000520942EAC000C883704700006203002057
:101BC0000CB50022274900920192086840F4803049
:101BD00008604FF4A043086800F4003001900098BA
:101BE000401C0090019810B900989842F3D1086801
:101BF000800334D5012001901A484030026842F039
:101C0000805202601848026842F44042026015485F
:101C1000083002680260026842F400420260026812
:101C200042F4A0520260031F104A1A600A6842F090
:101C300080720A600A689201FCD50D4940F2057273
:101C40000A60016821F003010160016841F00201AE
:101C500001600168C1F381010229FAD10CBD019232
:101C60000CBD0000003802400070004008544007DE
:101C7000003C02404FF0E0210428086903D020F026
:101C800004000861704740F00400FAE710B503F063
:101C9000B1FE012803D0BDE8104003F09FBB10BD8A
:101CA000124810B5016841F47001016010480168E4
:101CB00041F0010101600E4A002108321160026802
:101CC0000C4B1A400260031D0B4A1A60026822F492
:101CD0008022026006480C300160FFF771FF034963
:101CE0004FF000608039086010BD000088ED00E012
:101CF00000380240FFFFF6FE1030002410B501212D
:101D00008C07204600F07CF9012807D106490A68B3
:101D10004868521C40F100000A6048602046BDE857
:101D20001040012100F0B6B8A00000207FB50D469C
:101D3000044601210846FFF7EFFC0194ADF800507E
:101D400000244FF08045ADF80240ADF808406946E8
:101D5000284600F06FFA01221146284600F05CF98F
:101D60000121284600F099F81C208DF80C00012074
:101D70008DF80D008DF80E408DF80F0003A8FFF7C9
:101D80006DFC7FBDF0B58BB001210420FFF7B8FCDE
:101D900001210220FFF7C0FC374E304600F088F8E2
:101DA000364F022206213846FEF75BFF022207214A
:101DB0003846FEF756FF022208213846FEF751FF4B
:101DC000022209213846FEF74CFF4FF4707008904C
:101DD00002208DF824008DF8250000248DF826407F
:101DE00001258DF8275008A93846FEF7FEFE42F27D
:101DF0000F700690A720ADF81400ADF81C40ADF8A8
:101E000016408DF81E4005A9304600F013FA6020F8
:101E1000ADF800002802ADF81000ADF802500294B1
:101E2000ADF80C406946304600F0FEF86946304691
:101E300000F030F96946304600F076F969463046E0
:101E400000F0B6F90821304600F01EF908213046AE
:101E500000F060F90821304600F0A4F9082130466E
:101E600000F0D6F90121304600F00AF80121304691
:101E700000F013F80BB0F0BD000400400008024071
:101E80000029018802D041F0800101E021F08001A9
:101E900001807047C943018270470029018802D040
:101EA00041F0010101E021F00101018070470000D3
:101EB000464910B5884206D101210846FFF744FC87
:101EC000002101205BE0B0F1804F09D040498842F9
:101ED0000DD101210220FFF72BFC0021022070E030
:101EE00001210846FFF724FC0021012069E039495F
:101EF000884206D101210420FFF71AFC00210420AA
:101F00005FE03549884206D101210820FFF710FC27
:101F10000021082055E03149884206D101211020D6
:101F2000FFF706FC002110204BE02D49884206D126
:101F300001212020FFF7FCFB0021202041E029495E
:101F4000884206D101210220FFF7FEFB002102207A
:101F500015E02549884202D101210C040AE02349F9
:101F6000884202D101214C0404E0214988420AD16F
:101F700001218C042046FFF7E7FB00212046BDE845
:101F80001040FFF7E1BB1B49884206D101214020E8
:101F9000FFF7CEFB0021402013E01749884206D10D
:101FA00001218020FFF7C4FB0021802009E01349B4
:101FB00088420AD1841501212046FFF7B9FB002190
:101FC0002046BDE81040FFF7B3BB10BD0000014044
:101FD0000004004000080040000C004000100040D9
:101FE0000014004000040140004001400044014052
:101FF0000048014000180040001C00400020004044
:1020000002460020138A92890B4202EA010202D0A2
:10201000002A00D001207047002A828901D00A439B
:1020200000E08A438281704730B5028C22F00102C1
:102030000284028C8388048B22F0020224F0730550
:102040000C882C438D8915434A882A430C4DA8429D
:1020500002D00C4DA8420DD122F00805CA8923F404
:1020600040732A4322F004058A882A430D8A1D43BF
:102070004B8A2B438380048389684163028430BD8B
:102080000000014000040140028B22F008020A43D4
:102090000283704770B5028C22F010020284028C19
:1020A0008388048B0D8824F4E6464FF6FF7404EA17
:1020B000052535438E8922F0200204EA06161643D0
:1020C0004A8804EA02123243104EB04202D0104E47
:1020D000B04215D122F08006CA8923F4406304EA95
:1020E0000212324322F040068A8804EA0212324386
:1020F0000E8A04EA86061E434B8A04EA83033343AE
:102100008380058389688163028470BD000001407B
:1021100000040140028B4FF6FF7322F4006203EAD1
:10212000012111430183704770B5028C22F4807243
:102130000284028C8388848B0D8824F073042543E9
:102140008E894FF6FF7422F4007204EA06261643C5
:102150004A8804EA02223243104EB04202D0104EA6
:10216000B04215D122F40066CA8923F4405304EA30
:102170000222324322F480668A8804EA0222324331
:102180000E8A04EA06161E434B8A04EA03133343FD
:10219000838085838968C163028470BD000001402B
:1021A00000040140828B22F008020A4382837047B8
:1021B00070B5028C22F480520284058C8288838B55
:1021C0000C8823F4E6464FF6FF7303EA04243443F5
:1021D00025F400568D8903EA053535434E8803EA18
:1021E00006362E43084DA84202D0084DA84205D11C
:1021F00022F480450A8A03EA82122A438280848379
:1022000089680164068470BD00000140000401403B
:10221000828B4FF6FF7322F4006203EA012111431F
:10222000818370474163704781637047C163704722
:102230000164704730B50288164C174DA0420DD08E
:10224000A8420BD0B0F1804F08D0144B984205D073
:10225000134B984202D0134B984203D122F07003E3
:102260004A881A43104B984206D0104B984203D02C
:1022700022F440730A891A4302804A68C2620A88BB
:102280000285A04201D0A84201D1897A01860121AC
:10229000818230BD00000140000401400004004084
:1022A00000080040000C00400010004000140040F6
:1022B000F8B500208DF80000104F40F22551384647
:1022C00000F033F80E4D0F4C3E1D20B131882078C0
:1022D0002954401C10E040F22441384600F025F813
:1022E00000280AD038888DF8000030888DF800006A
:1022F0002078401E287001202070F8BD0044004066
:1023000048030020A80000200029818902D041F460
:10231000005101E021F40051818170470246002004
:1023200012880A4200D00120704770B501F01F05E5
:1023300001260024C1F3421306FA05F2012B0FD047
:10234000022B0FD0838A4FEA11210088134206FA2C
:1023500001F600EA060001D000B10124204670BD5C
:102360008389F0E7038AEEE710B5C1F3421301F069
:102370001F040121A140012B07D0022B07D01430EC
:10238000002A026805D00A4304E00C30F8E7103058
:10239000F6E78A43026010BD7FB50446008A0D4609
:1023A000C98820F4405001432182A08941F20C6188
:1023B0008843A9882A8911436A8902431143A1816C
:1023C000A08A20F44071A8890843A0826846FFF7DC
:1023D000C7F91A48844202D01948844201D10398AF
:1023E00000E00298A189090400EBC00101EB001094
:1023F000296801D5490000E08900B0FBF1F06422B2
:10240000B0FBF2F109010B096FF018056B4300EB0B
:102410008300A3891D044FF0320306D503EBC000EF
:10242000B0FBF2F000F0070005E003EB0010B0FB9A
:10243000F2F000F00F00084320817FBD0010014042
:1024400000140140C1F3080181807047FEE703B426
:1024500001984100009850EAC12018BF04204A0D9D
:1024600018BF40F0010040F2FF72B2EB515F08BFAD
:1024700040F00200012808BF052002B070470000AC
:1024800070B5C1482DED020B2DED0E8B82B0119D64
:1024900025F000449FEDBEDB9FEDBFEB84423EDBA9
:1024A000A4F140511098A1F17F6108430FD0BC48BE
:1024B000844202DC28D1109830B39DED100B02B09D
:1024C000BDEC0E8B02B0BDE8704000F071BC9DED1C
:1024D000100B53EC1D2B51EC100B03F0E3FF9DEDA3
:1024E000100B41EC180B53EC1E2B51EC100B03F0AE
:1024F000D9FF53EC182B03F063FD41EC100B02B035
:10250000BDEC0E8B02B070BD0120FEF739F902B0B0
:10251000BDEC0E8B02B0BDE8704000F05DBCA14880
:102520009FEDA18B844256DA9DED100BB4F1795FDB
:102530000ADA51EC100BFFF78AFF042808BF00F0FD
:102540005BFC9DED100BDAE753EC102B51EC100BFC
:1025500003F0A8FF41EC190B95480621B0EE490A9B
:10256000F0EE690A784400F0A7FB53EC192B51EC0C
:10257000100B03F097FF41EC1A0B8E48B0EE490A9E
:10258000F0EE690A0421784400F096FB53EC192B15
:1025900051EC100B03F086FF53EC182B03F010FDE9
:1025A00041EC100B51EC1A0B53EC102B03F0BCFD5B
:1025B000CDE900019DED000B53EC102B9DED100BB0
:1025C00051EC100B03F06EFF9DED101B53EC112B23
:1025D00003F0F6FCD2E09DED100B51EC100B00F077
:1025E00051FE53EC182B04F05BF89FED730BCDE913
:1025F000000153EC102B9DED000B51EC100B03F080
:1026000051FF41EC190B6E480621B0EE490AF0EE7D
:10261000690A784400F050FB53EC192B51EC100B75
:1026200003F040FF41EC1B0B6648B0EE490AF0EEA8
:10263000690A0421784400F03FFB53EC192B51EC5C
:10264000100B03F02FFF53EC182B03F0B9FC41ECF7
:102650001C0B51EC190B01F025FD41EC180B5A48ED
:102660009FED5BABA04222DC53EC1C2B51EC1B0B0F
:1026700003F05AFDCDE900019DED000B51EC180B64
:1026800053EC102B03F00EFF53EC182B03F098FCC7
:1026900053EC1A2B03F006FF53EC1D2B04F0D8F873
:1026A00053EC1E2B03F0FCFF41EC100B5FE08DEDB3
:1026B000008B002000909DED000B51EC180B53ECAB
:1026C000102B03F07DFC9DED000B41EC1E0B53EC39
:1026D000102B51EC100B03F0E5FE53EC192B03F01B
:1026E000DFFF53EC1E2B03F01FFD41EC190B53ECE5
:1026F0001C2B51EC1B0B03F017FD41EC1B0B53EC97
:102700001A2B51EC190B03F0CDFE53EC1D2B03F0EB
:10271000C7FF41EC190B53EC1A2B51EC180B03F0CB
:10272000C1FE53EC1B2B03F0BDFE53EC192B04F040
:102730008FF89DED000B41EC180B53EC1A2B51EC6C
:10274000100B03F0AFFE9FED249B53EC192B03F00D
:10275000A7FF41EC100B51EC180B53EC102B04F0BD
:1027600077F853EC192B03F09BFF41EC100B002D75
:102770003FF7C5AE51EC100B03F0E4FB41EC100B3E
:10278000BDE60000000000000000F03F0000000077
:10279000075C143326A6913C182D4454FB21F93FC5
:1027A0000000F07F0000E03F000000000000F03F6C
:1027B000D8450000E6450000000000000000E03FB2
:1027C0002A450000384500003333EF3F0000000089
:1027D0000000000000000040182D4454FB21E93F98
:1027E00070B59B482DED020B2DED068B079D25F056
:1027F0000044A04218DC9748844202DC0AD10698C3
:1028000040B19DED060BBDEC068B02B0BDE87040FB
:1028100000F0CEBA002DCCBF9FED8F0B9FED900B3B
:10282000BDEC068B02B070BD8F48A04215DD8F480D
:10283000A042D8BF4FF0FF3458DD9DED060B51ECA0
:10284000100BFFF704FE042808BF00F0D5FA9DED39
:10285000060BBDEC068B02B070BD9DED060B51EC76
:10286000100B00F00FFDCDE9060181489FED828B32
:10287000A0423CDD8248A0421FDD00249FED82ABD8
:102880009DED060B53EC1A2B51EC100B03F098FB4B
:102890009DED060B41EC190B53EC1A2B51EC100B70
:1028A00003F000FE53EC182B03F0D2FF53EC192B6E
:1028B00003F03AFCCDE9060149E09DED060B012449
:1028C00053EC182B51EC100B03F07AFB9DED060B2B
:1028D00041EC190B53EC182B51EC100B03F0B8FF23
:1028E00053EC192B03F020FCCDE906012FE06848DA
:1028F000A0421FDD02249FED689B9DED060B53EC6B
:10290000192B51EC100B03F0CDFD53EC182B03F0F9
:1029100057FB9DED060B41EC180B53EC192B51ECBA
:10292000100B03F095FF53EC182B03F0FDFBCDE9E2
:1029300006010CE09DED060B032453EC102B9FEDDC
:10294000580B51EC100B03F0EFFBCDE906019DEDA8
:10295000060B53EC102B51EC100B03F0A3FD41ECD4
:10296000180B53EC182B03F09DFD41EC190B4E484E
:102970000621B0EE490AF0EE690A784400F09CF9AD
:1029800053EC182B51EC100B03F08CFD41EC180BA1
:102990004648B0EE490AF0EE690A0521784400F095
:1029A0008BF953EC192B51EC100B03F07BFD41EC30
:1029B000100B51EC180B53EC102B002C0EDA03F01B
:1029C000FFFA9DED061B53EC112B03F06BFD9DED03
:1029D000061B53EC112B03F063FE35E003F0F0FA15
:1029E0009DED061B53EC112B03F05CFD41EC100B2D
:1029F0002F48784400EBC40090ED001B51EC100B05
:102A000053EC112B03F024FF9DED061B53EC112B0F
:102A100003F01EFF41EC100B2648784400EBC40085
:102A200090ED001B51EC100B53EC112B03F038FE12
:102A300041EC100B002DA2BFBDEC068B02B070BDA7
:102A400051EC100B03F07EFA41EC100B01E7000093
:102A5000000010440000F07F182D4454FB21F93F82
:102A6000182D4454FB21F9BF0000DC3F0000203E3C
:102A70000000F33F00000000000000000000F03FF5
:102A80000000E63F000000000000000000000040E1
:102A90000080034000000000000000000000F83F3C
:102AA000000000000000F0BF7A4200003042000049
:102AB000BA4100007241000070B56F4E2DED040B5D
:102AC0002DED048B82B0DDF824C0DDE907235C42E4
:102AD0002CF000411C4341EAD474069D22F00040D2
:102AE000B44205D86C422C4340EAD474B4420BD9AA
:102AF0009DED081B9DED060B02B0BDEC048B04B0F0
:102B0000BDE8704000F05EB9ACF14054A4F17F64C0
:102B10001C430BD0022404EAAC7444EAD27405438B
:102B20009FED578B9FED582B07D015E09DED060BC1
:102B300051EC100B00F078F942E0002C11BF012C91
:102B40009DED060B02B0BDEC048B04BF04B070BD5C
:102B5000022C38D0032C3BD00B439FED4D1B9FED37
:102B60004E0B0AD0B14218D1B04209D121F08041B8
:102B700020F08040099107900FE0002A15DA10E05C
:102B8000474B7B44002C08BF93ED000B0DD0012C6C
:102B900010D0022C17D0032C1AD0B0421DD1002A1D
:102BA00003DAB0EE410AF0EE610A02B0BDEC048B2C
:102BB00004B070BD93ED000B51EC100B03F0C2F9A3
:102BC00041EC100BF1E7B0EE480AF0EE680AECE7D2
:102BD000B0EE420AF0EE620AE7E7401A00159FEDF8
:102BE000329B3C28C8BF8DED000B17DCBCF1000FF9
:102BF000BCBF10F13C0F8DED009B0FDB9DED080B72
:102C000053EC102B9DED060B51EC100B03F08CFADE
:102C100000F038FB00F008F9CDE90001B4B1012C57
:102C200010D0022C9FED220B53EC102B9DED000BCE
:102C300051EC100B19D003F00BFE53EC182B03F0E2
:102C400007FEBDE7019880F0004001909DED000B6C
:102C500053EC192B51EC100B03F0BEFB04BF022008
:102C6000FDF78EFD9DED000B9FE703F0F1FD53ECAA
:102C7000182B03F015FDA3E70000F07F0000000013
:102C8000182D4454FB210940182D4454FB2109C040
:102C9000182D4454FB21F9BF182D4454FB21F93F52
:102CA000A240000000000000000000000000000042
:102CB000075C143326A6A13C70B504462DED028BAB
:102CC0004D1E00EBC500B0EE408AF0EE608A90ED3C
:102CD000000B35F0060017D053EC182B51EC100BFD
:102CE00003F0E0FB41EC100B6D1E04EBC50090ED12
:102CF000001B51EC100B53EC112B03F061F941EC6C
:102D0000100B35F00600E7D1022D36D0042D1CD073
:102D1000062D1CBFBDEC028B70BD53EC182B51EC83
:102D2000100B03F0BFFB94ED0A1B53EC112B03F0C7
:102D300047F953EC182B03F0B5FB94ED081B53EC4B
:102D4000112B03F03DF941EC100B53EC182B51EC17
:102D5000100B03F0A7FB94ED061B53EC112B03F0B3
:102D60002FF953EC182B03F09DFB94ED040B53EC5F
:102D7000102B03F025F941EC100B53EC182B51EC00
:102D8000100B03F08FFB94ED021B53EC112B03F09F
:102D900017F953EC182B03F085FB94ED001B53EC53
:102DA000112B03F00DF9BDEC028B41EC100B70BD43
:102DB00010B553EC102B51EC100B03F001F941EC62
:102DC000100B10BD10B553EC112B51EC100B03F090
:102DD000F7F841EC100B10BD9FED050B10B553EC4F
:102DE000102B51EC100B03F09FF941EC100B10BDB0
:102DF00000000000000000009FED050B10B553EC33
:102E0000102B51EC100B03F04DFB41EC100B10BDDF
:102E1000000000000000001030380A2801D2012014
:102E2000704700207047704710B541EC100BFFF75A
:102E3000D7FC51EC100B10BD70B5854D06462DED3D
:102E40000A8B9FED84BB9FED85CB686803F000FB88
:102E50009FED841B53EC112B03F024FB9FED831B90
:102E600053EC112B03F0F4FC2C6841EC180BB4F973
:102E7000100003F0EDFA41EC190B53EC182B51EC58
:102E8000180B03F00FFB53EC192B03F00BFB53EC67
:102E90001B2B03F007FB41EC190BB4F90E0003F0F8
:102EA000D7FA53EC182B03F0FDFA9FED721B53EC8D
:102EB000112B03F0F7FA53EC192B03F081F841ECD6
:102EC0001A0BB4F90C0003F0C3FA9FED6C1B53EC22
:102ED000112B03F0E7FA41EC190B9FED6A0B51EC53
:102EE0001A0B53EC102B03F0DDFA53EC192B03F003
:102EF00067F841EC190BB4F9080003F0A9FA53EC98
:102F0000182B03F0CFFA41EC1A0BB4F90A0003F0C6
:102F10009FFA53EC182B03F0C5FA53EC182B03F06F
:102F2000C1FA9FED5A8B53EC182B03F0BBFA53EC0C
:102F30001A2B03F045F853EC182B03F0B3FA41ECCD
:102F40001A0BE08803F09BFA41EC180B53EC1B2B97
:102F500051EC1A0B03F0A6FA9FED4E1B53EC112B0C
:102F600003F02EF853EC182B03F09CFA41EC180BED
:102F700053EC1C2B03F030FA06D1B0EE4C0AF0EE05
:102F80006C0ABDEC0A8B70BD304603F061FA9FED10
:102F9000431B53EC112B03F083FB41EC1A0B9FED09
:102FA000410B51EC190B53EC102B03F07BFA53EC53
:102FB0001A2B03F075FB9FED3D1B53EC112B03F017
:102FC00071FA53EC182B03F0AFF82C6841EC180B96
:102FD000B4F9160003F03CFA53EC182B03F062FA34
:102FE00053EC182B03F05EFA9FED321B53EC112BC0
:102FF00003F058FA41EC190BB4F9140003F028FA65
:1030000053EC182B03F04EFA53EC1B2B03F04AFA47
:1030100041EC1B0BB4F9120003F01AFA41EC1A0B45
:1030200053EC1B2B51EC190B02F0CAFF53EC1A2B7B
:1030300002F0C6FF9FED211B53EC112B03F032FA77
:1030400053EC182B02F0BCFF41EC100B99E7000089
:1030500030000020000000000000003F00000000E1
:1030600000000000000000000000E03F0000000041
:103070000040EF40000000000000004000000000A1
:103080000000F040000000000000D03F0000000001
:103090000000C03E000000000000F03F0000000003
:1030A00000003041000000000000303F0000000040
:1030B000006AB840000000000000003E0000000070
:1030C0000000B03F10B504460420FEF7D3FD0A48C7
:1030D0004FF47A71047014FB01F1012242804FF029
:1030E000E020026942F0020202614161016941F09F
:1030F0000101016110BD0000CC00002070B5044644
:1031000002F078FC01280CD0094D6888844203D372
:10311000B4FBF0F001F082FC6888B4FBF0F100FB36
:1031200011444FF47A706043BDE8704000F002B87B
:10313000CC00002070B54FF0E02500216C69094AF1
:10314000AB6912785043AA699A42FCD002D2A3EB31
:10315000020302E0A4EB0206334419441346814201
:10316000F1D370BDCC00002070B5050005D140F250
:10317000FB4214A118A0FDF7FFF81B4E30688542F2
:1031800001D1002070BD01F003FB6C6901F03CFB34
:10319000F06B844202D0306C844201D1022070BDB9
:1031A0001248844204D1A86A0028F7D1032070BDD8
:1031B0000E481438844202D00CB1012070BD0420A6
:1031C00070BD00002E2E5C4672656552544F535CF4
:1031D0007461736B732E63004572726F723A25735C
:1031E0002C25640D0A000000E8000020D007002014
:1031F000214D224FDFF888904FF4007440F2E738F9
:103200004FF47A6B40F2F31A21462846FDF739FD58
:10321000464641463846FFF70BF831463846FFF739
:1032200005F831463846FEF7FFFF31463846FEF7CF
:10323000F9FF584601F0F2FB564651463846FEF774
:10324000F7FF31463846FEF7F1FF31463846FEF7C4
:10325000EBFF31463846FEF7E5FF01214E46D9F82F
:10326000040001F043FF21462846FDF70CFDF068FD
:1032700001F060FCC8E700000004024000040040C8
:103280000000002082B0CDE9000121F00040019053
:103290009DED000B02B051EC100B704704490A88F9
:1032A0005206FCD5024AC1B2121D118070470000BF
:1032B0000048004010B502F09DFB012803D0BDE896
:1032C000104002F0A5BB0148406810BDCC000020B2
:1032D000D0ED000A90ED041A70EE810AC0ED010AEB
:1032E00090ED051A70EE811A80EEA11A80ED031A96
:1032F000D0ED021A30EE610A41EE001AB7EE000A74
:1033000030EE410AC0ED021A20EE200A80ED000ADC
:10331000704700001CB501210220FEF7F1F94FF4BF
:103320000070009001208DF8040000208DF8060048
:1033300002208DF8050069460148FDF756FC1CBDCA
:10334000000402401CB54FF44070FEF7B9F9A82004
:10335000FFF7B8FEFFF7DEFF104801F08DF8FEF72B
:1033600011FDFEF751FBFDF7EDFEFEF72DF80028ED
:10337000FBD1FDF777FB00F087F809490020002317
:10338000087008310220CDE900014FF4967205A1C2
:10339000074802F003FB01F0C7FDFEE720A107008C
:1033A0000000002053544152545F5441534B0000DD
:1033B00015410008FEB5060A8DF800608DF8010081
:1033C000080A8DF80200100A8DF804008DF8052017
:1033D000DDE90854180A8DF80600280A8DF808005F
:1033E0008DF80950200A8DF80A008DF803108DF829
:1033F00007308DF80B400C226946A12001F092F8AD
:10340000FEBD000000229FED0C0A11E050F82230B2
:1034100083ED030A50F8223083ED020A50F822307F
:1034200083ED0A0A50F82230521CD2B283ED010A11
:103430008A42EBD37047000000000000D0ED000A84
:1034400090ED091A70EEC10A90ED031A00EE801A91
:1034500080ED031A90ED021A70EEC11A81EE801A07
:1034600090ED050AD0ED031A20EE210AD0ED041AE2
:1034700001EEA00AD0ED061A01EE810A80ED0A0ADB
:10348000C0ED020A70470000274830B5B7EE080AC1
:1034900000F1340180ED040A81ED040A00F16802B4
:1034A000B0EE080A82ED040A9FED200A00F19C03A9
:1034B00080ED060A81ED060A82ED060AB1EE040AE5
:1034C00000F1D00583ED040A85ED040A00F582744D
:1034D000B1EE000A84ED040AB3EE0E0A80ED070A8D
:1034E00081ED070ADFED120A82ED070AC0ED0B0A33
:1034F000C1ED0B0AC2ED0B0A83ED070A85ED070A41
:1035000084ED070AC3ED0B0AC5ED0B0AC4ED0B0AE7
:1035100006210848FFF776FF9FED070A84ED090AA8
:1035200084ED000A30BD0000880300209A99993E7E
:103530000000C842B4000020000000002DE9F04166
:10354000184E0F460446F5683068001D01F076F805
:1035500038B9306890F82C100120884031698143D7
:103560003161601C07D137B13168BDE8F0410E48C8
:10357000091D01F001B930682C44AC424460316847
:1035800005D2306CBDE8F041091D01F0DDB8F06BEB
:10359000091D01F0D9F8B06A844200D2B462BDE8D6
:1035A000F0810000E8000020D00700202DE9F04164
:1035B000054601F0EDF82D4EB068401CB060306853
:1035C0002B4F10B1706930B32BE03560B068012823
:1035D00027D1002404EB840007EB800001F0A6F85B
:1035E000641C202CF6D3234801F0A0F821481430A5
:1035F00001F09CF81F48283001F098F81D483C3035
:1036000001F094F81B48503001F090F81948F0632D
:103610001430306405E03068E96AC06A884200D836
:103620003560706A0121401C70626864E86A326922
:1036300081401143316100EB800007EB8000291DC0
:1036400001F09AF801F0E0F8706900280CD03068B9
:10365000E96AC06A884207D207494FF08050086083
:10366000BFF34F8FBFF36F8FBDE8F081E8000020FC
:10367000000500208007002004ED00E010B501F0F7
:1036800087F80E4C2068A0B90D4801F04FF80C489F
:10369000143001F04BF80A48E06014302061002239
:1036A0001021052001F0B0FE206010B105A101F04D
:1036B00081F9BDE8104001F0A7B800002C010020FE
:1036C000E4070020546D72510000000070B5124EE6
:1036D000124D1CE001F074FC306820B1002402F0AF
:1036E00003FBA4B901E00124F9E701F051F8F06807
:1036F000C468201D00F0A2FFA868401EA86068688A
:10370000401E686001F080F8204600F052F86868BA
:103710000028DFD170BD0000BC070020E8000020B9
:1037200030B4026C0B46002A0BD0C1681144C16052
:103730004468A14201D30168C16030BC1846FCF75F
:1037400080BF30BC70472DE9F041856B17460446B9
:103750000026026C82B1C7B1E068FCF772FFE16835
:10376000206C091AE1602268914202D26168081A4D
:10377000E060022F16D017E02068A8B9606802F058
:10378000C1F90646002060600EE0A068FCF759FF12
:10379000216CA0680844A0606168884204D3206856
:1037A000A06001E005B16D1E6D1CA5633046BDE84B
:1037B000F08110B50446006B01F058F82046BDE8D2
:1037C000104001F053B8000010484FF4A0414207E8
:1037D00006D0C01D0D4920F00700411AC1F5A041D7
:1037E0000B4A00230144C2E900030839103A21F0D2
:1037F000070111604B600B600B1AC0E90013936066
:103800004FF000405360D060704700000C0800206B
:103810005C010020074E4FF08054074DFFF756FF24
:1038200030680128FAD92C60BFF34F8FBFF36F8F38
:10383000F4E700000005002004ED00E02DE9F0476A
:10384000DDE909840E461746824691009946089D97
:10385000A522206BFCF73AFF6FF00301206B01EB10
:103860008701084420F00707780705D040F22B3283
:1038700019A11EA0FCF780FD00202218315C82F8FF
:103880003410315C11B1401C1028F6D3002684F8A6
:103890004360202D00D31F25E562C4E91356201D87
:1038A00000F04FFF04F1180000F04BFF2461C5F158
:1038B00020006462A0616665A66584F85C604A4683
:1038C0005146384600F048FB2060B8F1000F01D0A7
:1038D000C8F80040BDE8F0872E2E5C467265655240
:1038E000544F535C7461736B732E63004572726F37
:1038F000723A25732C25640D0A00000030B5114979
:1039000000E011460A688242FBD34B685C1884428F
:1039100003D1406818444860084643681C18944224
:1039200009D1084C103C2468A24209D052681A44BC
:1039300042600A6812680260814200D0086030BDAF
:103940000460F9E75C01002070B5002441600B4D74
:103950000061914206D8D11A8269914206D2011DB6
:10396000286907E09A4203D2994201D3012403E077
:10397000011DE86800F0E8FE204670BD2C01002023
:1039800010B5044600F004FFA06B20B1002400F045
:103990003BFF204610BD0124F9E72DE9F0478146A1
:1039A000086892460C460025F8B1486801F10806FF
:1039B00040684860B04201D140684860D0F80C804F
:1039C000606842686260B24201D1516861606068BB
:1039D00005EBC50109EB8101C76853460122384652
:1039E00001F00EF96D1C4745EAD12846BDE8F08785
:1039F0002DE9F34100980F460026846C2CB940F65F
:103A0000CE1216A11AA0FCF7B7FCA06BE16B88429E
:103A100005D340F6CF1211A115A0FCF7ADFCA06BA9
:103A2000E16B88420CD294F945503A4669462046EB
:103A3000FFF789FE0646681C05D06D1C84F84550CA
:103A40003046BDE8FC81606A0028F9D004F124000A
:103A500002F0B2F80028F3D00126F1E72E2E5C46E2
:103A600072656552544F535C71756575652E6300C0
:103A70004572726F723A25732C25640D0A0000009E
:103A8000F8B5054614480E46C068C068C468201DD5
:103A900000F0D4FDE069012817D1A0692B46411937
:103AA00032462046FFF750FF78B10020034601461A
:103AB00000902A46204602F0FDF930B907494FF43C
:103AC000027201F11800FCF757FC616A01B0204650
:103AD000BDE8F040084700002C010020185E0008F7
:103AE00070B586B02F4E53E00198002806DADDE964
:103AF0000301029A90470198002849DB039C606902
:103B000010B1201D00F09AFD05A800F0A7F80546A9
:103B100001980A283CD2DFE800F00505053B27386C
:103B200005053B270298A169034601442A46204621
:103B3000FFF70AFF00282BD0616A20468847E0691A
:103B4000012825D1002000900298A1690023421885
:103B50001946204602F0AEF9D0B940F2213212A146
:103B600017A0FCF709FC13E00298A06128B94FF4F4
:103B70004E720DA112A0FCF7FFFBA0692B46411964
:103B80001A462046FFF7E0FE02E0204600F06EFEF7
:103B900000231A4601A9306801F072FC0028A3D165
:103BA00006B070BD2C0100202E2E5C467265655259
:103BB000544F535C74696D6572732E63000000008E
:103BC0004572726F723A25732C25640D0A0000004D
:103BD000F8B50D46064601F0F3F9684600F03EF8E8
:103BE0000446009810B102F07FF8F8BD1148ADB15D
:103BF00001690968D9B10025311B2A46006800F027
:103C0000EBFE02F071F80028EFD10B494FF0805025
:103C10000860BFF34F8FBFF36F8FF8BDA642EBD89C
:103C200002F062F821463046FFF72AFFF8BD012571
:103C3000E2E700002C01002004ED00E00648C16B23
:103C4000096829B1C16BC968C96849688162704750
:103C50004FF0FF31FAE70000E800002070B505469C
:103C600001F0D6FE064E0446B068844203D200F04E
:103C700009F8012000E0002028602046B46070BDF3
:103C80002C010020F8B5184E26E0C068C46805680D
:103C9000201D00F0D3FC616A20468847E0690128B6
:103CA0001AD1A0692844A84206D924616060211D68
:103CB000F06800F049FD0FE0002003460146009047
:103CC0002A46204602F0F6F830B9084940F292320E
:103CD00001F11800FCF750FBF06801680029D4D10D
:103CE0003169C6E90310F8BD2C010020185E0008F8
:103CF00008484068401C05D040F20F1206A111A0F0
:103D0000FCF73AFB502080F31188BFF34F8FBFF3CD
:103D10006F8FFEE7400100202E2E5C4672656552D3
:103D2000544F535C706F727461626C655C525644A0
:103D3000535C41524D5F434D34465C706F72742E3C
:103D4000630000004572726F723A25732C25640D72
:103D50000A0000000346002012B1994302D07047C8
:103D60000B42FCD001207047084CE068016839B173
:103D7000002139B10020FFF72BFFFFF7B1FEF4E778
:103D80000121F6E7C0680068F5E700002C0100207B
:103D90002DE9F041044600F0FBFC94F9455004F194
:103DA000240610E0A06C20B100212046FFF720FE81
:103DB00004E0606A48B1304601F0FEFE08B100F050
:103DC000B7FF6D1E6DB2002DECDC4FF0FF3684F8AE
:103DD000456000F019FD00F0DBFC94F9445004F15B
:103DE000100709E0206948B1384601F0E5FE08B146
:103DF00000F09EFF6D1E6DB2002DF3DC84F8446070
:103E0000BDE8F04100F000BD10B50446FCF7D6FB5C
:103E10002046FCF7F7FB202101E02154401C0F282D
:103E2000FBD300212154204410BD00002DE9F041B6
:103E30000546002601F0C4F8324F386808B9FFF78C
:103E4000C3FCF86805424FD1002D4DD008356807F6
:103E50000BD005F00700C0F108000544680704D046
:103E6000BF2229A132A0FCF787FA002D3CD0786848
:103E7000854239D8234910310846046801E02146BB
:103E800004466068A84202D220680028F7D138684A
:103E9000B846844228D00E682068086060680836FA
:103EA000401B10280ED96719780704D0EC2216A100
:103EB0001FA0FCF761FA6068401B786038466560B7
:103EC000FFF71CFD6168D8F804004246401AC8F8A4
:103ED0000400D8F80830984200D29060D8F80C005E
:103EE00001430020C4E9000101F0FEFE700705D087
:103EF0004FF4967204A10EA0FCF73EFA3046BDE8DE
:103F0000F08100004C0100202E2E5C467265655247
:103F1000544F535C706F727461626C655C4D656D7B
:103F20004D616E675C686561705F342E63000000F0
:103F30004572726F723A25732C25640D0A000000D9
:103F40000449086818B10868026D521C02650868C7
:103F500070470000E800002010B5031F4FF0807488
:103F60001C601B1F21F001011960191F044B0B601D
:103F700014390A60091F6FF0020244380A6010BD4C
:103F8000F13C00082DED028B86B00025FFF792F979
:103F90003E4F9FED3F8A3F4E3F4C0590052105A8BF
:103FA00000F072FDFCF7FEFCFDF7F4FAB0EE480AF3
:103FB00038493948FCF76EFE3878C00720D03748BA
:103FC0008088B0F59F7F1BD3B4F90A00D6ED022A92
:103FD00000EE100AB4F9080096ED002AB8EEC01AF7
:103FE00000EE100AB4F90600D6ED011AF8EEC00A88
:103FF00000EE100AB0EE483AB8EEC00A00F002F93E
:10400000002DCBD0B4F90A10B4F90800CDE90001B5
:10401000B4F90630B4F90420B4F90210B4F9000080
:10402000FFF7C8F996ED020AF2EE040AB4F90A3075
:1040300020EE200AD6ED010ABDEEC00A10EE100AED
:104040009FED170A00B260EE800AFDEEE00A10EE66
:10405000901AD6ED000A09B220EE800ACDE90310CD
:10406000BDEEC00A10EE102A12B2CDE90132B4F949
:1040700008000090B4F90630B4F90420B4F9021035
:10408000B4F9000000F07EFA88E70000000000208C
:104090000AD7A33B3C03002030030020620300202A
:1040A0000000C84200B52DED048B83B041EC190B24
:1040B00002F002FB41EC180B18EE100A18EE901AF1
:1040C0008DED008B002818BF0120084320F0004030
:1040D000C0F17F6000F1E040C00F14D019EE101A5B
:1040E00019EE900A8DED009B002918BF01210843AD
:1040F00020F00040C0F17F6000F1E040C00F04BF3D
:104100000120FCF73DFB51EC180B03B0BDEC048B18
:1041100000BD00007CB500F03BFB00F0D9FF1F4C58
:10412000002304F10C0160600620CDE900014FF48A
:1041300080721BA11E4801F031FC04F11001052022
:10414000CDE900014FF4007500232A4619A11D484E
:1041500001F024FC04F118010320CDE90001002343
:104160002A4619A11D4801F019FC04F1140104208C
:10417000CDE9000100232A4619A11B4801F00EFCDD
:1041800001F09CF8014619A0FCF7F6F8A06800F0D1
:10419000D1FCBDE87C4000F037BB000000000020EF
:1041A000657363696E69745F7461736B000000000E
:1041B000F131000873656E736F72735F7461736BB6
:1041C00000000000853F000852756E54696D65530C
:1041D000746174735F7461736B000000651900088B
:1041E00052435F7461736B00F11700084672656596
:1041F00020686561703A2025642062797465730ACD
:10420000000000002DE9F8438F484FF4FA718F4DFC
:1042100080884FF4F979A0F59C7048434FF4C86149
:1042200090FBF1F000F2F31083B240F2F314B3F517
:104230000C7F7DD98648874ED0ED003A06F13407D1
:1042400006F1680820EE230A06F19C0202F134010F
:1042500086ED090A20EEA30A01F1340087ED090A70
:1042600021EE230A88ED090AC2ED091A81ED092A17
:10427000C0ED092AB0EE430A3438FFF7DFF891EDBC
:104280000A0A304686ED000AB0EE430AFFF7D6F878
:10429000B0EE430A06F19C00FFF7D0F892ED0A0A4F
:1042A000384687ED000AB0EE430AFFF7C7F8B0EED4
:1042B000430A06F582714046FCF779FC40F2513022
:1042C000834200D9034696ED0A0AD7ED0A0A18B2CE
:1042D000414630EE600AD8ED0A0A70EE600A00EE40
:1042E000100AB8EEC00A30EE800ABDEEC00A10EE29
:1042F000102A2A8096ED0A0AD7ED0A0AB1EE400A82
:1043000030EE600AD8ED0A0A70EE200A00EE100ABC
:10431000B8EEC00A30EE800ABDEEC00A10EE102AD8
:104320006A8097ED0A0AD6ED0A0A30EE600A00E0CC
:1043300024E0D1ED0A0A70EE600A00EE100AB8EE31
:10434000C00A30EE800ABDEEC00A10EE102AAA8024
:1043500096ED0A0AD7ED0A0A30EE200AD1ED0A0AD4
:1043600070EE200A00EE100AB8EEC00A30EE800AA5
:10437000BDEEC00A10EE100AE88006E04B4500D8FA
:104380002346EB80AB806B802B80B5F900104F4645
:1043900040F2B536B94201DC214602E0B14200DD0F
:1043A0003146DFF8B4804046FDF73CFFB5F9021016
:1043B000B94201DC214602E0B14200DD314640460F
:1043C000FDF732FFB5F90410B94201DC214602E0E5
:1043D000B14200DD31464046FDF728FFB5F9061031
:1043E000B94201DC214602E0B14200DD31464046DF
:1043F000FDF71EFFB5F90600B84201DC204602E0D9
:10440000B04200DD30460090B5F90430BB4201DC1B
:10441000234602E0B34200DD3346B5F90220BA423A
:1044200001DC224602E0B24200DD3246B5F900006E
:10443000B84203DD3446A04200DC0446214607A012
:10444000FBF79AFFBDE8F88362030020AC00002070
:10445000206B00088803002000040040312D2D252A
:10446000640A322D2D25640A332D2D25640A342D3E
:104470002D25640A00000000F0B5074687B0012131
:104480000220FDF73DF901218804FDF745F9234E8F
:1044900007220A213046FCF7E4FB07220B213046B5
:1044A000FCF7DFFB4FF44060049002208DF814000D
:1044B0008DF8150000248DF8164001258DF8175051
:1044C00004A93046FCF791FBADF808400C20144ECF
:1044D000ADF80440ADF80A000097ADF80640ADF81D
:1044E0000C4069463046FDF757FF01213046FDF785
:1044F0000BFF012240F225513046FDF735FF272002
:104500008DF818000F208DF819008DF81A408DF8DD
:104510001B5006A8FDF7A2F807B0F0BD000402404A
:104520000048004070B588B01C2A29D80DEB020362
:104530000024DC7088248DF800408DF801006D4661
:104540008DF80220002004E00C5C2E18401CF47052
:10455000C0B29042F8D30020D41C05E02E5CD9787C
:10456000401C3144D970C0B2A042F7D30024161DBC
:1045700004E0285D00F050F8641CE4B2B442F8D3C3
:1045800008B070BD2DE9F04788B010ACDDE913C765
:1045900094E80007002425466E463555641CE4B2B5
:1045A0001C2CFAD3040A8DF800408DF80100080A8B
:1045B0008DF80200100A8DF804008DF80520180A05
:1045C0008DF806004FEA18208DF808008DF8098054
:1045D0004FEA19208DF80A004FEA1A208DF81200D0
:1045E0008DF803104FEA1C208DF814008DF815C0CB
:1045F000380A8DF816008DF807308DF80B908DF87D
:1046000013A08DF817701C223146AF20FFF78AFFE8
:1046100008B0BDE8F087000070B5074C05464021A2
:104620002046FDF77BFE0028F9D029462046BDE84C
:104630007040FDF707BF000000480040D0E901329C
:1046400001699A60D0E901235A604A68824201D127
:1046500082684A60002202610868401E0860704754
:104660002DE9F04717460A4606460024202500F0AB
:10467000A7FCDFF89080D8F8080082423CD3DFF82E
:1046800088906D1E05EB850104EBC40009EB8101E8
:1046900006EB80000122FFF780F90444002DF0D1E1
:1046A00004EBC40006EB800002224546D8F83C101B
:1046B000FFF773F9044404EBC40006EB8000022208
:1046C000296CFFF76AF9044404EBC40006EB800090
:1046D00004220E49FFF761F904440C4904EBC400BD
:1046E00006EB800003221431FFF757F904441FB191
:1046F000074801684068396001F0F6FA2046BDE8D5
:10470000F0870000E800002000050020BC07002022
:10471000A0000020044908680A688069D26A096814
:10472000C2F120028A617047E800002000F1080110
:104730004FF0FF32C0E90112C16001610021016048
:10474000704700210161704730B50C68621C02D0CF
:1047500000F1080202E0026904E01A4653681D688D
:10476000A542FAD953684B6099608A60516008612C
:104770000168491C016030BD42684A6093688B60E3
:1047800093685960916008610168491C0160704735
:10479000502080F31188BFF34F8FBFF36F8F09490B
:1047A0004868401C486001280AD10748006810F09A
:1047B000FF0F05D040F2B91204A10FA0FBF7DCBD3A
:1047C000704700004001002004ED00E02E2E5C4602
:1047D00072656552544F535C706F727461626C65A0
:1047E0005C525644535C41524D5F434D34465C70BD
:1047F0006F72742E630000004572726F723A2573F7
:104800002C25640D0A00000010B5084C606828B91A
:104810004FF4E07206A111A0FBF7AEFD6068401EE8
:10482000606001D180F3118810BD000040010020BC
:104830002E2E5C4672656552544F535C706F7274D5
:1048400061626C655C525644535C41524D5F434D0E
:1048500034465C706F72742E630000004572726F94
:10486000723A25732C25640D0A00000070B50028EB
:104870002AD0164DA0F108046068E968084205D105
:104880004FF4A07212A11CA0FBF776FD206828B19E
:1048900040F241120EA118A0FBF76EFD6068E968B6
:1048A000084211D02268002A0ED18843606000F0CF
:1048B00087FB60686968084468602046FFF71EF857
:1048C000BDE8704001F010BA70BD00004C0100203E
:1048D0002E2E5C4672656552544F535C706F727435
:1048E00061626C655C4D656D4D616E675C686561AC
:1048F000705F342E630000004572726F723A257348
:104900002C25640D0A00000006484FF47A710068F7
:10491000B0FBF1F14FF0E020491E41610721016138
:10492000704700001C00002010B5FBF7FFFC104C86
:1049300010280CD300F1E02090F8F0032178884291
:1049400005D24FF440720BA115A0FBF715FD1848D6
:104950000068A16800F4E060884207D9BDE8104013
:104960004FF4447203A10EA0FBF706BD10BD00007A
:10497000400100202E2E5C4672656552544F535CF8
:10498000706F727461626C655C525644535C415244
:104990004D5F434D34465C706F72742E63000000AF
:1049A0004572726F723A25732C25640D0A0000005F
:1049B0000CED00E010B5074B002253F832401CB15B
:1049C000521C082AF9D310BD43F8321003EBC20180
:1049D000486010BDC004002070B515460E46044660
:1049E000FFF7D6FE94F944100020491C01D184F849
:1049F000440094F94510491C01D184F84500FFF7A3
:104A000003FFA06B28B92A46314604F1240000F0C8
:104A1000BFF92046BDE87040FFF7BAB910B50400F1
:104A200012D00E49096B29B140F2CF420CA111A05E
:104A3000FBF7A2FC00F0C4FA00212046FEF77EFD41
:104A400001F052F9002807D10E494FF0805008605C
:104A5000BFF34F8FBFF36F8F10BD0000E800002041
:104A60002E2E5C4672656552544F535C7461736BB5
:104A7000732E63004572726F723A25732C25640D94
:104A80000A00000004ED00E02DE9F0410E460500AB
:104A90004FF0000405D140F279421BA11FA0FBF7A3
:104AA0006BFC2EB940F27A4217A11CA0FBF764FC04
:104AB0001E4F386B28B140F27B4213A117A0FBF7C1
:104AC0005BFC00F07DFAFA6828688119904202D9EF
:104AD000884202D804E0884201D8914200D90124DA
:104AE00029601CB1881A0021FEF728FD01F0FCF8AE
:104AF000002807D10E494FF080500860BFF34F8F58
:104B0000BFF36F8FBDE8F0812E2E5C467265655253
:104B1000544F535C7461736B732E63004572726FF4
:104B2000723A25732C25640D0A000000E80000206D
:104B300004ED00E070B50446FFF72AFE234D04B9EA
:104B40002C68201DFFF77AFD58B9E06A204A00EB77
:104B5000800152F8211021B9012181402869884340
:104B60002861A06A18B104F11800FFF767FD686AB0
:104B7000401C68622868844207D1211D1548FFF750
:104B8000FBFD6868401C686007E0A868401EA860DC
:104B90002046FEF70EFEFFF751F8FFF735FE686975
:104BA000002812D0286884420FD1286B28B140F227
:104BB000654209A10DA0FBF7DFFB10494FF08050C3
:104BC0000860BFF34F8FBFF36F8F70BDE800002008
:104BD00000050020BC0700202E2E5C467265655241
:104BE000544F535C7461736B732E63004572726F24
:104BF000723A25732C25640D0A00000004ED00E0D4
:104C00002DE9F0411E4690460C4607000ED00546A1
:104C100005F13400C4E90050E86A2061286BE061C6
:104C2000686CA060207B032803D00AE01348056865
:104C3000EEE700F0C5F9A86A08B10220207301F080
:104C400053F8E86C6061686DA061052E01D0267391
:104C500003E03846FEF788FA2073B8F1000F0BD056
:104C60000021286B01E0401C491C0278A52AFAD0DB
:104C700088082084BDE8F0810020FAE7E8000020E1
:104C8000FEB50025064605702248816801918068BE
:104C900000EBC0008000FFF7C9F8040038D002AA7A
:104CA0000199FFF7DDFC019002986421B0FBF1F05F
:104CB000029050B32846009524E000EBC00004EBBE
:104CC0008000029A8169B1FBF2F541683046FFF736
:104CD0009BF80646009800EBC00004EB8000826958
:104CE0002DB12B460CA13046FBF752FB03E00DA182
:104CF0003046FBF74DFB3046FBF784FC064400983A
:104D0000401C009001998842D7D32046FFF7AEFDA2
:104D1000FEBD0000E800002009257509092575255C
:104D2000250D0A0009257509093C3125250D0A00C4
:104D300001490120C8617047E800002070B50D46A8
:104D4000040005D140F6063207A10CA0FBF714FBC6
:104D50000E48016820461831FFF7F6FC2846BDE8EA
:104D600070400121FEF7EABB2E2E5C46726565524B
:104D7000544F535C7461736B732E63004572726F92
:104D8000723A25732C25640D0A000000E80000200B
:104D900070B514460E46050005D140F6313209A122
:104DA0000DA0FBF7E9FA1048016828461831FFF713
:104DB000E3FC0CB14FF0FF3621463046BDE87040B1
:104DC000FEF7BCBB2E2E5C4672656552544F535C99
:104DD0007461736B732E63004572726F723A257340
:104DE0002C25640D0A000000E80000202DE9F041A8
:104DF00017460E46050005D140F617320DA112A048
:104E0000FBF7BAFA144C206B28B940F61B3209A103
:104E10000DA0FBF7B1FA216846F0004088612168D7
:104E200028461831FFF7A8FC3846BDE8F0410121BB
:104E3000FEF784BB2E2E5C4672656552544F535C60
:104E40007461736B732E63004572726F723A2573CF
:104E50002C25640D0A000000E800002070B5040055
:104E600039D01D4DE06A2968C96A884233D2A069E9
:104E7000002804DB2868C06AC0F12000A061E06A55
:104E8000164E00EB8000616906EB800081421FD165
:104E9000201DFFF7D3FB012150B9E06A00EB80022F
:104EA00056F8222022B92A6901FA00F082432A61C9
:104EB0002868C06AE0622A6981401143296100EBD9
:104EC000800006EB8000211DBDE87040FFF754BC58
:104ED0002868C06AE06270BDE8000020000500207C
:104EE00010B5040005D140F6C13205A109A0FBF7B9
:104EF00043FA0C48016A2160C068606010BD000080
:104F00002E2E5C4672656552544F535C7461736B10
:104F1000732E63004572726F723A25732C25640DEF
:104F20000A000000E80000201CB518480024CDE964
:104F300000402346822216A1174800F02FFD0128C9
:104F400003D100F07DFF01280AD0401C1DD102B022
:104F500040F28472BDE8104010A115A0FBF70CBA16
:104F6000502080F31188BFF34F8FBFF36F8F074836
:104F70004FF0FF312C38816201214161C460FBF7A1
:104F800029FEBDE81C4000F09FB91CBD14010020A3
:104F900049444C4500000000153800082E2E5C46A0
:104FA00072656552544F535C7461736B732E63006A
:104FB0004572726F723A25732C25640D0A00000049
:104FC0000248016B491C016370470000E8000020A3
:104FD00070B51A4C206B10B10120E06170BD00204B
:104FE000E061174908684968A063626B904204D980
:104FF0002168821A4B6D1A444A6560632069114E1C
:10500000B0FA80F0C0F11F0000EB800556F82500D3
:1050100028B940F6F6220CA110A0FBF7ADF906EB7B
:10502000850000F10802416849684160914201D160
:1050300049684160C868206070BD0000E800002039
:10504000A0000020000500202E2E5C4672656552EF
:10505000544F535C7461736B732E63004572726FAF
:10506000723A25732C25640D0A00000070B50E46B7
:10507000040005D140F2DF120AA111A0FBF77CF970
:10508000300E05D04FF4F07206A10DA0FBF774F9B5
:10509000FFF77EFB256825EA06002060FFF7B4FBDA
:1050A000284670BD2E2E5C4672656552544F535C87
:1050B0006576656E745F67726F7570732E6300003E
:1050C0004572726F723A25732C25640D0A00000038
:1050D00010B51C20FEF7AAFE040004D000202060BA
:1050E000201DFFF723FB204610BD00002DE9F041F5
:1050F00000258846040005D140F21D221CA123A0F2
:10510000FBF73AF95FEA186005D040F21E2218A1B9
:105110001EA0FBF731F9261D04F10C07FFF750FF25
:105120002168F06841EA0801216017E0D0E9001623
:1051300001F07F425301236821F07F4102D40B42EA
:1051400003D10AE031EA030307D1D20100D50D43B0
:10515000216841F0007100F07BFD3046B842E5D196
:105160002068A843206000F0BFFD2068BDE8F08102
:105170002E2E5C4672656552544F535C6576656EA3
:10518000745F67726F7570732E6300004572726F83
:10519000723A25732C25640D0A0000002DE9F047B2
:1051A000089F9A4691460D4604004FF0000605D12F
:1051B00040F24D1235A13CA0FBF7DEF8280E05D0D9
:1051C0004FF4A77231A138A0FBF7D6F82DB940F201
:1051D0004F122EA134A0FBF7CFF800F00BFC30B932
:1051E0002FB14FF4A97229A12FA0FBF7C5F8FFF743
:1051F000E7FED4F80080524629464046FEF7AAFD55
:1052000040B100274646B9F1000F15D02068A843E9
:10521000206011E0AFB1B9F1000F01D04FF08076FE
:10522000BAF1000F01D046F0806645EA06013A4621
:10523000201DFFF7DBFD002600F056FD1FB310B167
:1052400009E04646F8E71C494FF080500860BFF37C
:105250004F8FBFF36F8FFFF75DFA0646800110D4C2
:10526000FFF796FA2668524629463046FEF772FD49
:1052700028B1B9F1000F02D02068A8432060FFF7E1
:10528000C3FA26F07F463046BDE8F0872E2E5C46F6
:1052900072656552544F535C6576656E745F6772D4
:1052A0006F7570732E6300004572726F723A2573CA
:1052B0002C25640D0A00000004ED00E00148406860
:1052C000704700004C0100201CB5304C206830496C
:1052D000884205D140F259122EA139A0FBF74CF8B3
:1052E00020682B49491E884205D14FF4AD7229A18F
:1052F00033A0FBF741F8364C20780190FF20207056
:1053000020788DF800009DF800009DF8001000F056
:10531000F000884205D040F273121EA128A0FBF7CE
:105320002BF89DF800002B4A00F050001070072069
:10533000906007E09068401E90609DF8000040007B
:105340008DF800009DF800000006F3D4107A0002EA
:1053500000F4E0609060019820700C4820300168F3
:1053600041F470010160016841F070410160FFF794
:10537000CBFA00205060FAF7A1FF1748016841F00E
:1053800040410160FAF78AFF00201CBD00ED00E0FB
:1053900071C20F412E2E5C4672656552544F535CAC
:1053A000706F727461626C655C525644535C41521A
:1053B0004D5F434D34465C706F72742E6300000085
:1053C0004572726F723A25732C25640D0A00000035
:1053D00000E400E04001002034EF00E010B5502070
:1053E00080F31188BFF34F8FBFF36F8F00F016FB70
:1053F00018B104494FF080500860002080F31188F4
:1054000010BD000004ED00E02DE9F04117460E4606
:10541000050005D14FF4C47210A115A0FAF7ACFF36
:10542000BEB105FB06F05430FEF700FD04000ED0BF
:1054300004F154007EB12060C4E90F5620460121DA
:1054400000F0E0F884F8507000212046A164BDE827
:10545000F0810020E7E72460EEE700002E2E5C4696
:1054600072656552544F535C71756575652E6300A6
:105470004572726F723A25732C25640D0A00000084
:105480002DE9FF4F83B09B468A4604004FF000068B
:1054900005D140F2DC4251A155A0FAF76DFFBAF1F7
:1054A000000F07D1206C28B140F2DD424BA150A083
:1054B000FAF762FF00F09EFA38B9059828B14FF468
:1054C0009C6246A14AA0FAF757FF4FF000094FF03F
:1054D0008057DFF82C81FFF75BF9A56B45B3514688
:1054E0002046E668FEF71CF9BBF1000F13D0E6601A
:1054F000606A50B104F1240000F05EFB28B1C8F8E6
:105500000070BFF34F8FBFF36F8FFFF77DF901205E
:1055100007B0BDE8F08F6D1EA563206810B9FEF7D7
:105520000FFD606020690028EFD004F11000E3E770
:10553000059808B11EB106E0FFF766F927E0684656
:10554000FFF7CEFC0126FFF75FF9FFF739FDFFF704
:105550001FF994F94400401C01D184F8449094F957
:105560004500401C01D184F84590FFF74DF905A98D
:10557000684600F0CFF9002820460AD0FEF708FC64
:1055800000F0B2FB2046FEF7FBF90028A3D0002074
:10559000BEE7FEF7F5F9D8B1206830B9FFF7F8F8A3
:1055A0006068FFF75BFCFFF72FF904F12400059911
:1055B000FFF7C4FB2046FEF7EBFB00F095FB00284D
:1055C00089D1C8F80070BFF34F8FBFF36F8F82E7A8
:1055D0002046FEF7DDFB00F087FB7CE72E2E5C46C5
:1055E00072656552544F535C71756575652E630025
:1055F0004572726F723A25732C25640D0A00000003
:1056000004ED00E070B50D46040005D140F21B1218
:105610001CA121A0FAF7B0FEFFF7BAF8D4E90F20D9
:10562000216802FB001161600021A1632168A16073
:105630000A46D4E90F01401E00FB0121E16021462A
:105640004FF0FF3001F8440F487004F110004DB1E5
:10565000FFF76CF804F12400FFF768F8FFF7D4F8BF
:10566000012070BD21690029F8D000F0A5FA0028BA
:10567000F4D00D494FF080500860BFF34F8FBFF357
:105680006F8FEBE72E2E5C4672656552544F535C6C
:1056900071756575652E63004572726F723A257378
:1056A0002C25640D0A00000004ED00E02DE9FF4FF9
:1056B00083B099468B4604004FF0000605D140F2B6
:1056C000D92252A156A0FAF757FEBBF1000F07D11D
:1056D000206C28B140F2DA224CA151A0FAF74CFE1E
:1056E000B9F1020F08D1E06B012805D040F2DB22AE
:1056F00046A14BA0FAF740FE00F07CF938B90598B6
:1057000028B140F2DE2241A145A0FAF735FE4FF064
:10571000000A4FF08057DFF81881FFF739F8A06BC7
:10572000E16B884206D3B9F1020F03D0059800B3AC
:1057300016B325E04A4659462046FEF704F8A16C08
:1057400021B149462046FEF753F905E0616A19B1D7
:1057500004F1240000F030FA28B1C8F80070BFF35B
:105760004F8FBFF36F8FFFF74FF8012007B0BDE8F1
:10577000F08FFFF749F821E06846FFF7B1FB0126FB
:10578000FFF742F8FFF71CFCFFF702F894F944001A
:10579000401C01D184F844A094F94500401C01D17B
:1057A00084F845A0FFF730F805A9684600F0B2F884
:1057B00030B12046FEF7ECFA00F096FA0020D5E76B
:1057C000FEF7E6FFA06BE16B884201D1012500E006
:1057D0000025FFF719F895B104F110000599FFF7BE
:1057E000ADFA2046FEF7D4FA00F07EFA002894D1F4
:1057F000C8F80070BFF34F8FBFF36F8F8DE720465F
:10580000FEF7C6FA00F070FA87E700002E2E5C461D
:1058100072656552544F535C71756575652E6300F2
:105820004572726F723A25732C25640D0A000000D0
:1058300004ED00E02DE9F04798461546894604003E
:1058400005D140F29F322AA12EA0FAF795FDB9F1B9
:10585000000F07D1206C28B14FF4687224A129A051
:10586000FAF78AFDB8F1020F08D1E06B012805D0E4
:1058700040F2A1321EA123A0FAF77EFDFFF754F8F3
:105880005020EFF3118780F31188BFF34F8FBFF3E0
:105890006F8FA06BE16B884207D3B8F1020F04D081
:1058A000002087F31188BDE8F08794F945604246EF
:1058B00049462046FDF747FF701C04D0761C84F84B
:1058C00045600120EDE7A06C012620B1414620464D
:1058D000FEF78EF806E0606A0028F2D004F124009A
:1058E00000F06AF90028ECD0002DEAD02E60E8E73D
:1058F0002E2E5C4672656552544F535C717565750A
:10590000652E63004572726F723A25732C25640D03
:105910000A00000070B50D46040005D140F6CB32F8
:1059200014A119A0FAF728FD2DB940F6CC3211A127
:1059300015A0FAF721FDFEF72BFF174AD06829685A
:105940004B1C0FD02368126A934202D062688242D5
:105950000AD96268801A884206D2081A286020464E
:10596000FFF7BEFA002400E00124FEF74DFF2046B9
:1059700070BD00002E2E5C4672656552544F535C1C
:105980007461736B732E63004572726F723A257384
:105990002C25640D0A000000E80000202DE9FF5FBF
:1059A0008346DDE90E87994616468A469000FEF743
:1059B0003DFA05001AD06020FEF738FA040012D034
:1059C00025630021CDE90241CDE900874B463246EF
:1059D00051465846FDF732FF2046FDF7E7FD01200E
:1059E00004B0BDE8F09F2846FEF740FF4FF0FF30BF
:1059F000F6E700000548416919B1006B18B10020B5
:105A0000704701207047022070470000E800002026
:105A10000148C06870470000E80000202DE9F0410F
:105A20002D4F0026386B40B1B869401CB861F86949
:105A300000B101263046BDE8F081FD686D1CFD60B7
:105A400011D1F86B006828B140F6D91223A128A023
:105A5000FAF792FCF86B396CF9633864386A401CC9
:105A60003862FEF7EBF8B86ADFF89480854209D314
:105A7000F86B006880B1F86BC068C46860688542E4
:105A80000DD2B8623868C06A00EB800158F8210076
:105A90000128CCD90126CAE74FF0FF30F1E7201DDD
:105AA000FEF7CCFDA06A18B104F11800FEF7C6FDA0
:105AB000E06A01213A6981401143396100EB8001BC
:105AC00008EB8100211DFEF757FEE06A3968C96ABC
:105AD0008842CDD30126CBE7E80000202E2E5C467D
