:020000040800F2
:10000000C05A0020050300082B200008491B0008E7
:1000100029200008A51A0008D528000800000000C3
:100020000000000000000000000000004D02000879
:10003000A71A000800000000A102000861220008C1
:100040001F0300081F0300081F0300081F03000808
:100050001F0300081F0300081F0300081F030008F8
:100060001F0300081F0300081F0300081F030008E8
:100070001F0300081F0300081F0300081F030008D8
:100080001F0300081F0300081F0300081F030008C8
:100090001F0300081F0300081F0300081F030008B8
:1000A0001F0300081F0300081F0300081F030008A8
:1000B0001F0300081F0300081F0300081F03000898
:1000C0001F0300081F0300081F0300081F03000888
:1000D0001F0300081F0300081F0300081F03000878
:1000E0001F0300081F0300081F0300081F03000868
:1000F0001F0300081F0300081F0300081F03000858
:100100001F0300081F0300081F0300081F03000847
:100110001F0300081F0300081F0300081F03000837
:100120001F0300081F0300081F0300081F03000827
:100130001F0300081F0300081F0300081F03000817
:100140001F0300081F0300081F0300081F03000807
:100150001F0300081F0300081F0300081F030008F7
:100160001F0300081F0300081F0300081F030008E7
:100170001F0300081F0300081F0300081F030008D7
:100180001F0300081F03000800F002F800F04FF8FA
:100190000AA090E8000C82448344AAF10107DA45E2
:1001A00001D100F044F8AFF2090EBAE80F0013F0E5
:1001B000010F18BFFB1A43F001031847F890000025
:1001C00018910000103A24BF78C878C1FAD85207B5
:1001D00024BF30C830C144BF04680C6070470000C1
:1001E0000023002400250026103A28BF78C1FBD840
:1001F000520728BF30C148BF0B607047662908F01E
:100200004081642900F0FA80732900F061850020A4
:1002100070471FB508F02BF900F0C4FD0400002062
:10022000002107F0FDFAE0601FBD10B510BD00F021
:10023000E9FE1146FFF7EDFF04F0AAFA00F007FF10
:1002400003B4FFF7F2FF03BC03F031F82A4B19683F
:100250000868B0E8F04F80F30988BFF36F8F4FF064
:10026000000080F311887047000000000648006815
:10027000006880F3088862B661B6BFF34F8FBFF3A2
:100280006F8F00DF00BF00BF08ED00E0DFF80C005B
:10029000016841F470010160704700BF88ED00E023
:1002A000EFF30980BFF36F8F134B1A681EF0100F26
:1002B00008BF20ED108A20E9F04F106008B44FF01D
:1002C000500080F31188BFF34F8FBFF36F8F06F09C
:1002D00071FC4FF0000080F3118808BC19680868B1
:1002E000B0E8F04F1EF0100F08BFB0EC108A80F39A
:1002F0000988BFF36F8F704778000020EFF3058007
:10030000704700000948804709480047FEE7FEE7BC
:10031000FEE7FEE7FEE7FEE7FEE7FEE7FEE7FEE7B5
:1003200004480549054A064B70470000752200083D
:1003300089010008C0540020C05A0020C056002087
:10034000C0560020704710B54C1084EA530404D501
:100350004042C1F1000138BF491E1B4204D5524240
:10036000C3F1000338BF5B1E00F09DF914F0804F0D
:1003700004D04042C1F1000138BF491E14F0004FC3
:1003800004D05242C3F1000338BF5B1E10BD000011
:100390000FB4044910B503AA029800F09DFC10BCEC
:1003A0005DF814FB6400002070B50C460546012A78
:1003B00005D02878800600D5EA69002302E00123F1
:1003C00005E05B1C934202D2E05C0028F9D1A869E9
:1003D000E618C01AA861286A184428622846AFF3B4
:1003E000008004E0D5E9012114F8010B9047B442E4
:1003F000F8D32846AFF3008070BD00002DE9F0412E
:100400000646002410687529314616A510D0AFF3B2
:100410000080002802DA404213A507E031688A070D
:1004200001D512A502E0490704D511A5012401E078
:10043000AFF3008000210A2206F1240709E0B0FB97
:10044000F2FCB0FBF2F302FB1C003030785418468B
:10045000491C0028F3D123462A463046BDE8F04126
:1004600000F0A3B9000000002D0000002B000000E8
:10047000200000002DE9F05F894604464FF0000A95
:10048000DFF824B1FB44C0F820A02046E16888478B
:1004900000287DD0252806D0D4E901219047206A84
:1004A000401C2062F1E700255F462046E16888474E
:1004B0002028064607DB312E05D2B81910F8200C8B
:1004C00008B10543F1E7A80701D525F00405C4F8F4
:1004D0001CA00027C4F818A02A2E09D0304602F02C
:1004E000DFFE38B304EB8708303EC8F8186019E027
:1004F00059F8041B204604EB87029161E1688847A4
:10050000012F064618D1E069002820DA25F02005E1
:100510001DE0D8F8180000EB800006EB40003038F2
:10052000C8F818002046E1688847064602F0B8FE81
:100530000028EED1012F0AD02E2E08D12046E168E6
:1005400088477F1C0646022F45F02005C4DBA069C2
:10055000002803DA404245F00105A061E80701D018
:1005600025F01005A6B1A6F14100192802D82036C1
:1005700045F400654A463146204625604D46FFF762
:100580003DFE60B1012807D0ED1D25F0070000E019
:1005900007E000F1080978E705F1040975E730463E
:1005A0007AE7206ABDE8F09F468C000040EA01032C
:1005B00010B59B070FD1042A0DD310C808C9121F0C
:1005C0009C42F8D020BA19BA884201D9012010BD46
:1005D0004FF0FF3010BD1AB1D30703D0521C07E013
:1005E000002010BD10F8013B11F8014B1B1B07D177
:1005F00010F8013B11F8014B1B1B01D1921EF1D1E8
:10060000184610BD032A40F2308010F0030C00F0B1
:10061000158011F8013BBCF1020F624498BF11F83C
:1006200001CB00F8013B38BF11F8013BA2F10402F5
:1006300098BF00F801CB38BF00F8013B11F003036D
:1006400000F05C83083AC0F0088051F8043B083A97
:1006500051F804CBA0E80810F5E7121D5CBF51F873
:10066000043B40F8043BAFF30080D20724BF11F8ED
:10067000013B11F801CB48BF11F8012B24BF00F852
:10068000013B00F801CB48BF00F8012B704702F096
:10069000FF0343EA032242EA024200F063BB7047D1
:1006A00070477047704753EA020C00F069802DE9EB
:1006B000F04B4FF00006002B1FBFB3FA83F503FA8F
:1006C00005F424FA05F65E4012BF1643B2FA82F52D
:1006D00002FA05F4C5F120051EBF22FA05FC44EA22
:1006E0000C04203556EA044C4FEA144418BF641C2D
:1006F0004FF000084FF00009904271EB030C39D322
:10070000002919BFB1FA81F701FA07F6B0FA80F7AC
:1007100000FA07F6C7F120071EBF20FA07FC46EAD9
:100720000C062037B6FBF4FCA7EB0507103F07F0DB
:100730001F0BCBF120060CFA0BFB2CFA06F644BF7C
:10074000B3460026202FA4BF5E464FF0000B5BEAA5
:10075000060C08BF4FF0010B19EB0B09ABFB027C39
:1007600048EB0608C01B06FB02CC0BFB03CC71EB6D
:100770000C01C1E70B46024641464846BDE8F08BF6
:1007800013B54FF000004FF00001AFF30080BDE85B
:100790001C40704710B500F009FB006810BD10B593
:1007A000044600F003FB046010BD2DE9F0470D4640
:1007B00099469246044600F124080168880604D54B
:1007C000E06921F01001216000E00120A84201DD74
:1007D000471B00E00027A1697A1902EB0900081AFB
:1007E000A0612078C00602D42046AFF30080002626
:1007F00008E0D4E901211AF806009047206A401C5D
:10080000761C20624E45F4DB2078C0060AD52046CF
:10081000AFF3008006E0D4E9012130209047206A40
:10082000401C2062381EA7F10107F4DC07E0D4E980
:10083000012118F805009047206A401C2062281EFC
:10084000A5F10105F3DC2046AFF300802078000617
:1008500002D50220BDE8F0870120FBE770472DE9B3
:10086000FF4F0C461E464FF0FF378BB0D2E9000118
:10087000DDF860800A908A46C1F30A5505B93D4605
:10088000002108464FF00000BAF1000F00F44000CC
:1008900005DA00EB80004FF4400101EA50004FEA16
:1008A0009059B9F1010F00DDB9460A9850EA4A00A3
:1008B0000ED044F61050A5F2FF3545432F14B8F181
:1008C000000F1ED07542291E1EDDC9F100021CE07A
:1008D000B8F1010F4FF0000001D0302103E0F243E6
:1008E00005E02154401CB042FBDB304600220021D1
:1008F00021540B99C1F80880C1E900200FB0BDE870
:10090000F08FBD1B6D1CDEE74A4600DA694206A87F
:1009100000F0D6FA06AB93E8070003AB83E80700C4
:1009200050460A9900F0DCFB8DE80700A0F5005066
:100930001F3800900398002D0ADD42F21F014A463D
:100940000844002303A90390684600F045FE09E02F
:10095000A0F500504A461F38002303A903906846BB
:1009600000F04FFE8DE807000004000C03D04FF0AC
:10097000FF30410800E01046B8F1000F03D000221C
:10098000009215461EE0751E05D400F013FA3032B1
:1009900062556D1EF9D5B3460122084302D00022EC
:1009A0007F1C04E02078302801D100227F1E002A1D
:1009B000099784D01DE0112D07DA00F0FBF93032E1
:1009C00062556D1C50EA0102F5D1084302D000982F
:1009D000C8B10EE00021681E05E0235C625C635430
:1009E0002254401E491C8142F7DBAB46A81B401E27
:1009F0000990002004F80B000B98099AC0F80880B1
:100A0000C0E9002B7AE711264FF0000857E72DE9DF
:100A1000F04F88460446D21D22F0070191B0D1E97B
:100A20000001CDE90A0101F056FF02460B98C00F04
:100A300001D02D2007E02068810701D52B2002E09E
:100A4000202101EAC000032A099001D0072A05DB12
:100A500003464146204600F0F3F90BE1207880067A
:100A600001D5E06900E00620B8F1650F814606D0A7
:100A7000B8F1660F18D0B8F1670F70D131E00020DF
:100A8000B9F1110F009001DB112301E009F101031D
:100A90000AAA01A90CA8FFF7E2FEDDE90C70002606
:100AA00009F10105834647E001204B4600904FF0D5
:100AB00000470AAA01A90CA8FFF7D1FEDDE90DB095
:100AC0000C995D46002610B909F101000D18B9EB2B
:100AD000050003D4C0F1FF3609F10105A5EB0900BB
:100AE0002BE0B9F1010F01DA4FF001090020B9F153
:100AF000110F0090484601DD112300E003460AAAC9
:100B000001A90CA8FFF7ABFEDDE90C704D460026ED
:100B10008346207800070AD4AB4500DA5D4601A879
:100B2000012D04DD411911F8011C302907D04F4572
:100B300002DA17F1040F04DA012082460FE06D1E7D
:100B4000EEE7002F02DCED1B3E4403E0781CA842D8
:100B500000DD7D1CB81B00F1010A4FF00047207832
:100B6000000703D4AA4501DB4FF0FF3A0021B7F19B
:100B7000004F0DF143088DF8431024D002202B23A1
:100B8000002F01DA7F422D230A21021EA0F101006D
:100B900000DC5FB197FBF1FC97FBF1F201FB1C7CE1
:100BA00017460CF1300C08F801CDEEE7A8F1010072
:100BB00003702188090501D5452100E06521A0F1D8
:100BC000010800F8011C09980FA9A1EB0807FF1DF7
:100BD00000B10120411901EBEA70A1693844081AFB
:100BE000401EA0612078C00602D42046AFF30080EA
:100BF000099828B1D4E901219047206A401C20625D
:100C00002078C00622D52046AFF300801EE0002EDB
:100C100004DBB34502DD01A8805D00E03020D4E9AB
:100C200001219047206A401C2062761CAAF1010035
:100C30005FEA000A0AD100F0B5F8C0680168405CBC
:100C4000D4E901219047206A401C2062281EA5F1AA
:100C50000105DCDC07E0D4E9012118F8010B90471D
:100C6000206A401C2062381EA7F10107F3DC2046F1
:100C7000AFF30080032011B041E6000001694A1C77
:100C800002610878704700B58FB0CDE901310021CD
:100C9000059105497944CDE9031011466846FFF7EF
:100CA000E9FB0FB000BD0000E5FFFFFF10B5436991
:100CB00013B1AFF3008001E0FFF776FB012010BD18
:100CC000127800F124010A7000224A700122EDE737
:100CD00011684FF0FF32E9E7074B70B50D467B44D2
:100CE000FFF7D1FF0446284600F05CF910B14FF041
:100CF000FF3070BD204670BD5F35000010B5203A52
:100D0000C0F00B80B1E81850203AA0E81850B1E8C4
:100D10001850A0E81850BFF4F5AF5FEA027C24BF7A
:100D2000B1E81850A0E8185044BF18C918C0BDE871
:100D300010405FEA827C24BF51F8043B40F8043B3A
:100D400008BF7047D20728BF31F8023B48BF11F8EF
:100D5000012B28BF20F8023B48BF00F8012B704749
:100D60004FF000020429C0F0128010F0030C00F0D4
:100D70001F81CCF1040CBCF1020F18BF00F8012B4D
:100D8000A8BF20F8022BA1EB0C0100F011B95FEA1B
:100D9000C17C24BF00F8012B00F8012B48BF00F8EC
:100DA000012B70470048704780540020004870476E
:100DB0006054002030B5B0F10A024FEA900E71F194
:100DC00000034EEA817EB0EB0E0061EB91014FEA29
:100DD000101E4EEA017E10EB0E0041EB11114FEA9E
:100DE000102E4EEA016E10EB0E0041EB11214FEA7E
:100DF000104E4EEA014E10EB0E0041EB114140182F
:100E000041F100014FEAD00040EA41704FEAD101C0
:100E100010EB80054FEA810444EA907444EB01042E
:100E20006D1944EB0404521BA3414FF0000348BF6B
:100E30000A3200D530BD401C41F1000130BD000038
:100E40002DE9F0411F46044603260168072A01F4F4
:100E5000006004DB08B116A505E016A503E008B1A3
:100E600015A500E015A521F010002060A069C01EA6
:100E7000A0610FB1401EA0612046AFF300804FB1CA
:100E8000D4E9012138469047206A401C2062C01CEA
:100E9000206206E0206AFAE7D4E9012115F8010B87
:100EA0009047761EF8D22046AFF30080BDE8F0816F
:100EB0004E414E006E616E00494E4600696E6600FE
:100EC0002DE9F047814616468AB0354878440DC86A
:100ED0008DE80D0032487844801C03AC0DC884E8CE
:100EE0000D0041F69B300844372190FBF1F290FB56
:100EF000F1F5A5F1800501FB12041B3C02D564420B
:100F0000012000E00020DFF898A080460027FA4486
:100F1000AAF1BE0A0EE0E0070AD03246684607EBA7
:100F2000470101230AEB810100F06BFB8DE807000C
:100F300064107F1C002CEED1194F7F44AE3F19E0A6
:100F4000E80715D007EB04100DF1180A90E80E0021
:100F50008AE80E00C068F04201D198190890324624
:100F6000012306A903A800F04CFB03AB83E80700AC
:100F70006D10641C002DE3D14FF001033246694629
:100F8000B8F1000F03A802D000F026FB01E000F04A
:100F900038FBC9E90001C9F808200AB0BDE8F087AC
:100FA0007C830000007B00F0800070474FF000025F
:100FB00000B5134694469646203922BFA0E80C504F
:100FC000A0E80C50B1F12001BFF4F7AF090728BF2A
:100FD000A0E80C5048BF0CC05DF804EB890028BFA6
:100FE00040F8042B08BF704748BF20F8022B11F0CF
:100FF000804F18BF00F8012B704700000048704771
:10100000605400207546FFF7F9FFAE4605006946BB
:10101000534620F00700854618B020B5FFF780F949
:10102000BDE820404FF000064FF000074FF00008E9
:101030004FF0000B21F00701AC46ACE8C009ACE86A
:10104000C009ACE8C009ACE8C0098D46704710B5CE
:101050000446AFF300802046BDE81040FFF7F0B82B
:101060004FF0013C50F8042B51F8043B9A4221D137
:10107000A2EB0C03934313EACC1317D150F8042BC3
:1010800051F8043B9A4215D1A2EB0C03934313EAA7
:10109000CC130BD150F8042B51F8043B9A4209D1E0
:1010A000A2EB0C03934313EACC13DBD04FF0000008
:1010B000704700BFD01A01BAB1FA81F101F01801EE
:1010C00022FA01F0CB40C1F12001DBB2C0B2C01A5C
:1010D0002CFA01F3D11A914311EAC311E6D17047FA
:1010E0005FEA400C08BF91F0000F4FEA8C234FEAF3
:1010F000C12243EA51514FEA1C5018BF00F5F0409D
:101100004FEA300018BF41F000415FEA6C5C00F02C
:101110002980BCF1FF3F08BF40F080407047130CAE
:1011200006BF12044FF0100C4FF0000C130E04BF5A
:1011300012020CF1080C130F04BF12010CF1040C85
:10114000930F04BF92000CF1020CD30F04BF5200A6
:101150000CF1010C11464FF00002A0F11F00A0EBB2
:101160000C00704711F0004F08BF704731F000418C
:101170003FF4D5AF0B0C06BF09044FF0100C4FF035
:10118000000C0B0E04BF09020CF1080C0B0F04BF7E
:1011900009010CF1040C8B0F04BF89000CF1020C47
:1011A000CB0F04BF49000CF1010CCCF12003A0EBE4
:1011B0000C0022FA03F302FA0CF241EA030100F1F7
:1011C0000100704720F07F4C80EA030023F07F4746
:1011D000ACEB070303F57C5300F0004003F1FF0381
:1011E0002DE980494FEA154B09B44FEA144325EA2B
:1011F0000B4E24EA03480FF2042606EB1327490896
:101200003E785FEA320203FB0667C7F5000707FB7B
:1012100006F64FEA54374FEAD64606F1020607FBB8
:10122000066CCCF1005C4FEA1C472CEA074C07FB2C
:1012300006F40CFB06F504EB15464FEA961634BF90
:1012400000204FF000404FEAD13706FB07FC4FEA81
:101250001C4C0CFB0BF7D21B03FB0CF761EB0701DB
:101260000CFB0EF7B0EB074072EB17420CFB08F7D4
:1012700034BFA2EB0742B2EB074261EB17414FEAE2
:101280000C444FEA910706FB07FC4FEA1C4C0CFB91
:101290000BF7B0EBC74072EB573203FB0CF734BFD0
:1012A000A2EBC742B2EBC74261EB57310CFB0EF722
:1012B000B0EBC70072EB57720CFB08F734BFA2EB20
:1012C000C702B2EBC70261EB5771039F4FEA81611E
:1012D00041EA921104EBCC044FEAD1374FEA826223
:1012E00006FB07FC42EA90124FEA80604FEA1C4C72
:1012F0000CFB0BF7D21B03FB0CF761EB07010CFB9C
:101300000EF7B0EB074072EB17420CFB08F734BF47
:10131000A2EB0742B2EB074261EB17414FEA8C5553
:101320004FEA910704EB9C2406FB07FC4FEA1C4C98
:101330000CFB0BF7B0EBC74072EB573203FB0CF71B
:1013400034BFA2EBC742B2EBC74261EB57310CFB93
:101350000EF7B0EBC70072EB57720CFB08F734BF07
:10136000A2EBC702B2EBC70261EB577115EB4C253C
:101370004FEA816141EA92114FEA82624FEAD13726
:1013800042EA901206FB07FC44F100044FEA806039
:101390004FEA1C4C0CFB0BF7D21B03FB0CF761EB69
:1013A00007010CFB0EF7B0EB074072EB17420CFB8A
:1013B00008F734BFA2EB0742B2EB074261EB1741DB
:1013C00015EB1C154FEA813141EA92414FEA823216
:1013D00042EA90424FEA80304FEA0C7644F1000432
:1013E00048EA03434EEA0B484FF0000EB2EB080CFC
:1013F00071EB030724BF624639464EEB0E0E4FF0E9
:10140000000B0018524149414BEB0B0BB2EB080C9F
:1014100071EB03077BF1000B24BF624639464EEBAC
:101420000E0E4FF0000B0018524149414BEB0B0BD5
:10143000B2EB080C71EB03077BF1000B24BF624693
:1014400039464EEB0E0E51EA020718BF46F0010670
:1014500016EB0E7655F1000254F1000103D5BDE8FC
:101460008901BDE80088BDE88901BDE80048B619DA
:10147000524141EB0101A3F10103704780807F7E5F
:101480007D7C7B7A797877767675747372717170FA
:101490006F6E6E6D6C6C6B6A6A69686867666665AC
:1014A0006464636362616160605F5F5E5E5D5D5C3A
:1014B0005C5B5B5A5A5959585857575656555555AB
:1014C0005454535352525251515050504F4F4F4E0B
:1014D0004E4D4D4D4C4C4C4B4B4B4A4A4A49494959
:1014E000484848474747474646464545454444449B
:1014F000444343434342424242414141002B9C46C4
:1015000030D477002BD01CB54FEA370703B44FF027
:1015100010004FF01001BAF1000F06D0BCF1000F1F
:10152000DCBF40F0080040F008014FF000000FBCA5
:10153000BDE810400BF1010BBBF1010F08BF5FEAE2
:10154000170722BF12F1010211F101014FF0004112
:1015500043F1000300F0004043EA00007047F9D374
:101560005708D0E746EA064613F1400F4FEA164601
:101570001FDD13F1200FDFBF16430A460021203381
:101580005B42BED0C3F1200746EA064602FA07F7DF
:101590004FEA164646EA0706C3F1200722FA03F28D
:1015A00001FA07F721FA03F14FF0000342EA0702BC
:1015B000A7E746EA020646EA06464FEA164646EA24
:1015C0000106BCBF46EA0646360C4FF000034FF05A
:1015D00000024FF0000194E72DE9804C9A469346B3
:1015E00070B491E8380007C831EA400C48BF34EACB
:1015F000430C03D5FFF7E6FDFFF780FFF0BCBDE825
:10160000008C2DE9804C9A46934670B491E83800DE
:1016100007C810F0804F08BF13F0804F03D100F0CF
:1016200005F8FFF76BFFF0BCBDE8008C20F07F47AA
:1016300080EA030023F07F4C07EB0C03A3F57C53F7
:1016400000F00040A3F1FE0392F0000F00F0B38021
:1016500095F0000F00F077802DE901494FEA114025
:101660004FEA144621EA004800FB06FC24EA06473C
:1016700008FB06F607FB08F800FB07F718EB06481F
:101680004CEB164C4FEA124B18EB07484FEA154645
:101690004CEB174022EA0B4E0BFB06FC25EA0647F3
:1016A0000EFB06F607FB0EFE0BFB07F71EEB064EC6
:1016B0004CEB164C4FF000061EEB074E4CEB174B55
:1016C00018EB0B0840F1000018EB0E0B58EB00086C
:1016D00040F100008F1A4FF000013CBFC943661B68
:1016E00014BFB5EB040C00213CBFC943F61B4FEA05
:1016F00017444EEA8E0E27EA04454FEA1C4704FBC6
:1017000007622CEA074C05FB07F70CFB05F604FB08
:101710000CFC16EB074642EB174216EB0C4642EB6D
:101720001C421BEB060658EB0202414146EA9E06AC
:1017300001D5BDE80189B619524141EB0101A3F180
:101740000103BDE801894FEA14454FEA114724EA35
:10175000054621EA074C05FB07F406FB07F70CFBDF
:1017600006F105FB0CFC11EB074144EB17444FEA73
:10177000124711EB0C4144EB1C4422EA074C05FBD9
:1017800007F206FB07F70CFB06F605FB0CFC16EB55
:10179000074642EB174216EB0C4642EB1C456A1813
:1017A00054F1000148BF7047B619524141EB0101A5
:1017B000A3F10103704795F0000F37D04FEA1142B3
:1017C0004FEA144721EA024624EA074C02FB07F1DC
:1017D00006FB07F70CFB06F402FB0CFC14EB0744BA
:1017E00041EB17414FEA154714EB0C4441EB1C4108
:1017F00025EA074C02FB07F506FB07F70CFB06F68C
:1018000002FB0CFC16EB074645EB174516EB0C46A6
:1018100045EB1C42121951F1000148BF7047B6193F
:10182000524141EB0101A3F1010370474FEA144516
:101830004FEA114724EA054621EA074C05FB07F168
:1018400006FB07F70CFB06F24FF0000605FB0CFC4D
:1018500012EB074241EB174112EB0C4251EB1C41DA
:1018600048BF7047921841EB0101A3F10103704793
:1018700070B5F92000F026F80446F82000F022F8B0
:101880000546F72000F01EF8000340EA051040EA84
:101890001410BDE8704001F05BBD70B5FC2000F095
:1018A00011F80446FB2000F00DF80546FA2000F080
:1018B00009F8000340EA051040EA1410BDE8704042
:1018C00001F08CBE10B5044600F004FAEC2000F0E4
:1018D000D1F900F041FA204600F0CCF900F03CFAD2
:1018E00000F0F8F9ED2000F0C5F900F035FA00201D
:1018F00000F08CF9044600F00DFA204610BD017886
:1019000042784901807841EA82010143C9B2F52059
:1019100000F00BB8417802784901807841EA8201F1
:101920000143C9B2F420AFF3008070B50D46044600
:1019300000F0D0F9EC2000F09DF900F00DFA2046FF
:1019400000F098F900F008FA284600F093F900F04A
:1019500003FABDE8704000F0DDB900007CB58820D6
:10196000FFF7B0FF04468920FFF7ACFF04EB00202F
:101970004B4C216808808A20FFF7A4FF05468B2086
:10198000FFF7A0FF216805EB002048808C20FFF7BF
:1019900099FF05468D20FFF795FF216805EB002094
:1019A00088808E20FFF78EFF05468F20FFF78AFF85
:1019B000216805EB0020C8809020FFF783FF0546D3
:1019C0009120FFF77FFF216805EB0020088192201E
:1019D000FFF778FF05469320FFF774FF216805EBBA
:1019E000002048819420FFF76DFF05469520FFF702
:1019F00069FF216805EB002088819620FFF762FFD0
:101A000005469720FFF75EFF216805EB0020C8819F
:101A10009820FFF757FF05469920FFF753FF2168ED
:101A200005EB002008829A20FFF74CFF05469B201B
:101A3000FFF748FF216805EB002048829C20FFF754
:101A400041FF05469D20FFF73DFF216805EB002083
:101A500088829E20FFF736FF05469F20FFF732FF62
:101A6000216805EB0020C882B621E020FFF75DFF6A
:101A700003208DF8000001218DF801108DF802007F
:101A80006846FFF747FF00208DF8040004218DF819
:101A900005108DF8060001A8FFF731FF7CBD00009E
:101AA00020000020FEE77047F0B5002201274FF02C
:101AB000030C0B6807FA02F52B40AB422CD10668E9
:101AC00053000CFA03F4A64306600E79D0F800E048
:101AD0009E4046EA0E0606600E79012E01D0022EC7
:101AE00012D18668A64386604E79D0F808E09E4001
:101AF00046EA0E0686604668AE43466045688E79C3
:101B00009640B6B235434560C568A543C560CC79FB
:101B10009C40C3681C43C460521C102AC9D3F0BD4A
:101B20004B07DB0E9A40C90810B500EB8100016A33
:101B30000F249C40A1430162016A1143016210BD60
:101B40004183704701837047FEE7000070B50D4C7C
:101B50000025C4F898520C48016821F44041016006
:101B6000016841F480410160C4F89C52022004F5F0
:101B7000267401F019FE01202060022001F014FEFD
:101B8000256070BD00804042000402401CB5012168
:101B9000022000F087FAC020012400908DF8044054
:101BA00000208DF8060003208DF805008DF8074011
:101BB00069460448FFF778FF0348C0F89842C0F828
:101BC0009C421CBD000402400080404270B50D4C98
:101BD0000026C4F898620C48016821F44041016075
:101BE000016841F4804101600125C4F89C52022043
:101BF00004F5267401F0D8FD2560022001F0D4FD23
:101C0000266070BD00804042000402402DE9F0478C
:101C1000814616480024016821F4404101600168B2
:101C20000160134E254627464FF00108C6F898720A
:101C3000022001F0B9FDC6F898826006040ED6F8BD
:101C40001C0208B1641CE4B2012001F0ADFD6D1C62
:101C5000EDB2082DEAD3B9F1000F04D0FFF776FFFB
:101C60002046BDE8F087FFF7B1FFF9E70004024026
:101C7000008040422DE9F04105461448016821F4F6
:101C800040410160016841F480410160104E00272D
:101C9000C6F898723C464FF00108E809C6F89C0265
:101CA0006806050E022001F07FFDC6F8988202202A
:101CB00001F07AFDC6F89872022001F075FD641CEF
:101CC000E4B2082CE9D3BDE8F08100000004024032
:101CD0000080404270B50D48016821F44041016028
:101CE000016841F480410160094C0120C4F89C0264
:101CF000C4F89802042004F5267401F055FD00256F
:101D00006560042001F050FD256070BD00040240B4
:101D1000008040420E4810B5016821F44041016046
:101D2000016841F4804101600A4C0020C4F8980227
:101D3000C4F89C02042004F5267401F035FD01204E
:101D400020606060BDE81040042001F02DBD00005F
:101D5000000402400080404270B51248002401682F
:101D600021F440410160016801600F4D0126C5F872
:101D70009C62304601F018FDC5F89862012001F020
:101D800013FD07E0641CE4B2FA2C03D9FFF7C2FF8D
:101D9000012070BDD5F81C020028F3D1C5F89802C7
:101DA00070BD000000040240008040427CB5144633
:101DB0000D4606466B4606223B21682000F07FF860
:101DC00000280BD1BDF8001049BA3180BDF80210CF
:101DD00049BA2980BDF8041049BA21807CBD7CB580
:101DE00014460D4606466B4606224321682000F045
:101DF00066F800280BD1BDF8001049BA3180BDF853
:101E0000021049BA2980BDF8041049BA21807CBD6E
:101E100010B580216B2000F0C0F8642001F0A8FC10
:101E200000216B2000F0B9F8032000F082F80020B8
:101E300000F07AF84FF4FA7000F098F8002138209A
:101E400000F0ABF800216A2000F0A7F80021232061
:101E500000F0A3F88021372000F09FF8752000F0F3
:101E600011F8682801D0012010BD01216B2000F07D
:101E700094F800216C2000F090F8322000F076F801
:101E8000002010BD10B50446FFF724FFD020FFF757
:101E9000F1FEFFF761FF2046FFF7ECFEFFF75CFF66
:101EA000FFF718FFD120FFF7E5FEFFF755FF0020F1
:101EB000FFF7ACFE0446FFF72DFF204610BD2DE9CD
:101EC000F0411C4615460F460646FFF703FF700615
:101ED000000EFFF7CFFEFFF73FFF20B1FFF71AFF1D
:101EE0000120BDE8F0813846FFF7C4FEFFF734FF5C
:101EF000FFF7F0FE012000EB4600C0B2FFF7BAFE8C
:101F0000FFF72AFF08E0012D0CD00120FFF77EFE2D
:101F10006D1E04F8010BEDB2002DF4D1FFF7FAFEAF
:101F20000020DEE70020F1E7C006010E1C2000F0D3
:101F300034B8C006010E1B2000F02FB8BC2801D316
:101F4000012110E0622801D302210CE02A2801D3EC
:101F5000032108E0142801D3042104E00A2801D356
:101F6000052100E006211A2000F017B810B504463C
:101F70004FF47A70844201D9044602E0042C00D266
:101F80000424B0FBF4F0401EC1B2192000F005F8A3
:101F90006008BDE81040FFF7D1BF70B50C4605469C
:101FA000FFF798FED020FFF765FEFFF7D5FE50B98A
:101FB0002846FFF75FFEFFF7CFFE2046FFF75AFEE9
:101FC000FFF7CAFE18B1FFF7A5FE012070BDFFF7AD
:101FD000A1FE002070BD2DE9F0411D4616460C46BD
:101FE0000746FFF777FE7806000EFFF743FEFFF780
:101FF000B3FE60B92046FFF73DFEFFF7ADFE0024BB
:102000000CE0285DFFF736FEFFF7A6FE20B1FFF7D4
:1020100081FE0120BDE8F081641CE4B2B442F0D33B
:10202000FFF778FE0020F5E7FEE7704730B50F2395
:10203000C27801780125FAB1144A126801F1E02151
:1020400002F4E062C2F5E062C2F30722C2F10404C6
:10205000D3404278A24084781C401443220181F886
:102060000024007800F01F018D404009800000F13D
:10207000E020C0F8005130BD01F01F008540480944
:10208000800000F1E020C0F8805130BD0CED00E090
:102090000249084302490860704700000000FA0541
:1020A0000CED00E0044A0029116801D0014300E072
:1020B000814311607047000030380240044A002913
:1020C000116801D0014300E08143116070470000B6
:1020D00040380240044A0029116801D0014300E061
:1020E000814311607047000020380240044A0029F3
:1020F000116801D0014300E0814311607047000086
:102100002438024070B5204B1968204C11F00C01A6
:1021100004D06610042903D0082903D004601BE012
:10212000066019E0184A121F1168C1F38055116842
:1021300001F03F0115B1B6FBF1F101E0B4FBF1F1A3
:1021400014681268C4F388146143C2F30142521C3C
:102150005200B1FBF2F1016019680F2202EA11117D
:102160000B4A545C0168E14041601C68072505EAA0
:102170009424145D21FA04F484601B6805EA533347
:10218000D25CD140C16070BD083802400024F40028
:10219000680000200CB500222749009201920868CF
:1021A00040F4803008604FF4A043086800F4003029
:1021B00001900098401C0090019810B90098984236
:1021C000F3D10868800334D5012001901A484030CB
:1021D000026842F0805202601848026842F44042AD
:1021E00002601548083002680260026842F400424A
:1021F0000260026842F4A0520260031F104A1A6093
:102200000A6842F080720A600A689201FCD50D49A2
:1022100040F205720A60016821F003010160016863
:1022200041F0020101600168C1F381010229FAD184
:102230000CBD01920CBD000000380240007000404F
:1022400008544007003C02404FF0E0210428086990
:1022500003D020F004000861704740F00400FAE762
:1022600010B505F081F8012803D0BDE8104004F056
:102270006FBD10BD124810B5016841F470010160D6
:102280001048016841F0010101600E4A0021083246
:10229000116002680C4B1A400260031D0B4A1A6061
:1022A000026822F48022026006480C300160FFF7C9
:1022B00071FF03494FF000608039086010BD0000D5
:1022C00088ED00E000380240FFFFF6FE10300024E9
:1022D000F0B58BB001210420FFF7E4FE01210220BC
:1022E000FFF7ECFE374E304600F084F8364F0222FE
:1022F00006213846FFF714FC022207213846FFF773
:102300000FFC022208213846FFF70AFC02220921AD
:102310003846FFF705FC4FF47070089002208DF8E6
:1023200024008DF8250000248DF8264001258DF825
:10233000275008A93846FFF7B7FB42F20F70069006
:10234000A720ADF81400ADF81C40ADF816408DF88C
:102350001E4005A9304600F0FBF96020ADF80000F2
:102360002802ADF81000ADF802500294ADF80C4010
:102370006946304600F0E6F86946304600F018F944
:102380006946304600F05EF96946304600F09EF935
:102390000821304600F006F90821304600F048F9DF
:1023A0000821304600F08CF90821304600F0BEF9D3
:1023B0000121304600F00AF80121304600F010F803
:1023C0000BB0F0BD00040040000802400029018865
:1023D00002D041F0800101E021F0800101807047CE
:1023E0000029018802D041F0010101E021F0010142
:1023F00001807047464910B5884206D10121084640
:10240000FFF774FE002101205BE0B0F1804F09D09E
:10241000404988420DD101210220FFF75BFE0021D7
:10242000022070E001210846FFF754FE0021012040
:1024300069E03949884206D101210420FFF74AFEAC
:10244000002104205FE03549884206D1012108209F
:10245000FFF740FE0021082055E03149884206D1AF
:1024600001211020FFF736FE002110204BE02D49FE
:10247000884206D101212020FFF72CFE00212020D8
:1024800041E02949884206D101210220FFF72EFEB2
:102490000021022015E02549884202D101210C04C7
:1024A0000AE02349884202D101214C0404E0214979
:1024B00088420AD101218C042046FFF717FE002133
:1024C0002046BDE81040FFF711BE1B49884206D1E7
:1024D00001214020FFF7FEFD0021402013E01749B5
:1024E000884206D101218020FFF7F4FD00218020E1
:1024F00009E0134988420AD1841501212046FFF7DB
:10250000E9FD00212046BDE81040FFF7E3BD10BD06
:10251000000001400004004000080040000C0040A2
:102520000010004000140040000401400040014041
:10253000004401400048014000180040001C0040D9
:102540000020004030B5028C22F001020284028C8F
:102550008388048B22F0020224F073050C882C433C
:102560008D8915434A882A430C4DA84202D00C4D50
:10257000A8420DD122F00805CA8923F440732A43EA
:1025800022F004058A882A430D8A1D434B8A2B4377
:102590008380048389684163028430BD0000014068
:1025A00000040140028B22F008020A4302837047B4
:1025B00070B5028C22F010020284028C8388048B96
:1025C0000D8824F4E6464FF6FF7404EA05253543EA
:1025D0008E8922F0200204EA061616434A8804EA8D
:1025E00002123243104EB04202D0104EB04215D10A
:1025F00022F08006CA8923F4406304EA02123243BF
:1026000022F040068A8804EA021232430E8A04EA63
:1026100086061E434B8A04EA830333438380058383
:1026200089688163028470BD00000140000401409C
:10263000028B4FF6FF7322F4006203EA012111437B
:102640000183704770B5028C22F480720284028C80
:102650008388848B0D8824F0730425438E894FF67C
:10266000FF7422F4007204EA062616434A8804EA3C
:1026700002223243104EB04202D0104EB04215D169
:1026800022F40066CA8923F4405304EA022232434A
:1026900022F480668A8804EA022232430E8A04EA1F
:1026A00006161E434B8A04EA031333438380858353
:1026B0008968C163028470BD0000014000040140CC
:1026C000828B22F008020A438283704770B5028C25
:1026D00022F480520284058C8288838B0C8823F438
:1026E000E6464FF6FF7303EA0424344325F400560C
:1026F0008D8903EA053535434E8803EA06362E43B5
:10270000084DA84202D0084DA84205D122F48045C8
:102710000A8A03EA82122A438280848389680164D8
:10272000068470BD0000014000040140828B4FF61A
:10273000FF7322F4006203EA012111438183704791
:102740004163704781637047C1637047016470479C
:1027500030B50288164C174DA0420DD0A8420BD0C0
:10276000B0F1804F08D0144B984205D0134B9842DB
:1027700002D0134B984203D122F070034A881A43C7
:10278000104B984206D0104B984203D022F440736D
:102790000A891A4302804A68C2620A880285A042F6
:1027A00001D0A84201D1897A01860121818230BD00
:1027B0000000014000040140000400400008004007
:1027C000000C0040001000400014004000298189E6
:1027D00002D041F4005101E021F4005181817047A1
:1027E0000246002012880A4200D00120704710B52E
:1027F000C1F3421301F01F040121A140012B07D0B6
:10280000022B07D01430002A026805D00A4304E0E6
:102810000C30F8E71030F6E78A43026010BD000084
:102820007FB50446008A0D46C98820F44050014314
:102830002182A08941F20C618843A9882A89114329
:102840006A8902431143A181A08A20F44071A889BA
:102850000843A0826846FFF755FC1A48844202D01C
:102860001948844201D1039800E00298A189090423
:1028700000EBC00101EB0010296801D5490000E020
:102880008900B0FBF1F06422B0FBF2F109010B0901
:102890006FF018056B4300EB8300A3891D044FF014
:1028A000320306D503EBC000B0FBF2F000F00700E6
:1028B00005E003EB0010B0FBF2F000F00F0008435E
:1028C00020817FBD0010014000140140C1F30801C8
:1028D00081807047FEE703B401984100009850EAF8
:1028E000C12018BF04204A0D18BF40F0010040F27B
:1028F000FF72B2EB515F08BF40F00200012808BF31
:10290000052002B07047000070B5C1482DED020BE4
:102910002DED0E8B82B0119D25F000449FEDBEDBA6
:102920009FEDBFEB84423EDBA4F140511098A1F132
:102930007F6108430FD0BC48844202DC28D1109844
:1029400030B39DED100B02B0BDEC0E8B02B0BDE8B4
:10295000704000F071BC9DED100B53EC1D2B51EC41
:10296000100B05F053FA9DED100B41EC180B53ECD6
:102970001E2B51EC100B05F049FA53EC182B04F008
:10298000A3FF41EC100B02B0BDEC0E8B02B070BD8A
:102990000120FDF704FF02B0BDEC0E8B02B0BDE8D4
:1029A000704000F05DBCA1489FEDA18B844256DAD7
:1029B0009DED100BB4F1795F0ADA51EC100BFFF7C3
:1029C0008AFF042808BF00F05BFC9DED100BDAE7DE
:1029D00053EC102B51EC100B05F018FA41EC190BCD
:1029E00095480621B0EE490AF0EE690A784400F0F5
:1029F000A7FB53EC192B51EC100B05F007FA41EC37
:102A00001A0B8E48B0EE490AF0EE690A04217844A8
:102A100000F096FB53EC192B51EC100B05F0F6F976
:102A200053EC182B04F050FF41EC100B51EC1A0B37
:102A300053EC102B04F0FCFFCDE900019DED000BE1
:102A400053EC102B9DED100B51EC100B05F0DEF943
:102A50009DED101B53EC112B04F036FFD2E09DEDE1
:102A6000100B51EC100B01F0DFFB53EC182B05F0B1
:102A7000CBFA9FED730BCDE9000153EC102B9DEDCC
:102A8000000B51EC100B05F0C1F941EC190B6E482D
:102A90000621B0EE490AF0EE690A784400F050FBD6
:102AA00053EC192B51EC100B05F0B0F941EC1B0B5A
:102AB0006648B0EE490AF0EE690A0421784400F055
:102AC0003FFB53EC192B51EC100B05F09FF953EC25
:102AD000182B04F0F9FE41EC1C0B51EC190B03F020
:102AE000C7FB41EC180B5A489FED5BABA04222DCC0
:102AF00053EC1C2B51EC1B0B04F09AFFCDE90001A9
:102B00009DED000B51EC180B53EC102B05F07EF9EA
:102B100053EC182B04F0D8FE53EC1A2B05F076F981
:102B200053EC1D2B05F048FB53EC1E2B05F06CFA03
:102B300041EC100B5FE08DED008B002000909DEDCF
:102B4000000B51EC180B53EC102B04F0BDFE9DED67
:102B5000000B41EC1E0B53EC102B51EC100B05F04D
:102B600055F953EC192B05F04FFA53EC1E2B04F0DA
:102B70005FFF41EC190B53EC1C2B51EC1B0B04F0C9
:102B800057FF41EC1B0B53EC1A2B51EC190B05F0C2
:102B90003DF953EC1D2B05F037FA41EC190B53ECC2
:102BA0001A2B51EC180B05F031F953EC1B2B05F0E7
:102BB0002DF953EC192B05F0FFFA9DED000B41ECBC
:102BC000180B53EC1A2B51EC100B05F01FF99FED6D
:102BD000249B53EC192B05F017FA41EC100B51EC28
:102BE000180B53EC102B05F0E7FA53EC192B05F0FA
:102BF0000BFA41EC100B002D3FF7C5AE51EC100B5A
:102C000004F024FE41EC100BBDE6000000000000C3
:102C10000000F03F00000000075C143326A6913C42
:102C2000182D4454FB21F93F0000F07F0000E03FE5
:102C3000000000000000F03FF0660000FE660000AB
:102C4000000000000000E03F426600005066000007
:102C50003333EF3F000000000000000000000040A0
:102C6000182D4454FB21E93F70B59B482DED020B14
:102C70002DED068B079D25F00044A04218DC9748F7
:102C8000844202DC0AD1069840B19DED060BBDECF2
:102C9000068B02B0BDE8704000F0CEBA002DCCBF6C
:102CA0009FED8F0B9FED900BBDEC068B02B070BDBE
:102CB0008F48A04215DD8F48A042D8BF4FF0FF34A7
:102CC00058DD9DED060B51EC100BFFF704FE0428B8
:102CD00008BF00F0D5FA9DED060BBDEC068B02B0E7
:102CE00070BD9DED060B51EC100B01F09DFACDE986
:102CF000060181489FED828BA0423CDD8248A042C4
:102D00001FDD00249FED82AB9DED060B53EC1A2BCB
:102D100051EC100B04F0D8FD9DED060B41EC190BA6
:102D200053EC1A2B51EC100B05F070F853EC182BE8
:102D300005F042FA53EC192B04F07AFECDE90601B6
:102D400049E09DED060B012453EC182B51EC100BC0
:102D500004F0BAFD9DED060B41EC190B53EC182B5A
:102D600051EC100B05F028FA53EC192B04F060FE1F
:102D7000CDE906012FE06848A0421FDD02249FED47
:102D8000689B9DED060B53EC192B51EC100B05F0D5
:102D90003DF853EC182B04F097FD9DED060B41EC2C
:102DA000180B53EC192B51EC100B05F005FA53ECF2
:102DB000182B04F03DFECDE906010CE09DED060B5D
:102DC000032453EC102B9FED580B51EC100B04F027
:102DD0002FFECDE906019DED060B53EC102B51ECB7
:102DE000100B05F013F841EC180B53EC182B05F001
:102DF0000DF841EC190B4E480621B0EE490AF0EEF1
:102E0000690A784400F09CF953EC182B51EC100B34
:102E100004F0FCFF41EC180B4648B0EE490AF0EE16
:102E2000690A0521784400F08BF953EC192B51EC19
:102E3000100B04F0EBFF41EC100B51EC180B53ECB2
:102E4000102B002C0EDA04F03FFD9DED061B53EC19
:102E5000112B04F0DBFF9DED061B53EC112B05F04D
:102E6000D3F835E004F030FD9DED061B53EC112B3B
:102E700004F0CCFF41EC100B2F48784400EBC40069
:102E800090ED001B51EC100B53EC112B05F094F955
:102E90009DED061B53EC112B05F08EF941EC100B48
:102EA0002648784400EBC40090ED001B51EC100B59
:102EB00053EC112B05F0A8F841EC100B002DA2BF2C
:102EC000BDEC068B02B070BD51EC100B04F0BEFCE3
:102ED00041EC100B01E70000000010440000F07FFF
:102EE000182D4454FB21F93F182D4454FB21F9BF00
:102EF0000000DC3F0000203E0000F33F0000000027
:102F0000000000000000F03F0000E63F000000006D
:102F100000000000000000400080034000000000AE
:102F2000000000000000F83F000000000000F0BFBB
:102F30009263000048630000D26200008A620000D1
:102F400070B56F4E2DED040B2DED048B82B0DDF8C6
:102F500024C0DDE907235C422CF000411C4341EA18
:102F6000D474069D22F00040B44205D86C422C4334
:102F700040EAD474B4420BD99DED081B9DED060BBD
:102F800002B0BDEC048B04B0BDE8704000F05EB947
:102F9000ACF14054A4F17F641C430BD0022404EA3A
:102FA000AC7444EAD27405439FED578B9FED582BC8
:102FB00007D015E09DED060B51EC100B00F0C0F9A9
:102FC00042E0002C11BF012C9DED060B02B0BDECC0
:102FD000048B04BF04B070BD022C38D0032C3BD04E
:102FE0000B439FED4D1B9FED4E0B0AD0B14218D104
:102FF000B04209D121F0804120F080400991079032
:103000000FE0002A15DA10E0474B7B44002C08BF84
:1030100093ED000B0DD0012C10D0022C17D0032CF7
:103020001AD0B0421DD1002A03DAB0EE410AF0EE08
:10303000610A02B0BDEC048B04B070BD93ED000BCF
:1030400051EC100B04F002FC41EC100BF1E7B0EE78
:10305000480AF0EE680AECE7B0EE420AF0EE620AC7
:10306000E7E7401A00159FED329B3C28C8BF8DED65
:10307000000B17DCBCF1000FBCBF10F13C0F8DED55
:10308000009B0FDB9DED080B53EC102B9DED060B09
:1030900051EC100B04F0CCFC01F0C6F800F050F934
:1030A000CDE90001B4B1012C10D0022C9FED220B10
:1030B00053EC102B9DED000B51EC100B19D005F0CB
:1030C0007BF853EC182B05F077F8BDE7019880F0FA
:1030D000004001909DED000B53EC192B51EC100BAF
:1030E00004F0FEFD04BF0220FDF759FB9DED000B2F
:1030F0009FE705F061F853EC182B04F085FFA3E778
:103100000000F07F00000000182D4454FB2109400E
:10311000182D4454FB2109C0182D4454FB21F9BF3C
:10312000182D4454FB21F93FBA6100000000000053
:103130000000000000000000075C143326A6A13C3C
:1031400070B504462DED028B4D1E00EBC500B0EEB0
:10315000408AF0EE608A90ED000B35F0060017D043
:1031600053EC182B51EC100B04F050FE41EC100BFB
:103170006D1E04EBC50090ED001B51EC100B53ECE1
:10318000112B04F0A1FB41EC100B35F00600E7D148
:10319000022D36D0042D1CD0062D1CBFBDEC028B99
:1031A00070BD53EC182B51EC100B04F02FFE94ED76
:1031B0000A1B53EC112B04F087FB53EC182B04F083
:1031C00025FE94ED081B53EC112B04F07DFB41EC24
:1031D000100B53EC182B51EC100B04F017FE94ED70
:1031E000061B53EC112B04F06FFB53EC182B04F06F
:1031F0000DFE94ED040B53EC102B04F065FB41EC39
:10320000100B53EC182B51EC100B04F0FFFD94ED58
:10321000021B53EC112B04F057FB53EC182B04F05A
:10322000F5FD94ED001B53EC112B04F04DFBBDECB0
:10323000028B41EC100B70BD10B553EC102B51EC10
:10324000100B04F041FB41EC100B10BD10B553EC1A
:10325000112B51EC100B04F037FB41EC100B10BD9F
:103260009FED050B10B553EC102B51EC100B04F037
:10327000DFFB41EC100B10BD00000000000000005F
:103280009FED050B10B553EC102B51EC100B04F017
:10329000BDFD41EC100B10BD00000000000000104F
:1032A00030380A2801D2012070470020704770474B
:1032B000FEB506460D460024684600F0CDFF00220C
:1032C0009FED1B1A6B46012156F8220055F822701B
:1032D000C01B00D5404200EE100A03EB8200B8EE9E
:1032E000C00AD0ED000A20EE010AF5EEC00AF1EEA8
:1032F00010FA0DD0C0EE201AB7EE000A0D4F31EED5
:10330000C00AB0EEC00A10EE100AB84207DC09E0AD
:1033100010EE100A084F3844084FB84202D301FAA1
:1033200002F00443521C032ACEDB2046FEBD0000FF
:1033300000008037295C0F3E666666C19A99D90005
:1033400010B541EC100BFFF78FFC51EC100B10BDCA
:1033500070B5854D06462DED0A8B9FED84BB9FED24
:1033600085CB686804F027FD9FED841B53EC112B7F
:1033700004F04CFD9FED831B53EC112B04F01CFF5C
:103380002C6841EC180BB4F9100004F014FD41EC6A
:10339000190B53EC182B51EC180B04F037FD53ECC0
:1033A000192B04F033FD53EC1B2B04F02FFD41ECE3
:1033B000190BB4F90E0004F0FEFC53EC182B04F0CA
:1033C00025FD9FED721B53EC112B04F01FFD53ECF8
:1033D000192B04F079FA41EC1A0BB4F90C0004F043
:1033E000EAFC9FED6C1B53EC112B04F00FFD41EC3C
:1033F000190B9FED6A0B51EC1A0B53EC102B04F0D8
:1034000005FD53EC192B04F05FFA41EC190BB4F9EC
:10341000080004F0D0FC53EC182B04F0F7FC41EC4E
:103420001A0BB4F90A0004F0C6FC53EC182B04F094
:10343000EDFC53EC182B04F0E9FC9FED5A8B53EC98
:10344000182B04F0E3FC53EC1A2B04F03DFA53EC78
:10345000182B04F0DBFC41EC1A0BE08804F0C2FCF2
:1034600041EC180B53EC1B2B51EC1A0B04F0CEFC67
:103470009FED4E1B53EC112B04F026FA53EC182B46
:1034800004F0C4FC41EC180B53EC1C2B04F028FC9A
:1034900006D1B0EE4C0AF0EE6C0ABDEC0A8B70BDA2
:1034A000304604F088FC9FED431B53EC112B04F0D5
:1034B000ABFD41EC1A0B9FED410B51EC190B53EC9A
:1034C000102B04F0A3FC53EC1A2B04F09DFD9FED90
:1034D0003D1B53EC112B04F099FC53EC182B04F01A
:1034E000A7FA2C6841EC180BB4F9160004F063FC41
:1034F00053EC182B04F08AFC53EC182B04F086FCD8
:103500009FED321B53EC112B04F080FC41EC190BA6
:10351000B4F9140004F04FFC53EC182B04F076FCC3
:1035200053EC1B2B04F072FC41EC1B0BB4F91200A2
:1035300004F041FC41EC1A0B53EC1B2B51EC190B22
:1035400004F0C2F953EC1A2B04F0BEF99FED211BD5
:1035500053EC112B04F05AFC53EC182B04F0B4F983
:1035600041EC100B99E70000200000200000000053
:103570000000003F0000000000000000000000000C
:103580000000E03F000000000040EF4000000000AD
:1035900000000040000000000000F04000000000BB
:1035A0000000D03F000000000000C03E000000000E
:1035B0000000F03F0000000000003041000000006B
:1035C0000000303F00000000006AB840000000002A
:1035D0000000003E000000000000B03F2DE9F04771
:1035E0004A4F05462DED0A8B3C68B4F9020004F001
:1035F000E2FB41EC180B208804F0F4FB894649EC0F
:10360000100B06469FED421B51EC100B53EC112B97
:1036100004F0FCFB41EC190B284604F0CCFB884677
:1036200048EC100B9FED3C1B054653EC112B51EC65
:10363000100B04F0EBFB53EC192B04F0BDFD53EC25
:10364000182B04F0E3FB41EC190BB4F9040004F06F
:10365000B2FB49EC106B9FED32BB41EC180B53EC05
:103660001B2B51EC100B04F0D1FB48EC105B9FEDD1
:103670002ECB41EC1A0B53EC1C2B51EC100B04F02D
:10368000C5FB53EC1A2B04F097FD49EC106B41EC91
:103690001A0B53EC1B2B51EC100B04F0B7FB48EC4E
:1036A000105B41EC1B0B53EC1C2B51EC100B04F08A
:1036B000ADFB53EC1B2B04F07FFD53EC1A2B04F0F5
:1036C000A5FB53EC182B04F0A1FB41EC100B51ECC3
:1036D000190B53EC102B04F0F7F80D4645EC100BCA
:1036E000044651EC100B04F037FB45EC104B9FEDFA
:1036F000101B786053EC112B51EC100B04F098F96F
:10370000BDEC0A8B41EC100BBDE8F08720000020D7
:10371000000000000000503F000000000000103FCB
:10372000000000000000203F000000000000E03E1C
:10373000000000000000B44010B504460420FEF76D
:1037400083FD0A484FF47A71047014FB01F10122E1
:1037500042804FF0E020026942F0020202614161C2
:10376000016941F00101016110BD00005E0000200F
:1037700070B5044603F0F8FD01280CD0094D6888A7
:10378000844203D3B4FBF0F003F062F86888B4FB22
:10379000F0F100FB11444FF47A706043BDE87040D3
:1037A00000F002B85E00002070B54FF0E025002167
:1037B0006C69094AAB6912785043AA699A42FCD0F5
:1037C00002D2A3EB020302E0A4EB02063344194445
:1037D00013468142F1D370BD5E00002008B560B190
:1037E00020208DF8000028208DF8010030208DF871
:1037F000020038208DF8030004E0A322042168466B
:10380000FCF745FF6A46042140F69E2001F03CFF8C
:1038100001F000FC08BD00003EB5044602208DF812
:103820000000CA208DF80100E3208DF80200092075
:103830008DF803006A460421682001F025FFA320CB
:103840008DF80000610609D5C0218DF80110C8214E
:103850008DF80210C2218DF8031005E08DF80100EB
:103860008DF802008DF8030014F4C07F09D0C42144
:103870008DF80410CC218DF80510C6218DF80610A6
:1038800005E08DF804008DF805008DF806008DF830
:1038900008008DF807008DF809006A460A2140F6F5
:1038A000A72001F0F1FEA0074FF0D80503D020209B
:1038B0008DF8000001E08DF800506A46012140F6C5
:1038C000B62001F0E1FEA00601D5012000E00020B5
:1038D00000F090F814F4C07F1ED0E0050AD5B220A5
:1038E0008DF800008B208DF80100B6208DF80200C5
:1038F0009B2009E0B0208DF8000080208DF80100A9
:10390000B4208DF8020090208DF803006A4604214F
:1039100040F6A22001F0B8FEE0074FF40B6323D07D
:10392000F8208DF800006A460121184601F0ACFE2F
:10393000FA21072000F04CFB072000F017FB0120C4
:1039400000F034FB642000F0F3FB4FF4FA7000F059
:10395000FFFBC821254800F0D1FA282000F0E6FA44
:103960000A2000F0F3FA06E08DF800506A460121C3
:10397000184601F089FEA00703D5D9208DF8000074
:1039800001E08DF800506A46012140F23D7001F0DF
:103990007BFE600701D5012000E0002000F046F822
:1039A000E00601D5012000E00020FFF717FF104DD1
:1039B00044F00800688101F02DFB0020A873600628
:1039C00001D50620A87314F4C07F02D0A87B801D07
:1039D000A87314F0140F02D0A87B1030A873A007AE
:1039E00002D0A87B001DA87300203EBD09E3CA02D7
:1039F000040100200EB54FF4976308B105A000E064
:103A000007A007C88DE807006A460921184601F09B
:103A10003BFE0EBDB8AAB38DB4980D355D00000015
:103A2000B8AAAAAAB088C3C5C700000008B560B18B
:103A3000C0208DF80000C2208DF80100C4208DF850
:103A40000200C6208DF8030004E08B2204216846A2
:103A5000FCF71DFE6A46042140F6982001F014FE92
:103A600001F0D8FA08BD0000C8234FF48062024973
:103A700040F6F63001F0AEB9D88400082DE9FF4FCA
:103A800089B01646DDE916520024DFF858810F464A
:103A900081462C80A24698F80E00694601F048FA4B
:103AA0004FF0FF3B18B158460DB0BDE8F08FB8F8A5
:103AB0000A0010F0140F4ED0BDF800109DF802203F
:103AC00049BA090441EA022C9DF803104CEA010CA2
:103AD000C6F800C0BDF804109DF8062049BA0904D4
:103AE00041EA02239DF807100B437360BDF80810EC
:103AF0009DF80A2049BA090441EA02219DF80B20E9
:103B00001B141143B160BDF80C209DF80E4052BA51
:103B1000120442EA04229DF80F4009142243F26085
:103B200010244FEA2C46121416FB06F613FB03630F
:103B300011FB01F112FB02111944A1F17061B1F105
:103B4000007F04D901F066FAA5F800A0ABE7298848
:103B500041F48071298041066A460ED51119A41DD1
:103B60000B885BBA3B804B885BBA7B80898849BAFB
:103B7000B980298841F00801298010F4C07F11D054
:103B80001119A41D0B885BBAA9F800304B885BBAE9
:103B9000A9F80230898849BAA9F80410298841F0A7
:103BA00070012980800718D01444E07800F0C00527
:103BB00000F03F016078C00707D0C80801F0070196
:103BC000D8F80020491C02B190476078000704D55E
:103BD000D8F8041009B1A80988470C9800F036FEFF
:103BE000002061E7040100202DE9FF41054603A8FC
:103BF00000F0A0FFBDF80C00460CC7032F48018958
:103C000001F0030055F82020480700D55242C1F3C7
:103C1000C10055F82040880600D56442C1F38110E8
:103C200055F82030C80500D55B42A2FB0715D01718
:103C300000FB075002FB0600820042EA9170A4FBE1
:103C40000725E11701FB075104FB06118C0044EA2C
:103C50009271A3FB0745DA1702FB075203FB06220A
:103C6000930043EA9472030E8DF80030030C8DF834
:103C70000130030A8DF802308DF80300080E8DF82C
:103C80000400080C8DF80500080A8DF80600100ED7
:103C90008DF80800100C8DF80900100A8DF80A0044
:103CA0008DF807108DF80B206A460C214FF4257013
:103CB00001F0EAFC04B0BDE8F0810000040100203E
:103CC00030B5044613A185B007C98DE807004FF051
:103CD000FF35C82C16D8C820B0FBF4F1491E080ADD
:103CE0008DF80C008DF80D1003AA022140F2162069
:103CF00001F0CAFC30B96A460C2140F6C12001F03F
:103D0000C3FC10B1284605B030BD054884810020B1
:103D1000F9E70000FEF2ABC4AAF1DFDFBBAFDFDFE3
:103D200004010020F8B53049098901F0030250F878
:103D300022404A0700D56442C1F3C10250F8223044
:103D40008A0600D55B42C1F3811250F82220C805D3
:103D500000D55242254984FB0140850045EA947014
:103D600083FB014382FB0121950F45EA8105010E8A
:103D70008DF80010010C8DF80110010A8DF8021069
:103D8000A40F8DF8030044EA83046A4604214FF42B
:103D9000747001F079FC4FF0FF3688B9200E8DF871
:103DA0000000200C8DF80100200A8DF802008DF82B
:103DB00003406A4604214FF4757001F065FC08B1B8
:103DC0003046F8BD280E8DF80000280C8DF8010053
:103DD000280A8DF802008DF803506A4604214FF43A
:103DE000767001F051FCF8BD0401002009E3CA021D
:103DF0002DE9FF4104463CA002AB006802903BA0C5
:103E0000006803903AA006683AA0056804F0030031
:103E1000195C8DF80010C4F3C1015A5C8DF80120C3
:103E2000C4F381129B5C8DF8023003AB185C8DF8F3
:103E30000400585C8DF80500985C8DF806006A4611
:103E4000032140F2264001F01FFC4FF0FF37E0BB9A
:103E500001AA032140F22A4001F016FCA8BBCDE9DB
:103E6000006560070BD59DF8000040F001008DF85B
:103E700000009DF8040040F001008DF80400A00649
:103E80000BD59DF8010040F001008DF801009DF870
:103E9000050040F001008DF80500E0050BD59DF808
:103EA000020040F001008DF802009DF8060040F08D
:103EB00001008DF806006A4603214FF4886001F086
:103EC000E3FB10B901AA032100E004E040F2314015
:103ED00001F0DAFB18B1384604B0BDE8F0810648BD
:103EE00004810020F8E700004CCD6C000CC92C00C8
:103EF0003656760026466600040100204FF47A729A
:103F000090FBF2F008B54843010E8DF80010010C4B
:103F10008DF80110010A8DF802108DF803006A4631
:103F200004214FF4AE7001F0AFFB08BD0521B0FBDA
:103F3000F1F008B5010A8DF800108DF801006A460D
:103F400002214FF4AD7001F09FFB08BD0521B0FBCD
:103F5000F1F008B5010A8DF800108DF801006A46ED
:103F600002214FF4AC7001F08FFB08BD08B50021B1
:103F70008DF80010C10702D030218DF800108107A4
:103F800005D59DF8001041F00C018DF80010400798
:103F900005D59DF8000040F003008DF800006A464A
:103FA00001214FF4A47001F06FFB08BD08B560B1AA
:103FB000042800D90420401E8DF800006A46012123
:103FC00040F24F1001F060FB08BD0120F3E7000054
:103FD00070B504462DED028B82B040074FF0FF35DF
:103FE0007ED0B1F5C86F7BD800EE101AB8EE400A4B
:103FF000DFED460A01A880EE208A00F07DFD9DF8E5
:104000000400022806D0042810D0082835D0102833
:1040100074D13EE09FED3E0A28EE000ABCEEC00AD5
:1040200010EE100A9FED3B0A82B20AE09FED3A0AB9
:1040300028EE000ABCEEC00A10EE100A9FED370A07
:1040400082B228EE000A6E46BCEEC00A10EE100ADC
:1040500081B2100A8DF800008DF80120080A8DF851
:1040600002008DF80310E00726D0324602214FF4FB
:10407000EA7001F009FB98BB17E09FED290A28EED2
:10408000000ABCEEC00A10EE100A9FED260A82B2AA
:10409000D7E79FED250A28EE000ABCEEC00A10EE15
:1040A000100A9FED220A82B2CBE7B21C02214FF424
:1040B000927001F0E9FA98B9A0070DD56A4602217D
:1040C0004FF4EC7001F0E0FA50B9B21C02214FF449
:1040D000947001F0D9FA18B9600714D56A4600E067
:1040E0000CE002214FF4EE7001F0CEFA30B9B21CB0
:1040F00002214FF4967001F0C7FA20B1284602B0B1
:10410000BDEC028B70BD0020F9E7000000004843C1
:104110000000804600004046000000460000C04508
:104120000000804500004045000000450000C044FC
:104130000521B0FBF1F008B5010A8DF800108DF8EB
:1041400001006A4602214FF4EF7001F09DFA08BDAC
:104150000521B0FBF1F008B5010A8DF800108DF8CB
:1041600001006A4602214FF4ED7001F08DFA08BD9E
:10417000234DDFF89080DFF890B04FF4007440F2E8
:10418000E7394FF47A7A40F2F31721462846FDF7D3
:10419000D7FC1EA0FCF7FCF84E4649464046FEF709
:1041A000CFFA31464046FEF7CDFA31464046FEF79B
:1041B000CBFA31464046FEF7C9FA5646504602F061
:1041C00047FB39464046FEF7BBFA39464046FEF704
:1041D000B9FA39464046FEF7B7FA39464046FEF787
:1041E000B5FA304602F034FB0CA0FCF7D1F82146BA
:1041F0002846FDF7A7FCDBF8040002F05FFBC4E7EC
:10420000000402400004004000000020756E6C6F46
:10421000636B696E67210A0A00000000756E6C6F9F
:10422000636B6564210A0A0082B0CDE9000121F0C8
:10423000004001909DED000B02B051EC100B704757
:1042400004490A885206FCD5024AC1B2121D1180E7
:1042500070470000004800401CB5044627486B46E4
:10426000042240680D210078FDF729FE08B10720DF
:104270001CBD9DF800001C2101EAD0029DF803003E
:104280009FED1F1AC0F301131A438DF804209DF807
:104290000120C0F3810301EAD2021A438DF8052000
:1042A0009DF8022000F0030001EAD20101438DF8DD
:1042B0000610DFED141A9FED140A002101A8425CDC
:1042C00022B104EB8103C3ED001A0AE004EB810282
:1042D00082ED001A0BE0D3ED000A60EE800AC3ED18
:1042E000000A425C521E12F0FF024254F3D1491CF4
:1042F000C9B20329E3D300201CBD00002800002020
:10430000000000007B14AE3E1D5A843F2DE9FE4F95
:1043100005460120C14E8DF800004FF000088DF8D1
:10432000018030680C461746817C70686B4602221B
:104330000078FDF750FE4FF0FF3A00287AD1C820F0
:10434000FFF716FA8DF8008030686B460122C17BBA
:1043500070680078FDF73FFE0028EFD130686B46AB
:104360000122417970680078FDF735FE0028E5D11B
:1043700030686B460122817C70680078FDF72BFE67
:104380000028DBD130686B460122C17D706800785F
:10439000FDF721FE0028D1D130686B46012201795A
:1043A00070680078FDF717FE0028C7D14FF00C09A0
:1043B0008DF8009030686B460122017970680078B2
:1043C000FDF709FE002835D10F20FFF7D1F9B06ABB
:1043D0006B460122407A8DF8000030688178706861
:1043E0000078FDF7F8FD002824D1B06A6B46012261
:1043F000007A8DF800003068417870680078FDF729
:10440000EAFD002873D1B06A807A0FB140F0E00075
:104410008DF8000030686B46012281797068007861
:10442000FDF7D9FD002862D12FB1B06AC07A40F003
:10443000E00001E04AE018208DF8000030686B468B
:104440000122C17970680078FDF7C5FDF0BB17B196
:10445000C820FFF78DF940208DF8000030686B46CA
:104460000122017970680078FDF7B5FD70BB7820F6
:104470008DF8000030686B46012241797068007841
:10448000FDF7A9FD10BB3220FFF772F98DF800800F
:10449000306847466B464179706801220078FDF725
:1044A0009AFD98B931687068B046897A00786B4691
:1044B0000222FDF704FD48B9BDF80000AF6040BA24
:1044C000B0FBF9F06F60C6B22F6000E00FE0A760AC
:1044D00067602760002739E0D8F80010D8F804009A
:1044E0006B46C97A00780C22FDF7E9FC10B1504602
:1044F000BDE8FE8FBDF80000236840BA02B2BDF8E7
:1045000002001A4440BA01B2BDF804002260626899
:1045100040BA11446160A16800B20844A060BDF8CF
:1045200006002B6840BA02B2BDF808001A4440BA2F
:1045300001B2BDF80A002A606A6840BA1144696095
:10454000A96800B208447F1CFFB2A860B742C3D379
:1045500028688322C117090441EA1041000400239E
:10456000FBF7F1FE32460023FBF7EDFE286068689A
:104570008322C117090441EA104100040023FBF71C
:10458000E2FE32460023FBF7DEFE6860A868832265
:10459000C117090441EA104100040023FBF7D3FED0
:1045A00032460023FBF7CFFEA86020684FF4006579
:1045B000C117090441EA104100042A460023FBF711
:1045C000C2FE32460023FBF7BEFE206060682A462A
:1045D000C117090441EA104100040023FBF7B3FEB0
:1045E00032460023FBF7AFFE6060A0682A46C11781
:1045F000090441EA104100040023FBF7A4FE3246FF
:104600000023FBF7A0FEA060002802DDA0F58030AB
:1046100001E000F58030A060002069E7280000205C
:10462000F8B506462E480D46002440686B46032226
:1046300000780D21FDF743FC08B10720F8BD9DF877
:104640000000002200F01F008DF800009DF801001E
:10465000DFED241A00F01F008DF801009DF8020024
:10466000694600F01F008DF80200012356F8220071
:1046700055F82270C01B00D5404200EE100A885C3D
:10468000B8EEC00A60EE210AD0B1B3EE090A9FED80
:10469000161A01E020EE010AC0B2401E10F0FF0021
:1046A0008854F7D180EE801AB7EE000A0F4F31EE32
:1046B000400AB0EEC00A10EE100AB84207DC09E06A
:1046C00010EE900A0A4F3844B0F1D97F02D903FAAC
:1046D00002F00443521C032AC8DB2046F8BD000048
:1046E000280000200000803754E3853F295C0F3EFE
:1046F0000000E0BE00B5024600F00DF80346D01CF5
:1047000000F009F843EAC003901D00F004F843EA02
:10471000801080B200BD90F90010002902DD4FF03A
:104720000000704702DA4FF00400704790F9011062
:10473000002902DD4FF00100704702DA4FF005005A
:10474000704790F90200002802DD4FF00200704728
:1047500002DA4FF0060070474FF007007047000084
:104760001CB501210220FDF79DFC4FF40070009064
:1047700001208DF8040000208DF8060002208DF83D
:10478000050069460148FDF78FF91CBD0004024091
:104790001CB54FF44070FDF77BFCA820FEF7CCFF62
:1047A000FFF7DEFF154801F0E7FDFDF791FDFDF78E
:1047B000EDF9FDF72DFB0028FBD1FDF7CFF805E063
:1047C00000F04AF901460EA0FBF7E2FD00F044F9C3
:1047D0000028F5D100F040F9014610A0FBF7D8FD04
:1047E00015490220CDE9000100234FF4967213A170
:1047F000154802F08DFD02F08BF9FEE720A10700BD
:10480000646D7020B3F5CABCBBAFCAA7B0DCA3A16E
:104810002D2D2D2D2D25640A00000000646D7020C3
:10482000B3F5CABCBBAFB3C9B9A6A3A12D2D2D2D1D
:104830002D25640A0000000000000020535441525E
:10484000545F5441534B0000E16200087047FEB5CD
:10485000060A8DF800608DF80100080A8DF8020044
:10486000100A8DF804008DF80520DDE90854180AB7
:104870008DF80600280A8DF808008DF80950200AE6
:104880008DF80A008DF803108DF807308DF80B4075
:104890000C226946A12001F0C5FDFEBD2DE9F041C5
:1048A000134D20F00104002695F8240010B10020DB
:1048B000BDE8F081A87A4FF0FF3838B120402F7C56
:1048C0002874A04200D0464624B901E04046EFE7F4
:1048D000287D40B1012001F0A1FC3CB100F09AFB21
:1048E00020B12F74F2E7002001F098FC3046DFE79A
:1048F0002800002070B50D462DED0C8B8EB00646BD
:104900000CA906A81446F7EE00BACDE900010BABDE
:1049100002AA09A907A8FFF7B1F820B101200EB03B
:10492000BDEC0C8B70BDBDF81800C0057ED59DEDAB
:10493000020AF8EEC00A9FED450AB0EE00CA60EE2A
:10494000809ADDED030AF8EEE00A69EE8CCA60EEAB
:10495000808ADDED040AF8EEE00A20EE808ADDEDC3
:10496000050AF8EEE00A20EE809AB8EE000A28EE7A
:1049700080BA2BEE090A0CEE880A10EE100A03F03A
:1049800005FD41EC100BFDF7BFFF9FED31AB51EC86
:10499000100B53EC1A2B03F039FA02F063FF2BEEE5
:1049A000280A28EE0CDA30600DEE480A30EE2B0AA9
:1049B00010EE100A03F0EAFC2DEE090A41EC1B0B85
:1049C0000CEEA80A10EE100A03F0E0FC41EC100B0C
:1049D000B0EE4B1AF0EE6B1AFEF7B2FA53EC1A2B4C
:1049E00051EC100B03F012FA02F03CFF29EEA90A79
:1049F000286008EEA80A08EE480A09EE490A10EEF7
:104A0000100A03F0C3FC28EE880A41EC1B0B09EEE8
:104A1000890A20EE0C0A10EE100A03F0B7FC41ECF4
:104A2000100BB0EE4B1AF0EE6B1A00E00CE0FEF744
:104A300087FA53EC1A2B51EC100B03F0E7F902F054
:104A400011FF206000206AE7022068E70000803044
:104A50006666666666A64C4010B500F0F7F888BB3F
:104A6000782000F0B5FD10F0FF0F01D0012010BD3F
:104A70007820FFF713FF10F0FF0F01D0022010BDC8
:104A8000642000F069FD10F0FF0F01D0032010BD7D
:104A9000FEF7EAFF10F0FF0F01D0042010BD15480B
:104AA000FFF728FEFFF7A4F910F0FF0F01D0052053
:104AB00010BD40F27310FEF7AFFE10F0FF0F02D0F2
:104AC000062010BD14E06420FFF7FAF810F0FF0F85
:104AD00001D00720F5E701F0DFFA08B10820F0E780
:104AE000012000F05FFC10F0FF0F01D00920E8E783
:104AF0000020E6E7540000200D4A517A41B1012917
:104B000008D002290FD003290FD04FF0FF30704793
:104B1000022100E004210170D17C11B1017849002B
:104B20000170002070470821F5E71021F3E700002D
:104B3000280000200F4A517A41B1012909D00229E9
:104B400011D0032912D04FF0FF3070474FF480414D
:104B500001E041F69C710180D17C11B101884908C6
:104B60000180002070474FF48051F4E74FF400615A
:104B7000F1E70000280000200B49097A39B101292A
:104B800007D002290AD003290BD0002103E0FA2123
:104B900001E04FF4FA710180002070474FF47A7100
:104BA000F9E74FF4FA61F6E7280000200D49097A89
:104BB00041B1012909D002290DD003290ED04FF0AF
:104BC000FF3070479FED080A01E09FED080A80ED75
:104BD000000A002070479FED060AF8E79FED050ADE
:104BE000F5E7000028000020000003430000834296
:104BF00033330342333383410C49C97A072913D233
:104C0000DFE801F01204060A0C0E1000BC2100E0DF
:104C100062210180002070472A21FAE71421F8E779
:104C20000A21F6E70521F4E70021F2E72800002039
:104C3000054991F8242012B14FF0FF307047C9891F
:104C40000180002070470000280000202DE9FC4171
:104C50004C4C80208DF8000020686B460122817C3E
:104C600060680078FDF7B7F94FF0FF37002832D1C0
:104C70006420FEF77DFD00258DF8005020686B460E
:104C80000122817C60680078FDF7A5F9002870D1C9
:104C900020686B460622817D60680078FDF70FF979
:104CA000002866D19DF805009DF80310C007400F4D
:104CB00001F0010140EA41019DF801004FF00106B9
:104CC00000F00100014309D0012905D0022915D0C7
:104CD0002DA0FBF75DFB4CE0E67410E020686B460E
:104CE0000122C17860680078FDF7E9F840BB9DF8C3
:104CF000000010F00F0020D0042822D0E574FF201F
:104D000004F80A0F4FF6FF7104F8020C04F8010CC6
:104D10006070A180A0712072A67026766576E5721B
:104D2000A572E56025616561A576E576A5834FF4FA
:104D3000FA6000F073FB18B907E01D48FBF728FB89
:104D400017E01CA0FBF724FBC6E7022000F088FA5E
:104D500078B92A2000F0CAFB58B9322000F0FCFBD9
:104D600038B90020FFF79AFD18B9002000F0ACFA1E
:104D700010B13846BDE8FC81002000F029FC00207D
:104D8000F8E7000028000020556E737570706F7290
:104D900074656420736F6674776172652070726FDA
:104DA00064756374207265762025642E0A00000005
:104DB0006492000848616C662073656E736974695B
:104DC00076697479207061727420666F756E642ED6
:104DD0000A0000002DE9FF4FDFF898A0054685B0D6
:104DE0009AF82500914688464FF0FF3BC0BBB8F1CA
:104DF000000F35D000241FE0281B102800DD1020F4
:104E000086B208EB04073A463146204600F03CFCE7
:104E100030BB6A463146204600F0D2F800BB384627
:104E200032466946FBF7C2FB20B16FF0010009B0C2
:104E3000BDE8F08FA01984B2AC42DDD34FEA19204F
:104E40008DF810008DF81190DAF80000544604AB8C
:104E5000817EDAF8040002220078FDF7BCF808B180
:104E60005846E4E7012084F825000898E0840020F3
:104E7000DDE70000280000202DE9F84304464FF04C
:104E8000FF39282844D80727284D00267CB1012067
:104E900000F0FAFA20208DF800004FF00108012CF4
:104EA00017D0052C18D88DF8018005201FE00020B0
:104EB00000F0EAFA8DF800608DF8017028686B4602
:104EC0000222817C68680078FDF785F800BB2E75AA
:104ED00029E08DF80160E8E7142C04D802208DF851
:104EE00001000A2003E003208DF80100142000F0E7
:104EF000FDFA9DF801006B4607EB80108DF801006C
:104F000028680222817C68680078FDF764F810B197
:104F10004846BDE8F8830820A8722E7385F81480EF
:104F20000020FFF7BBFC0020F3E700002800002072
:104F30002DE9F843214E0546174696F82400894688
:104F40004FF0FF3890B3B07A80B330686B460222DE
:104F5000817A70680078FCF7B2FF38BBBDF80000BA
:104F600044BAAC4202D2002038701FE07068418819
:104F7000B4EB510F11D9316800786B46497C01229E
:104F8000FCF79DFF90B99DF80000C00605D500F024
:104F900041F86FF00100BDE8F8833068EAB24B4693
:104FA000C17A70680078FCF78AFF08B14046F2E7E2
:104FB000B4FBF5F0401E38700020ECE7280000201C
:104FC000F8B517000D464FF0FF341FD0104EB17AE0
:104FD000E1B1010A8DF80010C0B28DF8010041194D
:104FE00070684289914211D8316800786B46097E19
:104FF0000222FCF7F0FF48B93068EAB23B46417D37
:1050000070680078FCF75BFF002800D02046F8BDF0
:1050100028000020F8B5554D4FF0FF36A87A00283B
:105020007ED000248DF8004028686B460122C17BA9
:1050300068680078FCF7CFFF002871D128686B46BC
:105040000122417968680078FCF7C5FF002867D124
:1050500028686B460122017968680078FCF7BBFF7D
:1050600000285DD195F82400E0B30C208DF80000F5
:1050700028686B460122017968680078FCF7ABFF6D
:10508000002871D13220FEF773FBC0208DF800009C
:10509000A87AC00702D0E0208DF8000028686B468F
:1050A0000122017968680078FCF795FF00285BD140
:1050B000687C18B102208DF8000001E08DF80040F6
:1050C00028686B460122C17B68680078FCF783FF83
:1050D00030BB8DF8004028686B4601224179686832
:1050E00000783DE0FFE704208DF8000028686B465B
:1050F0000122017968680078FCF76DFF80B9A87C0F
:1051000088B9A87AC0070ED060208DF80000286802
:105110006B460122017968680078FCF75CFF00E0CB
:1051200022E008BB01E04020EFE73220FEF720FB41
:10513000687C18B101208DF8000001E08DF8004076
:1051400028686B460122C17B68680078FCF743FF42
:1051500050B92868054B01224179686810330078FE
:10516000FCF739FF002800D03046F8BD28000020A9
:105170002DE9F047394E82468AB096F824000F4652
:1051800020B1002000F00EF9012500E0002507A85D
:10519000FFF7F2FC06A8FFF7AFFC09A8FFF72CFD0C
:1051A00008A8FFF745FD96F80A9096F810800024AD
:1051B000002239465046FFF7A9F810B1641C022CB2
:1051C000F6DB022C1AD00024012203A96846FFF75F
:1051D0009DF810B1641C022CF6DB022C0ED003A942
:1051E0003846FEF765F8C7B269465046FFF718FA29
:1051F00010F0FF0F4FF0000402D002E0002403E0A3
:1052000001240FB944F00204FF2030727072F07272
:105210004FF6FF71F181B072307401203073BDF828
:105220001C0000F0FBF89DF8180000F019F8BDF81C
:10523000240000F05BF9BDF8200000F08DF948462D
:1052400000F0C6F94046FFF729FB15B1012000F038
:10525000A9F80AB02046BDE8F08700002800002029
:1052600038B5184C4FF0FF35A17A19B3022806D093
:10527000042806D008280ED010281BD10DE00020ED
:1052800000E008208DF80000607A9DF80010B0EB77
:10529000D10F04D005E01020F4E71820F2E7002039
:1052A00038BD20686B460122C17960680078FCF740
:1052B00092FE08B1284638BD9DF80000C008607213
:1052C000EDE7000028000020F8B5354D0446A87C25
:1052D000A04201D10020F8BD31484FF0FF366B46A7
:1052E000D0E900104FF001020979007834B3FCF7DF
:1052F000E6FD70BB9DF800006B4620F020008DF8A5
:10530000000028680122017968680078FCF763FED4
:10531000F8B90320FEF72CFA02208DF8000095F86A
:10532000220078B382202BE028686B460122017DA1
:1053300068680078FCF74FFE58B92EE0FCF7BFFD17
:1053400038B9A87AC0079DF8000003D040F02000CB
:1053500002E00CE020F020008DF8000028686B4689
:105360000122017968680078FCF735FE08B1304603
:10537000F8BD0320FEF7FCF995F8220000B180206B
:105380008DF8000095F823000028CDD09DF800008E
:1053900040F030008DF80000C6E7AC749AE70000DA
:1053A0002800002038B51C4C94F8241081421DD0F0
:1053B000002500B394F82500D0B1002000F02EFFA6
:1053C0000020FFF781FFE08C00F0C6F88DF8005058
:1053D00060686B46012200782321FCF7FCFD012068
:1053E00084F8240000F01AFFFFF714FE002038BDF7
:1053F0004FF0FF3038BD002000F010FF207C8DF80A
:10540000000060686B46012200782321FCF7E3FD71
:1054100084F82450E8E700002800002038B5194C33
:105420004FF0FF35A17A31B3FA2809D0B0F5FA7FF1
:1054300008D0B0F57A7F0FD0B0F5FA6F1BD10DE030
:10544000002000E008208DF80000207A9DF8001070
:10545000B0EBD10F04D005E01020F4E71820F2E7FC
:10546000002038BD20686B46012281796068007891
:10547000FCF7B1FD08B1284638BD9DF80000C00812
:105480002072EDE72800002038B5174D044695F846
:105490002300A04201D1002038BD0CB1302000E033
:1054A00000208DF80000A87C28B19DF8000040F095
:1054B00002008DF8000095F8220028B19DF8000048
:1054C00040F080008DF8000028686B460122017DC5
:1054D00068680078FCF77FFD10B14FF0FF3038BDF1
:1054E00085F82340D7E700002800002038B5194C84
:1054F0004FF0FF35A17A31B3BC2801D3012010E071
:10550000622801D302200CE02A2801D3032008E0FE
:10551000142801D3042004E00A2801D3052000E068
:1055200006208DF80000E07A9DF80010884201D135
:10553000002038BD20686B460122817860680078C1
:10554000FCF749FD08B1284638BD9DF80000E0721F
:10555000EEE7000028000020F8B51C4D04464FF08F
:10556000FF37A87A28B395F8240010BB287D48B1EE
:105570002CB1282C03D8E0B2FFF77EFC24E00020F9
:10558000FFF77AFC4FF47A76042C01D2042402E06F
:10559000B44200D93446B6FBF4F0401E8DF800004A
:1055A00028686B460122417868680078FCF713FD93
:1055B00008B13846F8BD9DF80000401CB6FBF0F07D
:1055C000E8814008FFF792FF0020F8BD2800002086
:1055D000F8B5044610F0700F4FF0000601D001201E
:1055E00004E014B18DF8006002E040208DF8000066
:1055F000244D6B4601222868817C68680078FCF79E
:10560000EAFC4FF0FF3760BB9DF8000020F040003F
:1056100028738DF80060600602D404208DF8000025
:10562000A00605D49DF8000040F002008DF80000AF
:10563000E00605D49DF8000040F001008DF8000060
:10564000200705D49DF8000040F038008DF80000D8
:1056500028686B460122C17C68680078FCF7BBFCB7
:1056600010B1AE723846F8BD24B1082C02D000202B
:10567000FFF70AFFAC722E753220FEF779F8002092
:10568000F8BD000028000020F8B517000D464FF0C7
:10569000FF341FD0104EB17AE1B1010A8DF800102D
:1056A000C0B28DF80100411970684289914211D849
:1056B000316800786B46097E0222FCF78CFC48B901
:1056C0003068EAB23B46417D70680078FCF783FCA5
:1056D000002800D02046F8BD280000202DE9F04128
:1056E000184E0F460446F5683068001D00F026FF8E
:1056F00038B9306890F82C10012088403169814316
:105700003161601C07D137B13168BDE8F0410E4806
:10571000091D00F04BBF30682C44AC424460316836
:1057200005D2B06BBDE8F041091D00F027BF706BDA
:10573000091D00F023FFB06A844200D2B462BDE8C4
:10574000F081000078000020240400202DE9F041C1
:10575000054600F037FF2D4EB068401CB060306841
:105760002B4F10B1706930B32BE03560B068012861
:1057700027D1002404EB840007EB800000F0F0FE4A
:10578000641C202CF6D3234800F0EAFE2148143094
:1057900000F0E6FE1F48283000F0E2FE1D483C30D5
:1057A00000F0DEFE1B48503000F0DAFE194870634E
:1057B0001430B06305E03068E96AC06A884200D8F6
:1057C0003560706A0121401C70626864E86A326961
:1057D00081401143316100EB800007EB8000291DFF
:1057E00000F0E4FE00F02AFF706900280CD0306859
:1057F000E96AC06A884207D207494FF080500860C2
:10580000BFF34F8FBFF36F8FBDE8F08178000020AA
:1058100054010020D403002004ED00E010B500F096
:10582000D1FE0E4C2068A0B90D4800F099FE0C483E
:10583000143000F095FE0A48E06014302061002228
:105840001021052001F09AFA206010B105A100F0A6
:10585000CBFFBDE8104000F0F1BE0000B400002016
:1058600038040020546D72510000000070B5124ED3
:10587000124D1CE001F096F9306820B1002401F0CF
:10588000A1FEA4B901E00124F9E700F09BFEF06855
:10589000C468201D00F052FEA868401EA860686819
:1058A000401E686000F0CAFE204600F052F86868AA
:1058B0000028DFD170BD0000100400207800002017
:1058C00030B4026C0B46002A0BD0C1681144C16091
:1058D0004468A14201D30168C16030BC1846FAF7A0
:1058E00091BE30BC70472DE9F041856B17460446E8
:1058F0000026026C82B1C7B1E068FAF783FEE16866
:10590000206C091AE1602268914202D26168081A8B
:10591000E060022F16D017E02068A8B9606801F097
:10592000ABFD0646002060600EE0A068FAF76AFE54
:10593000216CA0680844A0606168884204D3206894
:10594000A06001E005B16D1E6D1CA5633046BDE889
:10595000F08110B50446006B00F0A2FE2046BDE8C1
:10596000104000F09DBE000010484FF4A0414207D7
:1059700006D0C01D0D4920F00700411AC1F5A04115
:105980000B4A00230144C2E900030839103A21F010
:10599000070111604B600B600B1AC0E900139360A4
:1059A0004FF000405360D06070470000600400205A
:1059B000E4000020074E4FF08054074DFFF756FFDC
:1059C00030680128FAD92C60BFF34F8FBFF36F8F77
:1059D000F4E700005401002004ED00E02DE9F04759
:1059E000DDE909840E461746824691009946089DD6
:1059F000A522206BFAF74BFE6FF00301206B01EB41
:105A00008701084420F00707780705D040F22B32C1
:105A100019A11EA0FAF7BCFC00202218315C82F804
:105A20003410315C11B1401C1028F6D3002684F8E4
:105A30004360202D00D31F25E562C4E91356201DC5
:105A400000F099FD04F1180000F095FD2461C5F106
:105A500020006462A061666584F858604A46514639
:105A6000384600F003FB2060B8F1000F01D0C8F801
:105A70000040BDE8F08700002E2E5C46726565523E
:105A8000544F535C7461736B732E63004572726F75
:105A9000723A25732C25640D0A00000030B51149B7
:105AA00000E011460A688242FBD34B685C188442CE
:105AB00003D1406818444860084643681C18944263
:105AC00009D1084C103C2468A24209D052681A44FB
:105AD00042600A6812680260814200D0086030BDEE
