:020000040800F2
:10000000B05C0020F5020008C3120008E30D0008F0
:10001000C1120008290D0008111F0008000000008F
:100020000000000000000000000000003D02000889
:10003000410D000800000000910200085917000857
:100040000F0300080F0300080F0300080F03000848
:100050000F0300080F0300080F0300080F03000838
:100060000F0300080F0300080F0300080F03000828
:100070000F0300080F0300080F0300080F03000818
:100080000F0300080F0300080F0300080F03000808
:100090000F0300080F0300080F0300080F030008F8
:1000A0000F0300080F0300080F0300080F030008E8
:1000B000C91700080F0300080F0300080F0300080A
:1000C0000F0300080F0300080F0300080F030008C8
:1000D0000F0300080F0300087D1D00080F03000830
:1000E0000F0300080F0300080F0300080F030008A8
:1000F0000F0300080F0300080F0300080F03000898
:100100000F0300080F0300080F0300080F03000887
:100110000F0300080F0300080F0300080F03000877
:100120000F0300080F0300080F0300080F03000867
:100130000F0300080F0300080F0300080F03000857
:100140000F0300080F0300080F0300080F03000847
:100150000F0300080F0300080F0300080F03000837
:100160000F0300080F0300080F0300080F03000827
:100170000F0300080F0300080F0300080F03000817
:100180000F0300080F03000800F002F800F047F822
:100190000AA090E8000C82448344AAF10107DA45E2
:1001A00001D100F03CF8AFF2090EBAE80F0013F0ED
:1001B000010F18BFFB1A43F0010318471C8A000007
:1001C0003C8A0000103A24BF78C878C1FAD8520798
:1001D00024BF30C830C144BF04680C6070470000C1
:1001E0000023002400250026103A28BF78C1FBD840
:1001F000520728BF30C148BF0B607047642900F028
:100200000981752900F00681732900F0C883002058
:1002100070471FB507F007FE1FBD10B510BD00F0F9
:100220003BFC1146FFF7F5FF03F010FE00F059FC10
:1002300003B4FFF7F2FF03BC02F059FB2A4B196825
:100240000868B0E8F04F80F30988BFF36F8F4FF074
:10025000000080F311887047000000000648006825
:10026000006880F3088862B661B6BFF34F8FBFF3B2
:100270006F8F00DF00BF00BF08ED00E0DFF80C006B
:10028000016841F470010160704700BF88ED00E033
:10029000EFF30980BFF36F8F134B1A681EF0100F36
:1002A00008BF20ED108A20E9F04F106008B44FF02D
:1002B000500080F31188BFF34F8FBFF36F8F06F0AC
:1002C0005BF94FF0000080F3118808BC19680868DA
:1002D000B0E8F04F1EF0100F08BFB0EC108A80F3AA
:1002E0000988BFF36F8F704790000020EFF30580FF
:1002F000704700000948804709480047FEE7FEE7CD
:10030000FEE7FEE7FEE7FEE7FEE7FEE7FEE7FEE7C5
:1003100004480549054A064B704700006D17000860
:1003200089010008B0560020B05C0020B0580020C1
:10033000B0580020704710B54C1084EA530404D51F
:100340004042C1F1000138BF491E1B4204D5524250
:10035000C3F1000338BF5B1E00F016FA14F0804FA3
:1003600004D04042C1F1000138BF491E14F0004FD3
:1003700004D05242C3F1000338BF5B1E10BD000021
:100380000FB4044910B503AA029800F00DFB10BC8D
:100390005DF814FB7C0000200FB41CB5074B06AAC7
:1003A0007B4469460090059800F0CFFA002069462A
:1003B00000F0DEFA1CBC5DF814FB0000CD05000067
:1003C00070B50C460546012A05D02878800600D570
:1003D000EA69002302E0012305E05B1C934202D29C
:1003E000E05C0028F9D1A869E618C01AA861286A5B
:1003F000184428622846AFF3008004E0D5E90121C3
:1004000014F8010B9047B442F8D32846AFF30080AC
:1004100070BD00002DE9F0410646002410687529E2
:10042000314616A510D0AFF30080002802DA404212
:1004300013A507E031688A0701D512A502E0490734
:1004400004D511A5012401E0AFF3008000210A22A8
:1004500006F1240709E0B0FBF2FCB0FBF2F302FB6B
:100460001C00303078541846491C0028F3D123462C
:100470002A463046BDE8F04100F008BA000000000E
:100480002D0000002B000000200000002DE9F05F8F
:10049000894604464FF0000ADFF824B1FB44C0F857
:1004A00020A02046E168884700287DD0252806D076
:1004B000D4E901219047206A401C2062F1E7002521
:1004C0005F462046E16888472028064607DB312E34
:1004D00005D2B81910F8200C08B10543F1E7A807B8
:1004E00001D525F00405C4F81CA00027C4F818A005
:1004F0002A2E09D0304602F0F3F938B304EB87080E
:10050000303EC8F8186019E059F8041B204604EB87
:1005100087029161E1688847012F064618D1E0699A
:10052000002820DA25F020051DE0D8F8180000EB9F
:10053000800006EB40003038C8F818002046E1681B
:100540008847064602F0CCF90028EED1012F0AD0E8
:100550002E2E08D12046E16888477F1C0646022FD0
:1005600045F02005C4DBA069002803DA404245F0CD
:100570000105A061E80701D025F01005A6B1A6F19C
:100580004100192802D8203645F400654A46314614
:10059000204625604D46FFF731FE60B1012807D0A7
:1005A000ED1D25F0070000E007E000F1080978E7FD
:1005B00005F1040975E730467AE7206ABDE8F09F47
:1005C000E285000040EA010310B59B070FD1042A21
:1005D0000DD310C808C9121F9C42F8D020BA19BA0E
:1005E000884201D9012010BD4FF0FF3010BD1AB173
:1005F000D30703D0521C07E0002010BD10F8013BC8
:1006000011F8014B1B1B07D110F8013B11F8014BEE
:100610001B1B01D1921EF1D1184610BD40EA010307
:10062000024630B59B0710D14FF0013400E008C2FC
:1006300008C91D1B9D4315EAC41FF8D013F0FF0124
:1006400002F8011B0DD01B0AF8E711F8013B002B43
:1006500002F8013B05D011F8013B002B02F8013BE9
:10066000F3D130BD10B5431C02E010F8011B71B18D
:100670008107FAD14FF0013202C88C1A8C4314EA78
:10068000C211F9D0C01A0A0603D0C01E10BDC01A8C
:1006900010BD0A0401D0801E10BD0902FCD0401E0E
:1006A00010BD032A40F2308010F0030C00F01580DA
:1006B00011F8013BBCF1020F624498BF11F801CB65
:1006C00000F8013B38BF11F8013BA2F1040298BFCA
:1006D00000F801CB38BF00F8013B11F0030300F034
:1006E0007581083AC0F0088051F8043B083A51F887
:1006F00004CBA0E80810F5E7121D5CBF51F8043BDD
:1007000040F8043BAFF30080D20724BF11F8013B4F
:1007100011F801CB48BF11F8012B24BF00F8013BB1
:1007200000F801CB48BF00F8012B704702F0FF032F
:1007300043EA032242EA024200F002B84FF000020C
:100740000429C0F0128010F0030C00F07381CCF18A
:10075000040CBCF1020F18BF00F8012BA8BF20F851
:10076000022BA1EB0C0100F065B95FEAC17C24BF4C
:1007700000F8012B00F8012B48BF00F8012B70474F
:10078000704770477047704753EA020C00F0698069
:100790002DE9F04B4FF00006002B1FBFB3FA83F595
:1007A00003FA05F424FA05F65E4012BF1643B2FAC6
:1007B00082F502FA05F4C5F120051EBF22FA05FCF8
:1007C00044EA0C04203556EA044C4FEA144418BF9E
:1007D000641C4FF000084FF00009904271EB030CCD
:1007E00039D3002919BFB1FA81F701FA07F6B0FA37
:1007F00080F700FA07F6C7F120071EBF20FA07FCB2
:1008000046EA0C062037B6FBF4FCA7EB0507103FC1
:1008100007F01F0BCBF120060CFA0BFB2CFA06F6A7
:1008200044BFB3460026202FA4BF5E464FF0000B06
:100830005BEA060C08BF4FF0010B19EB0B09ABFB91
:10084000027C48EB0608C01B06FB02CC0BFB03CC6A
:1008500071EB0C01C1E70B46024641464846BDE834
:10086000F08B13B54FF000004FF00001AFF30080A4
:10087000BDE81C40704710B500F002F9006810BDDB
:1008800010B5044600F0FCF8046010BD2DE9F047F7
:100890000D4699469246044600F1240801688806F0
:1008A00004D5E06921F01001216000E00120A84298
:1008B00001DD471B00E00027A1697A1902EB09005E
:1008C000081AA0612078C00602D42046AFF3008049
:1008D000002608E0D4E901211AF806009047206AB2
:1008E000401C761C20624E45F4DB2078C0060AD5F9
:1008F0002046AFF3008006E0D4E901213020904784
:10090000206A401C2062381EA7F10107F4DC07E0D2
:10091000D4E9012118F805009047206A401C2062A4
:10092000281EA5F10105F3DC2046AFF300802078F6
:10093000000602D50220BDE8F0870120FBE7000099
:1009400001694A1C02610878704700B58FB0CDE993
:1009500001310021059105497944CDE90310114683
:100960006846FFF793FD0FB000BD0000E5FFFFFFF5
:100970000A6802F8010B0A60704710B5436913B1A9
:10098000AFF3008001E0FFF71BFD012010BD1278DE
:1009900000F124010A7000224A700122EDE711687B
:1009A0004FF0FF32E9E70000074B70B50D467B447E
:1009B000FFF7CBFF0446284600F066F810B14FF071
:1009C000FF3070BD204670BD2F2F000010B5203ABB
:1009D000C0F00B80B1E81850203AA0E81850B1E8F8
:1009E0001850A0E81850BFF4F5AF5FEA027C24BFAE
:1009F000B1E81850A0E8185044BF18C918C0BDE8A5
:100A000010405FEA827C24BF51F8043B40F8043B6D
:100A100008BF7047D20728BF31F8023B48BF11F822
:100A2000012B28BF20F8023B48BF00F8012B70477C
:100A30004FF0000200B5134694469646203922BF77
:100A4000A0E80C50A0E80C50B1F12001BFF4F7AFC2
:100A5000090728BFA0E80C5048BF0CC05DF804EBA4
:100A6000890028BF40F8042B08BF704748BF20F812
:100A7000022B11F0804F18BF00F8012B70470000C7
:100A80000048704750560020007B00F080007047FF
:100A900000487047505600207546FFF7F9FFAE46F4
:100AA00005006946534620F00700854618B020B57A
:100AB000FFF72EFCBDE820404FF000064FF0000786
:100AC0004FF000084FF0000B21F00701AC46ACE8F6
:100AD000C009ACE8C009ACE8C009ACE8C0098D4663
:100AE000704710B50446AFF300802046BDE81040C3
:100AF000FFF79EBB70B5F92000F026F80446F820F9
:100B000000F022F80546F72000F01EF8000340EA46
:100B1000051040EA1410BDE8704001F039BF70B50F
:100B2000FC2000F011F80446FB2000F00DF805460B
:100B3000FA2000F009F8000340EA051040EA14101A
:100B4000BDE8704002F06AB810B5044600F00EFA35
:100B5000EC2000F0DBF900F04BFA204600F0D6F96B
:100B600000F046FA00F002FAED2000F0CFF900F0B4
:100B70003FFA002000F096F9044600F017FA2046EC
:100B800010BD017842784901807841EA8201014331
:100B9000C9B2F52000F00BB841780278490180789D
:100BA00041EA82010143C9B2F420AFF3008070B57D
:100BB0000D46044600F0DAF9EC2000F0A7F900F049
:100BC00017FA204600F0A2F900F012FA284600F0C9
:100BD0009DF900F00DFABDE8704000F0E7B90000A3
:100BE0007CB58820FFF7B0FF04468920FFF7ACFFF3
:100BF00004EB00204B4C216808808A20FFF7A4FFFB
:100C000005468B20FFF7A0FF216805EB00204880F8
:100C10008C20FFF799FF05468D20FFF795FF21688F
:100C200005EB002088808E20FFF78EFF05468F2081
:100C3000FFF78AFF216805EB0020C8809020FFF7AE
:100C400083FF05469120FFF77FFF216805EB002019
:100C500008819220FFF778FF05469320FFF774FF85
:100C6000216805EB002048819420FFF76DFF0546C1
:100C70009520FFF769FF216805EB00208881962009
:100C8000FFF762FF05469720FFF75EFF216805EB3F
:100C90000020C8819820FFF757FF05469920FFF7ED
:100CA00053FF216805EB002008829A20FFF74CFFD4
:100CB00005469B20FFF748FF216805EB002048828E
:100CC0009C20FFF741FF05469D20FFF73DFF21686F
:100CD00005EB002088829E20FFF736FF05469F2007
:100CE000FFF732FF216805EB0020C882B621E02023
:100CF000FFF75DFF03208DF8000001218DF8011042
:100D00008DF802006846FFF747FF00208DF80400C9
:100D100004218DF805108DF8060001A8FFF731FFBA
:100D20007CBD000028000020FEE7000003480022F0
:100D3000026042605321312000F05EBD6800002057
:100D40007047F0B5002201274FF0030C0B6807FA3B
:100D500002F52B40AB422CD1066853000CFA03F489
:100D6000A64306600E79D0F800E09E4046EA0E06E3
:100D700006600E79012E01D0022E12D18668A6439C
:100D800086604E79D0F808E09E4046EA0E068660FE
:100D90004668AE43466045688E799640B6B23543A4
:100DA0004560C568A543C560CC799C40C3681C43B9
:100DB000C460521C102AC9D3F0BD4B07DB0E9A4009
:100DC000C90810B500EB8100016A0F249C40A143C3
:100DD0000162016A1143016210BD418370470183C2
:100DE0007047FEE770B50D4C0025C4F898520C48CA
:100DF000016821F440410160016841F480410160D3
:100E0000C4F89C52022004F5267401F0EDFF012085
:100E10002060022001F0E8FF256070BD00804042A4
:100E2000000402401CB50121022000F087FAC02016
:100E3000012400908DF8044000208DF80600032066
:100E40008DF805008DF8074069460448FFF779FFE3
:100E50000348C0F89842C0F89C421CBD0004024000
:100E60000080404270B50D4C0026C4F898620C48D2
:100E7000016821F440410160016841F48041016052
:100E80000125C4F89C52022004F5267401F0ACFF41
:100E90002560022001F0A8FF266070BD008040425E
:100EA000000402402DE9F0478146164800240168FD
:100EB00021F44041016001680160134E2546274638
:100EC0004FF00108C6F89872022001F08DFFC6F8B5
:100ED00098826006040ED6F81C0208B1641CE4B2C5
:100EE000012001F081FF6D1CEDB2082DEAD3B9F1AC
:100EF000000F04D0FFF776FF2046BDE8F087FFF72C
:100F0000B1FFF9E700040240008040422DE9F041C2
:100F100005461448016821F440410160016841F42C
:100F200080410160104E0027C6F898723C464FF091
:100F30000108E809C6F89C026806050E022001F0C7
:100F400053FFC6F89882022001F04EFFC6F898724F
:100F5000022001F049FF641CE4B2082CE9D3BDE88B
:100F6000F0810000000402400080404270B50D484E
:100F7000016821F440410160016841F48041016051
:100F8000094C0120C4F89C02C4F89802042004F51E
:100F9000267401F029FF00256560042001F024FF7C
:100FA000256070BD00040240008040420E4810B52C
:100FB000016821F440410160016841F48041016011
:100FC0000A4C0020C4F89802C4F89C02042004F5DE
:100FD000267401F009FF012020606060BDE8104028
:100FE000042001F001BF00000004024000804042E4
:100FF00070B512480024016821F440410160016885
:1010000001600F4D0126C5F89C62304601F0ECFEF0
:10101000C5F89862012001F0E7FE07E0641CE4B225
:10102000FA2C03D9FFF7C2FF012070BDD5F81C02CE
:101030000028F3D1C5F8980270BD000000040240FA
:10104000008040427CB514460D4606466B4606229B
:101050003B21682000F07FF800280BD1BDF800107C
:1010600049BA3180BDF8021049BA2980BDF8041090
:1010700049BA21807CBD7CB514460D4606466B46B8
:1010800006224321682000F066F800280BD1BDF845
:10109000001049BA3180BDF8021049BA2980BDF864
:1010A000041049BA21807CBD10B580216B2000F06E
:1010B000C0F8642001F07CFE00216B2000F0B9F83C
:1010C000032000F082F8002000F07AF84FF4FA7064
:1010D00000F098F80021382000F0ABF800216A20D9
:1010E00000F0A7F80021232000F0A3F8802137208A
:1010F00000F09FF8752000F011F8682801D0012059
:1011000010BD01216B2000F094F800216C2000F04C
:1011100090F8322000F076F8002010BD10B504469B
:10112000FFF724FFD020FFF7F1FEFFF761FF204615
:10113000FFF7ECFEFFF75CFFFFF718FFD120FFF78A
:10114000E5FEFFF755FF0020FFF7ACFE0446FFF772
:101150002DFF204610BD2DE9F0411C4615460F46D7
:101160000646FFF703FF7006000EFFF7CFFEFFF7FE
:101170003FFF20B1FFF71AFF0120BDE8F08138469C
:10118000FFF7C4FEFFF734FFFFF7F0FE012000EB8E
:101190004600C0B2FFF7BAFEFFF72AFF08E0012DB4
:1011A0000CD00120FFF77EFE6D1E04F8010BEDB29E
:1011B000002DF4D1FFF7FAFE0020DEE70020F1E772
:1011C000C006010E1C2000F034B8C006010E1B2022
:1011D00000F02FB8BC2801D3012110E0622801D310
:1011E00002210CE02A2801D3032108E0142801D3AE
:1011F000042104E00A2801D3052100E006211A2079
:1012000000F017B810B504464FF47A70844201D943
:10121000044602E0042C00D20424B0FBF4F0401E8B
:10122000C1B2192000F005F86008BDE81040FFF7D2
:10123000D1BF70B50C460546FFF798FED020FFF7EA
:1012400065FEFFF7D5FE50B92846FFF75FFEFFF7B2
:10125000CFFE2046FFF75AFEFFF7CAFE18B1FFF790
:10126000A5FE012070BDFFF7A1FE002070BD2DE995
:10127000F0411D4616460C460746FFF777FE7806F6
:10128000000EFFF743FEFFF7B3FE60B92046FFF7FD
:101290003DFEFFF7ADFE00240CE0285DFFF736FEB3
:1012A000FFF7A6FE20B1FFF781FE0120BDE8F08127
:1012B000641CE4B2B442F0D3FFF778FE0020F5E7F7
:1012C000FEE7704730B50F23C27801780125FAB1E7
:1012D000144A126801F1E02102F4E062C2F5E06212
:1012E000C2F30722C2F10404D3404278A2408478BA
:1012F0001C401443220181F80024007800F01F01F3
:101300008D404009800000F1E020C0F8005130BD60
:1013100001F01F0085404809800000F1E020C0F87E
:10132000805130BD0CED00E00249084302490860DD
:10133000704700000000FA050CED00E0044A0029A7
:10134000116801D0014300E0814311607047000043
:1013500030380240044A0029116801D0014300E0FE
:10136000814311607047000040380240044A002960
:10137000116801D0014300E0814311607047000013
:1013800020380240044A0029116801D0014300E0DE
:1013900081431160704700002438024070B5204B33
:1013A0001968204C11F00C0104D06610042903D0F8
:1013B000082903D004601BE0066019E0184A121FD8
:1013C0001168C1F38055116801F03F0115B1B6FBFA
:1013D000F1F101E0B4FBF1F114681268C4F3881470
:1013E0006143C2F30142521C5200B1FBF2F10160B1
:1013F00019680F2202EA11110B4A545C0168E1409E
:1014000041601C68072505EA9424145D21FA04F460
:1014100084601B6805EA5333D25CD140C16070BD63
:10142000083802400024F4008000002008B502F0D3
:1014300063FA0B4D00903221684604F031FE0948F2
:1014400000F09EF8002408A035F81410FEF798FF6D
:10145000641CE4B2122CF6D304A0FEF791FFEAE775
:10146000DE020020C4020020256420000A000000E3
:1014700000244FF4C8754FF4FA66002CFDD02946BD
:101480000848FFF75BF9074804F006FF06A0FEF7DF
:1014900077FF04490DA0FEF773FF304604F0CAFD44
:1014A000EBE700000C010020C8CECEF1C3FB090918
:1014B00009D4CBD0D0CAB1BCE409D4CBD0D0CBF9BD
:1014C000D5BCB0D9B7D6B1C80D0A000025730D0A36
:1014D00000000000AFF3008030B5012187B008465E
:1014E000FFF72CFF01214804FFF734FF0820059087
:1014F0000220204C8DF8180005A92046FFF721FC9A
:10150000072203212046FFF758FC1B480090A01437
:10151000ADF804008010ADF8080000240420174D39
:10152000ADF80A00ADF80640ADF80C406946284613
:1015300000F094FC26218DF8101005208DF8110084
:101540008DF8124001208DF8130004A8FFF7BAFEB1
:10155000012240F22551284600F068FC012240F2A9
:101560002441284600F062FC0121284600F02EFCB0
:1015700007B030BD00000240A086010000440040DA
:101580004188C1F30A0240490A80C2780379D2082F
:1015900042EA4312C2F30A024A800279437992096D
:1015A00042EA8302837942EA8322C2F30A028A80F2
:1015B0008279C379520842EAC312C2F30A02CA808E
:1015C000C279037A120942EA0312C2F30A020A81BB
:1015D000027A437AD20942EA4302837A42EA4322F8
:1015E000C2F30A024A81827AC37A920842EA8312DB
:1015F000C2F30A028A81C27A037B520942EAC30219
:10160000CA81B0F80D20C2F30A020A82827BC37B32
:10161000D20842EA4312C2F30A024A82C27B037C26
:10162000920942EA8302437C42EA8322C2F30A021D
:101630008A82427C837C520842EAC312C2F30A02C5
:10164000CA82827CC37C120942EA0312C2F30A02F4
:101650000A83C27C037DD20942EA4302437D42EA07
:101660004322C2F30A024A83427D837D920842EA02
:101670008312C2F30A028A83827DC07D520942EA44
:10168000C000C88370470000DE0200200CB50022B5
:10169000274900920192086840F4803008604FF4B6
:1016A000A043086800F4003001900098401C0090AE
:1016B000019810B900989842F3D10868800334D596
:1016C000012001901A484030026842F080520260C6
:1016D0001848026842F44042026015480830026827
:1016E0000260026842F400420260026842F4A052C2
:1016F0000260031F104A1A600A6842F080720A6092
:101700000A689201FCD50D4940F205720A60016831
:1017100021F003010160016841F0020101600168EC
:10172000C1F381010229FAD10CBD01920CBD000068
:10173000003802400070004008544007003C02405E
:101740004FF0E0210428086903D020F0040008616C
:10175000704740F00400FAE710B505F0F7FA0128E9
:1017600003D0BDE8104004F0E5BF10BD124810B52D
:10177000016841F4700101601048016841F0010105
:1017800001600E4A00210832116002680C4B1A40B9
:101790000260031D0B4A1A60026822F48022026074
:1017A00006480C300160FFF771FF03494FF00060FD
:1017B0008039086010BD000088ED00E0003802406C
:1017C000FFFFF6FE1030002410B501218C072046E3
:1017D00000F07CF9012807D106490A684868521CC4
:1017E00040F100000A6048602046BDE81040012139
:1017F00000F0B6B8680000207FB50D460446012110
:101800000846FFF7A7FD0194ADF8005000244FF003
:101810008045ADF80240ADF808406946284600F022
:101820006FFA01221146284600F05CF90121284692
:1018300000F099F81C208DF80C0001208DF80D00A7
:101840008DF80E408DF80F0003A8FFF73BFD7FBD1C
:10185000F0B58BB001210420FFF770FD01210220BB
:10186000FFF778FD374E304600F088F8364F0222F9
:1018700006213846FFF7A1FA022207213846FFF772
:101880009CFA022208213846FFF797FA0222092122
:101890003846FFF792FA4FF47070089002208DF8E6
:1018A00024008DF8250000248DF8264001258DF8B0
:1018B000275008A93846FFF744FA42F20F70069005
:1018C000A720ADF81400ADF81C40ADF816408DF817
:1018D0001E4005A9304600F013FA6020ADF8000064
:1018E0002802ADF81000ADF802500294ADF80C409B
:1018F0006946304600F0FEF86946304600F030F99F
:101900006946304600F076F96946304600F0B6F98F
:101910000821304600F01EF90821304600F060F939
:101920000821304600F0A4F90821304600F0D6F92D
:101930000121304600F00AF80121304600F013F88A
:101940000BB0F0BD000400400008024000290188EF
:1019500002D041F0800101E021F080010180704758
:10196000C943018270470029018802D041F001017A
:1019700001E021F00101018070470000464910B5E7
:10198000884206D101210846FFF7FCFC0021012016
:101990005BE0B0F1804F09D0404988420DD1012170
:1019A0000220FFF7E3FC0021022070E0012108463D
:1019B000FFF7DCFC0021012069E03949884206D1AB
:1019C00001210420FFF7D2FC002104205FE035490B
:1019D000884206D101210820FFF7C8FC0021082019
:1019E00055E03149884206D101211020FFF7BEFCA5
:1019F000002110204BE02D49884206D101212020F2
:101A0000FFF7B4FC0021202041E02949884206D19B
:101A100001210220FFF7B6FC0021022015E0254934
:101A2000884202D101210C040AE02349884202D1F4
:101A300001214C0404E0214988420AD101218C048F
:101A40002046FFF79FFC00212046BDE81040FFF72D
:101A500099BC1B49884206D101214020FFF786FC32
:101A60000021402013E01749884206D1012180203F
:101A7000FFF77CFC0021802009E0134988420AD14D
:101A8000841501212046FFF771FC00212046BDE8A6
:101A90001040FFF76BBC10BD000001400004004087
:101AA00000080040000C00400010004000140040FE
:101AB0000004014000400140004401400048014052
:101AC00000180040001C004000200040024600209A
:101AD000138A92890B4202EA010202D0002A00D046
:101AE00001207047002A828901D00A4300E08A431E
:101AF0008281704730B5028C22F001020284028C90
:101B00008388048B22F0020224F073050C882C4396
:101B10008D8915434A882A430C4DA84202D00C4DAA
:101B2000A8420DD122F00805CA8923F440732A4344
:101B300022F004058A882A430D8A1D434B8A2B43D1
:101B40008380048389684163028430BD00000140C2
:101B500000040140028B22F008020A43028370470E
:101B600070B5028C22F010020284028C8388048BF0
:101B70000D8824F4E6464FF6FF7404EA0525354344
:101B80008E8922F0200204EA061616434A8804EAE7
:101B900002123243104EB04202D0104EB04215D164
:101BA00022F08006CA8923F4406304EA0212324319
:101BB00022F040068A8804EA021232430E8A04EABE
:101BC00086061E434B8A04EA8303334383800583DE
:101BD00089688163028470BD0000014000040140F7
:101BE000028B4FF6FF7322F4006203EA01211143D6
:101BF0000183704770B5028C22F480720284028CDB
:101C00008388848B0D8824F0730425438E894FF6D6
:101C1000FF7422F4007204EA062616434A8804EA96
:101C200002223243104EB04202D0104EB04215D1C3
:101C300022F40066CA8923F4405304EA02223243A4
:101C400022F480668A8804EA022232430E8A04EA79
:101C500006161E434B8A04EA0313334383808583AD
:101C60008968C163028470BD000001400004014026
:101C7000828B22F008020A438283704770B5028C7F
:101C800022F480520284058C8288838B0C8823F492
:101C9000E6464FF6FF7303EA0424344325F4005666
:101CA0008D8903EA053535434E8803EA06362E430F
:101CB000084DA84202D0084DA84205D122F4804523
:101CC0000A8A03EA82122A43828084838968016433
:101CD000068470BD0000014000040140828B4FF675
:101CE000FF7322F4006203EA0121114381837047EC
:101CF0004163704781637047C163704701647047F7
:101D000030B50288164C174DA0420DD0A8420BD01A
:101D1000B0F1804F08D0144B984205D0134B984235
:101D200002D0134B984203D122F070034A881A4321
:101D3000104B984206D0104B984203D022F44073C7
:101D40000A891A4302804A68C2620A880285A04250
:101D500001D0A84201D1897A01860121818230BD5A
:101D60000000014000040140000400400008004061
:101D7000000C004000100040001400402DE9F0412C
:101D80000F4F40F22551384600F031F80D4D0E4C02
:101D90003E1D20B1318820782954401C0CE040F2CF
:101DA0002441384600F023F8002806D038883088CF
:101DB0002078401E287001202070BDE8F0810000CE
:101DC00000440040C40200207000002000298189E6
:101DD00002D041F4005101E021F4005181817047AB
:101DE0000246002012880A4200D00120704770B5D8
:101DF00001F01F0501260024C1F3421306FA05F283
:101E0000012B0FD0022B0FD0838A4FEA11210088BB
:101E1000134206FA01F600EA060001D000B10124DF
:101E2000204670BD8389F0E7038AEEE710B5C1F361
:101E3000421301F01F040121A140012B07D0022B06
:101E400007D01430002A026805D00A4304E00C30A1
:101E5000F8E71030F6E78A43026010BD7FB504460C
:101E6000008A0D46C98820F4405001432182A08990
:101E700041F20C618843A9882A8911436A89024387
:101E80001143A181A08A20F44071A8890843A0824F
:101E90006846FFF783FA1A48844202D01948844200
:101EA00001D1039800E00298A189090400EBC00168
:101EB00001EB0010296801D5490000E08900B0FB62
:101EC000F1F06422B0FBF2F109010B096FF0180583
:101ED0006B4300EB8300A3891D044FF0320306D54A
:101EE00003EBC000B0FBF2F000F0070005E003EBED
:101EF0000010B0FBF2F000F00F00084320817FBD1E
:101F00000010014000140140C1F3080181807047B6
:101F1000FEE703B401984100009850EAC12018BFC1
:101F200004204A0D18BF40F0010040F2FF72B2EBEE
:101F3000515F08BF40F00200012808BF052002B031
:101F4000704700000000000070B5C1482DED020B85
:101F50002DED0E8B82B0119D25F000449FEDBEDB70
:101F60009FEDBFEB84423EDBA4F140511098A1F1FC
:101F70007F6108430FD0BC48844202DC28D110980E
:101F800030B39DED100B02B0BDEC0E8B02B0BDE87E
:101F9000704000F071BC9DED100B53EC1D2B51EC0B
:101FA000100B05F00FFC9DED100B41EC180B53ECE2
:101FB0001E2B51EC100B05F005FC53EC182B05F013
:101FC0005FF941EC100B02B0BDEC0E8B02B070BD9E
:101FD0000120FEF755FC02B0BDEC0E8B02B0BDE84F
:101FE000704000F05DBCA1489FEDA18B844256DAA1
:101FF0009DED100BB4F1795F0ADA51EC100BFFF78D
:1020000088FF042808BF00F05BFC9DED100BDAE7A9
:1020100053EC102B51EC100B05F0D4FB41EC190BD9
:1020200095480621B0EE490AF0EE690A784400F0BE
:10203000A7FB53EC192B51EC100B05F0C3FB41EC43
:102040001A0B8E48B0EE490AF0EE690A0421784472
:1020500000F096FB53EC192B51EC100B05F0B2FB82
:1020600053EC182B05F00CF941EC100B51EC1A0B4A
:1020700053EC102B05F0B8F9CDE900019DED000BF4
:1020800053EC102B9DED100B51EC100B05F09AFB4F
:102090009DED101B53EC112B05F0F2F8D2E09DEDF5
:1020A000100B51EC100B01F00FFC53EC182B05F04A
:1020B00087FC9FED730BCDE9000153EC102B9DEDD8
:1020C000000B51EC100B05F07DFB41EC190B6E4839
:1020D0000621B0EE490AF0EE690A784400F050FBA0
:1020E00053EC192B51EC100B05F06CFB41EC1B0B66
:1020F0006648B0EE490AF0EE690A0421784400F01F
:102100003FFB53EC192B51EC100B05F05BFB53EC30
:10211000182B05F0B5F841EC1C0B51EC190B03F032
:1021200017FC41EC180B5A489FED5BABA04222DC38
:1021300053EC1C2B51EC1B0B05F056F9CDE90001BB
:102140009DED000B51EC180B53EC102B05F03AFBF6
:1021500053EC182B05F094F853EC1A2B05F032FBD6
:1021600053EC1D2B05F004FD53EC1E2B05F028FC51
:1021700041EC100B5FE08DED008B002000909DED99
:10218000000B51EC180B53EC102B05F079F89DED7A
:10219000000B41EC1E0B53EC102B51EC100B05F017
:1021A00011FB53EC192B05F00BFC53EC1E2B05F027
:1021B0001BF941EC190B53EC1C2B51EC1B0B05F0DC
:1021C00013F941EC1B0B53EC1A2B51EC190B05F0D6
:1021D000F9FA53EC1D2B05F0F3FB41EC190B53EC12
:1021E0001A2B51EC180B05F0EDFA53EC1B2B05F0F4
:1021F000E9FA53EC192B05F0BBFC9DED000B41EC0B
:10220000180B53EC1A2B51EC100B05F0DBFA9FED79
:10221000249B53EC192B05F0D3FB41EC100B51EC34
:10222000180B53EC102B05F0A3FC53EC192B05F005
:10223000C7FB41EC100B002D3FF7C5AE51EC100B66
:1022400004F0E0FF41EC100BBDE6000000000000D0
:102250000000F03F00000000075C143326A6913C0C
:10226000182D4454FB21F93F0000F07F0000E03FAF
:10227000000000000000F03F686A0000766A00007D
:10228000000000000000E03FBA690000C8690000DB
:102290003333EF3F0000000000000000000000406A
:1022A000182D4454FB21E93F70B59B482DED020BDE
:1022B0002DED068B079D25F00044A04218DC9748C1
:1022C000844202DC0AD1069840B19DED060BBDECBC
:1022D000068B02B0BDE8704000F0CEBA002DCCBF36
:1022E0009FED8F0B9FED900BBDEC068B02B070BD88
:1022F0008F48A04215DD8F48A042D8BF4FF0FF3471
:1023000058DD9DED060B51EC100BFFF702FE042883
:1023100008BF00F0D5FA9DED060BBDEC068B02B0B0
:1023200070BD9DED060B51EC100B01F0CDFACDE91F
:10233000060181489FED828BA0423CDD8248A0428D
:102340001FDD00249FED82AB9DED060B53EC1A2B95
:1023500051EC100B04F094FF9DED060B41EC190BB2
:1023600053EC1A2B51EC100B05F02CFA53EC182BF4
:1023700005F0FEFB53EC192B05F036F8CDE906010C
:1023800049E09DED060B012453EC182B51EC100B8A
:1023900004F076FF9DED060B41EC190B53EC182B66
:1023A00051EC100B05F0E4FB53EC192B05F01CF875
:1023B000CDE906012FE06848A0421FDD02249FED11
:1023C000689B9DED060B53EC192B51EC100B05F09F
:1023D000F9F953EC182B04F053FF9DED060B41EC7B
:1023E000180B53EC192B51EC100B05F0C1FB53ECFF
:1023F000182B04F0F9FFCDE906010CE09DED060B6A
:10240000032453EC102B9FED580B51EC100B04F0F0
:10241000EBFFCDE906019DED060B53EC102B51ECC3
:10242000100B05F0CFF941EC180B53EC182B05F00D
:10243000C9F941EC190B4E480621B0EE490AF0EEFD
:10244000690A784400F09CF953EC182B51EC100BFE
:1024500005F0B8F941EC180B4648B0EE490AF0EE29
:10246000690A0521784400F08BF953EC192B51ECE3
:10247000100B05F0A7F941EC100B51EC180B53ECC5
:10248000102B002C0EDA04F0FBFE9DED061B53EC26
:10249000112B05F097F99DED061B53EC112B05F060
:1024A0008FFA35E004F0ECFE9DED061B53EC112B8A
:1024B00005F088F941EC100B2F48784400EBC4007C
:1024C00090ED001B51EC100B53EC112B05F050FB61
:1024D0009DED061B53EC112B05F04AFB41EC100B54
:1024E0002648784400EBC40090ED001B51EC100B23
:1024F00053EC112B05F064FA41EC100B002DA2BF38
:10250000BDEC068B02B070BD51EC100B04F07AFEEE
:1025100041EC100B01E70000000010440000F07FC8
:10252000182D4454FB21F93F182D4454FB21F9BFC9
:102530000000DC3F0000203E0000F33F00000000F0
:10254000000000000000F03F0000E63F0000000037
:102550000000000000000040008003400000000078
:10256000000000000000F83F000000000000F0BF85
:102570000A670000C06600004A66000002660000AC
:1025800070B56F4E2DED040B2DED048B82B0DDF890
:1025900024C0DDE907235C422CF000411C4341EAE2
:1025A000D474069D22F00040B44205D86C422C43FE
:1025B00040EAD474B4420BD99DED081B9DED060B87
:1025C00002B0BDEC048B04B0BDE8704000F05EB911
:1025D000ACF14054A4F17F641C430BD0022404EA04
:1025E000AC7444EAD27405439FED578B9FED582B92
:1025F00007D015E09DED060B51EC100B00F0C0F973
:1026000042E0002C11BF012C9DED060B02B0BDEC89
:10261000048B04BF04B070BD022C38D0032C3BD017
:102620000B439FED4D1B9FED4E0B0AD0B14218D1CD
:10263000B04209D121F0804120F0804009910790FB
:102640000FE0002A15DA10E0474B7B44002C08BF4E
:1026500093ED000B0DD0012C10D0022C17D0032CC1
:102660001AD0B0421DD1002A03DAB0EE410AF0EED2
:10267000610A02B0BDEC048B04B070BD93ED000B99
:1026800051EC100B04F0BEFD41EC100BF1E7B0EE85
:10269000480AF0EE680AECE7B0EE420AF0EE620A91
:1026A000E7E7401A00159FED329B3C28C8BF8DED2F
:1026B000000B17DCBCF1000FBCBF10F13C0F8DED1F
:1026C000009B0FDB9DED080B53EC102B9DED060BD3
:1026D00051EC100B04F088FE01F0F6F800F050F910
:1026E000CDE90001B4B1012C10D0022C9FED220BDA
:1026F00053EC102B9DED000B51EC100B19D005F095
:1027000037FA53EC182B05F033FABDE7019880F047
:10271000004001909DED000B53EC192B51EC100B78
:1027200004F0BAFF04BF0220FEF7AAF89DED000BEB
:102730009FE705F01DFA53EC182B05F041F9A3E7CC
:102740000000F07F00000000182D4454FB210940D8
:10275000182D4454FB2109C0182D4454FB21F9BF06
:10276000182D4454FB21F93F3265000000000000A1
:102770000000000000000000075C143326A6A13C06
:1027800070B504462DED028B4D1E00EBC500B0EE7A
:10279000408AF0EE608A90ED000B35F0060017D00D
:1027A00053EC182B51EC100B05F00CF841EC100B0E
:1027B0006D1E04EBC50090ED001B51EC100B53ECAB
:1027C000112B04F05DFD41EC100B35F00600E7D154
:1027D000022D36D0042D1CD0062D1CBFBDEC028B63
:1027E00070BD53EC182B51EC100B04F0EBFF94ED83
:1027F0000A1B53EC112B04F043FD53EC182B04F08F
:10280000E1FF94ED081B53EC112B04F039FD41EC72
:10281000100B53EC182B51EC100B04F0D3FF94ED7C
:10282000061B53EC112B04F02BFD53EC182B04F07A
:10283000C9FF94ED040B53EC102B04F021FD41EC87
:10284000100B53EC182B51EC100B04F0BBFF94ED64
:10285000021B53EC112B04F013FD53EC182B04F066
:10286000B1FF94ED001B53EC112B04F009FDBDECFE
:10287000028B41EC100B70BD10B553EC102B51ECDA
:10288000100B04F0FDFC41EC100B10BD10B553EC27
:10289000112B51EC100B04F0F3FC41EC100B10BDAC
:1028A0009FED050B10B553EC102B51EC100B04F001
:1028B0009BFD41EC100B10BD00000000000000006B
:1028C0009FED050B10B553EC102B51EC100B04F0E1
:1028D00079FF41EC100B10BD00000000000000105B
:1028E00030380A2801D20120704700207047704715
:1028F000FEB506460D460024684601F00BF800229E
:102900009FED1B1A6B46012156F8220055F82270E4
:10291000C01B00D5404200EE100A03EB8200B8EE67
:10292000C00AD0ED000A20EE010AF5EEC00AF1EE71
:1029300010FA0DD0C0EE201AB7EE000A0D4F31EE9E
:10294000C00AB0EEC00A10EE100AB84207DC09E077
:1029500010EE100A084F3844084FB84202D301FA6B
:1029600002F00443521C032ACEDB2046FEBD0000C9
:1029700000008037295C0F3E666666C19A99D900CF
:1029800010B541EC100BFFF78FFC51EC100B10BD94
:1029900070B5854D06462DED0A8B9FED84BB9FEDEE
:1029A00085CB686804F0E3FE9FED841B53EC112B8C
:1029B00004F008FF9FED831B53EC112B05F0D8F8B2
:1029C0002C6841EC180BB4F9100004F0D0FE41EC77
:1029D000190B53EC182B51EC180B04F0F3FE53ECCD
:1029E000192B04F0EFFE53EC1B2B04F0EBFE41EC33
:1029F000190BB4F90E0004F0BAFE53EC182B04F0D6
:102A0000E1FE9FED721B53EC112B04F0DBFE53EC47
:102A1000192B04F035FC41EC1A0BB4F90C0004F04E
:102A2000A6FE9FED6C1B53EC112B04F0CBFE41EC8A
:102A3000190B9FED6A0B51EC1A0B53EC102B04F0A1
:102A4000C1FE53EC192B04F01BFC41EC190BB4F93B
:102A5000080004F08CFE53EC182B04F0B3FE41EC9C
:102A60001A0BB4F90A0004F082FE53EC182B04F0A0
:102A7000A9FE53EC182B04F0A5FE9FED5A8B53ECE6
:102A8000182B04F09FFE53EC1A2B04F0F9FB53ECC7
:102A9000182B04F097FE41EC1A0BE08804F07EFE40
:102AA00041EC180B53EC1B2B51EC1A0B04F08AFE73
:102AB0009FED4E1B53EC112B04F0E2FB53EC182B53
:102AC00004F080FE41EC180B53EC1C2B04F0E4FDE9
:102AD00006D1B0EE4C0AF0EE6C0ABDEC0A8B70BD6C
:102AE000304604F044FE9FED431B53EC112B04F0E1
:102AF00067FF41EC1A0B9FED410B51EC190B53ECA6
:102B0000102B04F05FFE53EC1A2B04F059FF9FEDDD
:102B10003D1B53EC112B04F055FE53EC182B04F025
:102B200063FC2C6841EC180BB4F9160004F01FFE8E
:102B300053EC182B04F046FE53EC182B04F042FE25
:102B40009FED321B53EC112B04F03CFE41EC190BB2
:102B5000B4F9140004F00BFE53EC182B04F032FE11
:102B600053EC1B2B04F02EFE41EC1B0BB4F91200AE
:102B700004F0FDFD41EC1A0B53EC1B2B51EC190B2F
:102B800004F07EFB53EC1A2B04F07AFB9FED211B23
:102B900053EC112B04F016FE53EC182B04F070FBD1
:102BA00041EC100B99E70000280000200000000015
:102BB0000000003F000000000000000000000000D6
:102BC0000000E03F000000000040EF400000000077
:102BD00000000040000000000000F0400000000085
:102BE0000000D03F000000000000C03E00000000D8
:102BF0000000F03F00000000000030410000000035
:102C00000000303F00000000006AB84000000000F3
:102C10000000003E000000000000B03F2DE9F0473A
:102C20004A4F05462DED0A8B3C68B4F9020004F0CA
:102C30009EFD41EC180B208804F0B0FD894649EC5C
:102C4000100B06469FED421B51EC100B53EC112B61
:102C500004F0B8FD41EC190B284604F088FD8846C5
:102C600048EC100B9FED3C1B054653EC112B51EC2F
:102C7000100B04F0A7FD53EC192B04F079FF53EC73
:102C8000182B04F09FFD41EC190BB4F9040004F07B
:102C90006EFD49EC106B9FED32BB41EC180B53EC11
:102CA0001B2B51EC100B04F08DFD48EC105B9FEDDD
:102CB0002ECB41EC1A0B53EC1C2B51EC100B04F0F7
:102CC00081FD53EC1A2B04F053FF49EC106B41ECDF
:102CD0001A0B53EC1B2B51EC100B04F073FD48EC5A
:102CE000105B41EC1B0B53EC1C2B51EC100B04F054
:102CF00069FD53EC1B2B04F03BFF53EC1A2B04F043
:102D000061FD53EC182B04F05DFD41EC100B51EC10
:102D1000190B53EC102B04F0B3FA0D4645EC100BD5
:102D2000044651EC100B04F0F3FC45EC104B9FED06
:102D3000101B786053EC112B51EC100B04F054FB7A
:102D4000BDEC0A8B41EC100BBDE8F0872800002099
:102D5000000000000000503F000000000000103F95
:102D6000000000000000203F000000000000E03EE6
:102D7000000000000000B44010B504460420FEF737
:102D8000DFFC0A484FF47A71047014FB01F1012250
:102D900042804FF0E020026942F00202026141618C
:102DA000016941F00101016110BD000074000020C3
:102DB00070B5044603F0CAFF01280CD0094D68889D
:102DC000844203D3B4FBF0F003F034F96888B4FB19
:102DD000F0F100FB11444FF47A706043BDE870409D
:102DE00000F002B87400002070B54FF0E02500211B
:102DF0006C69094AAB6912785043AA699A42FCD0BF
:102E000002D2A3EB020302E0A4EB0206334419440E
:102E100013468142F1D370BD7400002008B560B143
:102E200020208DF8000028208DF8010030208DF83A
:102E3000020038208DF8030004E0A3220421684634
:102E4000FDF774FC6A46042140F69E2001F068FFFD
:102E500001F02CFC08BD00003EB5044602208DF8B0
:102E60000000CA208DF80100E3208DF8020009203F
:102E70008DF803006A460421682001F051FFA32069
:102E80008DF80000610609D5C0218DF80110C82118
:102E90008DF80210C2218DF8031005E08DF80100B5
:102EA0008DF802008DF8030014F4C07F09D0C4210E
:102EB0008DF80410CC218DF80510C6218DF8061070
:102EC00005E08DF804008DF805008DF806008DF8FA
:102ED00008008DF807008DF809006A460A2140F6BF
:102EE000A72001F01DFFA0074FF0D80503D0202038
:102EF0008DF8000001E08DF800506A46012140F68F
:102F0000B62001F00DFFA00601D5012000E0002051
:102F100000F090F814F4C07F1ED0E0050AD5B2206E
:102F20008DF800008B208DF80100B6208DF802008E
:102F30009B2009E0B0208DF8000080208DF8010072
:102F4000B4208DF8020090208DF803006A46042119
:102F500040F6A22001F0E4FEE0074FF40B6323D01B
:102F6000F8208DF800006A460121184601F0D8FECD
:102F7000FA21072000F04CFB072000F017FB01208E
:102F800000F034FB642000F0F3FB4FF4FA7000F023
:102F9000FFFBC821254800F0D1FA282000F0E6FA0E
:102FA0000A2000F0F3FA06E08DF800506A4601218D
:102FB000184601F0B5FEA00703D5D9208DF8000012
:102FC00001E08DF800506A46012140F23D7001F0A9
:102FD000A7FE600701D5012000E0002000F046F8C0
:102FE000E00601D5012000E00020FFF717FF104D9B
:102FF00044F00800688101F059FB0020A8736006C6
:1030000001D50620A87314F4C07F02D0A87B801DD0
:10301000A87314F0140F02D0A87B1030A873A00777
:1030200002D0A87B001DA87300203EBD09E3CA02A0
:10303000B40200200EB54FF4976308B105A000E07C
:1030400007A007C88DE807006A460921184601F065
:1030500067FE0EBDB8AAB38DB4980D355D000000B3
:10306000B8AAAAAAB088C3C5C700000008B560B155
:10307000C0208DF80000C2208DF80100C4208DF81A
:103080000200C6208DF8030004E08B22042168466C
:10309000FDF74CFB6A46042140F6982001F040FE03
:1030A00001F004FB08BD0000C8234FF48062024910
:1030B00040F6F63001F0DAB98C7E00082DE9FF4FBA
:1030C00089B01646DDE916520024DFF858810F4614
:1030D00081462C80A24698F80E00694601F074FAE9
:1030E0004FF0FF3B18B158460DB0BDE8F08FB8F86F
:1030F0000A0010F0140F4ED0BDF800109DF8022009
:1031000049BA090441EA022C9DF803104CEA010C6B
:10311000C6F800C0BDF804109DF8062049BA09049D
:1031200041EA02239DF807100B437360BDF80810B5
:103130009DF80A2049BA090441EA02219DF80B20B2
:103140001B141143B160BDF80C209DF80E4052BA1B
:10315000120442EA04229DF80F4009142243F2604F
:1031600010244FEA2C46121416FB06F613FB0363D9
:1031700011FB01F112FB02111944A1F17061B1F1CF
:10318000007F04D901F092FAA5F800A0ABE72988E6
:1031900041F48071298041066A460ED51119A41D9B
:1031A0000B885BBA3B804B885BBA7B80898849BAC5
:1031B000B980298841F00801298010F4C07F11D01E
:1031C0001119A41D0B885BBAA9F800304B885BBAB3
:1031D000A9F80230898849BAA9F80410298841F071
:1031E00070012980800718D01444E07800F0C005F1
:1031F00000F03F016078C00707D0C80801F0070160
:10320000D8F80020491C02B190476078000704D527
:10321000D8F8041009B1A80988470C9800F062FE9C
:10322000002061E7B40200202DE9FF41054603A814
:1032300000F0CCFFBDF80C00460CC7032F480189F5
:1032400001F0030055F82020480700D55242C1F391
:10325000C10055F82040880600D56442C1F38110B2
:1032600055F82030C80500D55B42A2FB0715D017E2
:1032700000FB075002FB0600820042EA9170A4FBAB
:103280000725E11701FB075104FB06118C0044EAF6
:103290009271A3FB0745DA1702FB075203FB0622D4
:1032A000930043EA9472030E8DF80030030C8DF8FE
:1032B0000130030A8DF802308DF80300080E8DF8F6
:1032C0000400080C8DF80500080A8DF80600100EA1
:1032D0008DF80800100C8DF80900100A8DF80A000E
:1032E0008DF807108DF80B206A460C214FF42570DD
:1032F00001F016FD04B0BDE8F0810000B40200202A
:1033000030B5044613A185B007C98DE807004FF01A
:10331000FF35C82C16D8C820B0FBF4F1491E080AA6
:103320008DF80C008DF80D1003AA022140F2162032
:1033300001F0F6FC30B96A460C2140F6C12001F0DC
:10334000EFFC10B1284605B030BD0548848100204F
:10335000F9E70000FEF2ABC4AAF1DFDFBBAFDFDFAD
:10336000B4020020F8B53049098901F0030250F891
:1033700022404A0700D56442C1F3C10250F822300E
:103380008A0600D55B42C1F3811250F82220C8059D
:1033900000D55242254984FB0140850045EA9470DE
:1033A00083FB014382FB0121950F45EA8105010E54
:1033B0008DF80010010C8DF80110010A8DF8021033
:1033C000A40F8DF8030044EA83046A4604214FF4F5
:1033D000747001F0A5FC4FF0FF3688B9200E8DF80F
:1033E0000000200C8DF80100200A8DF802008DF8F5
:1033F00003406A4604214FF4757001F091FC08B156
:103400003046F8BD280E8DF80000280C8DF801001C
:10341000280A8DF802008DF803506A4604214FF403
:10342000767001F07DFCF8BDB402002009E3CA0209
:103430002DE9FF4104463CA002AB006802903BA08E
:10344000006803903AA006683AA0056804F00300FB
:10345000195C8DF80010C4F3C1015A5C8DF801208D
:10346000C4F381129B5C8DF8023003AB185C8DF8BD
:103470000400585C8DF80500985C8DF806006A46DB
:10348000032140F2264001F04BFC4FF0FF37E0BB38
:1034900001AA032140F22A4001F042FCA8BBCDE979
:1034A000006560070BD59DF8000040F001008DF825
:1034B00000009DF8040040F001008DF80400A00613
:1034C0000BD59DF8010040F001008DF801009DF83A
:1034D000050040F001008DF80500E0050BD59DF8D2
:1034E000020040F001008DF802009DF8060040F057
:1034F00001008DF806006A4603214FF4886001F050
:103500000FFC10B901AA032100E004E040F23140B1
:1035100001F006FC18B1384604B0BDE8F081064859
:1035200004810020F8E700004CCD6C000CC92C0091
:103530003656760026466600B40200204FF47A72B2
:1035400090FBF2F008B54843010E8DF80010010C15
:103550008DF80110010A8DF802108DF803006A46FB
:1035600004214FF4AE7001F0DBFB08BD0521B0FB78
:10357000F1F008B5010A8DF800108DF801006A46D7
:1035800002214FF4AD7001F0CBFB08BD0521B0FB6B
:10359000F1F008B5010A8DF800108DF801006A46B7
:1035A00002214FF4AC7001F0BBFB08BD08B500214F
:1035B0008DF80010C10702D030218DF8001081076E
:1035C00005D59DF8001041F00C018DF80010400762
:1035D00005D59DF8000040F003008DF800006A4614
:1035E00001214FF4A47001F09BFB08BD08B560B148
:1035F000042800D90420401E8DF800006A460121ED
:1036000040F24F1001F08CFB08BD0120F3E70000F1
:1036100070B504462DED028B82B040074FF0FF35A8
:103620007ED0B1F5C86F7BD800EE101AB8EE400A14
:10363000DFED460A01A880EE208A00F0A9FD9DF882
:103640000400022806D0042810D0082835D01028FD
:1036500074D13EE09FED3E0A28EE000ABCEEC00A9F
:1036600010EE100A9FED3B0A82B20AE09FED3A0A83
:1036700028EE000ABCEEC00A10EE100A9FED370AD1
:1036800082B228EE000A6E46BCEEC00A10EE100AA6
:1036900081B2100A8DF800008DF80120080A8DF81B
:1036A00002008DF80310E00726D0324602214FF4C5
:1036B000EA7001F035FB98BB17E09FED290A28EE70
:1036C000000ABCEEC00A10EE100A9FED260A82B274
:1036D000D7E79FED250A28EE000ABCEEC00A10EEDF
:1036E000100A9FED220A82B2CBE7B21C02214FF4EE
:1036F000927001F015FB98B9A0070DD56A4602211A
:103700004FF4EC7001F00CFB50B9B21C02214FF4E5
:10371000947001F005FB18B9600714D56A4600E003
:103720000CE002214FF4EE7001F0FAFA30B9B21C4D
:1037300002214FF4967001F0F3FA20B1284602B04E
:10374000BDEC028B70BD0020F9E70000000048438B
:103750000000804600004046000000460000C045D2
:103760000000804500004045000000450000C044C6
:103770000521B0FBF1F008B5010A8DF800108DF8B5
:1037800001006A4602214FF4EF7001F0C9FA08BD4A
:103790000521B0FBF1F008B5010A8DF800108DF895
:1037A00001006A4602214FF4ED7001F0B9FA08BD3C
:1037B00070B5050005D140F2FB4214A118A0FCF73A
:1037C000DFFD1B4E3068854201D1002070BD02F044
:1037D000EBFA6C6902F024FBF06B844202D0306C8F
:1037E000844201D1022070BD1248844204D1A86AEB
:1037F0000028F7D1032070BD0E481438844202D04F
:103800000CB1012070BD042070BD00002E2E5C465E
:1038100072656552544F535C7461736B732E630011
:103820004572726F723A25732C25640D0A000000F0
:103830009000002014060020204DDFF88480DFF87F
:1038400084B04FF4007440F2E7394FF47A7A40F2D2
:10385000F31721462846FDF7C0FA4E464946404632
:10386000FEF746FA31464046FEF744FA31464046F6
:10387000FEF742FA31464046FEF740FA56465046B9
:1038800002F0D8FB39464046FEF732FA3946404648
:10389000FEF730FA39464046FEF72EFA39464046E2
:1038A000FEF72CFA304602F0C5FB21462846FDF70C
:1038B00096FADBF8040002F049FCCAE70004024073
:1038C000000400400000002082B0CDE9000121F09A
:1038D000004001909DED000B02B051EC100B7047C1
:1038E00004490A885206FCD5024AC1B2121D118051
:1038F000704700000048004010B503F027FA012887
:1039000003D0BDE8104003F02FBA0148406810BD55
:10391000740000201CB5044627486B46042240680A
:103920000D210078FDF717FC08B107201CBD9DF89C
:1039300000001C2101EAD0029DF803009FED1F1A30
:10394000C0F301131A438DF804209DF80120C0F341
:10395000810301EAD2021A438DF805209DF8022066
:1039600000F0030001EAD20101438DF80610DFEDFB
:10397000141A9FED140A002101A8425C22B104EB45
:103980008103C3ED001A0AE004EB810282ED001A04
:103990000BE0D3ED000A60EE800AC3ED000A425C42
:1039A000521E12F0FF024254F3D1491CC9B203293E
:1039B000E3D300201CBD0000300000200000000008
:1039C0007B14AE3E1D5A843F2DE9FE4F0546012073
:1039D000C14E8DF800004FF000088DF8018030686E
:1039E0000C461746817C70686B4602220078FDF712
:1039F0003EFC4FF0FF3A00287AD1C820FFF7D8F9F3
:103A00008DF8008030686B460122C17B70680078B9
:103A1000FDF72DFC0028EFD130686B46012241797B
:103A200070680078FDF723FC0028E5D130686B460C
:103A30000122817C70680078FDF719FC0028DBD139
:103A400030686B460122C17D70680078FDF70FFC7D
:103A50000028D1D130686B46012201797068007866
:103A6000FDF705FC0028C7D14FF00C098DF8009038
:103A700030686B460122017970680078FDF7F7FB2A
:103A8000002835D10F20FFF793F9B06A6B46012269
:103A9000407A8DF800003068817870680078FDF712
:103AA000E6FB002824D1B06A6B460122007A8DF82B
:103AB00000003068417870680078FDF7D8FB002876
:103AC00073D1B06A807A0FB140F0E0008DF8000049
:103AD00030686B460122817970680078FDF7C7FB7A
:103AE000002862D12FB1B06AC07A40F0E00001E056
:103AF0004AE018208DF8000030686B460122C17939
:103B000070680078FDF7B3FBF0BB17B1C820FFF772
:103B10004FF940208DF8000030686B460122017992
:103B200070680078FDF7A3FB70BB78208DF800006B
:103B300030686B460122417970680078FDF797FB89
:103B400010BB3220FFF734F98DF80080306847460B
:103B50006B464179706801220078FDF788FB98B9BF
:103B600031687068B046897A00786B460222FDF7AA
:103B7000F2FA48B9BDF80000AF6040BAB0FBF9F006
:103B80006F60C6B22F6000E00FE0A760676027603B
:103B9000002739E0D8F80010D8F804006B46C97A3D
:103BA00000780C22FDF7D7FA10B15046BDE8FE8F21
:103BB000BDF80000236840BA02B2BDF802001A4402
:103BC00040BA01B2BDF804002260626840BA1144F4
:103BD0006160A16800B20844A060BDF806002B68CF
:103BE00040BA02B2BDF808001A4440BA01B2BDF8AA
:103BF0000A002A606A6840BA11446960A96800B284
:103C000008447F1CFFB2A860B742C3D32868832250
:103C1000C117090441EA104100040023FCF78BFBA3
:103C200032460023FCF787FB286068688322C117AF
:103C3000090441EA104100040023FCF77CFB3246F2
:103C40000023FCF778FB6860A8688322C117090489
:103C500041EA104100040023FCF76DFB32460023CB
:103C6000FCF769FBA86020684FF40065C1170904E0
:103C700041EA104100042A460023FCF75CFB32466F
:103C80000023FCF758FB206060682A46C11709042E
:103C900041EA104100040023FCF74DFB32460023AB
:103CA000FCF749FB6060A0682A46C117090441EA95
:103CB000104100040023FCF73EFB32460023FCF7D2
:103CC0003AFBA060002802DDA0F5803001E000F59D
:103CD0008030A060002069E730000020F8B506467B
:103CE0002E480D46002440686B46032200780D21C3
:103CF000FDF731FA08B10720F8BD9DF80000002259
:103D000000F01F008DF800009DF80100DFED241A7F
:103D100000F01F008DF801009DF80200694600F0D8
:103D20001F008DF80200012356F8220055F822707A
:103D3000C01B00D5404200EE100A885CB8EEC00AF5
:103D400060EE210AD0B1B3EE090A9FED161A01E028
:103D500020EE010AC0B2401E10F0FF008854F7D1D7
:103D600080EE801AB7EE000A0F4F31EE400AB0EE37
:103D7000C00A10EE100AB84207DC09E010EE900A03
:103D80000A4F3844B0F1D97F02D903FA02F0044354
:103D9000521C032AC8DB2046F8BD0000300000207A
:103DA0000000803754E3853F295C0F3E0000E0BEF1
:103DB00000B5024600F00DF80346D01C00F009F8EB
:103DC00043EAC003901D00F004F843EA801080B27B
:103DD00000BD90F90010002902DD4FF0000070478F
:103DE00002DA4FF00400704790F90110002902DD5B
:103DF0004FF00100704702DA4FF00500704790F96C
:103E00000200002802DD4FF00200704702DA4FF096
:103E1000060070474FF00700704700001CB50121F5
:103E20000220FDF78BFA4FF40070009001208DF80E
:103E3000040000208DF8060002208DF80500694678
:103E40000148FCF77EFF1CBD000402401CB54FF486
:103E50004070FDF769FAA820FEF78EFFFFF7DEFF3E
:103E6000134801F021FEFDF7F3FCFDF733FBFCF7EF
:103E7000D9FFFDF719F90028FBD1FCF7B1FE05E0E9
:103E800000F036F901460BA0FCF77AFA00F030F9A1
:103E90000028F5D10E490220CDE9000100234FF49E
:103EA00096720CA10E4802F025FF02F011FBFEE70E
:103EB00020A10700646D7020B3F5CABCBBAFCAA7D0
:103EC000B0DCA3A12D2D2D2D2D25640A00000000AE
:103ED0000000002053544152545F5441534B0000A2
:103EE000C15900087047FEB5060A8DF800608DF8CC
:103EF0000100080A8DF80200100A8DF804008DF800
:103F00000520DDE90854180A8DF80600280A8DF806
:103F100008008DF80950200A8DF80A008DF803106A
:103F20008DF807308DF80B400C226946A12001F076
:103F300011FEFEBD2DE9F041134D20F001040026D5
:103F400095F8240010B10020BDE8F081A87A4FF068
:103F5000FF3838B120402F7C2874A04200D046465C
:103F600024B901E04046EFE7287D40B1012001F08F
:103F7000C5FC3CB100F09AFB20B12F74F2E70020A1
:103F800001F0BCFC3046DFE73000002070B50D4684
:103F90002DED0C8B8EB006460CA906A81446F7EE44
:103FA00000BACDE900010BAB02AA09A907A8FFF7E7
:103FB00085F820B101200EB0BDEC0C8B70BDBDF8B2
:103FC0001800C0057ED59DED020AF8EEC00A9FEDEF
:103FD000450AB0EE00CA60EE809ADDED030AF8EE05
:103FE000E00A69EE8CCA60EE808ADDED040AF8EE24
:103FF000E00A20EE808ADDED050AF8EEE00A20EE08
:10400000809AB8EE000A28EE80BA2BEE090A0CEE70
:10401000880A10EE100A03F095FE41EC100BFDF734
:1040200093FF9FED31AB51EC100B53EC1A2B03F0C7
:10403000C9FB03F0F3F82BEE280A28EE0CDA306007
:104040000DEE480A30EE2B0A10EE100A03F07AFE4D
:104050002DEE090A41EC1B0B0CEEA80A10EE100A1B
:1040600003F070FE41EC100BB0EE4B1AF0EE6B1A41
:10407000FEF786FA53EC1A2B51EC100B03F0A2FB5F
:1040800003F0CCF829EEA90A286008EEA80A08EE89
:10409000480A09EE490A10EE100A03F053FE28EE12
:1040A000880A41EC1B0B09EE890A20EE0C0A10EE7F
:1040B000100A03F047FE41EC100BB0EE4B1AF0EE85
:1040C0006B1A00E00CE0FEF75BFA53EC1A2B51EC94
:1040D000100B03F077FB03F0A1F8206000206AE7E3
:1040E000022068E7000080306666666666A64C407F
:1040F00010B500F0F7F888BB782000F0B5FD10F09F
:10410000FF0F01D0012010BD7820FFF713FF10F042
:10411000FF0F01D0022010BD642000F069FD10F0F7
:10412000FF0F01D0032010BDFEF7BEFF10F0FF0F00
:1041300001D0042010BD1548FFF73AFEFFF778F9CB
:1041400010F0FF0F01D0052010BD40F27310FEF7F4
:1041500083FE10F0FF0F02D0062010BD14E0642093
:10416000FFF7CEF810F0FF0F01D00720F5E701F0C0
:104170001BFB08B10820F0E7012000F05FFC10F005
:10418000FF0F01D00920E8E70020E6E75C000020EF
:104190000D4A517A41B1012908D002290FD00329D3
:1041A0000FD04FF0FF307047022100E00421017072
:1041B000D17C11B1017849000170002070470821BD
:1041C000F5E71021F3E70000300000200F4A517A94
:1041D00041B1012909D0022911D0032912D04FF091
:1041E000FF3070474FF4804101E041F69C7101803F
:1041F000D17C11B1018849080180002070474FF43B
:104200008051F4E74FF40061F1E700003000002036
:104210000B49097A39B1012907D002290AD00329AB
:104220000BD0002103E0FA2101E04FF4FA71018084
:10423000002070474FF47A71F9E74FF4FA61F6E71E
:10424000300000200D49097A41B1012909D0022925
:104250000DD003290ED04FF0FF3070479FED080AB4
:1042600001E09FED080A80ED000A002070479FEDF5
:10427000060AF8E79FED050AF5E700003000002088
:10428000000003430000834233330342333383414E
:104290000C49C97A072913D2DFE801F01204060A93
:1042A0000C0E1000BC2100E062210180002070474C
:1042B0002A21FAE71421F8E70A21F6E70521F4E7B5
:1042C0000021F2E730000020054991F8242012B1C6
:1042D0004FF0FF307047C98901800020704700000F
:1042E000300000202DE9FC414C4C80208DF800006E
:1042F00020686B460122817C60680078FCF7B7FF7C
:104300004FF0FF37002832D16420FEF751FD002521
:104310008DF8005020686B460122817C606800782F
:10432000FCF7A5FF002870D120686B460622817D2E
:1043300060680078FCF70FFF002866D19DF8050043
:104340009DF80310C007400F01F0010140EA410150
:104350009DF801004FF0010600F00100014309D073
:10436000012905D0022915D02DA0FCF709F84CE051
:10437000E67410E020686B460122C178606800781E
:10438000FCF7E9FE40BB9DF8000010F00F0020D0C4
:10439000042822D0E574FF2004F80A0F4FF6FF71BD
:1043A00004F8020C04F8010C6070A180A071207266
:1043B000A67026766576E572A572E5602561656171
:1043C000A576E576A5834FF4FA6000F073FB18B983
:1043D00007E01D48FBF7D4FF17E01CA0FBF7D0FF58
:1043E000C6E7022000F088FA78B92A2000F0CAFB5C
:1043F00058B9322000F0FCFB38B90020FFF79AFDD5
:1044000018B9002000F0ACFA10B13846BDE8FC81C4
:10441000002000F029FC0020F8E700003000002018
:10442000556E737570706F7274656420736F667407
:10443000776172652070726F64756374207265763F
:104440002025642E0A000000888B000848616C66F5
:104450002073656E7369746976697479207061720E
:104460007420666F756E642E0A0000002DE9FF4F00
:10447000DFF898A0054685B09AF825009146884651
:104480004FF0FF3BC0BBB8F1000F35D000241FE058
:10449000281B102800DD102086B208EB04073A46DE
:1044A0003146204600F03CFC30BB6A46314620468F
:1044B00000F0D2F800BB384632466946FCF782F875
:1044C00020B16FF0010009B0BDE8F08FA01984B2EF
:1044D000AC42DDD34FEA19208DF810008DF8119011
:1044E000DAF80000544604AB817EDAF804000222B8
:1044F0000078FCF7BCFE08B15846E4E7012084F8D8
:1045000025000898E0840020DDE70000300000204E
:104510002DE9F84304464FF0FF39282844D80727EF
:10452000284D00267CB1012000F0FAFA20208DF8F9
:1045300000004FF00108012C17D0052C18D88DF879
:10454000018005201FE0002000F0EAFA8DF80060ED
:104550008DF8017028686B460222817C68680078BB
:10456000FCF785FE00BB2E7529E08DF80160E8E7B9
:10457000142C04D802208DF801000A2003E0032047
:104580008DF80100142000F0FDFA9DF801006B4643
:1045900007EB80108DF8010028680222817C686892
:1045A0000078FCF764FE10B14846BDE8F8830820A7
:1045B000A8722E7385F814800020FFF7BBFC002042
:1045C000F3E70000300000202DE9F843214E0546B6
:1045D000174696F8240089464FF0FF3890B3B07A1A
:1045E00080B330686B460222817A70680078FCF7ED
:1045F000B2FD38BBBDF8000044BAAC4202D2002084
:1046000038701FE070684188B4EB510F11D93168E0
:1046100000786B46497C0122FCF79DFD90B99DF81E
:104620000000C00605D500F041F86FF00100BDE8BC
:10463000F8833068EAB24B46C17A70680078FCF7BC
:104640008AFD08B14046F2E7B4FBF5F0401E387031
:104650000020ECE730000020F8B517000D464FF0C1
:10466000FF341FD0104EB17AE1B1010A8DF800106D
:10467000C0B28DF80100411970684289914211D889
:10468000316800786B46097E0222FCF7F0FD48B9DC
:104690003068EAB23B46417D70680078FCF75BFD0C
:1046A000002800D02046F8BD30000020F8B5554D58
:1046B0004FF0FF36A87A00287ED000248DF8004005
:1046C00028686B460122C17B68680078FCF7CFFD43
:1046D000002871D128686B4601224179686800780A
:1046E000FCF7C5FD002867D128686B4601220179D7
:1046F00068680078FCF7BBFD00285DD195F82400C0
:10470000E0B30C208DF8000028686B460122017987
:1047100068680078FCF7ABFD002871D13220FEF705
:1047200047FBC0208DF80000A87AC00702D0E02027
:104730008DF8000028686B460122017968680078CE
:10474000FCF795FD00285BD1687C18B102208DF83C
:10475000000001E08DF8004028686B460122C17B13
:1047600068680078FCF783FD30BB8DF8004028684E
:104770006B4601224179686800783DE0FFE704203C
:104780008DF8000028686B4601220179686800787E
:10479000FCF76DFD80B9A87C88B9A87AC0070ED057
:1047A00060208DF8000028686B4601220179686856
:1047B0000078FCF75CFD00E022E008BB01E040204F
:1047C000EFE73220FEF7F4FA687C18B101208DF88B
:1047D000000001E08DF8004028686B460122C17B93
:1047E00068680078FCF743FD50B92868054B012242
:1047F0004179686810330078FCF739FD002800D053
:104800003046F8BD300000202DE9F047394E824691
:104810008AB096F824000F4620B1002000F00EF96F
:10482000012500E0002507A8FFF7F2FC06A8FFF726
:10483000AFFC09A8FFF72CFD08A8FFF745FD96F887
:104840000A9096F810800024002239465046FFF75F
:10485000BBF810B1641C022CF6DB022C1AD0002429
:10486000012203A96846FFF7AFF810B1641C022CBF
:10487000F6DB022C0ED003A93846FEF739F8C7B292
:1048800069465046FFF72AFA10F0FF0F4FF0000478
:1048900002D002E0002403E001240FB944F0020436
:1048A000FF2030727072F0724FF6FF71F181B072BA
:1048B000307401203073BDF81C0000F0FBF89DF847
:1048C000180000F019F8BDF8240000F05BF9BDF8FD
:1048D000200000F08DF9484600F0C6F94046FFF789
:1048E00029FB15B1012000F0A9F80AB02046BDE867
:1048F000F08700003000002038B5184C4FF0FF352D
:10490000A17A19B3022806D0042806D008280ED0B0
:1049100010281BD10DE0002000E008208DF80000D9
:10492000607A9DF80010B0EBD10F04D005E01020A4
:10493000F4E71820F2E7002038BD20686B4601221A
:10494000C17960680078FCF792FC08B1284638BD50
:104950009DF80000C0086072EDE700003000002004
:10496000F8B5354D0446A87CA04201D10020F8BD21
:1049700031484FF0FF366B46D0E900104FF001028E
:104980000979007834B3FCF7E6FB70BB9DF80000B2
:104990006B4620F020008DF8000028680122017984
:1049A00068680078FCF763FCF8B90320FEF700FAAA
:1049B00002208DF8000095F8220078B382202BE0C9
:1049C00028686B460122017D68680078FCF74FFC7F
:1049D00058B92EE0FCF7BFFB38B9A87AC0079DF89C
:1049E000000003D040F0200002E00CE020F02000A6
:1049F0008DF8000028686B4601220179686800780C
:104A0000FCF735FC08B13046F8BD0320FEF7D0F9BD
:104A100095F8220000B180208DF8000095F8230061
:104A20000028CDD09DF8000040F030008DF8000047
:104A3000C6E7AC749AE700003000002038B51C4C83
:104A400094F8241081421DD0002500B394F825006D
:104A5000D0B1002000F052FF0020FFF781FFE08C72
:104A600000F0C6F88DF8005060686B4601220078AF
:104A70002321FCF7FCFB012084F8240000F03EFF1A
:104A8000FFF714FE002038BD4FF0FF3038BD002086
:104A900000F034FF207C8DF8000060686B46012236
:104AA00000782321FCF7E3FB84F82450E8E70000BA
:104AB0003000002038B5194C4FF0FF35A17A31B3E2
:104AC000FA2809D0B0F5FA7F08D0B0F57A7F0FD078
:104AD000B0F5FA6F1BD10DE0002000E008208DF842
:104AE0000000207A9DF80010B0EBD10F04D005E053
:104AF0001020F4E71820F2E7002038BD20686B464C
:104B00000122817960680078FCF7B1FB08B1284682
:104B100038BD9DF80000C0082072EDE7300000208D
:104B200038B5174D044695F82300A04201D1002066
:104B300038BD0CB1302000E000208DF80000A87CCA
:104B400028B19DF8000040F002008DF8000095F8B3
:104B5000220028B19DF8000040F080008DF8000090
:104B600028686B460122017D68680078FCF77FFBAE
:104B700010B14FF0FF3038BD85F82340D7E7000073
:104B80003000002038B5194C4FF0FF35A17A31B311
:104B9000BC2801D3012010E0622801D302200CE0E0
:104BA0002A2801D3032008E0142801D3042004E0BC
:104BB0000A2801D3052000E006208DF80000E07AE5
:104BC0009DF80010884201D1002038BD20686B4656
:104BD0000122817860680078FCF749FB08B128461B
:104BE00038BD9DF80000E072EEE7000030000020C4
:104BF000F8B51C4D04464FF0FF37A87A28B395F856
:104C0000240010BB287D48B12CB1282C03D8E0B279
:104C1000FFF77EFC24E00020FFF77AFC4FF47A7661
:104C2000042C01D2042402E0B44200D93446B6FB7D
:104C3000F4F0401E8DF8000028686B460122417890
:104C400068680078FCF713FB08B13846F8BD9DF89A
:104C50000000401CB6FBF0F0E8814008FFF792FF2F
:104C60000020F8BD30000020F8B5044610F0700FA9
:104C70004FF0000601D0012004E014B18DF800606F
:104C800002E040208DF80000244D6B460122286888
:104C9000817C68680078FCF7EAFA4FF0FF3760BB68
:104CA0009DF8000020F0400028738DF80060600639
:104CB00002D404208DF80000A00605D49DF8000061
:104CC00040F002008DF80000E00605D49DF80000D9
:104CD00040F001008DF80000200705D49DF8000089
:104CE00040F038008DF8000028686B460122C17C36
:104CF00068680078FCF7BBFA10B1AE723846F8BDB0
:104D000024B1082C02D00020FFF70AFFAC722E75E8
:104D10003220FEF74DF80020F8BD000030000020E2
:104D2000F8B517000D464FF0FF341FD0104EB17A82
:104D3000E1B1010A8DF80010C0B28DF801004119EF
:104D400070684289914211D8316800786B46097EBB
:104D50000222FCF78CFA48B93068EAB23B46417D42
:104D600070680078FCF783FA002800D02046F8BD70
:104D7000300000202DE9F041184E0F460446F5683A
:104D80003068001D00F072FF38B9306890F82C10C0
:104D900001208840316981433161601C07D137B1FE
:104DA0003168BDE8F0410E48091D00F0F1BF3068E0
:104DB0002C44AC424460316805D2306CBDE8F0410F
:104DC000091D00F0CDBFF06B091D00F0C9FFB06AEE
:104DD000844200D2B462BDE8F0810000900000205F
:104DE000140600202DE9F041054600F0DDFF2D4EB0
:104DF000B068401CB06030682B4F10B1706930B3A0
:104E00002BE03560B068012827D1002404EB840032
:104E100007EB800000F096FF641C202CF6D323489B
:104E200000F090FF2148143000F08CFF1F4828301C
:104E300000F088FF1D483C3000F084FF1B485030D4
:104E400000F080FF1948F0631430306405E03068EA
:104E5000E96AC06A884200D83560706A0121401C46
:104E600070626864E86A326981401143316100EB25
:104E7000800007EB8000291D00F08AFF00F0D0FFC2
:104E8000706900280CD03068E96AC06A884207D28D
:104E900007494FF080500860BFF34F8FBFF36F8F0B
:104EA000BDE8F0819000002044030020C4050020EC
:104EB00004ED00E010B500F077FF0E4C2068A0B9BB
:104EC0000D4800F03FFF0C48143000F03BFF0A484B
:104ED000E0601430206100221021052001F040FC28
:104EE000206010B105A101F071F8BDE8104000F09C
:104EF00097BF0000D400002028060020546D725196
:104F00000000000070B5124E124D1CE001F02CFBA9
:104F1000306820B1002402F047F8A4B901E0012470
:104F2000F9E700F041FFF068C468201D00F09EFE24
:104F3000A868401EA8606868401E686000F070FFA6
:104F4000204600F052F868680028DFD170BD0000EC
:104F5000000600209000002030B4026C0B46002AAE
:104F60000BD0C1681144C1604468A14201D30168FB
:104F7000C16030BC1846FBF794BB30BC70472DE9CC
:104F8000F041856B174604460026026C82B1C7B11A
:104F9000E068FBF786FBE168206C091AE160226893
:104FA000914202D26168081AE060022F16D017E021
:104FB0002068A8B9606801F051FF064600206060D3
:104FC0000EE0A068FBF76DFB216CA0680844A060B0
:104FD0006168884204D32068A06001E005B16D1EBD
:104FE0006D1CA5633046BDE8F08110B50446006B2A
:104FF00000F048FF2046BDE8104000F043BF00002D
:1050000010484FF4A041420706D0C01D0D4920F0C2
:105010000700411AC1F5A0410B4A00230144C2E92F
:1050200000030839103A21F0070111604B600B6052
:105030000B1AC0E9001393604FF000405360D0603A
:10504000704700005006002004010020074E4FF07A
:105050008054074DFFF756FF30680128FAD92C60BD
:10506000BFF34F8FBFF36F8FF4E7000044030020BE
:1050700004ED00E02DE9F047DDE909840E4617460E
:10508000824691009946089DA522206BFBF74EFBB6
:105090006FF00301206B01EB8701084420F0070744
:1050A000780705D040F22B3219A11EA0FBF768F952
:1050B00000202218315C82F83410315C11B1401CA0
:1050C0001028F6D3002684F84360202D00D31F2536
:1050D000E562C4E91356201D00F03FFE04F11800FC
:1050E00000F03BFE2461C5F120006462A0616665AA
:1050F000A66584F85C604A465146384600F03EFB9F
:105100002060B8F1000F01D0C8F80040BDE8F0877A
:105110002E2E5C4672656552544F535C7461736BFE
:10512000732E63004572726F723A25732C25640DDD
:105130000A00000030B5114900E011460A688242B9
:10514000FBD34B685C18844203D140681844486024
:10515000084643681C18944209D1084C103C246846
:10516000A24209D052681A4442600A68126802607A
:10517000814200D0086030BD0460F9E704010020DE
:1051800070B5002441600B4D0061914206D8D11AE0
:105190008269914206D2011D286907E09A4203D232
:1051A000994201D3012403E0011DE86800F0D8FD15
:1051B000204670BDD400002010B5044600F0F4FD78
:1051C000A06B20B1002400F02BFE204610BD01246E
:1051D000F9E72DE9F0478146086892460C4600251C
:1051E000F8B1486801F1080640684860B04201D152
:1051F00040684860D0F80C80606842686260B242E3
:1052000001D151686160606805EBC50109EB81015E
:10521000C76853460122384600F0FEFF6D1C474523
:10522000EAD12846BDE8F0872DE9F34100980F4602
:105230000026846C2CB940F6CE1216A11AA0FBF7FA
:105240009FF8A06BE16B884205D340F6CF1211A105
:1052500015A0FBF795F8A06BE16B88420CD294F98E
:1052600045503A4669462046FFF789FE0646681CC7
:1052700005D06D1C84F845503046BDE8FC81606A5D
:105280000028F9D004F1240001F042FE0028F3D0F8
:105290000126F1E72E2E5C4672656552544F535C31
:1052A00071756575652E63004572726F723A25736C
:1052B0002C25640D0A000000F8B5054614480E467A
:1052C000C068C068C468201D00F0D0FCE0690128F7
:1052D00017D1A0692B46411932462046FFF750FFEF
:1052E00078B100200346014600902A46204601F08E
:1052F00041FF30B907494FF4027201F11800FBF782
:105300003FF8616A01B02046BDE8F0400847000060
:10531000D4000020D870000870B586B02F4E53E03E
:105320000198002806DADDE90301029A9047019806
:10533000002849DB039C606910B1201D00F096FC39
:1053400005A800F0A7F8054601980A283CD2DFE836
:1053500000F00505053B273805053B270298A169A4
:10536000034601442A462046FFF70AFF00282BD0B7
:10537000616A20468847E069012825D10020009015
:105380000298A169002342181946204601F0F2FE56
:10539000D0B940F2213212A117A0FAF7F1FF13E0C1
:1053A0000298A06128B94FF44E720DA112A0FAF72D
:1053B000E7FFA0692B4641191A462046FFF7E0FE99
:1053C00002E0204600F05EFD00231A4601A9306885
:1053D00001F002FA0028A3D106B070BDD40000206D
:1053E0002E2E5C4672656552544F535C74696D6530
:1053F00072732E63000000004572726F723A25735B
:105400002C25640D0A000000F8B50D46064601F093
:10541000ABF8684600F03EF80446009810B101F081
:10542000C3FDF8BD1148ADB101690968D9B10025C6
:10543000311B2A46006800F0DBFD01F0B5FD0028B5
:10544000EFD10B494FF080500860BFF34F8FBFF38F
:105450006F8FF8BDA642EBD801F0A6FD214630467D
:10546000FFF72AFFF8BD0125E2E70000D400002085
:1054700004ED00E00648C16B096829B1C16BC96839
:10548000C9684968816270474FF0FF31FAE7000050
:105490009000002070B5054601F066FC064E0446FB
:1054A000B068844203D200F009F8012000E0002037
:1054B00028602046B46070BDD4000020F8B5184EB6
:1054C00026E0C068C4680568201D00F0CFFB616A53
:1054D00020468847E06901281AD1A0692844A842DB
:1054E00006D924616060211DF06800F039FC0FE0EE
:1054F00000200346014600902A46204601F03AFE6D
:1055000030B9084940F2923201F11800FAF738FF39
:10551000F06801680029D4D13169C6E90310F8BDEB
:10552000D4000020D870000808484068401C05D00E
:1055300040F20F1206A111A0FAF722FF502080F3CB
:105540001188BFF34F8FBFF36F8FFEE7E800002095
:105550002E2E5C4672656552544F535C706F7274A8
:1055600061626C655C525644535C41524D5F434DE1
:1055700034465C706F72742E630000004572726F67
:10558000723A25732C25640D0A000000084CE0686F
:10559000016839B1002139B10020FFF735FFFFF76D
:1055A000BBFEF4E70121F6E7C0680068F5E70000FC
:1055B000D40000202DE9F041044600F0F5FB94F9F9
:1055C000455004F1240610E0A06C20B100212046D3
:1055D000FFF72AFE04E0606A48B1304601F098FC0B
:1055E00008B100F0B1FE6D1E6DB2002DECDC4FF085
:1055F000FF3684F8456000F013FC00F0D5FB94F909
:10560000445004F1100709E0206948B1384601F020
:105610007FFC08B100F098FE6D1E6DB2002DF3DC2A
:1056200084F84460BDE8F04100F0FABB10B50446D0
:10563000FAF7F4FF2046FBF715F8202101E021548A
:10564000401C0F28FBD300212154204410BD000032
:105650002DE9F0410546002600F086FF324F3868FC
:1056600008B9FFF7CDFCF86805424FD1002D4DD0A9
:10567000083568070BD005F00700C0F108000544A5
:10568000680704D0BF2229A132A0FAF779FE002DC5
:105690003CD07868854239D82349103108460468DF
:1056A00001E0214604466068A84202D22068002832
:1056B000F7D13868B846844228D00E682068086060
:1056C00060680836401B10280ED96719780704D087
:1056D000EC2216A11FA0FAF753FE6068401B786009
:1056E00038466560FFF726FD6168D8F80400424639
:1056F000401AC8F80400D8F80830984200D29060E8
:10570000D8F80C0001430020C4E9000101F04CFC72
:10571000700705D04FF4967204A10EA0FAF730FE80
:105720003046BDE8F0810000F40000202E2E5C46DB
:1057300072656552544F535C706F727461626C6530
:105740005C4D656D4D616E675C686561705F342EA0
:10575000630000004572726F723A25732C25640D48
:105760000A0000000449086818B10868026D521C5C
:1057700002650868704700009000002010B5031F04
:105780004FF080741C601B1F21F001011960191F6C
:10579000044B0B6014390A60091F6FF00202443891
:1057A0000A6010BD2955000800B589B002A905A8F6
:1057B000FFF72AF8032802D0012009B000BD68468F
:1057C000FEF740FD9DED050A05A8F8EEC00A9DED27
:1057D000000A60EE800AFDEEE00ACDED050ADDED7F
:1057E000060AF8EEE00A60EE800AFDEEE00ACDED72
:1057F000060ADDED070AF8EEE00A20EE800ABDEEAB
:10580000C00A8DED070AFDF7ADFD01A8FEF7DEFC2D
:10581000BDF8040002994143029103994143039169
:105820000499414302A80491FDF7FEFC0020C4E75F
:1058300090B00024FEF760F80E9005210EA800F04D
:105840002FFCFBF76CF9FBF755F90DAA0CA90BA877
:10585000FEF79CFB0028F0D106AA07A908A8FBF7D1
:10586000F1FB09AA0AA905A8FBF705FC002CE4D066
:10587000BDF92410BDF92800CDE90001BDF91430AF
:10588000BDF91820BDF91C10BDF92000FEF72BFB57
:105890009DED0D0AF2EE040ABDF9243020EE200A37
:1058A000DDED0B0ABDEEC00A10EE100A9FED120AE4
:1058B00000B260EE800AFDEEE00A10EE901ADDED17
:1058C0000C0A09B220EE800ACDE90310BDEEC00A31
:1058D00010EE102A12B2CDE90132BDF92800009075
:1058E000BDF91430BDF91820BDF91C10BDF9200018
:1058F00000F060F9A1E700000000C842F8B5134CC1
:105900000023224694F82460D2E900125D1E56B1AD
:1059100090B102200DE01078C97B6B460122FBF7A5
:10592000A6FC60B90DE0A67A4EB128B1607C58B9EA
:1059300001208DF80000EEE78DF80030EBE72846F7
:10594000F8BD9DF8000060740020F8BD3000002014
:1059500000B52DED048B83B041EC190B02F03CF83F
:1059600041EC180B18EE100A18EE901A8DED008B12
:10597000002818BF0120084320F00040C0F17F60DC
:1059800000F1E040C00F14D019EE101A19EE900A81
:105990008DED009B002918BF0121084320F0004035
:1059A000C0F17F6000F1E040C00F04BF0120FAF7B2
:1059B00067FF51EC180B03B0BDEC048B00BD000079
:1059C0001CB500F0F1F91E490620CDE900010023C5
:1059D0004FF480721BA11F4801F08CF91849052073
:1059E000091DCDE900014FF40074002322461AA1DD
:1059F0001D4801F07FF9124903200C31CDE9000167
:105A00000023224619A11E4801F074F90C49042014
:105A10000831CDE90001002322461AA11B4801F0FC
:105A200069F900F0F7FD014619A0FAF7A9FC04484E
:105A3000001F006800F08AFBBDE81C4000F0F0B9D0
:105A400004000020657363696E69745F7461736B31
:105A5000000000003938000873656E736F72735F61
:105A60007461736B000000003158000852756E5469
:105A7000696D6553746174735F7461736B000000CA
:105A80007114000852435F7461736B002D14000899
:105A90004672656520686561703A202564206279E8
:105AA0007465730A00000000F0B5074687B0012155
:105AB0000220FBF743FC01218804FBF74BFC234E3B
:105AC00007220A213046FBF778F907220B213046DE
:105AD000FBF773F94FF44060049002208DF8140036
