:020000040800F2
:10000000705E0020350300084D1600080B10000834
:1000100099140008B50A0008A52400080000000093
:100020000000000000000000000000007D02000849
:10003000F10A000800000000D1020008E51C0008D9
:100040004F0300084F0300084F0300084F03000848
:100050004F0300084F0300084F0300084F03000838
:100060004F0300084F0300084F0300084F03000828
:100070004F0300084F0300084F0300084F03000818
:100080004F0300084F0300084F0300084F03000808
:100090004F0300084F0300084F0300084F030008F8
:1000A0004F0300084F0300084F0300084F030008E8
:1000B000551D00084F0300084F0300084F030008B8
:1000C0004F0300084F0300084F0300084F030008C8
:1000D0004F0300084F030008092300084F030008DE
:1000E0004F0300084F0300084F0300084F030008A8
:1000F0004F0300084F0300084F0300084F03000898
:100100004F0300084F0300084F0300084F03000887
:100110004F0300084F0300084F0300084F03000877
:100120004F0300084F0300084F0300084F03000867
:100130004F0300084F0300084F0300084F03000857
:100140004F0300084F0300084F0300084F03000847
:100150004F0300084F0300084F0300084F03000837
:100160004F0300084F0300084F0300084F03000827
:100170004F0300084F0300084F0300084F03000817
:100180004F0300084F03000800F002F800F067F882
:100190000AA090E8000C82448344AAF10107DA45E2
:1001A00001D100F05CF8AFF2090EBAE80F0013F0CD
:1001B000010F18BFFB1A43F0010318477C690000C8
:1001C0009C6900000A444FF0000C10F8013B13F04A
:1001D000070408BF10F8014B1D1108BF10F8015BA0
:1001E000641E05D010F8016B641E01F8016BF9D193
:1001F00013F0080F1EBF10F8014BAD1C0C1B09D1EA
:100200006D1E58BF01F801CBFAD505E014F8016B5B
:1002100001F8016B6D1EF9D59142D6D370470000ED
:100220000023002400250026103A28BF78C1FBD8FF
:10023000520728BF30C148BF0B607047642900F0E7
:100240001981752900F01681732900F0C082002001
:1002500070471FB506F0E7FB1FBD10B510BD00F0DD
:100260000BFB1146FFF7F5FF02F04CFF00F029FBF6
:1002700003B4FFF7F2FF03BC02F0FAFD2A4B196842
:100280000868B0E8F04F80F30988BFF36F8F4FF034
:10029000000080F3118870470000000006480068E5
:1002A000006880F3088862B661B6BFF34F8FBFF372
:1002B0006F8F00DF00BF00BF08ED00E0DFF80C002B
:1002C000016841F470010160704700BF88ED00E0F3
:1002D000EFF30980BFF36F8F134B1A681EF0100FF6
:1002E00008BF20ED108A20E9F04F106008B44FF0ED
:1002F000500080F31188BFF34F8FBFF36F8F04F06E
:1003000021FE4FF0000080F3118808BC19680868CE
:10031000B0E8F04F1EF0100F08BFB0EC108A80F369
:100320000988BFF36F8F7047E8000020EFF3058066
:10033000704700000948804709480047FEE7FEE78C
:10034000FEE7FEE7FEE7FEE7FEE7FEE7FEE7FEE785
:1003500004480549054A064B70470000F91C00088F
:100360008901000870580020705E0020705A00203B
:10037000705A0020704700000FB4044910B503AA5A
:10038000029800F029FA10BC5DF814FBD40000209C
:100390000FB41CB5074B06AA7B446946009005982C
:1003A00000F0EBF90020694600F0FAF91CBC5DF89A
:1003B00014FB0000050400002DE9F0410E46044640
:1003C000002020622046E168884730B3252805D008
:1003D000D4E901219047206A401CF2E7E1682046F9
:1003E00000278847050018D0A5F14100192802D838
:1003F00020354FF400673246294620462760FFF734
:100400001DFF40B1012804D0F61D26F0070608366E
:10041000D8E7361DD6E72846DAE7206ABDE8F0813E
:1004200070B50C460546012A05D02878800600D50F
:10043000EA69002302E0012305E05B1C934202D23B
:10044000E05C0028F9D1A869E618C01AA861286AFA
:10045000184428622846AFF3008004E0D5E9012162
:1004600014F8010B9047B442F8D32846AFF300804C
:1004700070BD00002DE9F041064600241068752982
:10048000314616A510D0AFF30080002802DA4042B2
:1004900013A507E031688A0701D512A502E04907D4
:1004A00004D511A5012401E0AFF3008000210A2248
:1004B00006F1240709E0B0FBF2FCB0FBF2F302FB0B
:1004C0001C00303078541846491C0028F3D12346CC
:1004D0002A463046BDE8F04100F0F0B800000000C8
:1004E0002D0000002B0000002000000040EA010366
:1004F000024630B59B0710D14FF0013400E008C22E
:1005000008C91D1B9D4315EAC41FF8D013F0FF0155
:1005100002F8011B0DD01B0AF8E711F8013B002B74
:1005200002F8013B05D011F8013B002B02F8013B1A
:10053000F3D130BD10B5431C02E010F8011B71B1BE
:100540008107FAD14FF0013202C88C1A8C4314EAA9
:10055000C211F9D0C01A0A0603D0C01E10BDC01ABD
:1005600010BD0A0401D0801E10BD0902FCD0401E3F
:1005700010BD032A40F2308010F0030C00F015800B
:1005800011F8013BBCF1020F624498BF11F801CB96
:1005900000F8013B38BF11F8013BA2F1040298BFFB
:1005A00000F801CB38BF00F8013B11F0030300F065
:1005B0002581083AC0F0088051F8043B083A51F808
:1005C00004CBA0E80810F5E7121D5CBF51F8043B0E
:1005D00040F8043BAFF30080D20724BF11F8013B81
:1005E00011F801CB48BF11F8012B24BF00F8013BE3
:1005F00000F801CB48BF00F8012B704702F0FF0361
:1006000043EA032242EA024200F002B84FF000023D
:100610000429C0F0128010F0030C00F01B80CCF114
:10062000040CBCF1020F18BF00F8012BA8BF20F882
:10063000022BA1EB0C0100F00DB85FEAC17C24BFD6
:1006400000F8012B00F8012B48BF00F8012B704780
:100650004FF0000200B5134694469646203922BF5B
:10066000A0E80C50A0E80C50B1F12001BFF4F7AFA6
:10067000090728BFA0E80C5048BF0CC05DF804EB88
:10068000890028BF40F8042B08BF704748BF20F8F6
:10069000022B11F0804F18BF00F8012B70477047F4
:1006A00070477047704710B500F0DAF8006810BD69
:1006B00010B5044600F0D4F8046010BD2DE9F047F1
:1006C0000D4699469246044600F1240801688806C2
:1006D00004D5E06921F01001216000E00120A8426A
:1006E00001DD471B00E00027A1697A1902EB090030
:1006F000081AA0612078C00602D42046AFF300801B
:10070000002608E0D4E901211AF806009047206A83
:10071000401C761C20624E45F4DB2078C0060AD5CA
:100720002046AFF3008006E0D4E901213020904755
:10073000206A401C2062381EA7F10107F4DC07E0A4
:10074000D4E9012118F805009047206A401C206276
:10075000281EA5F10105F3DC2046AFF300802078C8
:10076000000602D50220BDE8F0870120FBE700006B
:1007700001694A1C02610878704700B58FB0CDE965
:1007800001310021059105497944CDE90310114655
:100790006846FFF711FE0FB000BD0000E5FFFFFF48
:1007A0000A6802F8010B0A60704710B5436913B17B
:1007B000AFF3008001E0FFF733FE012010BD127897
:1007C00000F124010A7000224A700122EDE711684D
:1007D0004FF0FF32E9E70000074B70B50D467B4450
:1007E000FFF7CBFF0446284600F03EF810B14FF06B
:1007F000FF3070BD204670BD7B28000010B5203A48
:10080000C0F00B80B1E81850203AA0E81850B1E8C9
:100810001850A0E81850BFF4F5AF5FEA027C24BF7F
:10082000B1E81850A0E8185044BF18C918C0BDE876
:1008300010405FEA827C24BF51F8043B40F8043B3F
:1008400008BF7047D20728BF31F8023B48BF11F8F4
:10085000012B28BF20F8023B48BF00F8012B70474E
:10086000004870470C580020007B00F08000704763
:10087000004870470C5800207546FFF7F9FFAE4658
:1008800005006946534620F00700854618B020B59C
:10089000FFF75EFDBDE820404FF000064FF0000777
:1008A0004FF000084FF0000B21F00701AC46ACE818
:1008B000C009ACE8C009ACE8C009ACE8C0098D4685
:1008C000704710B50446AFF300802046BDE81040E5
:1008D000FFF7CEBC10B5044600F05CFCEC2000F045
:1008E00029FC00F099FC204600F024FC00F094FC68
:1008F00000F050FCED2000F01DFC00F08DFC00200D
:1009000000F0E4FB044600F065FC204610BD0178D1
:1009100042784901807841EA82010143C9B2F52059
:1009200000F00BB8417802784901807841EA8201F1
:100930000143C9B2F420AFF3008070B50D46044600
:1009400000F028FCEC2000F0F5FB00F065FC2046F0
:1009500000F0F0FB00F060FC284600F0EBFB00F03C
:100960005BFCBDE8704000F035BC00007CB5882021
:10097000FFF7B0FF04468920FFF7ACFF04EB00202F
:100980004B4C216808808A20FFF7A4FF05468B2086
:10099000FFF7A0FF216805EB002048808C20FFF7BF
:1009A00099FF05468D20FFF795FF216805EB002094
:1009B00088808E20FFF78EFF05468F20FFF78AFF85
:1009C000216805EB0020C8809020FFF783FF0546D3
:1009D0009120FFF77FFF216805EB0020088192201E
:1009E000FFF778FF05469320FFF774FF216805EBBA
:1009F000002048819420FFF76DFF05469520FFF702
:100A000069FF216805EB002088819620FFF762FFCF
:100A100005469720FFF75EFF216805EB0020C8819F
:100A20009820FFF757FF05469920FFF753FF2168ED
:100A300005EB002008829A20FFF74CFF05469B201B
:100A4000FFF748FF216805EB002048829C20FFF754
:100A500041FF05469D20FFF73DFF216805EB002083
:100A600088829E20FFF736FF05469F20FFF732FF62
:100A7000216805EB0020C882B621E020FFF75DFF6A
:100A800003208DF8000001218DF801108DF802007F
:100A90006846FFF747FF00208DF8040004218DF819
:100AA00005108DF8060001A8FFF731FF7CBD00009E
:100AB00030000020FEE700B50246B0EE402A0846AE
:100AC00002F09CFBD1ED0A0AB0EE420AC2ED000A28
:100AD00010465DF804EB02F091BB000003480022D1
:100AE000026042605321312001F04CB9A000002087
:100AF0007047F0B5002201274FF0030C0B6807FA8E
:100B000002F52B40AB422CD1066853000CFA03F4DB
:100B1000A64306600E79D0F800E09E4046EA0E0635
:100B200006600E79012E01D0022E12D18668A643EE
:100B300086604E79D0F808E09E4046EA0E06866050
:100B40004668AE43466045688E799640B6B23543F6
:100B50004560C568A543C560CC799C40C3681C430B
:100B6000C460521C102AC9D3F0BD4B07DB0E9A405B
:100B7000C90810B500EB8100016A0F249C40A14315
:100B80000162016A1143016210BD41837047018314
:100B9000704742694A4042617047000070B50E4696
:100BA0002DED068BF0EE408AB6EE000A8EB028EEF0
:100BB000808A0546FE4CB0EE00AAF7EE00AA94ED3E
:100BC000010AD4ED030A94ED021AFA4920EE200A34
:100BD000D4ED000A00EEC10A20EE0A0A8DED0B0AE0
:100BE00094ED000AD4ED010A94ED031A20EE200AD8
:100BF000D4ED020A00EE810A20EE0A0A8DED0C0AFD
:100C000094ED010AD4ED010A94ED021A20EE200AB7
:100C1000D4ED020A00EE810AF0EE6A0A40EE4A0ABA
:100C2000CDED0D0AB1F9000000EE100AB1F9020095
:100C300000EE900AB8EEC00AB8EEE01A00EE900A94
:100C400020EE000AB1F90400F8EEE00A01EE200AF5
:100C500000EE900AB8EEE01A00EE900AF8EEE00A14
:100C600001EE200A00F030FDA4F1580181ED030AE5
:100C7000B5F9000000EE900AF8EEE00A60EE800A96
:100C8000CDED040AB5F9020000EE900AF8EEE00A94
:100C900060EE800ACDED050AB5F9040000EE900A79
:100CA000C448F8EEE00A0C3820EE800A8DED060A02
:100CB0009DED050ADDED0D0A9DED0C1A20EE200AD2
:100CC000DDED060A00EEC10A8DED000A9DED060A73
:100CD000DDED0B0A9DED0D1A20EE200ADDED040A74
:100CE00000EEC10A8DED010A9DED040ADDED0C0A4E
:100CF0009DED0B1A20EE200ADDED050A00EEC10A7B
:100D00008DED020AD0ED000A9DED001A91ED020A68
:100D100041EE000AC0ED000A90ED011ADDED011A66
:100D200001EE801A80ED011AD0ED021A9DED022A23
:100D300042EE001AC0ED021AB5F90600DDED002AF8
:100D400000EE100A9C48B8EEC00A90ED002A20EE92
:100D5000022A91ED010A00EE222A72EE200ACDED60
:100D6000000AB5F9081090ED002A00EE901AF8EE8E
:100D7000E00A60EE820A9DED012A40EE020A70EE62
:100D8000810ACDED010AB5F90A1000EE901A90ED36
:100D9000001AF8EEE00A60EE810A9DED021A40EEBC
:100DA000010A30EEA10A8DED020A94ED010ADDED93
:100DB000000A9DED011ADDED011A20EEC00AD4ED06
:100DC000020A9DED012ADDED002A00EEC10AD4EDF4
:100DD000030A9DED021A00EEC10ADDED000A20EEC5
:100DE000081A94ED000A20EE200AD4ED030A00EE62
:100DF000E10AD4ED020ADDED021A00EEA10ADDEDF2
:100E0000001A60EE080A94ED030A20EE210AD4EDE0
:100E1000001A01EE820AD4ED011A9DED022A01EEBC
:100E2000C20AD4ED011A9DED012A61EE821A94EDF9
:100E3000022A20EE080A42EE621A94ED002ADDED45
:100E4000022A42EE221A94ED002A32EE011A61EED5
:100E5000881A84ED001A94ED011A71EE200AC4ED8F
:100E6000010AD4ED020A30EE800A84ED020A94ED04
:100E7000030A30EE210A84ED030A94ED000AD4ED52
:100E8000000A94ED011A20EE200AD4ED010A00EECA
:100E9000810AD4ED020A94ED021A00EE810AD4ED23
:100EA000030A94ED031A00EE810A00F00DFCD4ED64
:100EB000000A434960EE800AC4ED000AD4ED010A3D
:100EC00060EE800AC4ED010AD4ED020A60EE800AE9
:100ED000C4ED020AD4ED030A20EE800A84ED030A71
:100EE000B5F90A0000EE100A3448B8EEC00AD0ED99
:100EF000000A20EE200A10EE100A884204DC10EEF0
:100F0000100A3049884205D9D6ED020A40EE280A77
:100F1000C6ED020A2C4D286805F014FD94ED000A78
:100F2000D4ED020A94ED031A20EE0A0A41EC180BE4
:100F300020EE200AD4ED010A60EE8A0A00EEC10A12
:100F400010EE100A05F0FEFC41EC100B01F0C4FAA3
:100F500053EC182B51EC100B05F034FA04F0B8FFE9
:100F60007060286805F0EEFC94ED010AD4ED010AEA
:100F700041EC190B20EE0A0A40EE60AA94ED020A39
:100F8000D4ED020A20EE0A0A40EE60AA1AEE900A98
:100F900005F0D8FC94ED020AD4ED030A41EC180BDD
:100FA00020EE0A0A20EE200AD4ED000A0EE000002E
:100FB0009000002030030020446A0008406A0008C6
:100FC0009A99993F9A9999BF3C6A000860EE8A0AFB
:100FD00094ED011A00EE810A10EE100A05F0B2FC41
:100FE00041EC100BB0EE481AF0EE681A01F090FDDB
:100FF00053EC192B51EC100B05F0E4F904F068FFE9
:1010000030600EB0BDEC068B70BDFEE770B50D4CC8
:101010000025C4F898520C48016821F44041016051
:10102000016841F480410160C4F89C52022004F53B
:10103000267401F05FFF01202060022001F05AFFBA
:10104000256070BD00804042000402401CB50121B3
:10105000022000F04FFBC020012400908DF80440D6
:1010600000208DF8060003208DF805008DF807405C
:1010700069460448FFF73DFD0348C0F89842C0F8B0
:101080009C421CBD000402400080404270B50D4CE3
:101090000026C4F898620C48016821F440410160C0
:1010A000016841F4804101600125C4F89C5202208E
:1010B00004F5267401F01EFF2560022001F01AFFDE
:1010C000266070BD00804042000402402DE9F047D8
:1010D000814616480024016821F4404101600168FE
:1010E0000160134E254627464FF00108C6F8987256
:1010F000022001F0FFFEC6F898826006040ED6F8C2
:101100001C0208B1641CE4B2012001F0F3FE6D1C66
:10111000EDB2082DEAD3B9F1000F04D0FFF776FF46
:101120002046BDE8F087FFF7B1FFF9E70004024071
:10113000008040422DE9F04105461448016821F441
:1011400040410160016841F480410160104E002778
:10115000C6F898723C464FF00108E809C6F89C02B0
:101160006806050E022001F0C5FEC6F8988202202E
:1011700001F0C0FEC6F89872022001F0BBFE641CAC
:10118000E4B2082CE9D3BDE8F0810000000402407D
:101190000080404270B50D48016821F44041016073
:1011A000016841F480410160094C0120C4F89C02AF
:1011B000C4F89802042004F5267401F09BFE002573
:1011C0006560042001F096FE256070BD00040240B9
:1011D000008040420E4810B5016821F44041016092
:1011E000016841F4804101600A4C0020C4F8980273
:1011F000C4F89C02042004F5267401F07BFE012053
:1012000020606060BDE81040042001F073BE000063
:10121000000402400080404270B51248002401687A
:1012200021F440410160016801600F4D0126C5F8BD
:101230009C62304601F05EFEC5F89862012001F024
:1012400059FE07E0641CE4B2FA2C03D9FFF7C2FF91
:10125000012070BDD5F81C020028F3D1C5F8980212
:1012600070BD000000040240008040427CB514467E
:101270000D4606466B4606223B21682000F080F8AA
:1012800000280BD1BDF8001049BA3180BDF802101A
:1012900049BA2980BDF8041049BA21807CBD7CB5CB
:1012A00014460D4606466B4606224321682000F090
:1012B00067F800280BD1BDF8001049BA3180BDF89D
:1012C000021049BA2980BDF8041049BA21807CBDBA
:1012D00010B580216B2000F0C1F8642001F0EEFD14
:1012E00000216B2000F0BAF8032000F083F8012001
:1012F00000F07BF84FF4FA74204600F098F80021D3
:10130000382000F0ABF800216A2000F0A7F8002197
:10131000232000F0A3F88021372000F09FF87520EB
:1013200000F011F8682801D0012010BD01216B20C8
:1013300000F094F800216C2000F090F8204600F0B6
:1013400076F8002010BD10B50446FFF723FFD0202B
:10135000FFF7F0FEFFF760FF2046FFF7EBFEFFF719
:101360005BFFFFF717FFD120FFF7E4FEFFF754FF05
:101370000020FFF7ABFE0446FFF72CFF204610BD10
:101380002DE9F0411C4615460F460646FFF702FFC1
:101390007006000EFFF7CEFEFFF73EFF20B1FFF70D
:1013A00019FF0120BDE8F0813846FFF7C3FEFFF7C3
:1013B00033FFFFF7EFFE012000EB4600C0B2FFF75E
:1013C000B9FEFFF729FF08E0012D0CD00120FFF73F
:1013D0007DFE6D1E04F8010BEDB2002DF4D1FFF778
:1013E000F9FE0020DEE70020F1E7C006010E1C2018
:1013F00000F034B8C006010E1B2000F02FB8BC2846
:1014000001D3012110E0622801D302210CE02A2837
:1014100001D3032108E0142801D3042104E00A28A1
:1014200001D3052100E006211A2000F017B810B5FD
:1014300004464FF47A70844201D9044602E0042C39
:1014400000D20424B0FBF4F0401EC1B2192000F019
:1014500005F86008BDE81040FFF7D1BF70B50C4635
:101460000546FFF797FED020FFF764FEFFF7D4FE96
:1014700050B92846FFF75EFEFFF7CEFE2046FFF785
:1014800059FEFFF7C9FE18B1FFF7A4FE012070BD99
:10149000FFF7A0FE002070BDFEE700002DE9FE432F
:1014A0006F463846B91C01AAFFF7E0FE02A9B81D35
:1014B0008A1CFFF7F4FEDFF89880264D002437F8E9
:1014C000141038F81400091A286820F81410032C96
:1014D00017D230F9140004EB440100EE100A1D4845
:1014E000103000EBC106B8EEC00A304601F0D0FD66
:1014F00096ED020A2968BDEEC00A10EE100A21F826
:101500001400022C1ED9E01E1149C0B20C3101EBAF
:1015100080009FED121A90ED000A2968DFED0E0A97
:1015200020EE010A31F9142001EE102AB8EEC11A9A
:1015300001EE200A80ED000ABDEEC00A10EE100A8E
:1015400021F81400641CE4B2062CB8D3BDE8FE8375
:101550000C030020380000209A99193E9A99593FAF
:101560002DE9F0478AB018216846FFF771F81E246C
:101570000021DFF8D0A008910991CAF80010CAF83C
:101580000410CAF808104FF400516FF00409AAF8CB
:101590000410DFF8B48008AD06AE27E00A2001F0A1
:1015A0008DFCFFF77BFFD8F80070002007EB4001AF
:1015B000CA8835F81030D21A26F81020C98825F8C4
:1015C0001010401C00B20328F0DBBDF91800401DCC
:1015D0000B28E3D2BDF91A000528DFDC4845DDDB26
:1015E000BDF91C000528D9DC4845D7DB641EE4B2F0
:1015F000D4D2002446464FF4B2776D46FFF74EFF33
:10160000642C0CDB3168002055F8202031F91030B3
:101610001A4445F82020401CC0B20628F4D3641CAC
:1016200024B2BC42EADB0020514655F820201212B9
:1016300021F81020401C00B20628F6DB0AB0BDE8F5
:10164000F08700000C0300203800002070470000E5
:1016500030B50F23C27801780125FAB1144A126817
:1016600001F1E02102F4E062C2F5E062C2F3072278
:10167000C2F10404D3404278A24084781C40144351
:10168000220181F80024007800F01F018D404009FC
:10169000800000F1E020C0F8005130BD01F01F00D3
:1016A00085404809800000F1E020C0F8805130BD3D
:1016B0000CED00E002490843024908607047000051
:1016C0000000FA050CED00E010EE100AF6EE000A3C
:1016D000074960EE200AA1EB600000EE100AB7EEA9
:1016E000081A60EE800A00EEC01A21EE000A704768
:1016F000DF59375F044A0029116801D0014300E037
:10170000814311607047000030380240044A0029CC
:10171000116801D0014300E081431160704700006F
:1017200040380240044A0029116801D0014300E01A
:10173000814311607047000020380240044A0029AC
:10174000116801D0014300E081431160704700003F
:101750002438024070B5204B1968204C11F00C0160
:1017600004D06610042903D0082903D004601BE0CC
:10177000066019E0184A121F1168C1F380551168FC
:1017800001F03F0115B1B6FBF1F101E0B4FBF1F15D
:1017900014681268C4F388146143C2F30142521CF6
:1017A0005200B1FBF2F1016019680F2202EA111137
:1017B0000B4A545C0168E14041601C68072505EA5A
:1017C0009424145D21FA04F484601B6805EA533301
:1017D000D25CD140C16070BD083802400024F400E2
:1017E000D80000201CB54FF0000B5F465E465D46FA
:1017F00001F040FCDFF868914FF4167A0190DFF8B1
:1018000064814FF0FF300123009000221946D8F880
:10181000040003F07DFC052101A803F037F85248CD
:1018200000F074F944462078C0073BD0B9F80410A2
:10183000B1F59F7F2CD2B9F80600DD2828D8761C98
:10184000B6B2564525D30221D8F8040003F0C8FBF0
:101850002078DFF8188120F00100207040F2F316A4
:101860003146404600F00AFD3146404600F008FD92
:101870003146404600F006FD3146404600F004FD8A
:101880004FF400713A48FFF782F93AA0FEF774FD71
:101890000026B9F80400C8462D2843D8207820F047
:1018A000020045E0B9F804004946B0F59F7F16D222
:1018B000CA8840F20F739A4211D37F1CBFB25745BA
:1018C000E7D30221D8F8040003F0CAFB207840F0E7
:1018D000010020702CA0FEF74FFD0027D9E700275C
:1018E00040F2737290421BD3B9F80600DD2817D876
:1018F0006D1CADB25545CCD3D8F8100003F0B2FA48
:10190000FFF72EFE00254FF400711948FFF73DF94F
:1019100022A0FEF731FDD8F8100003F0E3F9B8E794
:101920000025B6E7B0F5997F04D9207840F0020091
:10193000207002E01CA0FEF71FFDBBF1000F3FF47A
:101940005EAF0024214638F814201CA0FEF714FDD9
:10195000641CE4B2122CF5D317A0FEF70DFD4EE780
:101960006203002000000020480300200004004023
:1019700000040240466C69676874206C6F636B6595
:101980006421210A00000000466C696768742075B4
:101990006E6C6F636B656421210A00006F6666736D
:1019A00065746564210A0000756E6B6E6F77696EF1
:1019B00067207374617465210A00000025642D2D71
:1019C0002564200008B5184C0125DFF860B0AF1E73
:1019D0004FF4FA764FF4C879A0464FF4007A012309
:1019E000009700221946606803F092FB304602F02F
:1019F00017FF85B1304602F013FF49460C48FEF749
:101A000005FE0B4803F03EF80AA0FEF7B5FC0849B6
:101A100011A0FEF7B1FC98F80000C007DFD05146D6
:101A20005846FFF7B6F8DAE700000020000402404D
:101A300064010020C8CECEF1C3FB090909D4CBD084
:101A4000D0CAB1BCE409D4CBD0D0CBF9D5BCB0D985
:101A5000B7D6B1C80D0A000025730D0A00000000BA
:101A6000AFF3008030B5012187B00846FFF742FE92
:101A700001214804FFF74AFE082005900220204C6F
:101A80008DF8180005A92046FFF733F80722032137
:101A90002046FFF76AF81B480090A014ADF8040038
:101AA0008010ADF8080000240420174DADF80A009E
:101AB000ADF80640ADF80C406946284600F098FCA9
:101AC00026218DF8101003208DF811008DF812409A
:101AD00001208DF8130004A8FFF7BAFD012240F29F
:101AE0002551284600F06CFC012240F22441284692
:101AF00000F066FC0121284600F032FC07B030BD42
:101B000000000240A0860100004400404188C1F36B
:101B10000A0240490A80C2780379D20842EA431295
:101B2000C2F30A024A8002794379920942EA8302A7
:101B3000837942EA8322C2F30A028A808279C379D6
:101B4000520842EAC312C2F30A02CA80C279037A77
:101B5000120942EA0312C2F30A020A81027A437AA4
:101B6000D20942EA4302837A42EA4322C2F30A02DA
:101B70004A81827AC37A920842EA8312C2F30A0245
:101B80008A81C27A037B520942EAC302CA81B0F851
:101B90000D20C2F30A020A82827BC37BD20842EA8A
:101BA0004312C2F30A024A82C27B037C920942EAD0
:101BB0008302437C42EA8322C2F30A028A82427C85
:101BC000837C520842EAC312C2F30A02CA82827CB0
:101BD000C37C120942EA0312C2F30A020A83C27CDE
:101BE000037DD20942EA4302437D42EA4322C2F323
:101BF0000A024A83427D837D920842EA8312C2F33D
:101C00000A028A83827DC07D520942EAC000C883ED
:101C100070470000620300200CB5002227490092A3
:101C20000192086840F4803008604FF4A0430868CF
:101C300000F4003001900098401C0090019810B909
:101C400000989842F3D10868800334D501200190B0
:101C50001A484030026842F0805202601848026818
:101C600042F440420260154808300268026002688F
:101C700042F400420260026842F4A0520260031F74
:101C8000104A1A600A6842F080720A600A6892017B
:101C9000FCD50D4940F205720A60016821F003018C
:101CA0000160016841F0020101600168C1F3810136
:101CB0000229FAD10CBD01920CBD0000003802408F
:101CC0000070004008544007003C02404FF0E02103
:101CD0000428086903D020F004000861704740F030
:101CE0000400FAE710B503F03FFE012803D0BDE879
:101CF000104003F02DBB10BD124810B5016841F42F
:101D0000700101601048016841F0010101600E4A54
:101D100000210832116002680C4B1A400260031D5A
:101D20000B4A1A60026822F48022026006480C30D6
:101D30000160FFF771FF03494FF0006080390860D0
:101D400010BD000088ED00E000380240FFFFF6FE05
:101D50001030002410B501218C07204600F07CF9DA
:101D6000012807D106490A684868521C40F1000062
:101D70000A6048602046BDE81040012100F0B6B876
:101D8000A00000207FB50D46044601210846FFF75C
:101D9000BDFC0194ADF8005000244FF08045ADF833
:101DA0000240ADF808406946284600F06FFA01226B
:101DB0001146284600F05CF90121284600F099F808
:101DC0001C208DF80C0001208DF80D008DF80E40C0
:101DD0008DF80F0003A8FFF73BFC7FBDF0B58BB07B
:101DE00001210420FFF786FC01210220FFF78EFC71
:101DF000374E304600F088F8364F0222062138462A
:101E0000FEF7B3FE022207213846FEF7AEFE02229D
:101E100008213846FEF7A9FE022209213846FEF7BE
:101E2000A4FE4FF47070089002208DF824008DF805
:101E3000250000248DF8264001258DF8275008A99B
:101E40003846FEF756FE42F20F700690A720ADF816
:101E50001400ADF81C40ADF816408DF81E4005A9E1
:101E6000304600F013FA6020ADF800002802ADF80B
:101E70001000ADF802500294ADF80C4069463046AF
:101E800000F0FEF86946304600F030F96946304609
:101E900000F076F96946304600F0B6F90821304680
:101EA00000F01EF90821304600F060F908213046A4
:101EB00000F0A4F90821304600F0D6F9012130469F
:101EC00000F00AF80121304600F013F80BB0F0BD25
:101ED00000040040000802400029018802D041F0BF
:101EE000800101E021F0800101807047C943018237
:101EF00070470029018802D041F0010101E021F082
:101F00000101018070470000464910B5884206D1A2
:101F100001210846FFF712FC002101205BE0B0F12F
:101F2000804F09D0404988420DD101210220FFF79E
:101F3000F9FB0021022070E001210846FFF7F2FBC7
:101F40000021012069E03949884206D1012104209D
:101F5000FFF7E8FB002104205FE03549884206D105
:101F600001210820FFF7DEFB0021082055E0314960
:101F7000884206D101211020FFF7D4FB0021102058
:101F80004BE02D49884206D101212020FFF7CAFBF2
:101F90000021202041E02949884206D10121022068
:101FA000FFF7CCFB0021022015E02549884202D131
:101FB00001210C040AE02349884202D101214C048A
:101FC00004E0214988420AD101218C042046FFF710
:101FD000B5FB00212046BDE81040FFF7AFBB1B4911
:101FE000884206D101214020FFF79CFB00214020C0
:101FF00013E01749884206D101218020FFF792FBA8
:102000000021802009E0134988420AD1841501216A
:102010002046FFF787FB00212046BDE81040FFF770
:1020200081BB10BD000001400004004000080040DA
:10203000000C00400010004000140040000401406B
:1020400000400140004401400048014000180040A9
:10205000001C00400020004002460020138A9289A4
:102060000B4202EA010202D0002A00D00120704790
:10207000002A828901D00A4300E08A4382817047A6
:1020800030B5028C22F001020284028C8388048B1A
:1020900022F0020224F073050C882C438D8915432D
:1020A0004A882A430C4DA84202D00C4DA8420DD1BB
:1020B00022F00805CA8923F440732A4322F004055C
:1020C0008A882A430D8A1D434B8A2B4383800483CD
:1020D00089684163028430BD000001400004014072
:1020E000028B22F008020A430283704770B5028C0B
:1020F00022F010020284028C8388048B0D8824F461
:10210000E6464FF6FF7404EA052535438E8922F032
:10211000200204EA061616434A8804EA02123243F1
:10212000104EB04202D0104EB04215D122F08006BF
:10213000CA8923F4406304EA0212324322F04006C3
:102140008A8804EA021232430E8A04EA86061E4393
:102150004B8A04EA83033343838005838968816360
:10216000028470BD0000014000040140028B4FF664
:10217000FF7322F4006203EA0121114301837047D7
:1021800070B5028C22F480720284028C8388848B66
:102190000D8824F0730425438E894FF6FF7422F4D2
:1021A000007204EA062616434A8804EA02223243F1
:1021B000104EB04202D0104EB04215D122F400664B
:1021C000CA8923F4405304EA0222324322F480668F
:1021D0008A8804EA022232430E8A04EA06161E4363
:1021E0004B8A04EA03133343838085838968C16380
:1021F000028470BD0000014000040140828B22F087
:1022000008020A438283704770B5028C22F4805220
:102210000284058C8288838B0C8823F4E6464FF673
:10222000FF7303EA0424344325F400568D8903EA3E
:10223000053535434E8803EA06362E43084DA8423D
:1022400002D0084DA84205D122F480450A8A03EA4B
:1022500082122A438280848389680164068470BD67
:102260000000014000040140828B4FF6FF7322F40E
:10227000006203EA01211143818370474163704783
:1022800081637047C16370470164704730B502884D
:10229000164C174DA0420DD0A8420BD0B0F1804F84
:1022A00008D0144B984205D0134B984202D0134BE0
:1022B000984203D122F070034A881A43104B984287
:1022C00006D0104B984203D022F440730A891A4377
:1022D00002804A68C2620A880285A04201D0A842F0
:1022E00001D1897A01860121818230BD000001403F
:1022F000000401400004004000080040000C0040C1
:102300000010004000140040F8B500208DF80000D7
:10231000104F40F22551384600F033F80E4D0F4C67
:102320003E1D20B1318820782954401C10E040F235
:102330002441384600F025F800280AD038888DF866
:10234000000030888DF800002078401E28700120A1
:102350002070F8BD0044004048030020A800002081
:102360000029818902D041F4005101E021F400519B
:10237000818170470246002012880A4200D0012065
:10238000704770B501F01F0501260024C1F3421308
:1023900006FA05F2012B0FD0022B0FD0838A4FEAE9
:1023A00011210088134206FA01F600EA060001D066
:1023B00000B10124204670BD8389F0E7038AEEE76F
:1023C00010B5C1F3421301F01F040121A140012BFC
:1023D00007D0022B07D01430002A026805D00A4328
:1023E00004E00C30F8E71030F6E78A43026010BDD5
:1023F0007FB50446008A0D46C98820F44050014349
:102400002182A08941F20C618843A9882A8911435D
:102410006A8902431143A181A08A20F44071A889EE
:102420000843A0826846FFF795F91A48844202D013
:102430001948844201D1039800E00298A189090457
:1024400000EBC00101EB0010296801D5490000E054
:102450008900B0FBF1F06422B0FBF2F109010B0935
:102460006FF018056B4300EB8300A3891D044FF048
:10247000320306D503EBC000B0FBF2F000F007001A
:1024800005E003EB0010B0FBF2F000F00F00084392
:1024900020817FBD0010014000140140C1F30801FC
:1024A00081807047FEE703B401984100009850EA2C
:1024B000C12018BF04204A0D18BF40F0010040F2AF
:1024C000FF72B2EB515F08BF40F00200012808BF65
:1024D000052002B07047000070B5C1482DED020B19
:1024E0002DED0E8B82B0119D25F000449FEDBEDBDB
:1024F0009FEDBFEB84423EDBA4F140511098A1F167
:102500007F6108430FD0BC48844202DC28D1109878
:1025100030B39DED100B02B0BDEC0E8B02B0BDE8E8
:10252000704000F071BC9DED100B53EC1D2B51EC75
:10253000100B03F047FF9DED100B41EC180B53EC13
:102540001E2B51EC100B03F03DFF53EC182B03F046
:10255000F1FC41EC100B02B0BDEC0E8B02B070BD73
:102560000120FEF7A5F802B0BDEC0E8B02B0BDE86D
:10257000704000F05DBCA1489FEDA18B844256DA0B
:102580009DED100BB4F1795F0ADA51EC100BFFF7F7
:102590008AFF042808BF00F05BFC9DED100BDAE712
:1025A00053EC102B51EC100B03F00CFF41EC190B0A
:1025B00095480621B0EE490AF0EE690A784400F029
:1025C000A7FB53EC192B51EC100B03F0FBFE41EC75
:1025D0001A0B8E48B0EE490AF0EE690A04217844DD
:1025E00000F096FB53EC192B51EC100B03F0EAFEB4
:1025F00053EC182B03F09EFC41EC100B51EC1A0B22
:1026000053EC102B03F04AFDCDE900019DED000BCA
:1026100053EC102B9DED100B51EC100B03F0D2FE80
:102620009DED101B53EC112B03F084FCD2E09DEDCB
:10263000100B51EC100B00F005FD53EC182B03F0C0
:10264000BFFF9FED730BCDE9000153EC102B9DED07
:10265000000B51EC100B03F0B5FE41EC190B6E486A
:102660000621B0EE490AF0EE690A784400F050FB0A
:1026700053EC192B51EC100B03F0A4FE41EC1B0B97
:102680006648B0EE490AF0EE690A0421784400F089
:102690003FFB53EC192B51EC100B03F093FE53EC62
:1026A000182B03F047FC41EC1C0B51EC190B01F00B
:1026B00009FC41EC180B5A489FED5BABA04222DCB1
:1026C00053EC1C2B51EC1B0B03F0E8FCCDE9000193
:1026D0009DED000B51EC180B53EC102B03F072FE28
:1026E00053EC182B03F026FC53EC1A2B03F06AFE74
:1026F00053EC1D2B04F03CF853EC1E2B03F060FF51
:1027000041EC100B5FE08DED008B002000909DED03
:10271000000B51EC180B53EC102B03F00BFC9DED50
:10272000000B41EC1E0B53EC102B51EC100B03F083
:1027300049FE53EC192B03F043FF53EC1E2B03F01F
:10274000ADFC41EC190B53EC1C2B51EC1B0B03F0B3
:10275000A5FC41EC1B0B53EC1A2B51EC190B03F0AD
:1027600031FE53EC1D2B03F02BFF41EC190B53EC06
:102770001A2B51EC180B03F025FE53EC1B2B03F026
:1027800021FE53EC192B03F0F3FF9DED000B41EC00
:10279000180B53EC1A2B51EC100B03F013FE9FEDAA
:1027A000249B53EC192B03F00BFF41EC100B51EC65
:1027B000180B53EC102B03F0DBFF53EC192B03F039
:1027C000FFFE41EC100B002D3FF7C5AE51EC100B96
:1027D00003F072FB41EC100BBDE6000000000000AE
:1027E0000000F03F00000000075C143326A6913C77
:1027F000182D4454FB21F93F0000F07F0000E03F1A
:10280000000000000000F03F8844000096440000F3
:10281000000000000000E03FDA430000E843000051
:102820003333EF3F000000000000000000000040D4
:10283000182D4454FB21E93F70B59B482DED020B48
:102840002DED068B079D25F00044A04218DC97482B
:10285000844202DC0AD1069840B19DED060BBDEC26
:10286000068B02B0BDE8704000F0CEBA002DCCBFA0
:102870009FED8F0B9FED900BBDEC068B02B070BDF2
:102880008F48A04215DD8F48A042D8BF4FF0FF34DB
:1028900058DD9DED060B51EC100BFFF704FE0428EC
:1028A00008BF00F0D5FA9DED060BBDEC068B02B01B
:1028B00070BD9DED060B51EC100B00F0C3FBCDE994
:1028C000060181489FED828BA0423CDD8248A042F8
:1028D0001FDD00249FED82AB9DED060B53EC1A2B00
:1028E00051EC100B03F026FB9DED060B41EC190B90
:1028F00053EC1A2B51EC100B03F064FD53EC182B26
:1029000003F036FF53EC192B03F0C8FBCDE90601A9
:1029100049E09DED060B012453EC182B51EC100BF4
:1029200003F008FB9DED060B41EC190B53EC182B43
:1029300051EC100B03F01CFF53EC192B03F0AEFB12
:10294000CDE906012FE06848A0421FDD02249FED7B
:10295000689B9DED060B53EC192B51EC100B03F00B
:1029600031FD53EC182B03F0E5FA9DED060B41EC1D
:10297000180B53EC192B51EC100B03F0F9FE53EC30
:10298000182B03F08BFBCDE906010CE09DED060B47
:10299000032453EC102B9FED580B51EC100B03F05C
:1029A0007DFBCDE906019DED060B53EC102B51ECA0
:1029B000100B03F007FD41EC180B53EC182B03F040
:1029C00001FD41EC190B4E480621B0EE490AF0EE2C
:1029D000690A784400F09CF953EC182B51EC100B69
:1029E00003F0F0FC41EC180B4648B0EE490AF0EE5B
:1029F000690A0521784400F08BF953EC192B51EC4E
:102A0000100B03F0DFFC41EC100B51EC180B53ECF6
:102A1000102B002C0EDA03F08DFA9DED061B53EC03
:102A2000112B03F0CFFC9DED061B53EC112B03F093
:102A3000C7FD35E003F07EFA9DED061B53EC112B2C
:102A400003F0C0FC41EC100B2F48784400EBC400AD
:102A500090ED001B51EC100B53EC112B03F088FE92
:102A60009DED061B53EC112B03F082FE41EC100B85
:102A70002648784400EBC40090ED001B51EC100B8D
:102A800053EC112B03F09CFD41EC100B002DA2BF69
:102A9000BDEC068B02B070BD51EC100B03F00CFACC
:102AA00041EC100B01E70000000010440000F07F33
:102AB000182D4454FB21F93F182D4454FB21F9BF34
:102AC0000000DC3F0000203E0000F33F000000005B
:102AD000000000000000F03F0000E63F00000000A2
:102AE00000000000000000400080034000000000E3
:102AF000000000000000F83F000000000000F0BFF0
:102B00002A410000E04000006A400000224000002E
:102B100070B56F4E2DED040B2DED048B82B0DDF8FA
:102B200024C0DDE907235C422CF000411C4341EA4C
:102B3000D474069D22F00040B44205D86C422C4368
:102B400040EAD474B4420BD99DED081B9DED060BF1
:102B500002B0BDEC048B04B0BDE8704000F05EB97B
:102B6000ACF14054A4F17F641C430BD0022404EA6E
:102B7000AC7444EAD27405439FED578B9FED582BFC
:102B800007D015E09DED060B51EC100B00F071F92C
:102B900042E0002C11BF012C9DED060B02B0BDECF4
:102BA000048B04BF04B070BD022C38D0032C3BD082
:102BB0000B439FED4D1B9FED4E0B0AD0B14218D138
:102BC000B04209D121F0804120F080400991079066
:102BD0000FE0002A15DA10E0474B7B44002C08BFB9
:102BE00093ED000B0DD0012C10D0022C17D0032C2C
:102BF0001AD0B0421DD1002A03DAB0EE410AF0EE3D
:102C0000610A02B0BDEC048B04B070BD93ED000B03
:102C100051EC100B03F050F941EC100BF1E7B0EE62
:102C2000480AF0EE680AECE7B0EE420AF0EE620AFB
:102C3000E7E7401A00159FED329B3C28C8BF8DED99
:102C4000000B17DCBCF1000FBCBF10F13C0F8DED89
:102C5000009B0FDB9DED080B53EC102B9DED060B3D
:102C600051EC100B03F01AFA00F0ECF900F001F946
:102C7000CDE90001B4B1012C10D0022C9FED220B44
:102C800053EC102B9DED000B51EC100B19D003F001
:102C90006FFD53EC182B03F06BFDBDE7019880F03E
:102CA000004001909DED000B53EC192B51EC100BE3
:102CB00003F04CFB04BF0220FDF7FAFC9DED000B76
:102CC0009FE703F055FD53EC182B03F079FCA3E7C5
:102CD0000000F07F00000000182D4454FB21094043
:102CE000182D4454FB2109C0182D4454FB21F9BF71
:102CF000182D4454FB21F93F523F00000000000012
:102D00000000000000000000075C143326A6A13C70
:102D100070B504462DED028B4D1E00EBC500B0EEE4
:102D2000408AF0EE608A90ED000B35F0060017D077
:102D300053EC182B51EC100B03F044FB41EC100B3F
:102D40006D1E04EBC50090ED001B51EC100B53EC15
:102D5000112B03F0EFF841EC100B35F00600E7D132
:102D6000022D36D0042D1CD0062D1CBFBDEC028BCD
:102D700070BD53EC182B51EC100B03F023FB94EDBA
:102D80000A1B53EC112B03F0D5F853EC182B03F06E
:102D900019FB94ED081B53EC112B03F0CBF841EC1D
:102DA000100B53EC182B51EC100B03F00BFB94EDB4
:102DB000061B53EC112B03F0BDF853EC182B03F05A
:102DC00001FB94ED040B53EC102B03F0B3F841EC32
:102DD000100B53EC182B51EC100B03F0F3FA94ED9D
:102DE000021B53EC112B03F0A5F853EC182B03F046
:102DF000E9FA94ED001B53EC112B03F09BF8BDECAA
:102E0000028B41EC100B70BD10B553EC102B51EC44
:102E1000100B03F08FF841EC100B10BD10B553EC04
:102E2000112B51EC100B03F085F841EC100B10BD89
:102E30009FED050B10B553EC102B51EC100B03F06C
:102E40002DF941EC100B10BD000000000000000047
:102E50009FED050B10B553EC102B51EC100B03F04C
:102E6000B1FA41EC100B10BD000000000000001092
:102E7000704710B541EC100BFFF7DEFC51EC100B66
:102E800010BD000010B504460420FEF71FFF0A48DD
:102E90004FF47A71047014FB01F1012242804FF06B
:102EA000E020026942F0020202614161016941F0E1
:102EB0000101016110BD0000CC00002070B5044686
:102EC00002F052FD01280CD0094D6888844203D3DA
:102ED000B4FBF0F001F0A4FC6888B4FBF0F100FB57
:102EE00011444FF47A706043BDE8704000F002B8BE
:102EF000CC00002070B54FF0E02500216C69094A34
:102F0000AB6912785043AA699A42FCD002D2A3EB73
:102F1000020302E0A4EB0206334419441346814243
:102F2000F1D370BDCC00002070B5050005D140F292
:102F3000FB4214A118A0FDF71FFA1B4E3068854212
:102F400001D1002070BD01F025FB6C6901F05EFB32
:102F5000F06B844202D0306C844201D1022070BDFB
:102F60001248844204D1A86A0028F7D1032070BD1A
:102F70000E481438844202D00CB1012070BD0420E8
:102F800070BD00002E2E5C4672656552544F535C36
:102F90007461736B732E63004572726F723A25739E
:102FA0002C25640D0A000000E8000020D007002056
:102FB000214D224FDFF888904FF4007440F2E7383B
:102FC0004FF47A6B40F2F31A21462846FDF7DDFDF7
:102FD000464641463846FFF757F931463846FFF72F
:102FE00051F931463846FFF74BF931463846FFF77D
:102FF00045F9584601F014FC564651463846FFF74D
:1030000043F931463846FFF73DF931463846FFF778
:1030100037F931463846FFF731F901214E46D9F8E4
:10302000040002F01DF821462846FDF7B0FDF068C7
:1030300001F082FCC8E700000004024000040040E8
:103040000000002082B0CDE9000121F00040019095
:103050009DED000B02B051EC100B704704490A883B
:103060005206FCD5024AC1B2121D11807047000001
:103070000048004010B502F077FC012803D0BDE8FD
:10308000104002F07FBC0148406810BDCC00002019
:10309000D0ED000A90ED041A70EE810AC0ED010A2D
:1030A00090ED051A70EE811A80EEA11A80ED031AD8
:1030B000D0ED021A30EE610A41EE001AB7EE000AB6
:1030C00030EE410AC0ED021A20EE200A80ED000A1F
:1030D000704700001CB501210220FEF70BFB4FF4E6
:1030E0000070009001208DF8040000208DF806008B
:1030F00002208DF8050069460148FDF7FAFC1CBD69
:10310000000402401CB54FF44070FEF7D3FAA8202B
:10311000FFF7B8FEFFF7DEFF104801F0AFF8FEF74B
:103120005DFEFEF79DFCFDF791FFFEF7D1F800284C
:10313000FBD1FDF71BFC00F0A3F809490020002398
:10314000087008310220CDE900014FF4967205A104
:10315000074802F0DDFB01F039FEFEE720A1070081
:103160000000002053544152545F5441534B00001F
:10317000353F0008FEB5060A8DF800608DF80100A5
:10318000080A8DF80200100A8DF804008DF8052059
:10319000DDE90854180A8DF80600280A8DF80800A1
:1031A0008DF80950200A8DF80A008DF803108DF86B
:1031B00007308DF80B400C226946A12001F0B4F8CD
:1031C000FEBD000000229FED0C0A11E050F82230F5
:1031D00083ED030A50F8223083ED020A50F82230C2
:1031E00083ED0A0A50F82230521CD2B283ED010A54
:1031F0008A42EBD37047000000000000D0ED000AC7
:1032000090ED091A70EEC10A90ED031A00EE801AD3
:1032100080ED031A90ED021A70EEC11A81EE801A49
:1032200090ED050AD0ED031A20EE210AD0ED041A24
:1032300001EEA00AD0ED061A01EE810A80ED0A0A1D
:1032400090ED0A0A90ED0C1AB4EEC10AF1EE10FAF4
:1032500002D290ED0C0A0DE090ED0A0A90ED0B1AE7
:10326000B4EEC10AF1EE10FA02DD90ED0B0A01E0B6
:1032700090ED0A0A80ED0A0AC0ED020A70470000CC
:10328000284830B5B7EE080A00F1340180ED040A91
:1032900081ED040A00F16802B0EE080A82ED040A2A
:1032A0009FED210A00F19C0380ED060A81ED060ADC
:1032B00082ED060AB1EE040A00F1D00583ED040A9E
:1032C00085ED040A00F58274B1EE000A84ED040A6B
:1032D000B3EE0E0A80ED070A81ED070ADFED130A4F
:1032E00082ED070AC0ED0B0AC1ED0B0AC2ED0B0A15
:1032F00083ED070A85ED070A84ED070AC3ED0B0A83
:10330000C5ED0B0AC4ED0B0A06210948FFF75AFF69
:103310009FED080A084884ED090A84ED000A80ED53
:10332000020A30BD880300209A99993E0000C842E5
:10333000B4000020000000003C0300202DE9F04113
:10334000184E0F460446F5683068001D01F078F805
:1033500038B9306890F82C100120884031698143D9
:103360003161601C07D137B13168BDE8F0410E48CA
:10337000091D01F003B930682C44AC424460316847
:1033800005D2306CBDE8F041091D01F0DFB8F06BEB
:10339000091D01F0DBF8B06A844200D2B462BDE8D6
:1033A000F0810000E8000020D00700202DE9F04166
:1033B000054601F0EFF82D4EB068401CB060306853
:1033C0002B4F10B1706930B32BE03560B068012825
:1033D00027D1002404EB840007EB800001F0A8F85B
:1033E000641C202CF6D3234801F0A2F821481430A5
:1033F00001F09EF81F48283001F09AF81D483C3033
:1034000001F096F81B48503001F092F81948F0632B
:103410001430306405E03068E96AC06A884200D838
:103420003560706A0121401C70626864E86A326924
:1034300081401143316100EB800007EB8000291DC2
:1034400001F09CF801F0E2F8706900280CD03068B7
:10345000E96AC06A884207D207494FF08050086085
:10346000BFF34F8FBFF36F8FBDE8F081E8000020FE
:10347000000500208007002004ED00E010B501F0F9
:1034800089F80E4C2068A0B90D4801F051F80C489D
:10349000143001F04DF80A48E06014302061002239
:1034A0001021052001F06AFF206010B105A101F094
:1034B00083F9BDE8104001F0A9B800002C010020FC
:1034C000E4070020546D72510000000070B5124EE8
:1034D000124D1CE001F02EFD306820B1002402F0F6
:1034E000BDFBA4B901E00124F9E701F053F8F0684D
:1034F000C468201D00F0A4FFA868401EA86068688A
:10350000401E686001F082F8204600F052F86868BA
:103510000028DFD170BD0000BC070020E8000020BB
:1035200030B4026C0B46002A0BD0C1681144C16054
:103530004468A14201D30168C16030BC1846FDF760
:1035400018B830BC70472DE9F041856B174604462A
:103550000026026C82B1C7B1E068FDF70AF8E168A5
:10356000206C091AE1602268914202D26168081A4F
:10357000E060022F16D017E02068A8B9606802F05A
:103580007BFA0646002060600EE0A068FCF7F1FFC1
:10359000216CA0680844A0606168884204D3206858
:1035A000A06001E005B16D1E6D1CA5633046BDE84D
:1035B000F08110B50446006B01F05AF82046BDE8D2
:1035C000104001F055B8000010484FF4A0414207E8
:1035D00006D0C01D0D4920F00700411AC1F5A041D9
:1035E0000B4A00230144C2E900030839103A21F0D4
:1035F000070111604B600B600B1AC0E90013936068
:103600004FF000405360D060704700000C0800206D
:103610005C010020074E4FF08054074DFFF756FF26
:1036200030680128FAD92C60BFF34F8FBFF36F8F3A
:10363000F4E700000005002004ED00E02DE9F0476C
:10364000DDE909840E461746824691009946089D99
:10365000A522206BFCF7D2FF6FF00301206B01EB7A
:103660008701084420F00707780705D040F22B3285
:1036700019A11EA0FCF780FE00202218315C82F800
:103680003410315C11B1401C1028F6D3002684F8A8
:103690004360202D00D31F25E562C4E91356201D89
:1036A00000F051FF04F1180000F04DFF2461C5F156
:1036B00020006462A0616665A66584F85C604A4685
:1036C0005146384600F072FB2060B8F1000F01D07F
:1036D000C8F80040BDE8F0872E2E5C467265655242
:1036E000544F535C7461736B732E63004572726F39
:1036F000723A25732C25640D0A00000030B511497B
:1037000000E011460A688242FBD34B685C18844291
:1037100003D1406818444860084643681C18944226
:1037200009D1084C103C2468A24209D052681A44BE
:1037300042600A6812680260814200D0086030BDB1
:103740000460F9E75C01002070B5002441600B4D76
:103750000061914206D8D11A8269914206D2011DB8
:10376000286907E09A4203D2994201D3012403E079
:10377000011DE86800F0EAFE204670BD2C01002023
:1037800010B5044600F006FFA06B20B1002400F045
:103790003DFF204610BD0124F9E72DE9F0478146A1
:1037A000086892460C460025F8B1486801F1080601
:1037B00040684860B04201D140684860D0F80C8051
:1037C000606842686260B24201D1516861606068BD
:1037D00005EBC50109EB8101C76853460122384654
:1037E00001F010F96D1C4745EAD12846BDE8F08785
:1037F0002DE9F34100980F460026846C2CB940F661
:10380000CE1216A11AA0FCF7B7FDA06BE16B88429F
:1038100005D340F6CF1211A115A0FCF7ADFDA06BAA
:10382000E16B88420CD294F945503A4669462046ED
:10383000FFF789FE0646681C05D06D1C84F84550CC
:103840003046BDE8FC81606A0028F9D004F124000C
:1038500002F06CF90028F3D00126F1E72E2E5C4629
:1038600072656552544F535C71756575652E6300C2
:103870004572726F723A25732C25640D0A000000A0
:10388000F8B5054614480E46C068C068C468201DD7
:1038900000F0D6FDE069012817D1A0692B46411937
:1038A00032462046FFF750FF78B10020034601461C
:1038B00000902A46204602F0B7FA30B907494FF483
:1038C000027201F11800FCF757FD616A01B0204651
:1038D000BDE8F040084700002C0100208C5D000886
:1038E00070B586B02F4E53E00198002806DADDE966
:1038F0000301029A90470198002849DB039C606904
:1039000010B1201D00F09CFD05A800F0A7F80546A9
:1039100001980A283CD2DFE800F00505053B27386E
:1039200005053B270298A169034601442A46204623
:10393000FFF70AFF00282BD0616A20468847E0691C
:10394000012825D1002000900298A1690023421887
:103950001946204602F068FAD0B940F2213212A18D
:1039600017A0FCF709FD13E00298A06128B94FF4F5
:103970004E720DA112A0FCF7FFFCA0692B46411965
:103980001A462046FFF7E0FE02E0204600F070FEF7
:1039900000231A4601A9306801F02CFD0028A3D1AC
:1039A00006B070BD2C0100202E2E5C46726565525B
:1039B000544F535C74696D6572732E630000000090
:1039C0004572726F723A25732C25640D0A0000004F
:1039D000F8B50D46064601F0ADFA684600F03EF82F
:1039E0000446009810B102F039F9F8BD1148ADB1A4
:1039F00001690968D9B10025311B2A46006800F029
:103A0000EDFE02F02BF90028EFD10B494FF080506A
:103A10000860BFF34F8FBFF36F8FF8BDA642EBD89E
:103A200002F01CF921463046FFF72AFFF8BD0125B8
:103A3000E2E700002C01002004ED00E00648C16B25
:103A4000096829B1C16BC968C96849688162704752
:103A50004FF0FF31FAE70000E800002070B505469E
:103A600001F090FF064E0446B068844203D200F095
:103A700009F8012000E0002028602046B46070BDF5
:103A80002C010020F8B5184E26E0C068C46805680F
:103A9000201D00F0D5FC616A20468847E0690128B6
:103AA0001AD1A0692844A84206D924616060211D6A
:103AB000F06800F04BFD0FE0002003460146009047
:103AC0002A46204602F0B0F930B9084940F2923255
:103AD00001F11800FCF750FCF06801680029D4D10E
:103AE0003169C6E90310F8BD2C0100208C5D000887
:103AF00008484068401C05D040F20F1206A111A0F2
:103B0000FCF73AFC502080F31188BFF34F8FBFF3CE
:103B10006F8FFEE7400100202E2E5C4672656552D5
:103B2000544F535C706F727461626C655C525644A2
:103B3000535C41524D5F434D34465C706F72742E3E
:103B4000630000004572726F723A25732C25640D74
:103B50000A00000070B50025040005D140F2816222
:103B600007A10CA0FCF708FC0E496069884205D14A
:103B7000A06A2839884201D000B90125284670BDC5
:103B80002E2E5C4672656552544F535C7461736BA4
:103B9000732E63004572726F723A25732C25640D83
:103BA0000A000000D00700200346002012B199430C
:103BB00002D070470B42FCD001207047084CE068EF
:103BC000016839B1002139B10020FFF701FFFFF78B
:103BD00087FEF4E70121F6E7C0680068F5E700001A
:103BE0002C0100202DE9F041044600F0D3FC94F9AB
:103BF000455004F1240610E0A06C20B100212046BD
:103C0000FFF7F6FD04E0606A48B1304601F08EFF30
:103C100008B100F08FFF6D1E6DB2002DECDC4FF08F
:103C2000FF3684F8456000F0F1FC00F0B3FC94F935
:103C3000445004F1100709E0206948B1384601F00A
:103C400075FF08B100F076FF6D1E6DB2002DF3DC3C
:103C500084F84460BDE8F04100F0D8BC10B50446DB
:103C6000FCF744FC2046FCF765FC202101E02154D0
:103C7000401C0F28FBD300212154204410BD00001C
:103C80002DE9F0410546002601F054F9324F38681D
:103C900008B9FFF799FCF86805424FD1002D4DD0C7
:103CA000083568070BD005F00700C0F1080005448F
:103CB000680704D0BF2229A132A0FCF75DFB002DCC
:103CC0003CD07868854239D82349103108460468C9
:103CD00001E0214604466068A84202D2206800281C
:103CE000F7D13868B846844228D00E68206808604A
:103CF00060680836401B10280ED96719780704D071
:103D0000EC2216A11FA0FCF737FB6068401B78600F
:103D100038466560FFF7F2FC6168D8F80400424657
:103D2000401AC8F80400D8F80830984200D29060D1
:103D3000D8F80C0001430020C4E9000101F08EFF17
:103D4000700705D04FF4967204A10EA0FCF714FB87
:103D50003046BDE8F08100004C0100202E2E5C466C
:103D600072656552544F535C706F727461626C651A
:103D70005C4D656D4D616E675C686561705F342E8A
:103D8000630000004572726F723A25732C25640D32
:103D90000A0000000449086818B10868026D521C46
:103DA0000265086870470000E800002010B5031F96
:103DB0004FF080741C601B1F21F001011960191F56
:103DC000044B0B6014390A60091F6FF0020244387B
:103DD0000A6010BDF13A00082DED028B86B0002577
:103DE000FFF748F9314E9FED328A324C059005219C
:103DF00005A800F04BFDFDF751FBB0EE480A2E4937
:103E00002C48FCF7CBFE3078C00708D02B488088C0
:103E1000B0F59F7F03D3B0EE480A00F003F9002D00
:103E2000E5D0B4F90A10B4F90800CDE90001B4F9FD
:103E30000630B4F90420B4F90210B4F90000FFF719
:103E400099F91D48F2EE040AB4F90A3090ED020A1D
:103E500020EE200AD0ED010ABDEEC00A10EE101AC5
:103E60009FED170A09B260EE800AFDEEE00A10EE3F
:103E7000902AD0ED000A019312B220EE800A04913C
:103E8000BDEEC00A10EE100A00B2CDE90202B4F98C
:103E900008000090B4F90630B4F90420B4F9021017
:103EA000B4F9000000F070FAA1E700000000002063
:103EB0000AD7A33B300300203C030020620300200C
:103EC0000000C84200B52DED048B83B041EC190B06
:103ED00002F082FB41EC180B18EE100A18EE901A53
:103EE0008DED008B002818BF0120084320F0004012
:103EF000C0F17F6000F1E040C00F14D019EE101A3D
:103F000019EE900A8DED009B002918BF012108438E
:103F100020F00040C0F17F6000F1E040C00F04BF1E
:103F20000120FCF7C5FB51EC180B03B0BDEC048B72
:103F300000BD00007CB500F02DFB01F083F81F4CA4
:103F4000002304F10C0160600620CDE900014FF46C
:103F500080721BA11E4801F0DBFC04F1100105205A
:103F6000CDE900014FF4007500232A4619A11D4830
:103F700001F0CEFC04F118010320CDE9000100237B
:103F80002A4619A11D4801F0C3FC04F114010420C4
:103F9000CDE9000100232A4619A11B4801F0B8FC15
:103FA00001F046F9014619A0FCF7E6F9A06800F017
:103FB000C3FCBDE87C4000F029BB000000000020ED
:103FC000657363696E69745F7461736B00000000F0
:103FD000B12F000873656E736F72735F7461736BDA
:103FE00000000000D93D000852756E54696D65539C
:103FF000746174735F7461736B000000C51900080D
:1040000052435F7461736B00E51700084672656583
:1040100020686561703A2025642062797465730AAE
:10402000000000002DE9F0418D4A4FF4FA714FF481
:10403000F9789088B0EE402AA0F59C7048434FF480
:10404000C86190FBF1F000F2F31080B240F2F3147B
:10405000404501D8204604E040F25131884200D961
:104060000846804D40F2F461E880A880688028808E
:10407000508988427DD37C487D4BB0EE420AB0F92E
:10408000061003F1340600EE901A784903F1680730
:10409000F8EEE00A91ED001A03F19C0160EE810A4E
:1040A000C3ED090AB0F9082000EE902A01F13402AC
:1040B000F8EEE00A60EE810AC6ED090AB0F90A00DE
:1040C00000EE900A6B48F8EEE00A60EE810AC7ED58
:1040D000090AD0ED010AC1ED090AD0ED000AC2EDCE
:1040E000090AD0ED020A01F16800C0ED090A34386E
:1040F000FFF784F8D2ED0A0AB0EE420AC3ED000AD7
:104100005B48FFF77BF8B0EE420A06F16800FFF764
:1041100075F8D1ED0A0AB0EE420AC6ED000A304643
:10412000FFF76CF8B0EE420A06F1D0013846FCF712
:10413000C2FC93ED0A0AD6ED0A0AB5F9000030EE8A
:10414000600AD7ED0A0A70EE600A00EE100AB8EEB7
:10415000C00A30EE800ABDEEC00A10EE100A2880B8
:1041600093ED0A0AD6ED0A0AB1EE400A30EE600A73
:1041700000E03EE0D7ED0A0AB5F9020070EE200A31
:1041800000EE100AB8EEC00A30EE800ABDEEC00A9A
:1041900010EE100A688096ED0A0AD3ED0A0AB5F906
:1041A000040030EE600AD7ED0A0A70EE600A00EEF5
:1041B000100AB8EEC00A30EE800ABDEEC00A10EE5A
:1041C000100AA88093ED0A0AD6ED0A0AB5F906008E
:1041D00030EE200AD7ED0A0A70EE200A00EE100A2F
:1041E000B8EEC00A30EE800ABDEEC00A10EE100A2A
:1041F000E880B5F90010474640F2B536B94201DC17
:10420000214602E0B14200DD3146DFF86C804046D5
:10421000FEF734F8B5F90210B94201DC214602E09C
:10422000B14200DD31464046FEF72AF8B5F90410E8
:10423000B94201DC214602E0B14200DD3146404690
:10424000FEF720F8B5F90600B84203DD3446A04277
:1042500000DC044621464046BDE8F041FEF714B8B4
:1042600062030020AC00002030030020406A0008F8
:10427000880300203C03002000040040F0B50746FE
:1042800087B001210220FDF735FA01218804FDF7EE
:104290003DFA234E07220A213046FCF766FC07222E
:1042A0000B213046FCF761FC4FF440600490022083
:1042B0008DF814008DF8150000248DF816400125A6
:1042C0008DF8175004A93046FCF713FCADF80840F0
:1042D0000C20144EADF80440ADF80A000097ADF87C
:1042E0000640ADF80C4069463046FEF781F80121E2
:1042F0003046FEF735F8012240F225513046FEF7F0
:104300005FF827208DF818000F208DF819008DF820
:104310001A408DF81B5006A8FDF79AF907B0F0BDBA
:10432000000402400048004070B588B01C2A29D81B
:104330000DEB02030024DC7088248DF800408DF81A
:1043400001006D468DF80220002004E00C5C2E1860
:10435000401CF470C0B29042F8D30020D41C05E099
:104360002E5CD978401C3144D970C0B2A042F7D33A
:104370000024161D04E0285D00F050F8641CE4B22F
:10438000B442F8D308B070BD2DE9F04788B010AC46
:10439000DDE913C794E80007002425466E4635552D
:1043A000641CE4B21C2CFAD3040A8DF800408DF88A
:1043B0000100080A8DF80200100A8DF804008DF83B
:1043C0000520180A8DF806004FEA18208DF808001D
:1043D0008DF809804FEA19208DF80A004FEA1A205B
:1043E0008DF812008DF803104FEA1C208DF8140090
:1043F0008DF815C0380A8DF816008DF807308DF845
:104400000B908DF813A08DF817701C223146AF2049
:10441000FFF78AFF08B0BDE8F087000070B5074CD1
:10442000054640212046FDF7A5FF0028F9D0294682
:104430002046BDE87040FEF731B80000004800405B
:10444000D0E9013201699A60D0E901235A604A68D3
:10445000824201D182684A60002202610868401EDF
:10446000086070472DE9F04717460A4606460024C3
:10447000202500F05FFDDFF89080D8F80800824228
:104480003CD3DFF888906D1E05EB850104EBC4007A
:1044900009EB810106EB80000122FFF77EF904445D
:1044A000002DF0D104EBC40006EB8000022245464B
:1044B000D8F83C10FFF771F9044404EBC40006EB94
:1044C00080000222296CFFF768F9044404EBC40061
:1044D00006EB800004220E49FFF75FF904440C4903
:1044E00004EBC40006EB800003221431FFF755F9FA
:1044F00004441FB1074801684068396001F0AEFB11
:104500002046BDE8F0870000E800002000050020FC
:10451000BC070020A0000020044908680A688069E0
:10452000D26A0968C2F120028A617047E80000205F
:1045300000F108014FF0FF32C0E90112C1600161D2
:1045400000210160704700210161704730B50C689F
:10455000621C02D000F1080202E0026904E01A467F
:1045600053681D68A542FAD953684B6099608A6008
:10457000516008610168491C016030BD42684A60B1
:1045800093688B6093685960916008610168491C69
:1045900001607047502080F31188BFF34F8FBFF345
:1045A0006F8F09494868401C486001280AD10748B4
:1045B000006810F0FF0F05D040F2B91204A10FA05F
:1045C000FBF7DABE704700004001002004ED00E078
:1045D0002E2E5C4672656552544F535C706F727438
:1045E00061626C655C525644535C41524D5F434D71
:1045F00034465C706F72742E630000004572726FF7
:10460000723A25732C25640D0A00000010B5084C81
:10461000606828B94FF4E07206A111A0FBF7ACFE68
:104620006068401E606001D180F3118810BD0000F9
:10463000400100202E2E5C4672656552544F535C3B
:10464000706F727461626C655C525644535C415287
:104650004D5F434D34465C706F72742E63000000F2
:104660004572726F723A25732C25640D0A000000A2
:1046700070B500282AD0164DA0F108046068E968DA
:10468000084205D14FF4A07212A11CA0FBF774FEE2
:10469000206828B140F241120EA118A0FBF76CFE71
:1046A0006068E968084211D02268002A0ED1884368
:1046B000606000F03FFC60686968084468602046FC
:1046C000FFF71CF8BDE8704001F0C8BA70BD0000EB
:1046D0004C0100202E2E5C4672656552544F535C8F
:1046E000706F727461626C655C4D656D4D616E6773
:1046F0005C686561705F342E630000004572726F04
:10470000723A25732C25640D0A00000006484FF408
:104710007A710068B0FBF1F14FF0E020491E416171
:1047200007210161704700001C00002010B5FBF755
:10473000FDFD104C10280CD300F1E02090F8F003A0
:104740002178884205D24FF440720BA115A0FBF7E7
:1047500013FE18480068A16800F4E060884207D999
:10476000BDE810404FF4447203A10EA0FBF704BE55
:1047700010BD0000400100202E2E5C46726565527F
:10478000544F535C706F727461626C655C52564436
:10479000535C41524D5F434D34465C706F72742ED2
:1047A000630000004572726F723A25732C25640D08
:1047B0000A0000000CED00E010B5074B002253F892
:1047C00032401CB1521C082AF9D310BD43F83210F4
:1047D00003EBC201486010BDC004002070B515464F
:1047E0000E460446FFF7D6FE94F944100020491CFB
:1047F00001D184F8440094F94510491C01D184F892
:104800004500FFF703FFA06B28B92A46314604F1A3
:10481000240000F0BFF92046BDE87040FFF7E2B980
:1048200010B5040012D00E49096B29B140F2CF42F5
:104830000CA111A0FBF7A0FD00F07CFB002120469D
:10484000FEF77CFD01F00AFA002807D10E494FF06F
:1048500080500860BFF34F8FBFF36F8F10BD000013
:10486000E80000202E2E5C4672656552544F535C62
:104870007461736B732E63004572726F723A2573A5
:104880002C25640D0A00000004ED00E02DE9F04144
:104890000E4605004FF0000405D140F279421BA1FD
:1048A0001FA0FBF769FD2EB940F27A4217A11CA0A8
:1048B000FBF762FD1E4F386B28B140F27B4213A11B
:1048C00017A0FBF759FD00F035FBFA68286881193D
:1048D000904202D9884202D804E0884201D891422D
:1048E00000D9012429601CB1881A0021FEF726FD99
:1048F00001F0B4F9002807D10E494FF0805008604C
:10490000BFF34F8FBFF36F8FBDE8F0812E2E5C4653
:1049100072656552544F535C7461736B732E630000
:104920004572726F723A25732C25640D0A000000DF
:10493000E800002004ED00E070B50446FFF72AFE11
:10494000234D04B92C68201DFFF77AFD58B9E06AA1
:10495000204A00EB800152F8211021B90121814049
:10496000286988432861A06A18B104F11800FFF78C
:1049700067FD686A401C68622868844207D1211D6F
:104980001548FFF7FBFD6868401C686007E0A868F1
:10499000401EA8602046FEF70CFEFFF74FF8FFF719
:1049A00035FE6869002812D0286884420FD1286B30
:1049B00028B140F2654209A10DA0FBF7DDFC1049CA
:1049C0004FF080500860BFF34F8FBFF36F8F70BD03
:1049D000E800002000050020BC0700202E2E5C46C9
:1049E00072656552544F535C7461736B732E630030
:1049F0004572726F723A25732C25640D0A0000000F
:104A000004ED00E02DE9F0411E4690460C460700FB
:104A10000ED0054605F13400C4E90050E86A206173
:104A2000286BE061686CA060207B032803D00AE05B
:104A300013480568EEE700F07DFAA86A08B1022085
:104A4000207301F00BF9E86C6061686DA061052EC0
:104A500001D0267303E03846FEF766FA2073B8F1FA
:104A6000000F0BD00021286B01E0401C491C02788C
:104A7000A52AFAD088082084BDE8F0810020FAE752
:104A8000E8000020FEB50025064605702248816832
:104A90000191806800EBC0008000FFF7F1F804008E
:104AA00038D002AA0199FFF7DDFC01900298642139
:104AB000B0FBF1F0029050B32846009524E000EBE3
:104AC000C00004EB8000029A8169B1FBF2F54168F5
:104AD0003046FFF7C3F80646009800EBC00004EB31
:104AE000800082692DB12B460CA13046FBF750FCAB
:104AF00003E00DA13046FBF74BFC3046FBF71AFDF7
:104B000006440098401C009001998842D7D3204663
:104B1000FFF7AEFDFEBD0000E80000200925750985
:104B200009257525250D0A0009257509093C31253A
:104B3000250D0A0001490120C8617047E8000020E6
:104B400070B50D46040005D140F6063207A10CA051
:104B5000FBF712FC0E48016820461831FFF7F6FCFF
:104B60002846BDE870400121FEF7E8BB2E2E5C46CA
:104B700072656552544F535C7461736B732E63009E
:104B80004572726F723A25732C25640D0A0000007D
:104B9000E800002070B514460E46050005D140F629
:104BA000313209A10DA0FBF7E7FB10480168284648
:104BB0001831FFF7E3FC0CB14FF0FF3621463046C9
:104BC000BDE87040FEF7BABB2E2E5C46726565529A
:104BD000544F535C7461736B732E63004572726F34
:104BE000723A25732C25640D0A000000E8000020AD
:104BF0002DE9F04117460E46050005D140F6173263
:104C00000DA112A0FBF7B8FB144C206B28B940F69D
:104C10001B3209A10DA0FBF7AFFB216846F0004055
:104C20008861216828461831FFF7A8FC3846BDE89E
:104C3000F0410121FEF782BB2E2E5C467265655263
:104C4000544F535C7461736B732E63004572726FC3
:104C5000723A25732C25640D0A000000E80000203C
:104C600070B5040039D01D4DE06A2968C96A8842D0
:104C700033D2A069002804DB2868C06AC0F1200094
:104C8000A061E06A164E00EB8000616906EB8000CF
:104C900081421FD1201DFFF7D3FB012150B9E06AEB
:104CA00000EB800256F8222022B92A6901FA00F0AE
:104CB00082432A612868C06AE0622A698140114300
:104CC000296100EB800006EB8000211DBDE87040EB
:104CD000FFF754BC2868C06AE06270BDE80000209D
:104CE0000005002070B504002BD01A4D28688442BE
:104CF0002FD0FFF74FFC2046FEF72CFFE8B1201D18
:104D0000FFF79EFBE06A01212A6981401143296176
:104D1000114900EB800001EB8000211DFFF72EFC04
:104D2000E06A2968C96A884207D30C494FF080506D
:104D30000860BFF34F8FBFF36F8FBDE87040FFF780
:104D400065BCBDE8704040F2AB6205A109A0FBF76D
:104D500013BB70BDE80000200005002004ED00E05A
:104D60002E2E5C4672656552544F535C7461736BB2
:104D7000732E63004572726F723A25732C25640D91
:104D80000A00000010B5040005D140F6C13205A1AB
:104D900009A0FBF7F1FA0C48016A2160C068606065
:104DA00010BD00002E2E5C4672656552544F535C58
:104DB0007461736B732E63004572726F723A257360
:104DC0002C25640D0A000000E80000201CB51848DE
:104DD0000024CDE900402346822216A1174800F0A6
:104DE00097FD012803D100F0E5FF01280AD0401CFF
:104DF0001DD102B040F28472BDE8104010A115A090
:104E0000FBF7BABA502080F31188BFF34F8FBFF37E
:104E10006F8F07484FF0FF312C38816201214161CB
:104E2000C460FBF75BFEBDE81C4000F007BA1CBD88
:104E30001401002049444C450000000015360008CC
:104E40002E2E5C4672656552544F535C7461736BD1
:104E5000732E63004572726F723A25732C25640DB0
:104E60000A00000070B50446FFF794FB244D04B916
:104E70002C68201DFFF7E4FA58B9E06A214A00EBDC
:104E8000800152F8211021B901218140286988430D
:104E90002861A06A18B104F11800FFF7D1FA211DAA
:104EA0001948FFF76BFBFFF7B1FB686928B1FFF703
:104EB00071FBFEF7C3FDFFF7A9FB2868844211D1FF
:104EC000686980B1286B28B140F257620FA114A025
:104ED000FBF752FA16494FF080500860BFF34F8F2E
:104EE000BFF36F8F70BD0848A9680068884202D17F
:104EF0000020286070BDBDE8704000F023B80000BD
:104F0000E800002000050020D00700202E2E5C467F
:104F100072656552544F535C7461736B732E6300FA
:104F20004572726F723A25732C25640D0A000000D9
:104F300004ED00E00248016B491C0163704700006A
:104F4000E800002070B51A4C206B10B10120E06120
:104F500070BD0020E061174908684968A063626B72
:104F6000904204D92168821A4B6D1A444A656063E5
:104F70002069114EB0FA80F0C0F11F0000EB8005EF
:104F800056F8250028B940F6F6220CA110A0FBF730
:104F9000F3F906EB850000F10802416849684160B9
:104FA000914201D149684160C868206070BD00002D
:104FB000E8000020A0000020000500202E2E5C4606
:104FC00072656552544F535C7461736B732E63004A
:104FD0004572726F723A25732C25640D0A00000029
:104FE00070B50E46040005D140F2DF120AA111A0EF
:104FF000FBF7C2F9300E05D04FF4F07206A10DA0F8
:10500000FBF7BAF9FFF7C6FA256825EA0600206023
:10501000FFF7FCFA284670BD2E2E5C46726565527D
:10502000544F535C6576656E745F67726F7570730D
:105030002E6300004572726F723A25732C25640D41
:105040000A00000010B51C20FEF71AFE040004D070
:1050500000202060201DFFF76BFA204610BD0000E5
:105060002DE9F04100258846040005D140F21D22BB
:105070001CA123A0FBF780F95FEA186005D040F27D
:105080001E2218A11EA0FBF777F9261D04F10C07BC
:10509000FFF750FF2168F06841EA0801216017E03E
:1050A000D0E9001601F07F425301236821F07F41CF
:1050B00002D40B4203D10AE031EA030307D1D20143
:1050C00000D50D43216841F0007100F07BFD3046B2
:1050D000B842E5D12068A843206000F0BFFD2068F9
:1050E000BDE8F0812E2E5C4672656552544F535CCC
:1050F0006576656E745F67726F7570732E630000FE
:105100004572726F723A25732C25640D0A000000F7
:105110002DE9F047089F9A4691460D4604004FF04E
:10512000000605D140F24D1235A13CA0FBF724F951
:10513000280E05D04FF4A77231A138A0FBF71CF957
:105140002DB940F24F122EA134A0FBF715F900F053
:105150000BFC30B92FB14FF4A97229A12FA0FBF796
:105160000BF9FFF7E7FED4F8008052462946404687
:10517000FEF71AFD40B100274646B9F1000F15D0E1
:105180002068A843206011E0AFB1B9F1000F01D051
:105190004FF08076BAF1000F01D046F0806645EA04
:1051A00006013A46201DFFF723FD002600F056FDBC
:1051B0001FB310B109E04646F8E71C494FF0805094
:1051C0000860BFF34F8FBFF36F8FFFF7A5F9064657
:1051D000800110D4FFF7DEF9266852462946304692
:1051E000FEF7E2FC28B1B9F1000F02D02068A84315
:1051F0002060FFF70BFA26F07F463046BDE8F087C7
:105200002E2E5C4672656552544F535C6576656E12
:10521000745F67726F7570732E6300004572726FF2
:10522000723A25732C25640D0A00000004ED00E09D
:1052300001484068704700004C0100201CB5304C0C
:1052400020683049884205D140F259122EA139A078
:10525000FBF792F820682B49491E884205D14FF48C
:10526000AD7229A133A0FBF787F8364C2078019066
:10527000FF20207020788DF800009DF800009DF838
:10528000001000F0F000884205D040F273121EA119
:1052900028A0FBF771F89DF800002B4A00F05000A1
:1052A00010700720906007E09068401E90609DF8A5
:1052B000000040008DF800009DF800000006F3D4C7
:1052C000107A000200F4E0609060019820700C48B1
:1052D0002030016841F470010160016841F07041C3
:1052E0000160FFF713FA00205060FAF7E7FF174854
:1052F000016841F040410160FAF7D0FF00201CBD79
:1053000000ED00E071C20F412E2E5C4672656552C1
:10531000544F535C706F727461626C655C5256449A
:10532000535C41524D5F434D34465C706F72742E36
:10533000630000004572726F723A25732C25640D6C
:105340000A00000000E400E04001002034EF00E02B
:1053500010B5502080F31188BFF34F8FBFF36F8FCC
:1053600000F016FB18B104494FF08050086000208F
:1053700080F3118810BD000004ED00E02DE9F0413C
:1053800017460E46050005D14FF4C47210A115A0B2
:10539000FAF7F2FFBEB105FB06F05430FEF770FCE1
:1053A00004000ED004F154007EB12060C4E90F5611
:1053B0002046012100F0E0F884F8507000212046DA
:1053C000A164BDE8F0810020E7E72460EEE700007B
:1053D0002E2E5C4672656552544F535C717565752F
:1053E000652E63004572726F723A25732C25640D29
:1053F0000A0000002DE9FF4F83B09B468A46040057
:105400004FF0000605D140F2DC4251A155A0FAF759
:10541000B3FFBAF1000F07D1206C28B140F2DD4292
:105420004BA150A0FAF7A8FF00F09EFA38B90598F2
:1054300028B14FF49C6246A14AA0FAF79DFF4FF0B5
:1054400000094FF08057DFF82C81FFF7A3F8A56B18
:1054500045B351462046E668FEF762F8BBF1000FFF
:1054600013D0E660606A50B104F1240000F05EFBE6
:1054700028B1C8F80070BFF34F8FBFF36F8FFFF7ED
:10548000C5F8012007B0BDE8F08F6D1EA563206848
:1054900010B9FEF77FFC606020690028EFD004F1AE
:1054A0001000E3E7059808B11EB106E0FFF7AEF87B
:1054B00027E06846FFF766FC0126FFF7A7F8FFF72D
:1054C00039FDFFF767F894F94400401C01D184F8D6
:1054D000449094F94500401C01D184F84590FFF7B1
:1054E00095F805A9684600F0CFF9002820460AD0B3
:1054F000FEF778FB00F0B2FB2046FEF741F90028EA
:10550000A3D00020BEE7FEF73BF9D8B1206830B940
:10551000FFF740F86068FFF7A3FBFFF777F804F1A7
:1055200024000599FFF70CFB2046FEF75BFB00F01B
:1055300095FB002889D1C8F80070BFF34F8FBFF3E7
:105540006F8F82E72046FEF74DFB00F087FB7CE77C
:105550002E2E5C4672656552544F535C71756575AD
:10556000652E63004572726F723A25732C25640DA7
:105570000A00000004ED00E070B50D46040005D1FE
:1055800040F21B121CA121A0FAF7F6FEFFF702F869
:10559000D4E90F20216802FB001161600021A163A2
:1055A0002168A1600A46D4E90F01401E00FB0121D9
:1055B000E16021464FF0FF3001F8440F487004F1DC
:1055C00010004DB1FEF7B4FF04F12400FEF7B0FF68
:1055D000FFF71CF8012070BD21690029F8D000F008
:1055E000A5FA0028F4D00D494FF080500860BFF3B1
:1055F0004F8FBFF36F8FEBE72E2E5C4672656552BF
:10560000544F535C71756575652E63004572726FFA
:10561000723A25732C25640D0A00000004ED00E0A9
:105620002DE9FF4F83B099468B4604004FF00006EA
:1056300005D140F2D92252A156A0FAF79DFEBBF146
:10564000000F07D1206C28B140F2DA224CA151A002
:10565000FAF792FEB9F1020F08D1E06B012805D0EC
:1056600040F2DB2246A14BA0FAF786FE00F07CF95F
:1056700038B9059828B140F2DE2241A145A0FAF7D9
:105680007BFE4FF0000A4FF08057DFF81881FEF7DD
:1056900081FFA06BE16B884206D3B9F1020F03D002
:1056A000059800B316B325E04A4659462046FDF753
:1056B0004AFFA16C21B149462046FEF799F805E062
:1056C000616A19B104F1240000F030FA28B1C8F879
:1056D0000070BFF34F8FBFF36F8FFEF797FF01206E
:1056E00007B0BDE8F08FFEF791FF21E06846FFF7B5
:1056F00049FB0126FEF78AFFFFF71CFCFEF74AFF75
:1057000094F94400401C01D184F844A094F9450068
:10571000401C01D184F845A0FEF778FF05A9684632
:1057200000F0B2F830B12046FEF75CFA00F096FACD
:105730000020D5E7FEF72EFFA06BE16B884201D178
:10574000012500E00025FEF761FF95B104F110008E
:105750000599FFF7F5F92046FEF744FA00F07EFAC6
:10576000002894D1C8F80070BFF34F8FBFF36F8F3C
:105770008DE72046FEF736FA00F070FA87E7000062
:105780002E2E5C4672656552544F535C717565757B
:10579000652E63004572726F723A25732C25640D75
:1057A0000A00000004ED00E02DE9F0479846154698
:1057B0008946040005D140F29F322AA12EA0FAF7B3
:1057C000DBFDB9F1000F07D1206C28B14FF46872EE
:1057D00024A129A0FAF7D0FDB8F1020F08D1E06B9F
:1057E000012805D040F2A1321EA123A0FAF7C4FD82
:1057F000FEF79CFF5020EFF3118780F31188BFF371
:105800004F8FBFF36F8FA06BE16B884207D3B8F166
:10581000020F04D0002087F31188BDE8F08794F9C7
:105820004560424649462046FDF78DFE701C04D077
:10583000761C84F845600120EDE7A06C012620B1BC
:1058400041462046FDF7D4FF06E0606A0028F2D00A
:1058500004F1240000F06AF90028ECD0002DEAD011
:105860002E60E8E72E2E5C4672656552544F535CFD
:1058700071756575652E63004572726F723A257396
:105880002C25640D0A00000070B50D46040005D1FA
:1058900040F6CB3214A119A0FAF76EFD2DB940F6EF
:1058A000CC3211A115A0FAF767FDFEF773FE174A77
:1058B000D06829684B1C0FD02368126A934202D02B
:1058C000626882420AD96268801A884206D2081A3F
:1058D00028602046FFF756FA002400E00124FEF776
:1058E00095FE204670BD00002E2E5C467265655206
:1058F000544F535C7461736B732E63004572726F07
:10590000723A25732C25640D0A000000E80000207F
:105910002DE9FF5F8346DDE90E87994616468A46E4
:105920009000FEF7ADF905001AD06020FEF7A8F947
:10593000040012D025630021CDE90241CDE90087A2
:105940004B46324651465846FDF778FE2046FDF755
:105950002DFD012004B0BDE8F09F2846FEF788FE2B
:105960004FF0FF30F6E700000548416919B1006BC0
:1059700018B10020704701207047022070470000D6
:10598000E80000200148C06870470000E8000020DF
:105990002DE9F0412D4F0026386B40B1B869401C0D
:1059A000B861F86900B101263046BDE8F081FD68B4
:1059B0006D1CFD6011D1F86B006828B140F6D9125A
:1059C00023A128A0FAF7D8FCF86B396CF963386486
:1059D000386A401C3862FEF731F8B86ADFF8948004
:1059E000854209D3F86B006880B1F86BC068C46861
:1059F000606885420DD2B8623868C06A00EB8001E9
:105A000058F821000128CCD90126CAE74FF0FF3011
:105A1000F1E7201DFEF714FDA06A18B104F118008B
:105A2000FEF70EFDE06A01213A69814011433961B8
:105A300000EB800108EB8100211DFEF79FFDE06A6D
:105A40003968C96A8842CDD30126CBE7E800002037
:105A50002E2E5C4672656552544F535C7461736BB5
:105A6000732E63004572726F723A25732C25640D94
:105A70000A0000000005002070B504004FF0000689
:105A80003CD01F4D2868844205D040F6C7621DA156
:105A900021A0FAF771FC206D28B940F6C96219A15E
:105AA0001DA0FAF769FC206D401E2065E26CE16ADA
:105AB000914223D010BB201DFEF7C2FC1A490122DF
:105AC00050B9E06A00EB800351F8233023B92B6909
:105AD00002FA00F083432B61E06CE062C0F1200029
