:020000040800F2
:10000000705E00204D030008C92400086F1E000820
:10001000FD220008191900084933000800000000FB
:100020000000000000000000000000009502000831
:100030005519000800000000E9020008892B00089B
:1000400067030008670300086703000867030008E8
:1000500067030008670300086703000867030008D8
:1000600067030008670300086703000867030008C8
:1000700067030008670300086703000867030008B8
:1000800067030008670300086703000867030008A8
:100090006703000867030008670300086703000898
:1000A0006703000867030008670300086703000888
:1000B000F92B0008670300086703000867030008BE
:1000C0006703000867030008670300086703000868
:1000D0006703000867030008AD31000867030008E4
:1000E0006703000867030008670300086703000848
:1000F0006703000867030008670300086703000838
:100100006703000867030008670300086703000827
:100110006703000867030008670300086703000817
:100120006703000867030008670300086703000807
:1001300067030008670300086703000867030008F7
:1001400067030008670300086703000867030008E7
:1001500067030008670300086703000867030008D7
:1001600067030008670300086703000867030008C7
:1001700067030008670300086703000867030008B7
:10018000670300086703000800F002F800F072F847
:100190000AA090E8000C82448344AAF10107DA45E2
:1001A00001D100F067F8AFF2090EBAE80F0013F0C2
:1001B000010F18BFFB1A43F001031847F07C000041
:1001C000107D00000A444FF0000C10F8013B13F0C2
:1001D000070408BF10F8014B1D1108BF10F8015BA0
:1001E000641E05D010F8016B641E01F8016BF9D193
:1001F00013F0080F1EBF10F8014BAD1C0C1B09D1EA
:100200006D1E58BF01F801CBFAD505E014F8016B5B
:1002100001F8016B6D1EF9D59142D6D370470000ED
:100220000023002400250026103A28BF78C1FBD8FF
:10023000520728BF30C148BF0B607047662907F0DE
:100240006A85642900F02281752900F01F817329D5
:1002500000F0D784002070471FB507F052FD00F072
:1002600019FD04000020002106F054FFE0601FBDCE
:1002700010B510BD00F016FE1146FFF7EDFF03F0BC
:10028000DBFF00F034FE03B4FFF7F2FF03BC03F022
:1002900043FD00002A4B19680868B0E8F04F80F36E
:1002A0000988BFF36F8F4FF0000080F3118870470B
:1002B0000000000006480068006880F3088862B605
:1002C00061B6BFF34F8FBFF36F8F00DF00BF00BF7A
:1002D00008ED00E0DFF80C00016841F470010160F6
:1002E000704700BF88ED00E0EFF30980BFF36F8F28
:1002F000134B1A681EF0100F08BF20ED108A20E97A
:10030000F04F106008B44FF0500080F31188BFF335
:100310004F8FBFF36F8F05F043FF4FF0000080F366
:10032000118808BC19680868B0E8F04F1EF0100F7B
:1003300008BFB0EC108A80F30988BFF36F8F704755
:10034000E8000020EFF3058070470000094880476F
:1003500009480047FEE7FEE7FEE7FEE7FEE7FEE7A7
:10036000FEE7FEE7FEE7FEE704480549054A064BBF
:10037000704700009D2B000889010008705800207C
:10038000705E0020705A0020705A002070470000F4
:100390000FB4044910B503AA029800F037FC10BC52
:1003A0005DF814FBD40000200FB41CB5074B06AA5F
:1003B0007B4469460090059800F0F9FB00206946EF
:1003C00000F008FC1CBC5DF814FB000021080000D4
:1003D0002DE9F0410E460446002020622046E168E7
:1003E000884730B3252805D0D4E901219047206AF9
:1003F000401CF2E7E168204600278847050018D036
:10040000A5F14100192802D820354FF40067324683
:10041000294620462760FFF711FF40B1012804D08C
:10042000F61D26F007060836D8E7361DD6E728461B
:10043000DAE7206ABDE8F08170B50C460546012A6E
:1004400005D02878800600D5EA69002302E0012360
:1004500005E05B1C934202D2E05C0028F9D1A86958
:10046000E618C01AA861286A184428622846AFF323
:10047000008004E0D5E9012114F8010B9047B44253
:10048000F8D32846AFF3008070BD00002DE9F0419D
:100490000646002410687529314616A510D0AFF322
:1004A0000080002802DA404213A507E031688A077D
:1004B00001D512A502E0490704D511A5012401E0E8
:1004C000AFF3008000210A2206F1240709E0B0FB07
:1004D000F2FCB0FBF2F302FB1C00303078541846FB
:1004E000491C0028F3D123462A463046BDE8F04196
:1004F00000F0F0B8000000002D0000002B0000000C
:100500002000000040EA0103024630B59B0710D1ED
:100510004FF0013400E008C208C91D1B9D4315EAD5
:10052000C41FF8D013F0FF0102F8011B0DD01B0A05
:10053000F8E711F8013B002B02F8013B05D011F858
:10054000013B002B02F8013BF3D130BD10B5431C39
:1005500002E010F8011B71B18107FAD14FF00132AE
:1005600002C88C1A8C4314EAC211F9D0C01A0A06C8
:1005700003D0C01E10BDC01A10BD0A0401D0801ED9
:1005800010BD0902FCD0401E10BD032A40F230808D
:1005900010F0030C00F0158011F8013BBCF1020FC4
:1005A000624498BF11F801CB00F8013B38BF11F845
:1005B000013BA2F1040298BF00F801CB38BF00F85C
:1005C000013B11F0030300F03383083AC0F00880C8
:1005D00051F8043B083A51F804CBA0E80810F5E7BD
:1005E000121D5CBF51F8043B40F8043BAFF30080A0
:1005F000D20724BF11F8013B11F801CB48BF11F815
:10060000012B24BF00F8013B00F801CB48BF00F8E4
:10061000012B704702F0FF0343EA032242EA024241
:1006200000F002B84FF000020429C0F0128010F070
:10063000030C00F01B80CCF1040CBCF1020F18BFBE
:1006400000F8012BA8BF20F8022BA1EB0C0100F051
:100650000DB85FEAC17C24BF00F8012B00F8012B24
:1006600048BF00F8012B70474FF0000200B5134659
:1006700094469646203922BFA0E80C50A0E80C50C2
:10068000B1F12001BFF4F7AF090728BFA0E80C5073
:1006900048BF0CC05DF804EB890028BF40F8042B6C
:1006A00008BF704748BF20F8022B11F0804F18BFD9
:1006B00000F8012B7047704770477047704710B5BE
:1006C00000F0ECFA006810BD10B5044600F0E6FA40
:1006D000046010BD2DE9F0470D4699469246044648
:1006E00000F124080168880604D5E06921F01001B2
:1006F000216000E00120A84201DD471B00E0002747
:10070000A1697A1902EB0900081AA0612078C006D5
:1007100002D42046AFF30080002608E0D4E901218E
:100720001AF806009047206A401C761C20624E454D
:10073000F4DB2078C0060AD52046AFF3008006E03F
:10074000D4E9012130209047206A401C2062381EE5
:10075000A7F10107F4DC07E0D4E9012118F805004E
:100760009047206A401C2062281EA5F10105F3DC99
:100770002046AFF300802078000602D50220BDE8B5
:10078000F0870120FBE770472DE9FF4F0C461E461E
:100790004FF0FF378BB0D2E90001DDF860800A909E
:1007A0008A46C1F30A5505B93D46002108464FF077
:1007B0000000BAF1000F00F4400005DA00EB800001
:1007C0004FF4400101EA50004FEA9059B9F1010F8E
:1007D00000DDB9460A9850EA4A000ED044F610509F
:1007E000A5F2FF3545432F14B8F1000F1ED0754216
:1007F000291E1EDDC9F100021CE0B8F1010F4FF007
:10080000000001D0302103E0F24305E02154401CF8
:10081000B042FBDB30460022002121540B99C1F885
:100820000880C1E900200FB0BDE8F08FBD1B6D1C32
:10083000DEE74A4600DA694206A800F0B9FA06ABDC
:1008400093E8070003AB83E8070050460A9900F0DD
:1008500097FB8DE80700A0F500501F380090039823
:10086000002D0ADD42F21F014A460844002303A975
:100870000390684600F000FE09E0A0F500504A46EB
:100880001F38002303A90390684600F00AFE8DE894
:1008900007000004000C03D04FF0FF30410800E0D7
:1008A0001046B8F1000F03D00022009215461EE05A
:1008B000751E05D400F0F6F9303262556D1EF9D57B
:1008C000B3460122084302D000227F1C04E02078B6
:1008D000302801D100227F1E002A099784D01DE014
:1008E000112D07DA00F0DEF9303262556D1C50EA46
:1008F0000102F5D1084302D00098C8B10EE00021F2
:10090000681E05E0235C625C63542254401E491C4F
:100910008142F7DBAB46A81B401E0990002004F87B
:100920000B000B98099AC0F80880C0E9002B7AE701
:1009300011264FF0000857E72DE9F04F884604468E
:10094000D21D22F0070191B0D1E90001CDE90A01E1
:1009500002F0FBFC02460B98C00F01D02D2007E0EF
:100960002068810701D52B2002E0202101EAC00088
:10097000032A099001D0072A05DB03464146204699
:1009800000F0D6F90BE12078800601D5E06900E09F
:100990000620B8F1650F814606D0B8F1660F18D071
:1009A000B8F1670F70D131E00020B9F1110F00905C
:1009B00001DB112301E009F101030AAA01A90CA836
:1009C000FFF7E2FEDDE90C70002609F10105834620
:1009D00047E001204B4600904FF000470AAA01A9CA
:1009E0000CA8FFF7D1FEDDE90DB00C995D4600269D
:1009F00010B909F101000D18B9EB050003D4C0F1DD
:100A0000FF3609F10105A5EB09002BE0B9F1010F53
:100A100001DA4FF001090020B9F1110F00904846AA
:100A200001DD112300E003460AAA01A90CA8FFF783
:100A3000ABFEDDE90C704D460026834620780007AA
:100A40000AD4AB4500DA5D4601A8012D04DD411949
:100A500011F8011C302907D04F4502DA17F1040FB5
:100A600004DA012082460FE06D1EEEE7002F02DC63
:100A7000ED1B3E4403E0781CA84200DD7D1CB81B42
:100A800000F1010A4FF000472078000703D4AA457F
:100A900001DB4FF0FF3A0021B7F1004F0DF14308A1
:100AA0008DF8431024D002202B23002F01DA7F423F
:100AB0002D230A21021EA0F1010000DC5FB197FB8B
:100AC000F1FC97FBF1F201FB1C7C17460CF1300C9A
:100AD00008F801CDEEE7A8F10100037021880905AF
:100AE00001D5452100E06521A0F1010800F8011CB5
:100AF00009980FA9A1EB0807FF1D00B101204119BA
:100B000001EBEA70A1693844081A401EA061207800
:100B1000C00602D42046AFF30080099828B1D4E97A
:100B200001219047206A401C20622078C00622D50F
:100B30002046AFF300801EE0002E04DBB34502DD4B
:100B400001A8805D00E03020D4E901219047206AAF
:100B5000401C2062761CAAF101005FEA000A0AD15B
:100B600000F098F8C0680168405CD4E90121904722
:100B7000206A401C2062281EA5F10105DCDC07E08C
:100B8000D4E9012118F8010B9047206A401C20622B
:100B9000381EA7F10107F3DC2046AFF300800320E5
:100BA00011B041E601694A1C02610878704700B53E
:100BB0008FB0CDE901310021059105497944CDE996
:100BC000031011466846FFF703FC0FB000BD00009C
:100BD000E5FFFFFF0A6802F8010B0A60704710B5D5
:100BE000436913B1AFF3008001E0FFF725FC01205A
:100BF00010BD127800F124010A7000224A7001220F
:100C0000EDE711684FF0FF32E9E70000074B70B5E0
:100C10000D467B44FFF7CBFF0446284600F03AF927
:100C200010B14FF0FF3070BD204670BD7B35000025
:100C300010B5203AC0F00B80B1E81850203AA0E877
:100C40001850B1E81850A0E81850BFF4F5AF5FEAAB
:100C5000027C24BFB1E81850A0E8185044BF18C95E
:100C600018C0BDE810405FEA827C24BF51F8043B05
:100C700040F8043B08BF7047D20728BF31F8023B59
:100C800048BF11F8012B28BF20F8023B48BF00F8ED
:100C9000012B7047004870472C58002000487047CF
:100CA0000C58002030B5B0F10A024FEA900E71F1F5
:100CB00000034EEA817EB0EB0E0061EB91014FEA3A
:100CC000101E4EEA017E10EB0E0041EB11114FEAAF
:100CD000102E4EEA016E10EB0E0041EB11214FEA8F
:100CE000104E4EEA014E10EB0E0041EB1141401840
:100CF00041F100014FEAD00040EA41704FEAD101D2
:100D000010EB80054FEA810444EA907444EB01043F
:100D10006D1944EB0404521BA3414FF0000348BF7C
:100D20000A3200D530BD401C41F1000130BD000049
:100D30002DE9F0411F46044603260168072A01F405
:100D4000006004DB08B116A505E016A503E008B1B4
:100D500015A500E015A521F010002060A069C01EB7
:100D6000A0610FB1401EA0612046AFF300804FB1DB
:100D7000D4E9012138469047206A401C2062C01CFB
:100D8000206206E0206AFAE7D4E9012115F8010B98
:100D90009047761EF8D22046AFF30080BDE8F08180
:100DA0004E414E006E616E00494E4600696E66000F
:100DB0002DE9F047814616468AB0354878440DC87B
:100DC0008DE80D0032487844801C03AC0DC884E8DF
:100DD0000D0041F69B300844372190FBF1F290FB67
:100DE000F1F5A5F1800501FB12041B3C02D564421C
:100DF000012000E00020DFF898A080460027FA4498
:100E0000AAF1BE0A0EE0E0070AD03246684607EBB8
:100E1000470101230AEB810100F043FB8DE8070045
:100E200064107F1C002CEED1194F7F44AE3F19E0B7
:100E3000E80715D007EB04100DF1180A90E80E0032
:100E40008AE80E00C068F04201D198190890324635
:100E5000012306A903A800F024FB03AB83E80700E5
:100E60006D10641C002DE3D14FF00103324669463A
:100E7000B8F1000F03A802D000F0FEFA01E000F084
:100E800010FBC9E90001C9F808200AB0BDE8F087E5
:100E9000D4700000007B00F080007047004870476D
:100EA0000C5800207546FFF7F9FFAE46050069466D
:100EB000534620F00700854618B020B5FFF754FAD6
:100EC000BDE820404FF000064FF000074FF000084B
:100ED0004FF0000B21F00701AC46ACE8C009ACE8CC
:100EE000C009ACE8C009ACE8C0098D46704710B530
:100EF0000446AFF300802046BDE81040FFF7C3B9B9
:100F00004FF0013C50F8042B51F8043B9A4221D198
:100F1000A2EB0C03934313EACC1317D150F8042B24
:100F200051F8043B9A4215D1A2EB0C03934313EA08
:100F3000CC130BD150F8042B51F8043B9A4209D141
:100F4000A2EB0C03934313EACC13DBD04FF0000069
:100F5000704700BFD01A01BAB1FA81F101F018014F
:100F600022FA01F0CB40C1F12001DBB2C0B2C01ABD
:100F70002CFA01F3D11A914311EAC311E6D170475B
:100F80005FEA400C08BF91F0000F4FEA8C234FEA54
:100F9000C12243EA51514FEA1C5018BF00F5F040FE
:100FA0004FEA300018BF41F000415FEA6C5C00F08E
:100FB0002980BCF1FF3F08BF40F080407047130C10
:100FC00006BF12044FF0100C4FF0000C130E04BFBC
:100FD00012020CF1080C130F04BF12010CF1040CE7
:100FE000930F04BF92000CF1020CD30F04BF520008
:100FF0000CF1010C11464FF00002A0F11F00A0EB14
:101000000C00704711F0004F08BF704731F00041ED
:101010003FF4D5AF0B0C06BF09044FF0100C4FF096
:10102000000C0B0E04BF09020CF1080C0B0F04BFDF
:1010300009010CF1040C8B0F04BF89000CF1020CA8
:10104000CB0F04BF49000CF1010CCCF12003A0EB45
:101050000C0022FA03F302FA0CF241EA030100F158
:101060000100704720F07F4C80EA030023F07F47A7
:10107000ACEB070303F57C5300F0004003F1FF03E2
:101080002DE980494FEA154B09B44FEA144325EA8C
:101090000B4E24EA03480FF2042606EB13274908F7
:1010A0003E785FEA320203FB0667C7F5000707FBDD
:1010B00006F64FEA54374FEAD64606F1020607FB1A
:1010C000066CCCF1005C4FEA1C472CEA074C07FB8E
:1010D00006F40CFB06F504EB15464FEA961634BFF2
:1010E00000204FF000404FEAD13706FB07FC4FEAE3
:1010F0001C4C0CFB0BF7D21B03FB0CF761EB07013D
:101100000CFB0EF7B0EB074072EB17420CFB08F735
:1011100034BFA2EB0742B2EB074261EB17414FEA43
:101120000C444FEA910706FB07FC4FEA1C4C0CFBF2
:101130000BF7B0EBC74072EB573203FB0CF734BF31
:10114000A2EBC742B2EBC74261EB57310CFB0EF783
:10115000B0EBC70072EB57720CFB08F734BFA2EB81
:10116000C702B2EBC70261EB5771039F4FEA81617F
:1011700041EA921104EBCC044FEAD1374FEA826284
:1011800006FB07FC42EA90124FEA80604FEA1C4CD3
:101190000CFB0BF7D21B03FB0CF761EB07010CFBFD
:1011A0000EF7B0EB074072EB17420CFB08F734BFA9
:1011B000A2EB0742B2EB074261EB17414FEA8C55B5
:1011C0004FEA910704EB9C2406FB07FC4FEA1C4CFA
:1011D0000CFB0BF7B0EBC74072EB573203FB0CF77D
:1011E00034BFA2EBC742B2EBC74261EB57310CFBF5
:1011F0000EF7B0EBC70072EB57720CFB08F734BF69
:10120000A2EBC702B2EBC70261EB577115EB4C259D
:101210004FEA816141EA92114FEA82624FEAD13787
:1012200042EA901206FB07FC44F100044FEA80609A
:101230004FEA1C4C0CFB0BF7D21B03FB0CF761EBCA
:1012400007010CFB0EF7B0EB074072EB17420CFBEB
:1012500008F734BFA2EB0742B2EB074261EB17413C
:1012600015EB1C154FEA813141EA92414FEA823277
:1012700042EA90424FEA80304FEA0C7644F1000493
:1012800048EA03434EEA0B484FF0000EB2EB080C5D
:1012900071EB030724BF624639464EEB0E0E4FF04A
:1012A000000B0018524149414BEB0B0BB2EB080C01
:1012B00071EB03077BF1000B24BF624639464EEB0E
:1012C0000E0E4FF0000B0018524149414BEB0B0B37
:1012D000B2EB080C71EB03077BF1000B24BF6246F5
:1012E00039464EEB0E0E51EA020718BF46F00106D2
:1012F00016EB0E7655F1000254F1000103D5BDE85E
:101300008901BDE80088BDE88901BDE80048B6193B
:10131000524141EB0101A3F10103704780807F7EC0
:101320007D7C7B7A7978777676757473727171705B
:101330006F6E6E6D6C6C6B6A6A696868676666650D
:101340006464636362616160605F5F5E5E5D5D5C9B
:101350005C5B5B5A5A59595858575756565555550C
:101360005454535352525251515050504F4F4F4E6C
:101370004E4D4D4D4C4C4C4B4B4B4A4A4A494949BA
:1013800048484847474747464646454545444444FC
:10139000444343434342424242414141002B9C4625
:1013A00030D477002BD01CB54FEA370703B44FF089
:1013B00010004FF01001BAF1000F06D0BCF1000F81
:1013C000DCBF40F0080040F008014FF000000FBC07
:1013D000BDE810400BF1010BBBF1010F08BF5FEA44
:1013E000170722BF12F1010211F101014FF0004174
:1013F00043F1000300F0004043EA00007047F9D3D6
:101400005708D0E746EA064613F1400F4FEA164662
:101410001FDD13F1200FDFBF16430A4600212033E2
:101420005B42BED0C3F1200746EA064602FA07F740
:101430004FEA164646EA0706C3F1200722FA03F2EE
:1014400001FA07F721FA03F14FF0000342EA07021D
:10145000A7E746EA020646EA06464FEA164646EA85
:101460000106BCBF46EA0646360C4FF000034FF0BB
:1014700000024FF0000194E72DE9804C9A46934614
:1014800070B491E8380007C831EA400C48BF34EA2C
:10149000430C03D5FFF7E6FDFFF780FFF0BCBDE886
:1014A000008C2DE9804C9A46934670B491E8380040
:1014B00007C810F0804F08BF13F0804F03D100F031
:1014C00005F8FFF76BFFF0BCBDE8008C20F07F470C
:1014D00080EA030023F07F4C07EB0C03A3F57C5359
:1014E00000F00040A3F1FE0392F0000F00F0B38083
:1014F00095F0000F00F077802DE901494FEA114087
:101500004FEA144621EA004800FB06FC24EA06479D
:1015100008FB06F607FB08F800FB07F718EB064880
:101520004CEB164C4FEA124B18EB07484FEA1546A6
:101530004CEB174022EA0B4E0BFB06FC25EA064754
:101540000EFB06F607FB0EFE0BFB07F71EEB064E27
:101550004CEB164C4FF000061EEB074E4CEB174BB6
:1015600018EB0B0840F1000018EB0E0B58EB0008CD
:1015700040F100008F1A4FF000013CBFC943661BC9
:1015800014BFB5EB040C00213CBFC943F61B4FEA66
:1015900017444EEA8E0E27EA04454FEA1C4704FB27
:1015A00007622CEA074C05FB07F70CFB05F604FB6A
:1015B0000CFC16EB074642EB174216EB0C4642EBCF
:1015C0001C421BEB060658EB0202414146EA9E060E
:1015D00001D5BDE80189B619524141EB0101A3F1E2
:1015E0000103BDE801894FEA14454FEA114724EA97
:1015F000054621EA074C05FB07F406FB07F70CFB41
:1016000006F105FB0CFC11EB074144EB17444FEAD4
:10161000124711EB0C4144EB1C4422EA074C05FB3A
:1016200007F206FB07F70CFB06F605FB0CFC16EBB6
:10163000074642EB174216EB0C4642EB1C456A1874
:1016400054F1000148BF7047B619524141EB010106
:10165000A3F10103704795F0000F37D04FEA114214
:101660004FEA144721EA024624EA074C02FB07F13D
:1016700006FB07F70CFB06F402FB0CFC14EB07441B
:1016800041EB17414FEA154714EB0C4441EB1C4169
:1016900025EA074C02FB07F506FB07F70CFB06F6ED
:1016A00002FB0CFC16EB074645EB174516EB0C4608
:1016B00045EB1C42121951F1000148BF7047B619A1
:1016C000524141EB0101A3F1010370474FEA144578
:1016D0004FEA114724EA054621EA074C05FB07F1CA
:1016E00006FB07F70CFB06F24FF0000605FB0CFCAF
:1016F00012EB074241EB174112EB0C4251EB1C413C
:1017000048BF7047921841EB0101A3F101037047F4
:1017100070B5F92000F011F80446F82000F00DF83B
:101720000546F72000F009F8000340EA051040EAFA
:101730001410BDE8704002F0F9BA10B5044600F08C
:101740005BFCEC2000F028FC00F098FC204600F048
:1017500023FC00F093FC00F04FFCED2000F01CFC9B
:1017600000F08CFC002000F0E3FB044600F064FC79
:10177000204610BD017842784901807841EA820113
:101780000143C9B2F52000F00BB841780278490155
:10179000807841EA82010143C9B2F420AFF30080AE
:1017A00070B50D46044600F027FCEC2000F0F4FB79
:1017B00000F064FC204600F0EFFB00F05FFC2846E0
:1017C00000F0EAFB00F05AFCBDE8704000F034BCC9
:1017D0007CB58820FFF7B1FF04468920FFF7ADFFF5
:1017E00004EB00204B4C216808808A20FFF7A5FFFE
:1017F00005468B20FFF7A1FF216805EB00204880FC
:101800008C20FFF79AFF05468D20FFF796FF216891
:1018100005EB002088808E20FFF78FFF05468F2084
:10182000FFF78BFF216805EB0020C8809020FFF7B1
:1018300084FF05469120FFF780FF216805EB00201B
:1018400008819220FFF779FF05469320FFF775FF87
:10185000216805EB002048819420FFF76EFF0546C4
:101860009520FFF76AFF216805EB0020888196200C
:10187000FFF763FF05469720FFF75FFF216805EB41
:101880000020C8819820FFF758FF05469920FFF7F0
:1018900054FF216805EB002008829A20FFF74DFFD6
:1018A00005469B20FFF749FF216805EB0020488291
:1018B0009C20FFF742FF05469D20FFF73EFF216871
:1018C00005EB002088829E20FFF737FF05469F200A
:1018D000FFF733FF216805EB0020C882B621E02026
:1018E000FFF75EFF03208DF8000001218DF8011045
:1018F0008DF802006846FFF748FF00208DF80400CD
:1019000004218DF805108DF8060001A8FFF732FFBD
:101910007CBD000030000020FEE700B50246B0EEBE
:10192000402A084602F006FDD1ED0A0AB0EE420A4E
:10193000C2ED000A10465DF804EB02F0FBBC0000AB
:1019400003480022026042605321312001F06CB94B
:10195000A00000207047F0B5002201274FF0030CD3
:101960000B6807FA02F52B40AB422CD106685300F6
:101970000CFA03F4A64306600E79D0F800E09E400E
:1019800046EA0E0606600E79012E01D0022E12D113
:101990008668A64386604E79D0F808E09E4046EA05
:1019A0000E0686604668AE43466045688E7996406E
:1019B000B6B235434560C568A543C560CC799C4047
:1019C000C3681C43C460521C102AC9D3F0BD4B0726
:1019D000DB0E9A40C90810B500EB8100016A0F24A4
:1019E0009C40A1430162016A1143016210BD418321
:1019F00070470183704742694A4042617047000066
:101A000070B50E462DED068BF0EE408AB6EE000A5C
:101A10008EB028EE808A0546FE4CB0EE00AAF7EEA6
:101A200000AA94ED010AD4ED030A94ED021AFA49D2
:101A300020EE200AD4ED000A00EEC10A20EE0A0AC8
:101A40008DED0B0A94ED000AD4ED010A94ED031A12
:101A500020EE200AD4ED020A00EE810A20EE0A0AE6
:101A60008DED0C0A94ED010AD4ED010A94ED021AF1
:101A700020EE200AD4ED020A00EE810AF0EE6A0A96
:101A800040EE4A0ACDED0D0AB1F9000000EE100A51
:101A9000B1F9020000EE900AB8EEC00AB8EEE01A02
:101AA00000EE900A20EE000AB1F90400F8EEE00A18
:101AB00001EE200A00EE900AB8EEE01A00EE900A5D
:101AC000F8EEE00A01EE200A00F050FDA4F1580102
:101AD00081ED030AB5F9000000EE900AF8EEE00A85
:101AE00060EE800ACDED040AB5F9020000EE900A1E
:101AF000F8EEE00A60EE800ACDED050AB5F90400C3
:101B000000EE900AC448F8EEE00A0C3820EE800A95
:101B10008DED060A9DED050ADDED0D0A9DED0C1A11
:101B200020EE200ADDED060A00EEC10A8DED000A66
:101B30009DED060ADDED0B0A9DED0D1A20EE200A43
:101B4000DDED040A00EEC10A8DED010A9DED040AE7
:101B5000DDED0C0A9DED0B1A20EE200ADDED050AE5
:101B600000EEC10A8DED020AD0ED000A9DED001ACB
:101B700091ED020A41EE000AC0ED000A90ED011A53
:101B8000DDED011A01EE801A80ED011AD0ED021A86
:101B90009DED022A42EE001AC0ED021AB5F90600C8
:101BA000DDED002A00EE100A9C48B8EEC00A90ED68
:101BB000002A20EE022A91ED010A00EE222A72EE9E
:101BC000200ACDED000AB5F9081090ED002A00EECC
:101BD000901AF8EEE00A60EE820A9DED012A40EECE
:101BE000020A70EE810ACDED010AB5F90A1000EE85
:101BF000901A90ED001AF8EEE00A60EE810A9DED71
:101C0000021A40EE010A30EEA10A8DED020A94EDAF
:101C1000010ADDED000A9DED011ADDED011A20EE4D
:101C2000C00AD4ED020A9DED012ADDED002A00EE86
:101C3000C10AD4ED030A9DED021A00EEC10ADDEDE2
:101C4000000A20EE081A94ED000A20EE200AD4EDD6
:101C5000030A00EEE10AD4ED020ADDED021A00EEFD
:101C6000A10ADDED001A60EE080A94ED030A20EEE9
:101C7000210AD4ED001A01EE820AD4ED011A9DED7D
:101C8000022A01EEC20AD4ED011A9DED012A61EE8D
:101C9000821A94ED022A20EE080A42EE621A94EDAE
:101CA000002ADDED022A42EE221A94ED002A32EEDD
:101CB000011A61EE881A84ED001A94ED011A71EE92
:101CC000200AC4ED010AD4ED020A30EE800A84ED48
:101CD000020A94ED030A30EE210A84ED030A94ED22
:101CE000000AD4ED000A94ED011A20EE200AD4ED8A
:101CF000010A00EE810AD4ED020A94ED021A00EE08
:101D0000810AD4ED030A94ED031A00EE810A00F073
:101D10002DFCD4ED000A434960EE800AC4ED000AB0
:101D2000D4ED010A60EE800AC4ED010AD4ED020A86
:101D300060EE800AC4ED020AD4ED030A20EE800AA8
:101D400084ED030AB5F90A0000EE100A3448B8EE33
:101D5000C00AD0ED000A20EE200A10EE100A8842D8
:101D600004DC10EE100A3049884205D9D6ED020A8B
:101D700040EE280AC6ED020A2C4D286805F050FFF7
:101D800094ED000AD4ED020A94ED031A20EE0A0A3B
:101D900041EC180B20EE200AD4ED010A60EE8A0A0D
:101DA00000EEC10A10EE100A05F03AFF41EC100BEC
:101DB00001F0E6FA53EC182B51EC100B05F070FC17
:101DC00005F0CAF97060286805F02AFF94ED010A51
:101DD000D4ED010A41EC190B20EE0A0A40EE60AA8C
:101DE00094ED020AD4ED020A20EE0A0A40EE60AA3F
:101DF0001AEE900A05F014FF94ED020AD4ED030ADE
:101E000041EC180B20EE0A0A20EE200AD4ED000A5D
:101E10000EE000009000002030030020247D000828
:101E2000207D00089A99993F9A9999BF1C7D0008D6
:101E300060EE8A0A94ED011A00EE810A10EE100A93
:101E400005F0EEFE41EC100BB0EE481AF0EE681A09
:101E500001F0B2FD53EC192B51EC100B05F020FCF6
:101E600005F07AF930600EB0BDEC068B70BDFEE770
:101E700070B50D4C0025C4F898520C48016821F447
:101E800040410160016841F480410160C4F89C5206
:101E9000022004F5267402F0C7F801202060022019
:101EA00002F0C2F8256070BD00804042000402408C
:101EB0001CB50121022000F06FFBC020012400901E
:101EC0008DF8044000208DF8060003208DF80500F1
:101ED0008DF8074069460448FFF73DFD0348C0F808
:101EE0009842C0F89C421CBD000402400080404261
:101EF00070B50D4C0026C4F898620C48016821F4B6
:101F000040410160016841F4804101600125C4F84D
:101F10009C52022004F5267402F086F82560022007
:101F200002F082F8266070BD00804042000402404A
:101F30002DE9F047814616480024016821F440410C
:101F4000016001680160134E254627464FF00108E5
:101F5000C6F89872022002F067F8C6F89882600608
:101F6000040ED6F81C0208B1641CE4B2012002F091
:101F70005BF86D1CEDB2082DEAD3B9F1000F04D067
:101F8000FFF776FF2046BDE8F087FFF7B1FFF9E7DE
:101F900000040240008040422DE9F041054614480B
:101FA000016821F440410160016841F48041016011
:101FB000104E0027C6F898723C464FF00108E80919
:101FC000C6F89C026806050E022002F02DF8C6F83D
:101FD0009882022002F028F8C6F89872022002F0D7
:101FE00023F8641CE4B2082CE9D3BDE8F0810000BA
:101FF000000402400080404270B50D48016821F4A1
:1020000040410160016841F480410160094C0120B8
:10201000C4F89C02C4F89802042004F5267402F067
:1020200003F800256560042001F0FEFF256070BD07
:1020300000040240008040420E4810B5016821F4BF
:1020400040410160016841F4804101600A4C002078
:10205000C4F89802C4F89C02042004F5267401F028
:10206000E3FF012020606060BDE81040042001F023
:10207000DBBF0000000402400080404270B51248FF
:102080000024016821F440410160016801600F4DA6
:102090000126C5F89C62304601F0C6FFC5F898627B
:1020A000012001F0C1FF07E0641CE4B2FA2C03D95F
:1020B000FFF7C2FF012070BDD5F81C020028F3D144
:1020C000C5F8980270BD0000000402400080404244
:1020D0007CB514460D4606466B4606223B21682019
:1020E00000F080F800280BD1BDF8001049BA31800B
:1020F000BDF8021049BA2980BDF8041049BA218000
:102100007CBD7CB514460D4606466B46062243212F
:10211000682000F067F800280BD1BDF8001049BA1C
:102120003180BDF8021049BA2980BDF8041049BABF
:1021300021807CBD10B580216B2000F0C1F86420A7
:1021400001F056FF00216B2000F0BAF8032000F0E8
:1021500083F8012000F07BF84FF4FA74204600F079
:1021600098F80021382000F0ABF800216A2000F038
:10217000A7F80021232000F0A3F88021372000F0E9
:102180009FF8752000F011F8682801D0012010BDDB
:1021900001216B2000F094F800216C2000F090F8F1
:1021A000204600F076F8002010BD10B50446FFF779
:1021B00023FFD020FFF7F0FEFFF760FF2046FFF778
:1021C000EBFEFFF75BFFFFF717FFD120FFF7E4FE01
:1021D000FFF754FF0020FFF7ABFE0446FFF72CFF8C
:1021E000204610BD2DE9F0411C4615460F46064617
:1021F000FFF702FF7006000EFFF7CEFEFFF73EFF6F
:1022000020B1FFF719FF0120BDE8F0813846FFF744
:10221000C3FEFFF733FFFFF7EFFE012000EB4600A0
:10222000C0B2FFF7B9FEFFF729FF08E0012D0CD07F
:102230000120FFF77DFE6D1E04F8010BEDB2002DAD
:10224000F4D1FFF7F9FE0020DEE70020F1E7C00639
:10225000010E1C2000F034B8C006010E1B2000F057
:102260002FB8BC2801D3012110E0622801D302213C
:102270000CE02A2801D3032108E0142801D304210B
:1022800004E00A2801D3052100E006211A2000F00D
:1022900017B810B504464FF47A70844201D9044649
:1022A00002E0042C00D20424B0FBF4F0401EC1B2C2
:1022B000192000F005F86008BDE81040FFF7D1BF15
:1022C00070B50C460546FFF797FED020FFF764FE79
:1022D000FFF7D4FE50B92846FFF75EFEFFF7CEFEAB
:1022E0002046FFF759FEFFF7C9FE18B1FFF7A4FE1D
:1022F000012070BDFFF7A0FE002070BDFEE70000CA
:102300002DE9FE436F463846B91C01AAFFF7E0FEEF
:1023100002A9B81D8A1CFFF7F4FEDFF89880264D4D
:10232000002437F8141038F81400091A286820F827
:102330001410032C17D230F9140004EB440100EE02
:10234000100A1D48103000EBC106B8EEC00A304636
:1023500001F038FF96ED020A2968BDEEC00A10EEC2
:10236000100A21F81400022C1ED9E01E1149C0B237
:102370000C3101EB80009FED121A90ED000A2968E4
:10238000DFED0E0A20EE010A31F9142001EE102AC9
:10239000B8EEC11A01EE200A80ED000ABDEEC00AB7
:1023A00010EE100A21F81400641CE4B2062CB8D315
:1023B000BDE8FE830C030020380000209A99193EE6
:1023C0009A99593F2DE9F0478AB018216846FEF7DF
:1023D0004BF91E240021DFF8D8A008910991CAF812
:1023E0000010CAF80410CAF808104FF400516FF03A
:1023F0000409AAF80410DFF8BC8008AD06AE27E097
:102400000A2001F0F5FDFFF77BFFD8F800700020EF
:1024100007EB4001CA8835F81030D21A26F8102090
:10242000C98825F81010401C00B20328F0DBBDF964
:102430001800401D0B28E3D2BDF91A000528DFDC87
:102440004845DDDBBDF91C000528D9DC4845D7DB54
:10245000641EE4B2D4D2002446464FF4B2776D46EF
:10246000FFF74EFF642C0CDB3168002055F820206C
:1024700031F910301A4445F82020401CC0B206281B
:10248000F4D3641C24B2BC42EADB0024564655F85F
:102490002400214640F30F2226F8142006A0FDF761
:1024A00077FF641C24B2062CF1DB0AB0BDE8F0878C
:1024B0000C030020380000206F66667365745B258E
:1024C000645D3A25640A00007047000030B50F23B0
:1024D000C27801780125FAB1144A126801F1E021AD
:1024E00002F4E062C2F5E062C2F30722C2F1040422
:1024F000D3404278A24084781C401443220181F8E2
:102500000024007800F01F018D404009800000F198
:10251000E020C0F8005130BD01F01F00854048099F
:10252000800000F1E020C0F8805130BD0CED00E0EB
:102530000249084302490860704700000000FA059C
:102540000CED00E008484FF4E07101806FF03F01AE
:1025500041804FF4BC7181800221C1806FF0120173
:1025600001810121418170470C03002010EE100A07
:10257000F6EE000A074960EE200AA1EB600000EECB
:10258000100AB7EE081A60EE800A00EEC01A21EEBB
:10259000000A7047DF59375F044A0029116801D0EB
:1025A000014300E081431160704700003038024071
:1025B000044A0029116801D0014300E08143116001
:1025C0007047000040380240044A0029116801D0D9
:1025D000014300E081431160704700002038024051
:1025E000044A0029116801D0014300E081431160D1
:1025F000704700002438024070B5204B1968204C09
:1026000011F00C0104D06610042903D0082903D06E
:1026100004601BE0066019E0184A121F1168C1F33C
:102620008055116801F03F0115B1B6FBF1F101E0F1
:10263000B4FBF1F114681268C4F388146143C2F367
:102640000142521C5200B1FBF2F1016019680F22E5
:1026500002EA11110B4A545C0168E14041601C68B8
:10266000072505EA9424145D21FA04F484601B68AC
:1026700005EA5333D25CD140C16070BD08380240D6
:102680000024F400D80000201CB54FF0000B5F467A
:102690005E465D4601F088FDDFF868914FF4167ADA
:1026A0000190DFF864814FF0FF3001230090002299
:1026B0001946D8F8040003F059FE052101A803F0DB
:1026C00013FA524800F074F944462078C0073BD012
:1026D000B9F80410B1F59F7F2CD2B9F80600DD28B7
:1026E00028D8761CB6B2564525D30221D8F8040066
:1026F00003F0A4FD2078DFF8188120F0010020709D
:1027000040F2F3163146404600F00AFD314640469D
:1027100000F008FD3146404600F006FD31464046D7
:1027200000F004FD4FF400713A48FFF762F93AA057
:10273000FDF72EFE0026B9F80400C8462D2843D820
:10274000207820F0020045E0B9F804004946B0F5D1
:102750009F7F16D2CA8840F20F739A4211D37F1C12
:10276000BFB25745E7D30221D8F8040003F0A6FD15
:10277000207840F0010020702CA0FDF709FE002712
:10278000D9E7002740F2737290421BD3B9F80600D4
:10279000DD2817D86D1CADB25545CCD3D8F8100044
:1027A00003F08EFCFFF70EFE00254FF40071194870
:1027B000FFF71DF922A0FDF7EBFDD8F8100003F09C
:1027C000BFFBB8E70025B6E7B0F5997F04D92078BC
:1027D00040F00200207002E01CA0FDF7D9FDBBF123
:1027E000000F3FF45EAF0024214638F814201CA0EF
:1027F000FDF7CEFD641CE4B2122CF5D317A0FDF753
:10280000C7FD4EE7620300200000002048030020BF
:102810000004004000040240466C69676874206C44
:102820006F636B656421210A00000000466C6967D4
:10283000687420756E6C6F636B656421210A0000FB
:102840006F66667365746564210A0000756E6B6E51
:102850006F77696E67207374617465210A000000E8
:1028600025642D2D2564200008B5184C0025DFF8BF
:1028700060B06F1E4FF4FA764FF4C879A0464FF45B
:10288000007A0123009700221946606803F06EFD6C
:10289000304603F0F3F885B1304603F0EFF84946CF
:1028A0000C48FDF7BFFE0B4803F01AFA0AA0FDF72B
:1028B0006FFD084911A0FDF76BFD98F80000C007F7
:1028C000DFD051465846FFF796F8DAE700000020BF
:1028D0000004024064010020C8CECEF1C3FB090908
:1028E00009D4CBD0D0CAB1BCE409D4CBD0D0CBF979
:1028F000D5BCB0D9B7D6B1C80D0A000025730D0AF2
:1029000000000000AFF3008030B5012187B0084619
:10291000FFF742FE01214804FFF74AFE0820059018
:102920000220204C8DF8180005A92046FFF713F867
:10293000072203212046FFF74AF81B480090A01405
:10294000ADF804008010ADF8080000240420174DF5
:10295000ADF80A00ADF80640ADF80C4069462846CF
:1029600000F098FC26218DF8101003208DF811003E
:102970008DF8124001208DF8130004A8FFF7A6FD82
:10298000012240F22551284600F06CFC012240F261
:102990002441284600F066FC0121284600F032FC64
:1029A00007B030BD00000240A08601000044004096
:1029B0004188C1F30A0240490A80C2780379D208EB
:1029C00042EA4312C2F30A024A8002794379920929
:1029D00042EA8302837942EA8322C2F30A028A80AE
:1029E0008279C379520842EAC312C2F30A02CA804A
:1029F000C279037A120942EA0312C2F30A020A8177
:102A0000027A437AD20942EA4302837A42EA4322B3
:102A1000C2F30A024A81827AC37A920842EA831296
:102A2000C2F30A028A81C27A037B520942EAC302D4
:102A3000CA81B0F80D20C2F30A020A82827BC37BEE
:102A4000D20842EA4312C2F30A024A82C27B037CE2
:102A5000920942EA8302437C42EA8322C2F30A02D9
:102A60008A82427C837C520842EAC312C2F30A0281
:102A7000CA82827CC37C120942EA0312C2F30A02B0
:102A80000A83C27C037DD20942EA4302437D42EAC3
:102A90004322C2F30A024A83427D837D920842EABE
:102AA0008312C2F30A028A83827DC07D520942EA00
:102AB000C000C88370470000620300200CB50022EC
:102AC000274900920192086840F4803008604FF472
:102AD000A043086800F4003001900098401C00906A
:102AE000019810B900989842F3D10868800334D552
:102AF000012001901A484030026842F08052026082
:102B00001848026842F440420260154808300268E2
:102B10000260026842F400420260026842F4A0527D
:102B20000260031F104A1A600A6842F080720A604D
:102B30000A689201FCD50D4940F205720A600168ED
:102B400021F003010160016841F0020101600168A8
:102B5000C1F381010229FAD10CBD01920CBD000024
:102B6000003802400070004008544007003C02401A
:102B70004FF0E0210428086903D020F00400086128
:102B8000704740F00400FAE710B504F01BF8012884
:102B900003D0BDE8104003F009BD10BD124810B5C8
:102BA000016841F4700101601048016841F00101C1
:102BB00001600E4A00210832116002680C4B1A4075
:102BC0000260031D0B4A1A60026822F48022026030
:102BD00006480C300160FFF771FF03494FF00060B9
:102BE0008039086010BD000088ED00E00038024028
:102BF000FFFFF6FE1030002410B501218C0720469F
:102C000000F07CF9012807D106490A684868521C7F
:102C100040F100000A6048602046BDE810400121F4
:102C200000F0B6B8A00000207FB50D460446012193
:102C30000846FFF7BDFC0194ADF8005000244FF0AA
:102C40008045ADF80240ADF808406946284600F0DE
:102C50006FFA01221146284600F05CF9012128464E
:102C600000F099F81C208DF80C0001208DF80D0063
:102C70008DF80E408DF80F0003A8FFF727FC7FBDED
:102C8000F0B58BB001210420FFF786FC0121022062
:102C9000FFF78EFC374E304600F088F8364F0222A0
:102CA00006213846FEF793FE022207213846FEF73A
:102CB0008EFE022208213846FEF789FE02220921F3
:102CC0003846FEF784FE4FF47070089002208DF8AD
:102CD00024008DF8250000248DF8264001258DF86C
:102CE000275008A93846FEF736FE42F20F700690CC
:102CF000A720ADF81400ADF81C40ADF816408DF8D3
:102D00001E4005A9304600F013FA6020ADF800001F
:102D10002802ADF81000ADF802500294ADF80C4056
:102D20006946304600F0FEF86946304600F030F95A
:102D30006946304600F076F96946304600F0B6F94B
:102D40000821304600F01EF90821304600F060F9F5
:102D50000821304600F0A4F90821304600F0D6F9E9
:102D60000121304600F00AF80121304600F013F846
:102D70000BB0F0BD000400400008024000290188AB
:102D800002D041F0800101E021F080010180704714
:102D9000C943018270470029018802D041F0010136
:102DA00001E021F00101018070470000464910B5A3
:102DB000884206D101210846FFF712FC00210120BC
:102DC0005BE0B0F1804F09D0404988420DD101212C
:102DD0000220FFF7F9FB0021022070E001210846E4
:102DE000FFF7F2FB0021012069E03949884206D152
:102DF00001210420FFF7E8FB002104205FE03549B2
:102E0000884206D101210820FFF7DEFB00210820BF
:102E100055E03149884206D101211020FFF7D4FB4B
:102E2000002110204BE02D49884206D101212020AD
:102E3000FFF7CAFB0021202041E02949884206D142
:102E400001210220FFF7CCFB0021022015E02549DB
:102E5000884202D101210C040AE02349884202D1B0
:102E600001214C0404E0214988420AD101218C044B
:102E70002046FFF7B5FB00212046BDE81040FFF7D4
:102E8000AFBB1B49884206D101214020FFF79CFBC4
:102E90000021402013E01749884206D101218020FB
:102EA000FFF792FB0021802009E0134988420AD1F4
:102EB000841501212046FFF787FB00212046BDE84D
:102EC0001040FFF781BB10BD00000140000400402E
:102ED00000080040000C00400010004000140040BA
:102EE000000401400040014000440140004801400E
:102EF00000180040001C0040002000400246002056
:102F0000138A92890B4202EA010202D0002A00D001
:102F100001207047002A828901D00A4300E08A43D9
:102F20008281704730B5028C22F001020284028C4B
:102F30008388048B22F0020224F073050C882C4352
:102F40008D8915434A882A430C4DA84202D00C4D66
:102F5000A8420DD122F00805CA8923F440732A4300
:102F600022F004058A882A430D8A1D434B8A2B438D
:102F70008380048389684163028430BD000001407E
:102F800000040140028B22F008020A4302837047CA
:102F900070B5028C22F010020284028C8388048BAC
:102FA0000D8824F4E6464FF6FF7404EA0525354300
:102FB0008E8922F0200204EA061616434A8804EAA3
:102FC00002123243104EB04202D0104EB04215D120
:102FD00022F08006CA8923F4406304EA02123243D5
:102FE00022F040068A8804EA021232430E8A04EA7A
:102FF00086061E434B8A04EA83033343838005839A
:1030000089688163028470BD0000014000040140B2
:10301000028B4FF6FF7322F4006203EA0121114391
:103020000183704770B5028C22F480720284028C96
:103030008388848B0D8824F0730425438E894FF692
:10304000FF7422F4007204EA062616434A8804EA52
:1030500002223243104EB04202D0104EB04215D17F
:1030600022F40066CA8923F4405304EA0222324360
:1030700022F480668A8804EA022232430E8A04EA35
:1030800006161E434B8A04EA031333438380858369
:103090008968C163028470BD0000014000040140E2
:1030A000828B22F008020A438283704770B5028C3B
:1030B00022F480520284058C8288838B0C8823F44E
:1030C000E6464FF6FF7303EA0424344325F4005622
:1030D0008D8903EA053535434E8803EA06362E43CB
:1030E000084DA84202D0084DA84205D122F48045DF
:1030F0000A8A03EA82122A438280848389680164EF
:10310000068470BD0000014000040140828B4FF630
:10311000FF7322F4006203EA0121114381837047A7
:103120004163704781637047C163704701647047B2
:1031300030B50288164C174DA0420DD0A8420BD0D6
:10314000B0F1804F08D0144B984205D0134B9842F1
:1031500002D0134B984203D122F070034A881A43DD
:10316000104B984206D0104B984203D022F4407383
:103170000A891A4302804A68C2620A880285A0420C
:1031800001D0A84201D1897A01860121818230BD16
:10319000000001400004014000040040000800401D
:1031A000000C00400010004000140040F8B5002062
:1031B0008DF80000104F40F22551384600F033F8EA
:1031C0000E4D0F4C3E1D20B1318820782954401CF3
:1031D00010E040F22441384600F025F800280AD0DB
:1031E00038888DF8000030888DF800002078401E67
:1031F000287001202070F8BD0044004048030020E2
:10320000A80000200029818902D041F4005101E08A
:1032100021F40051818170470246002012880A4241
:1032200000D00120704770B501F01F050126002471
:10323000C1F3421306FA05F2012B0FD0022B0FD077
:10324000838A4FEA11210088134206FA01F600EA48
:10325000060001D000B10124204670BD8389F0E74B
:10326000038AEEE710B5C1F3421301F01F040121F8
:10327000A140012B07D0022B07D01430002A02688E
:1032800005D00A4304E00C30F8E71030F6E78A4333
:10329000026010BD7FB50446008A0D46C98820F43F
:1032A000405001432182A08941F20C618843A988E2
:1032B0002A8911436A8902431143A181A08A20F41B
:1032C0004071A8890843A0826846FFF795F91A481B
:1032D000844202D01948844201D1039800E0029848
:1032E000A189090400EBC00101EB0010296801D598
:1032F000490000E08900B0FBF1F06422B0FBF2F17C
:1033000009010B096FF018056B4300EB8300A389DB
:103310001D044FF0320306D503EBC000B0FBF2F002
:1033200000F0070005E003EB0010B0FBF2F000F046
:103330000F00084320817FBD0010014000140140B0
:10334000C1F3080181807047FEE703B40198410092
:10335000009850EAC12018BF04204A0D18BF40F061
:10336000010040F2FF72B2EB515F08BF40F0020073
:10337000012808BF052002B07047000000000000CF
:1033800070B5C1482DED020B2DED0E8B82B0119D55
:1033900025F000449FEDBEDB9FEDBFEB84423EDB9A
:1033A000A4F140511098A1F17F6108430FD0BC48AF
:1033B000844202DC28D1109830B39DED100B02B08E
:1033C000BDEC0E8B02B0BDE8704000F071BC9DED0D
:1033D000100B53EC1D2B51EC100B04F061F99DED1B
:1033E000100B41EC180B53EC1E2B51EC100B04F09E
:1033F00057F953EC182B03F0E1FE41EC100B02B02F
:10340000BDEC0E8B02B070BD0120FDF75DF902B07E
:10341000BDEC0E8B02B0BDE8704000F05DBCA14871
:103420009FEDA18B844256DA9DED100BB4F1795FCC
:103430000ADA51EC100BFFF788FF042808BF00F0F0
:103440005BFC9DED100BDAE753EC102B51EC100BED
:1034500004F026F941EC190B95480621B0EE490A13
:10346000F0EE690A784400F0A7FB53EC192B51ECFD
:10347000100B04F015F941EC1A0B8E48B0EE490A16
:10348000F0EE690A0421784400F096FB53EC192B06
:1034900051EC100B04F004F953EC182B03F08EFEE2
:1034A00041EC100B51EC1A0B53EC102B03F03AFFCC
:1034B000CDE900019DED000B53EC102B9DED100BA1
:1034C00051EC100B04F0ECF89DED101B53EC112B9C
:1034D00003F074FED2E09DED100B51EC100B00F0E8
:1034E0004BFE53EC182B04F0D9F99FED730BCDE98B
:1034F000000153EC102B9DED000B51EC100B04F070
:10350000CFF841EC190B6E480621B0EE490AF0EEF7
:10351000690A784400F050FB53EC192B51EC100B66
:1035200004F0BEF841EC1B0B6648B0EE490AF0EE21
:10353000690A0421784400F03FFB53EC192B51EC4D
:10354000100B04F0ADF853EC182B03F037FE41ECF0
:103550001C0B51EC190B01F0A9FD41EC180B5A485A
:103560009FED5BABA04222DC53EC1C2B51EC1B0B00
:1035700003F0D8FECDE900019DED000B51EC180BD6
:1035800053EC102B04F08CF853EC182B03F016FEC0
:1035900053EC1A2B04F084F853EC1D2B04F056FA6C
:1035A00053EC1E2B04F07AF941EC100B5FE08DED2B
:1035B000008B002000909DED000B51EC180B53EC9C
:1035C000102B03F0FBFD9DED000B41EC1E0B53ECAB
:1035D000102B51EC100B04F063F853EC192B04F092
:1035E0005DF953EC1E2B03F09DFE41EC190B53ECDF
:1035F0001C2B51EC1B0B03F095FE41EC1B0B53EC09
:103600001A2B51EC190B04F04BF853EC1D2B04F062
:1036100045F941EC190B53EC1A2B51EC180B04F043
:103620003FF853EC1B2B04F03BF853EC192B04F040
:103630000DFA9DED000B41EC180B53EC1A2B51ECDD
:10364000100B04F02DF89FED249B53EC192B04F084
:1036500025F941EC100B51EC180B53EC102B04F036
:10366000F5F953EC192B04F019F941EC100B002D6E
:103670003FF7C5AE51EC100B03F062FD41EC100BAF
:10368000BDE60000000000000000F03F0000000068
:10369000075C143326A6913C182D4454FB21F93FB6
:1036A0000000F07F0000E03F000000000000F03F5D
:1036B000C0480000CE480000000000000000E03FCD
:1036C00012480000204800003333EF3F00000000A4
:1036D0000000000000000040182D4454FB21E93F89
:1036E00070B59B482DED020B2DED068B079D25F047
:1036F0000044A04218DC9748844202DC0AD10698B4
:1037000040B19DED060BBDEC068B02B0BDE87040EC
:1037100000F0CEBA002DCCBF9FED8F0B9FED900B2C
:10372000BDEC068B02B070BD8F48A04215DD8F48FE
:10373000A042D8BF4FF0FF3458DD9DED060B51EC91
:10374000100BFFF702FE042808BF00F0D5FA9DED2C
:10375000060BBDEC068B02B070BD9DED060B51EC67
:10376000100B00F009FDCDE9060181489FED828B29
:10377000A0423CDD8248A0421FDD00249FED82ABC9
:103780009DED060B53EC1A2B51EC100B03F016FDBC
:103790009DED060B41EC190B53EC1A2B51EC100B61
:1037A00003F07EFF53EC182B04F050F953EC192B67
:1037B00003F0B8FDCDE9060149E09DED060B0124BB
:1037C00053EC182B51EC100B03F0F8FC9DED060B9D
:1037D00041EC190B53EC182B51EC100B04F036F99B
:1037E00053EC192B03F09EFDCDE906012FE068484C
:1037F000A0421FDD02249FED689B9DED060B53EC5C
:10380000192B51EC100B03F04BFF53EC182B03F06A
:10381000D5FC9DED060B41EC180B53EC192B51EC2C
:10382000100B04F013F953EC182B03F07BFDCDE9DA
:1038300006010CE09DED060B032453EC102B9FEDCD
:10384000580B51EC100B03F06DFDCDE906019DED19
:10385000060B53EC102B51EC100B03F021FF41EC45
:10386000180B53EC182B03F01BFF41EC190B4E48BF
:103870000621B0EE490AF0EE690A784400F09CF99E
:1038800053EC182B51EC100B03F00AFF41EC180B12
:103890004648B0EE490AF0EE690A0521784400F086
:1038A0008BF953EC192B51EC100B03F0F9FE41ECA2
:1038B000100B51EC180B53EC102B002C0EDA03F00C
:1038C0007DFC9DED061B53EC112B03F0E9FE9DEDF5
:1038D000061B53EC112B03F0E1FF35E003F06EFC07
:1038E0009DED061B53EC112B03F0DAFE41EC100B9F
:1038F0002F48784400EBC40090ED001B51EC100BF6
:1039000053EC112B04F0A2F89DED061B53EC112B88
:1039100004F09CF841EC100B2648784400EBC400FE
:1039200090ED001B51EC100B53EC112B03F0B6FF84
:1039300041EC100B002DA2BFBDEC068B02B070BD98
:1039400051EC100B03F0FCFB41EC100B01E7000005
:10395000000010440000F07F182D4454FB21F93F73
:10396000182D4454FB21F9BF0000DC3F0000203E2D
:103970000000F33F00000000000000000000F03FE6
:103980000000E63F000000000000000000000040D2
:103990000080034000000000000000000000F83F2D
:1039A000000000000000F0BF624500001845000064
:1039B000A24400005A44000070B56F4E2DED040B78
:1039C0002DED048B82B0DDF824C0DDE907235C42D5
:1039D0002CF000411C4341EAD474069D22F00040C3
:1039E000B44205D86C422C4340EAD474B4420BD99B
:1039F0009DED081B9DED060B02B0BDEC048B04B0E1
:103A0000BDE8704000F05EB9ACF14054A4F17F64B1
:103A10001C430BD0022404EAAC7444EAD27405437C
:103A20009FED578B9FED582B07D015E09DED060BB2
:103A300051EC100B00F071F942E0002C11BF012C89
:103A40009DED060B02B0BDEC048B04BF04B070BD4D
:103A5000022C38D0032C3BD00B439FED4D1B9FED28
:103A60004E0B0AD0B14218D1B04209D121F08041A9
:103A700020F08040099107900FE0002A15DA10E04D
:103A8000474B7B44002C08BF93ED000B0DD0012C5D
:103A900010D0022C17D0032C1AD0B0421DD1002A0E
:103AA00003DAB0EE410AF0EE610A02B0BDEC048B1D
:103AB00004B070BD93ED000B51EC100B03F040FB14
:103AC00041EC100BF1E7B0EE480AF0EE680AECE7C3
:103AD000B0EE420AF0EE620AE7E7401A00159FEDE9
:103AE000329B3C28C8BF8DED000B17DCBCF1000FEA
:103AF000BCBF10F13C0F8DED009B0FDB9DED080B63
:103B000053EC102B9DED060B51EC100B03F00AFC4F
:103B100000F032FB00F001F9CDE90001B4B1012C55
:103B200010D0022C9FED220B53EC102B9DED000BBF
:103B300051EC100B19D003F089FF53EC182B03F054
:103B400085FFBDE7019880F0004001909DED000BDE
:103B500053EC192B51EC100B03F03CFD04BF022079
:103B6000FCF7B2FD9DED000B9FE703F06FFF53ECF8
:103B7000182B03F093FEA3E70000F07F0000000085
:103B8000182D4454FB210940182D4454FB2109C031
:103B9000182D4454FB21F9BF182D4454FB21F93F43
:103BA0008A43000000000000000000000000000048
:103BB000075C143326A6A13C70B504462DED028B9C
:103BC0004D1E00EBC500B0EE408AF0EE608A90ED2D
:103BD000000B35F0060017D053EC182B51EC100BEE
:103BE00003F05EFD41EC100B6D1E04EBC50090ED83
:103BF000001B51EC100B53EC112B03F0DFFA41ECDE
:103C0000100B35F00600E7D1022D36D0042D1CD064
:103C1000062D1CBFBDEC028B70BD53EC182B51EC74
:103C2000100B03F03DFD94ED0A1B53EC112B03F038
:103C3000C5FA53EC182B03F033FD94ED081B53EC3D
:103C4000112B03F0BBFA41EC100B53EC182B51EC89
:103C5000100B03F025FD94ED061B53EC112B03F024
:103C6000ADFA53EC182B03F01BFD94ED040B53EC51
:103C7000102B03F0A3FA41EC100B53EC182B51EC72
:103C8000100B03F00DFD94ED021B53EC112B03F010
:103C900095FA53EC182B03F003FD94ED001B53EC45
:103CA000112B03F08BFABDEC028B41EC100B70BDB5
:103CB00010B553EC102B51EC100B03F07FFA41ECD4
:103CC000100B10BD10B553EC112B51EC100B03F081
:103CD00075FA41EC100B10BD9FED050B10B553ECC0
:103CE000102B51EC100B03F01DFB41EC100B10BD21
:103CF00000000000000000009FED050B10B553EC24
:103D0000102B51EC100B03F0CBFC41EC100B10BD51
:103D10000000000000000010704710B541EC100BCF
:103D2000FFF7DEFC51EC100B10BD000070B5854DA7
:103D300006462DED0A8B9FED84BB9FED85CB686811
:103D400003F084FC9FED841B53EC112B03F0A8FCC3
:103D50009FED831B53EC112B03F078FE2C6841EC94
:103D6000180BB4F9100003F071FC41EC190B53EC83
:103D7000182B51EC180B03F093FC53EC192B03F0A8
:103D80008FFC53EC1B2B03F08BFC41EC190BB4F9AB
:103D90000E0003F05BFC53EC182B03F081FC9FED4D
:103DA000721B53EC112B03F07BFC53EC192B03F02B
:103DB00005FA41EC1A0BB4F90C0003F047FC9FED37
:103DC0006C1B53EC112B03F06BFC41EC190B9FEDBA
:103DD0006A0B51EC1A0B53EC102B03F061FC53EC03
:103DE000192B03F0EBF941EC190BB4F9080003F0BF
:103DF0002DFC53EC182B03F053FC41EC1A0BB4F9D7
:103E00000A0003F023FC53EC182B03F049FC53EC9D
:103E1000182B03F045FC9FED5A8B53EC182B03F045
:103E20003FFC53EC1A2B03F0C9F953EC182B03F0A9
:103E300037FC41EC1A0BE08803F01FFC41EC180B37
:103E400053EC1B2B51EC1A0B03F02AFC9FED4E1B7D
:103E500053EC112B03F0B2F953EC182B03F020FCB8
:103E600041EC180B53EC1C2B03F0B4FB06D1B0EE65
:103E70004C0AF0EE6C0ABDEC0A8B70BD304603F0C4
:103E8000E5FB9FED431B53EC112B03F007FD41ECC9
:103E90001A0B9FED410B51EC190B53EC102B03F057
:103EA000FFFB53EC1A2B03F0F9FC9FED3D1B53EC89
:103EB000112B03F0F5FB53EC182B03F033FA2C68AD
:103EC00041EC180BB4F9160003F0C0FB53EC182BAF
:103ED00003F0E6FB53EC182B03F0E2FB9FED321BE3
:103EE00053EC112B03F0DCFB41EC190BB4F914007B
:103EF00003F0ACFB53EC182B03F0D2FB53EC1B2B61
:103F000003F0CEFB41EC1B0BB4F9120003F09EFB57
:103F100041EC1A0B53EC1B2B51EC190B03F04EF92F
:103F200053EC1A2B03F04AF99FED211B53EC112B94
:103F300003F0B6FB53EC182B03F040F941EC100BE7
:103F400099E7000030000020000000000000003F62
:103F50000000000000000000000000000000E03F42
:103F6000000000000040EF400000000000000040A2
:103F7000000000000000F040000000000000D03F02
:103F8000000000000000C03E000000000000F03F04
:103F90000000000000003041000000000000303F41
:103FA00000000000006AB840000000000000003E71
:103FB000000000000000B03F10B504460420FEF7EA
:103FC000D7FD0A484FF47A71047014FB01F1012205
:103FD00042804FF0E020026942F00202026141613A
:103FE000016941F00101016110BD0000CC00002019
:103FF00070B5044602F0E6FD01280CD0094D688832
:10400000844203D3B4FBF0F001F038FD6888B4FBC0
:10401000F0F100FB11444FF47A706043BDE870404A
:1040200000F002B8CC00002070B54FF0E025002170
:104030006C69094AAB6912785043AA699A42FCD06C
:1040400002D2A3EB020302E0A4EB020633441944BC
:1040500013468142F1D370BDCC00002070B505003D
:1040600005D140F2FB4214A118A0FCF791F91B4EB8
:104070003068854201D1002070BD01F0B9FB6C6948
:1040800001F0F2FBF06B844202D0306C844201D12B
:10409000022070BD1248844204D1A86A0028F7D1DA
:1040A000032070BD0E481438844202D00CB10120A8
:1040B00070BD042070BD00002E2E5C4672656552F6
:1040C000544F535C7461736B732E63004572726F4F
:1040D000723A25732C25640D0A000000E8000020C8
:1040E000D0070020214D224FDFF888904FF4007454
:1040F00040F2E7384FF47A7B40F2F31A2146284623
:10410000FDF775FC464641463846FFF70FF8314645
:104110003846FFF709F831463846FFF703F83146CD
:104120003846FEF7FDFF584601F0A8FC56465146BA
:104130003846FEF7FBFF31463846FEF7F5FF3146BD
:104140003846FEF7EFFF31463846FEF7E9FF01211A
:104150004E46D9F8040002F0B1F821462846FDF792
:1041600048FCF06801F016FDC8E7000000040240BA
:10417000000400400000002082B0CDE9000121F0E1
:10418000004001909DED000B02B051EC100B704708
:1041900004490A885206FCD5024AC1B2121D118098
:1041A000704700000048004010B502F00BFD0128E8
:1041B00003D0BDE8104002F013BD0148406810BDB7
:1041C000CC000020D0ED000A90ED041A70EE810AB8
:1041D000C0ED010A90ED051A70EE811A80EEA11A69
:1041E00080ED031AD0ED021A30EE610A41EE001A9A
:1041F000B7EE000A30EE410AC0ED021A20EE200AA6
:1042000080ED000A704700001CB501210220FEF776
:10421000C3F94FF40070009001208DF804000020D5
:104220008DF8060002208DF8050069460148FDF76B
:1042300092FB1CBD000402401CB54FF44070FEF719
:1042400077F9A820FFF7B8FEFFF7DEFF114801F06D
:1042500043F9FEF715FDFEF755FBFDF729FEFDF7C7
:1042600069FF0028FBD1FDF7B3FA00F0C1F8FEF7B3
:1042700069F9094900200023087008310220CDE9BE
:1042800000014FF4967205A1074802F06FFC01F09F
:10429000CBFEFEE720A1070000000020535441524E
:1042A000545F5441534B00001D510008FEB5060AEF
:1042B0008DF800608DF80100080A8DF80200100AE0
:1042C0008DF804008DF80520DDE90854180A8DF8F2
:1042D0000600280A8DF808008DF80950200A8DF88C
:1042E0000A008DF803108DF807308DF80B400C2272
:1042F0006946A12001F046F9FEBD000000229FEDB5
:104300000C0A11E050F8223083ED030A50F82230F5
:1043100083ED020A50F8223083ED0A0A50F8223069
:10432000521CD2B283ED010A8A42EBD370470000DF
:1043300000000000D0ED000A90ED091A70EEC10AED
:1043400090ED031A00EE801A80ED031A90ED031A27
:10435000D0ED081AB4EEE11AF1EE10FA02D290EDA7
:10436000081A0DE090ED031AD0ED071AB4EEE11A29
:10437000F1EE10FA02DD90ED071A01E090ED031A5C
:1043800080ED031A90ED021A70EEC11A81EE801AC8
:1043900090ED050AD0ED031A20EE210AD0ED041AA3
:1043A00001EEA00AD0ED061A01EE810A80ED0A0A9C
:1043B00090ED0A0A90ED0C1AB4EEC10AF1EE10FA73
:1043C00002D290ED0C0A0DE090ED0A0A90ED0B1A66
:1043D000B4EEC10AF1EE10FA02DD90ED0B0A01E035
:1043E00090ED0A0A80ED0A0AC0ED020A704700004B
:1043F0003E4830B59FED3C0A00F1340180ED040ADF
:1044000081ED040A9FED3A0A00F16802DFED3A0AF5
:1044100082ED040A9FED370A9FED3A1A80ED050AF6
:1044200081ED050A9FED350AC2ED050A80ED060A09
:1044300081ED060A9FED320A00F1D00382ED060AF3
:1044400000F19C0583ED041A85ED041A00F58274D1
:104450009FED2E1A84ED040A83ED050A85ED050A09
:104460009FED290AC4ED050A80ED070A81ED070AD0
:1044700082ED070A80ED0B1A81ED0B1A82ED0B1A03
:1044800085ED070A83ED070A84ED070A85ED0B1A0F
:1044900083ED0B1A84ED0B1A9FED1D0A9FED1D1A7B
:1044A00080ED080A81ED080A82ED080A80ED0C1AF9
:1044B00081ED0C1A82ED0C1A85ED080A83ED080ACD
:1044C00084ED080A85ED0C1A83ED0C1A84ED0C1AA4
:1044D00006211148FFF712FF1048C4ED090AC4ED88
:1044E000000AC0ED020A30BDCDCCCC3E88030020CE
:1044F0000AD7A33CF4FD543C00000000CDCCCC3DD9
:104500000AD7233C3333333F000048430000C843FD
:10451000000048C30000C8C3B40000203C030020D2
:104520002DE9F041184E0F460446F5683068001D2D
:1045300001F0B4F838B9306890F82C1001208840A8
:10454000316981433161601C07D137B13168BDE801
:10455000F0410E48091D01F03FB930682C44AC42CF
:104560004460316805D2306CBDE8F041091D01F0AE
:104570001BB9F06B091D01F017F9B06A844200D233
:10458000B462BDE8F0810000E8000020D007002000
:104590002DE9F041054601F02BF92D4EB068401C85
:1045A000B06030682B4F10B1706930B32BE03560CC
:1045B000B068012827D1002404EB840007EB8000B9
:1045C00001F0E4F8641C202CF6D3234801F0DEF857
:1045D0002148143001F0DAF81F48283001F0D6F8ED
:1045E0001D483C3001F0D2F81B48503001F0CEF8A5
:1045F0001948F0631430306405E03068E96AC06A35
:10460000884200D83560706A0121401C706268647D
:10461000E86A326981401143316100EB800007EBA9
:104620008000291D01F0D8F801F01EF970690028FA
:104630000CD03068E96AC06A884207D207494FF057
:1046400080500860BFF34F8FBFF36F8FBDE8F081DC
:10465000E8000020000500208007002004ED00E0B5
:1046600010B501F0C5F80E4C2068A0B90D4801F056
:104670008DF80C48143001F089F80A48E0601430D5
:10468000206100221021052001F0A6FF206010B15A
:1046900005A101F0BFF9BDE8104001F0E5B8000048
:1046A0002C010020E4070020546D7251000000002E
:1046B00070B5124E124D1CE001F06AFD306820B159
:1046C000002402F0F9FBA4B901E00124F9E701F0AC
:1046D0008FF8F068C468201D00F0E0FFA868401E55
:1046E000A8606868401E686001F0BEF8204600F0CF
:1046F00052F868680028DFD170BD0000BC070020B8
:10470000E800002030B4026C0B46002A0BD0C168D0
:104710001144C1604468A14201D30168C16030BC4A
:104720001846FBF732BF30BC70472DE9F041856B6E
:10473000174604460026026C82B1C7B1E068FBF759
:1047400024FFE168206C091AE1602268914202D2DC
:104750006168081AE060022F16D017E02068A8B937
:10476000606802F0B7FA0646002060600EE0A068BC
:10477000FBF70BFF216CA0680844A06061688842C9
:1047800004D32068A06001E005B16D1E6D1CA56317
:104790003046BDE8F08110B50446006B01F096F894
:1047A0002046BDE8104001F091B8000010484FF4D9
:1047B000A041420706D0C01D0D4920F00700411A54
:1047C000C1F5A0410B4A00230144C2E900030839A6
:1047D000103A21F0070111604B600B600B1AC0E921
:1047E000001393604FF000405360D06070470000AA
:1047F0000C0800205C010020074E4FF08054074D4C
:10480000FFF756FF30680128FAD92C60BFF34F8FAD
:10481000BFF36F8FF4E700000005002004ED00E017
:104820002DE9F047DDE909840E46174682469100DE
:104830009946089DA522206BFBF7ECFE6FF0030163
:10484000206B01EB8701084420F00707780705D0AB
:1048500040F22B3219A11EA0FBF79AFD002022186E
:10486000315C82F83410315C11B1401C1028F6D351
:10487000002684F84360202D00D31F25E562C4E99B
:104880001356201D00F08DFF04F1180000F089FF81
:104890002461C5F120006462A0616665A66584F8A4
:1048A0005C604A465146384600F072FB2060B8F121
:1048B000000F01D0C8F80040BDE8F0872E2E5C46FE
:1048C00072656552544F535C7461736B732E630051
:1048D0004572726F723A25732C25640D0A00000030
:1048E00030B5114900E011460A688242FBD34B689B
:1048F0005C18844203D14068184448600846436805
:104900001C18944209D1084C103C2468A24209D0DA
:1049100052681A4442600A6812680260814200D0FC
:10492000086030BD0460F9E75C01002070B5002428
:1049300041600B4D0061914206D8D11A82699142C3
:1049400006D2011D286907E09A4203D2994201D399
:10495000012403E0011DE86800F026FF204670BD39
:104960002C01002010B5044600F042FFA06B20B1DE
:10497000002400F079FF204610BD0124F9E72DE95D
:10498000F0478146086892460C460025F8B1486811
:1049900001F1080640684860B04201D140684860B3
:1049A000D0F80C80606842686260B24201D1516800
:1049B0006160606805EBC50109EB8101C76853467A
:1049C0000122384601F04CF96D1C4745EAD12846D2
:1049D000BDE8F0872DE9F34100980F460026846C6E
:1049E0002CB940F6CE1216A11AA0FBF7D1FCA06B91
:1049F000E16B884205D340F6CF1211A115A0FBF759
:104A0000C7FCA06BE16B88420CD294F945503A4642
:104A100069462046FFF789FE0646681C05D06D1CD6
:104A200084F845503046BDE8FC81606A0028F9D022
:104A300004F1240002F0A8F90028F3D00126F1E7E0
:104A40002E2E5C4672656552544F535C71756575C8
:104A5000652E63004572726F723A25732C25640DC2
:104A60000A000000F8B5054614480E46C068C06844
:104A7000C468201D00F012FEE069012817D1A0696A
:104A80002B46411932462046FFF750FF78B10020EF
:104A90000346014600902A46204602F0F3FA30B958
:104AA00007494FF4027201F11800FBF771FC616ACB
:104AB00001B02046BDE8F040084700002C0100206E
:104AC000E86F000870B586B02F4E53E001980028BB
:104AD00006DADDE90301029A90470198002849DBD4
:104AE000039C606910B1201D00F0D8FD05A800F0FE
:104AF000A7F8054601980A283CD2DFE800F0050532
:104B0000053B273805053B270298A1690346014468
:104B10002A462046FFF70AFF00282BD0616A20466C
:104B20008847E069012825D1002000900298A169FA
:104B3000002342181946204602F0A4FAD0B940F2E8
:104B4000213212A117A0FBF723FC13E00298A06109
:104B500028B94FF44E720DA112A0FBF719FCA06901
:104B60002B4641191A462046FFF7E0FE02E0204698
:104B700000F0ACFE00231A4601A9306801F068FD80
:104B80000028A3D106B070BD2C0100202E2E5C465B
:104B900072656552544F535C74696D6572732E6310
:104BA000000000004572726F723A25732C25640D67
:104BB0000A000000F8B50D46064601F0E9FA68461D
:104BC00000F03EF80446009810B102F075F9F8BD07
:104BD0001148ADB101690968D9B10025311B2A46D8
:104BE000006800F029FF02F067F90028EFD10B49B7
:104BF0004FF080500860BFF34F8FBFF36F8FF8BD49
:104C0000A642EBD802F058F921463046FFF72AFFBA
:104C1000F8BD0125E2E700002C01002004ED00E0D2
:104C20000648C16B096829B1C16BC968C968496880
:104C3000816270474FF0FF31FAE70000E800002082
:104C400070B5054601F0CCFF064E0446B0688442BC
:104C500003D200F009F8012000E00020286020467F
:104C6000B46070BD2C010020F8B5184E26E0C06875
:104C7000C4680568201D00F011FD616A2046884760
:104C8000E06901281AD1A0692844A84206D9246104
:104C90006060211DF06800F087FD0FE000200346F2
:104CA000014600902A46204602F0ECF930B9084946
:104CB00040F2923201F11800FBF76AFBF0680168DC
:104CC0000029D4D13169C6E90310F8BD2C010020B8
:104CD000E86F000808484068401C05D040F20F12F9
:104CE00006A111A0FBF754FB502080F31188BFF3FD
:104CF0004F8FBFF36F8FFEE7400100202E2E5C46E2
:104D000072656552544F535C706F727461626C656A
:104D10005C525644535C41524D5F434D34465C7087
:104D20006F72742E630000004572726F723A2573C1
:104D30002C25640D0A00000070B50025040005D183
:104D400040F2816207A10CA0FBF722FB0E496069CB
:104D5000884205D1A06A2839884201D000B90125CE
:104D6000284670BD2E2E5C4672656552544F535CCA
:104D70007461736B732E63004572726F723A2573A0
:104D80002C25640D0A000000D007002003460020F7
:104D900012B1994302D070470B42FCD001207047FA
:104DA000084CE068016839B1002139B10020FFF7F3
:104DB00001FFFFF787FEF4E70121F6E7C06800680E
:104DC000F5E700002C0100202DE9F041044600F039
:104DD0000FFD94F9455004F1240610E0A06C20B1B9
:104DE00000212046FFF7F6FD04E0606A48B1304636
:104DF00001F0CAFF08B100F0CBFF6D1E6DB2002DAF
:104E0000ECDC4FF0FF3684F8456000F02DFD00F03B
:104E1000EFFC94F9445004F1100709E0206948B10F
:104E2000384601F0B1FF08B100F0B2FF6D1E6DB25F
:104E3000002DF3DC84F84460BDE8F04100F014BDBF
:104E400010B50446FBF75EFB2046FBF77FFB2021F5
:104E500001E02154401C0F28FBD3002121542044A1
:104E600010BD00002DE9F0410546002601F090F943
:104E7000324F386808B9FFF799FCF86805424FD1FE
:104E8000002D4DD0083568070BD005F00700C0F1A4
:104E900008000544680704D0BF2229A132A0FBF70F
:104EA00077FA002D3CD07868854239D823491031F3
:104EB0000846046801E0214604466068A84202D220
:104EC00020680028F7D13868B846844228D00E6898
:104ED0002068086060680836401B10280ED96719E2
:104EE000780704D0EC2216A11FA0FBF751FA6068E6
:104EF000401B786038466560FFF7F2FC6168D8F8BF
:104F000004004246401AC8F80400D8F80830984215
:104F100000D29060D8F80C0001430020C4E90001E1
:104F200001F0CAFF700705D04FF4967204A10EA0DD
:104F3000FBF72EFA3046BDE8F08100004C0100205E
:104F40002E2E5C4672656552544F535C706F7274BE
:104F500061626C655C4D656D4D616E675C68656135
:104F6000705F342E630000004572726F723A2573D1
:104F70002C25640D0A0000000449086818B108686F
:104F8000026D521C0265086870470000E8000020AE
:104F900010B5031F4FF080741C601B1F21F001012E
:104FA0001960191F044B0B6014390A60091F6FF058
:104FB000020244380A6010BDD54C00082DED028B6A
:104FC00086B00025FFF7F0F8324E9FED338A334C60
:104FD0000590052105A800F087FDFCF799FBFDF77A
:104FE0008FF9B0EE480A2E492C48FCF709FD3078BD
:104FF000C00708D02B488088B0F59A7F03D3B0EE65
:10500000480A00F003F9002DE3D0B4F90A10B4F90E
:105010000800CDE90001B4F90630B4F90420B4F970
:105020000210B4F90000FFF741F91D48F2EE040A3E
:10503000B4F90A3090ED020A20EE200AD0ED010A00
:10504000BDEEC00A10EE101A9FED170A09B260EE0D
:10505000800AFDEEE00A10EE902AD0ED000A0193DE
:1050600012B220EE800A0491BDEEC00A10EE100AC2
:1050700000B2CDE90202B4F908000090B4F906309C
:10508000B4F90420B4F90210B4F9000000F0AAFA4F
:105090009FE70000000000200AD7A33B3003002058
:1050A0003C030020620300200000C84200B52DED43
:1050B000048B83B041EC190B02F0FCFB41EC180BA4
:1050C00018EE100A18EE901A8DED008B002818BF0C
:1050D0000120084320F00040C0F17F6000F1E04073
:1050E000C00F14D019EE101A19EE900A8DED009B26
:1050F000002918BF0121084320F00040C0F17F6063
:1051000000F1E040C00F04BF0120FBF7DDFA51ECD5
:10511000180B03B0BDEC048B00BD00007CB500F0A3
:1051200067FB01F0BDF81F4C002304F10C01606027
:105130000620CDE900014FF480721BA11E4801F04A
:1051400015FD04F110010520CDE900014FF40075B3
:1051500000232A4619A11D4801F008FD04F1180199
:105160000320CDE9000100232A4619A11D4801F0C2
:10517000FDFC04F114010420CDE9000100232A46BE
:1051800019A11B4801F0F2FC01F080F9014619A0B9
:10519000FBF7FEF8A06800F0FDFCBDE87C4000F0E5
:1051A00063BB000000000020657363696E69745F73
:1051B0007461736B00000000E540000873656E7356
:1051C0006F72735F7461736B00000000BD4F000865
:1051D00052756E54696D6553746174735F74617355
:1051E0006B0000006928000852435F7461736B0014
:1051F000892600084672656520686561703A202539
:10520000642062797465730A000000002DE9FF5F75
:10521000A24A4FF4FA71B0EE402A908840F2F31B94
:10522000A0F59C7048434FF4C86190FBF1F000F288
:10523000F31080B2B0F5F97F01D8584604E0B0F51C
:10524000487F01D340F21F309549C880888048804C
:105250000880508940F2F461884278D39148934C99
:10526000B0EE420AB0F9061004F1340500EE901ACF
:105270008D4904F1680AF8EEE00A91ED001A60EE3B
:10528000810AC4ED090AB0F9082000EE902A04F161
:105290009C0202F13401F8EEE00A60EE810AC5EDED
:1052A000090AB0F90A0000EE900A8148F8EEE00A17
:1052B00060EE810ACAED090AD0ED010AC2ED090AC1
:1052C000D0ED000AC1ED090AD0ED020A01F1340067
:1052D000C0ED090A3438FFF72DF8D1ED0A0AB0EE17
:1052E000420AC4ED000A2046FFF724F8B0EE420A55
:1052F00004F19C00FFF71EF8D2ED0A0AB0EE420A54
:10530000C5ED000A2846FFF715F8B0EE420A04F58D
:1053100082715046FCF701FB9AED0A0A10EE100A62
:1053200002F07EFC95ED0A0A8046894610EE100ACE
:1053300002F076FC94ED0A0A06460F4610EE100ABB
:1053400002F06EFC41EC100B53EC102B00E064E01B
:105350008DE8C00357A0FBF71BF894ED0A0AD5EDC2
:105360000A0A4F4830EE600ADAED0A0AB0F9001076
:1053700070EE600A00EE101AB8EEC00A30EE800A35
:10538000BDEEC00A10EE101A018094ED0A0AD5EDA8
:105390000A0AB0F90210B1EE400A30EE600ADAED06
:1053A0000A0A70EE200A00EE101AB8EEC00A30EEBB
:1053B000800ABDEEC00A10EE101A418095ED0A0A6F
:1053C000D4ED0A0AB0F9041030EE600ADAED0A0AE8
:1053D00070EE600A00EE101AB8EEC00A30EE800AD5
:1053E000BDEEC00A10EE101A818094ED0A0AD5EDC8
:1053F0000A0AB0F9061030EE200ADAED0A0A70EE59
:10540000200A00EE101AB8EEC00A30EE800ABDEE97
:10541000C00A10EE101AC18004E0214806210830AD
:10542000FEF76CFF1E4E4FF47A754FF4F977B6F91C
:1054300000106C1EB94201DC594602E0A94200DBB3
:105440002146DFF890804046FDF76AFEB6F902106B
:10545000B94201DC594602E0A94200DB2146404640
:10546000FDF760FEB6F90410B94201DC594602E0CE
:10547000A94200DB21464046FDF756FEB6F906106C
:10548000B94201DC594602E0A94200DB214604B0E2
:105490004046BDE8F05FFDF749BE00006203002012
:1054A000AC00002030030020207D0008880300208D
:1054B0003C03002050494458A3BA2566095049448A
:1054C00059A3BA2566095049445AA3BA2566090A60
:1054D0000000000000040040F0B5074687B001213D
:1054E0000220FDF759F801218804FDF761F8234EE9
:1054F00007220A213046FCF76AFA07220B213046C0
:10550000FCF765FA4FF44060049002208DF8140017
:105510008DF8150000248DF8164001258DF81750E0
:1055200004A93046FCF717FAADF808400C20144ED9
:10553000ADF80440ADF80A000097ADF80640ADF8AC
:105540000C4069463046FDF7A5FE01213046FDF7C7
:1055500059FE012240F225513046FDF783FE2720F7
:105560008DF818000F208DF819008DF81A408DF86D
:105570001B5006A8FCF7AAFF07B0F0BD00040240CC
:105580000048004070B588B01C2A29D80DEB0203F2
:105590000024DC7088248DF800408DF801006D46F1
:1055A0008DF80220002004E00C5C2E18401CF470E2
:1055B000C0B29042F8D30020D41C05E02E5CD9780C
:1055C000401C3144D970C0B2A042F7D30024161D4C
:1055D00004E0285D00F050F8641CE4B2B442F8D353
:1055E00008B070BD2DE9F04788B010ACDDE913C7F5
:1055F00094E80007002425466E463555641CE4B245
:105600001C2CFAD3040A8DF800408DF80100080A1A
:105610008DF80200100A8DF804008DF80520180A94
:105620008DF806004FEA18208DF808008DF80980E3
:105630004FEA19208DF80A004FEA1A208DF812005F
:105640008DF803104FEA1C208DF814008DF815C05A
:10565000380A8DF816008DF807308DF80B908DF80C
:1056600013A08DF817701C223146AF20FFF78AFF78
:1056700008B0BDE8F087000070B5074C0546402132
:105680002046FDF7C9FD0028F9D029462046BDE88F
:105690007040FDF755BE000000480040D0E90132DF
:1056A00001699A60D0E901235A604A68824201D1B7
:1056B00082684A60002202610868401E08607047E4
:1056C0002DE9F04717460A4606460024202500F03B
:1056D0005FFDDFF89080D8F8080082423CD3DFF805
:1056E00088906D1E05EB850104EBC40009EB810178
:1056F00006EB80000122FFF742F90444002DF0D1AF
:1057000004EBC40006EB800002224546D8F83C10AA
:10571000FFF735F9044404EBC40006EB80000222D5
:10572000296CFFF72CF9044404EBC40006EB80005D
:1057300004220E49FFF723F904440C4904EBC4008A
:1057400006EB800003221431FFF719F904441FB15E
:10575000074801684068396001F0AEFB2046BDE8AB
:10576000F0870000E800002000050020BC070020B2
:10577000A0000020044908680A688069D26A0968A4
:10578000C2F120028A617047E800002000F10801A0
:105790004FF0FF32C0E90112C160016100210160D8
:1057A000704700210161704730B50C68621C02D05F
:1057B00000F1080202E0026904E01A4653681D681D
:1057C000A542FAD953684B6099608A6051600861BC
:1057D0000168491C016030BD42684A6093688B6073
:1057E00093685960916008610168491C01607047C5
:1057F000502080F31188BFF34F8FBFF36F8F09499B
:105800004868401C486001280AD10748006810F029
:10581000FF0F05D040F2B91204A10FA0FAF7B8BDEE
:10582000704700004001002004ED00E02E2E5C4691
:1058300072656552544F535C706F727461626C652F
:105840005C525644535C41524D5F434D34465C704C
:105850006F72742E630000004572726F723A257386
:105860002C25640D0A00000010B5084C606828B9AA
:105870004FF4E07206A111A0FAF78AFD6068401E9D
:10588000606001D180F3118810BD0000400100204C
:105890002E2E5C4672656552544F535C706F727465
:1058A00061626C655C525644535C41524D5F434D9E
:1058B00034465C706F72742E630000004572726F24
:1058C000723A25732C25640D0A00000070B500287B
:1058D0002AD0164DA0F108046068E968084205D195
:1058E0004FF4A07212A11CA0FAF752FD206828B153
:1058F00040F241120EA118A0FAF74AFD6068E9686B
:10590000084211D02268002A0ED18843606000F05E
:105910003FFC60686968084468602046FEF7E0FF65
:10592000BDE8704001F0C8BA70BD00004C01002015
:105930002E2E5C4672656552544F535C706F7274C4
:1059400061626C655C4D656D4D616E675C6865613B
:10595000705F342E630000004572726F723A2573D7
:105960002C25640D0A00000006484FF47A71006887
:10597000B0FBF1F14FF0E020491E416107210161C8
:10598000704700001C00002010B5FAF7DBFC104C3B
:1059900010280CD300F1E02090F8F0032178884221
:1059A00005D24FF440720BA115A0FAF7F1FC18488C
:1059B0000068A16800F4E060884207D9BDE81040A3
:1059C0004FF4447203A10EA0FAF7E2BC10BD000030
:1059D000400100202E2E5C4672656552544F535C88
:1059E000706F727461626C655C525644535C4152D4
:1059F0004D5F434D34465C706F72742E630000003F
:105A00004572726F723A25732C25640D0A000000EE
:105A10000CED00E010B5074B002253F832401CB1EA
:105A2000521C082AF9D310BD43F8321003EBC2010F
:105A3000486010BDC004002070B515460E460446EF
:105A4000FFF7D6FE94F944100020491C01D184F8D8
:105A5000440094F94510491C01D184F84500FFF732
:105A600003FFA06B28B92A46314604F1240000F058
:105A7000BFF92046BDE87040FFF7A6B910B5040095
:105A800012D00E49096B29B140F2CF420CA111A0EE
:105A9000FAF77EFC00F07CFB00212046FEF740FD7B
:105AA00001F00AFA002807D10E494FF08050086033
:105AB000BFF34F8FBFF36F8F10BD0000E8000020D1
:105AC0002E2E5C4672656552544F535C7461736B45
:105AD000732E63004572726F723A25732C25640D24
