:020000040800F2
:10000000785E002035030008E91700088711000812
:1000100015160008DD0A0008892700080000000006
:100020000000000000000000000000007D02000849
:10003000190B000800000000D1020008C51F0008CD
:100040004F0300084F0300084F0300084F03000848
:100050004F0300084F0300084F0300084F03000838
:100060004F0300084F0300084F0300084F03000828
:100070004F0300084F0300084F0300084F03000818
:100080004F0300084F0300084F0300084F03000808
:100090004F0300084F0300084F0300084F030008F8
:1000A0004F0300084F0300084F0300084F030008E8
:1000B000352000084F0300084F0300084F030008D5
:1000C0004F0300084F0300084F0300084F030008C8
:1000D0004F0300084F030008ED2500084F030008F8
:1000E0004F0300084F0300084F0300084F030008A8
:1000F0004F0300084F0300084F0300084F03000898
:100100004F0300084F0300084F0300084F03000887
:100110004F0300084F0300084F0300084F03000877
:100120004F0300084F0300084F0300084F03000867
:100130004F0300084F0300084F0300084F03000857
:100140004F0300084F0300084F0300084F03000847
:100150004F0300084F0300084F0300084F03000837
:100160004F0300084F0300084F0300084F03000827
:100170004F0300084F0300084F0300084F03000817
:100180004F0300084F03000800F002F800F067F882
:100190000AA090E8000C82448344AAF10107DA45E2
:1001A00001D100F05CF8AFF2090EBAE80F0013F0CD
:1001B000010F18BFFB1A43F001031847C470000079
:1001C000E47000000A444FF0000C10F8013B13F0FB
:1001D000070408BF10F8014B1D1108BF10F8015BA0
:1001E000641E05D010F8016B641E01F8016BF9D193
:1001F00013F0080F1EBF10F8014BAD1C0C1B09D1EA
:100200006D1E58BF01F801CBFAD505E014F8016B5B
:1002100001F8016B6D1EF9D59142D6D370470000ED
:100220000023002400250026103A28BF78C1FBD8FF
:10023000520728BF30C148BF0B607047642900F0E7
:100240001981752900F01681732900F0C082002001
:1002500070471FB506F08BFF1FBD10B510BD00F035
:100260000BFB1146FFF7F5FF03F006FA00F029FB40
:1002700003B4FFF7F2FF03BC02F06EFF2A4B1968CC
:100280000868B0E8F04F80F30988BFF36F8F4FF034
:10029000000080F3118870470000000006480068E5
:1002A000006880F3088862B661B6BFF34F8FBFF372
:1002B0006F8F00DF00BF00BF08ED00E0DFF80C002B
:1002C000016841F470010160704700BF88ED00E0F3
:1002D000EFF30980BFF36F8F134B1A681EF0100FF6
:1002E00008BF20ED108A20E9F04F106008B44FF0ED
:1002F000500080F31188BFF34F8FBFF36F8F05F06D
:100300009BF94FF0000080F3118808BC1968086859
:10031000B0E8F04F1EF0100F08BFB0EC108A80F369
:100320000988BFF36F8F7047E8000020EFF3058066
:10033000704700000948804709480047FEE7FEE78C
:10034000FEE7FEE7FEE7FEE7FEE7FEE7FEE7FEE785
:1003500004480549054A064B70470000D91F0008AC
:100360008901000878580020785E0020785A002023
:10037000785A0020704700000FB4044910B503AA52
:10038000029800F029FA10BC5DF814FBCC000020A4
:100390000FB41CB5074B06AA7B446946009005982C
:1003A00000F0EBF90020694600F0FAF91CBC5DF89A
:1003B00014FB0000050400002DE9F0410E46044640
:1003C000002020622046E168884730B3252805D008
:1003D000D4E901219047206A401CF2E7E1682046F9
:1003E00000278847050018D0A5F14100192802D838
:1003F00020354FF400673246294620462760FFF734
:100400001DFF40B1012804D0F61D26F0070608366E
:10041000D8E7361DD6E72846DAE7206ABDE8F0813E
:1004200070B50C460546012A05D02878800600D50F
:10043000EA69002302E0012305E05B1C934202D23B
:10044000E05C0028F9D1A869E618C01AA861286AFA
:10045000184428622846AFF3008004E0D5E9012162
:1004600014F8010B9047B442F8D32846AFF300804C
:1004700070BD00002DE9F041064600241068752982
:10048000314616A510D0AFF30080002802DA4042B2
:1004900013A507E031688A0701D512A502E04907D4
:1004A00004D511A5012401E0AFF3008000210A2248
:1004B00006F1240709E0B0FBF2FCB0FBF2F302FB0B
:1004C0001C00303078541846491C0028F3D12346CC
:1004D0002A463046BDE8F04100F0F0B800000000C8
:1004E0002D0000002B0000002000000040EA010366
:1004F000024630B59B0710D14FF0013400E008C22E
:1005000008C91D1B9D4315EAC41FF8D013F0FF0155
:1005100002F8011B0DD01B0AF8E711F8013B002B74
:1005200002F8013B05D011F8013B002B02F8013B1A
:10053000F3D130BD10B5431C02E010F8011B71B1BE
:100540008107FAD14FF0013202C88C1A8C4314EAA9
:10055000C211F9D0C01A0A0603D0C01E10BDC01ABD
:1005600010BD0A0401D0801E10BD0902FCD0401E3F
:1005700010BD032A40F2308010F0030C00F015800B
:1005800011F8013BBCF1020F624498BF11F801CB96
:1005900000F8013B38BF11F8013BA2F1040298BFFB
:1005A00000F801CB38BF00F8013B11F0030300F065
:1005B0002581083AC0F0088051F8043B083A51F808
:1005C00004CBA0E80810F5E7121D5CBF51F8043B0E
:1005D00040F8043BAFF30080D20724BF11F8013B81
:1005E00011F801CB48BF11F8012B24BF00F8013BE3
:1005F00000F801CB48BF00F8012B704702F0FF0361
:1006000043EA032242EA024200F002B84FF000023D
:100610000429C0F0128010F0030C00F01B80CCF114
:10062000040CBCF1020F18BF00F8012BA8BF20F882
:10063000022BA1EB0C0100F00DB85FEAC17C24BFD6
:1006400000F8012B00F8012B48BF00F8012B704780
:100650004FF0000200B5134694469646203922BF5B
:10066000A0E80C50A0E80C50B1F12001BFF4F7AFA6
:10067000090728BFA0E80C5048BF0CC05DF804EB88
:10068000890028BF40F8042B08BF704748BF20F8F6
:10069000022B11F0804F18BF00F8012B70477047F4
:1006A00070477047704710B500F0DAF8006810BD69
:1006B00010B5044600F0D4F8046010BD2DE9F047F1
:1006C0000D4699469246044600F1240801688806C2
:1006D00004D5E06921F01001216000E00120A8426A
:1006E00001DD471B00E00027A1697A1902EB090030
:1006F000081AA0612078C00602D42046AFF300801B
:10070000002608E0D4E901211AF806009047206A83
:10071000401C761C20624E45F4DB2078C0060AD5CA
:100720002046AFF3008006E0D4E901213020904755
:10073000206A401C2062381EA7F10107F4DC07E0A4
:10074000D4E9012118F805009047206A401C206276
:10075000281EA5F10105F3DC2046AFF300802078C8
:10076000000602D50220BDE8F0870120FBE700006B
:1007700001694A1C02610878704700B58FB0CDE965
:1007800001310021059105497944CDE90310114655
:100790006846FFF711FE0FB000BD0000E5FFFFFF48
:1007A0000A6802F8010B0A60704710B5436913B17B
:1007B000AFF3008001E0FFF733FE012010BD127897
:1007C00000F124010A7000224A700122EDE711684D
:1007D0004FF0FF32E9E70000074B70B50D467B4450
:1007E000FFF7CBFF0446284600F03EF810B14FF06B
:1007F000FF3070BD204670BDEF2D000010B5203ACF
:10080000C0F00B80B1E81850203AA0E81850B1E8C9
:100810001850A0E81850BFF4F5AF5FEA027C24BF7F
:10082000B1E81850A0E8185044BF18C918C0BDE876
:1008300010405FEA827C24BF51F8043B40F8043B3F
:1008400008BF7047D20728BF31F8023B48BF11F8F4
:10085000012B28BF20F8023B48BF00F8012B70474E
:100860000048704718580020007B00F08000704757
:1008700000487047185800207546FFF7F9FFAE464C
:1008800005006946534620F00700854618B020B59C
:10089000FFF75EFDBDE820404FF000064FF0000777
:1008A0004FF000084FF0000B21F00701AC46ACE818
:1008B000C009ACE8C009ACE8C009ACE8C0098D4685
:1008C000704710B50446AFF300802046BDE81040E5
:1008D000FFF7CEBC70B5F92000F011F80446F820FF
:1008E00000F00DF80546F72000F009F8000340EA93
:1008F000051040EA1410BDE8704002F037BC10B596
:10090000044600F005FDEC2000F0D2FC00F042FDB2
:10091000204600F0CDFC00F03DFD00F0F9FCED209C
:1009200000F0C6FC00F036FD002000F08DFC04460F
:1009300000F00EFD204610BD017842784901807814
:1009400041EA82010143C9B2F52000F00BB84178B9
:1009500002784901807841EA82010143C9B2F4205A
:10096000AFF3008070B50D46044600F0D1FCEC20DA
:1009700000F09EFC00F00EFD204600F099FC00F017
:1009800009FD284600F094FC00F004FDBDE870402D
:1009900000F0DEBC7CB58820FFF7B1FF044689205B
:1009A000FFF7ADFF04EB00204B4C216808808A2044
:1009B000FFF7A5FF05468B20FFF7A1FF216805EB98
:1009C000002048808C20FFF79AFF05468D20FFF716
:1009D00096FF216805EB002088808E20FFF78FFFAF
:1009E00005468F20FFF78BFF216805EB0020C880AC
:1009F0009020FFF784FF05469120FFF780FF2168D4
:100A000005EB002008819220FFF779FF054693202F
:100A1000FFF775FF216805EB002048819420FFF760
:100A20006EFF05469520FFF76AFF216805EB002061
:100A300088819620FFF763FF05469720FFF75FFF49
:100A4000216805EB0020C8819820FFF758FF054674
:100A50009920FFF754FF216805EB002008829A20B7
:100A6000FFF74DFF05469B20FFF749FF216805EB87
:100A7000002048829C20FFF742FF05469D20FFF79B
:100A80003EFF216805EB002088829E20FFF737FF9C
:100A900005469F20FFF733FF216805EB0020C88241
:100AA000B621E020FFF75EFF03208DF80000012152
:100AB0008DF801108DF802006846FFF748FF00200E
:100AC0008DF8040004218DF805108DF8060001A8AA
:100AD000FFF732FF7CBD000030000020FEE700B5CC
:100AE0000246B0EE402A084602F044FED1ED0A0A62
:100AF000B0EE420AC2ED000A10465DF804EB02F0C7
:100B000039BE0000034800220260426053213120B8
:100B100001F0A8BAD0000020704700000549002865
:100B2000086802D040F4806001E020F48060086032
:100B300070470000003C024070B50646002529B110
:100B4000012927D0022928D04FF4407500F080F801
:100B500009281ED1124C206820F4407020602068C3
:100B600028432060206820F0F8002060206846F0CC
:100B7000020108432060206840F48030206000F0CB
:100B800067F8216821F002012160216821F0F80155
:100B9000216070BD4FF48075D8E74FF40075D5E73C
:100BA000103C02400D4909200A68D20301D50120FA
:100BB00070470A68D20601D5062070470A68D20538
:100BC00001D5022070470A6812F0EF0F01D007200C
:100BD000704709688907FBD5082070470C3C024024
:100BE0000248016841F0004101607047103C02403A
:100BF00070B50D46064600F02BF8092813D10A4CB3
:100C0000206820F440702060206840F4007020606C
:100C1000206840F001002060356000F019F821687C
:100C200021F00101216070BD103C024005480068C0
:100C3000002805DA034804490C38016003490160C3
:100C400070470000103C024023016745AB89EFCD9F
:100C500008B509208DF80000FFF7A4FF8DF800000B
:100C60009DF800000128F7D09DF8000008BDF0B500
:100C7000002201274FF0030C0B6807FA02F52B4006
:100C8000AB422CD1066853000CFA03F4A64306606D
:100C90000E79D0F800E09E4046EA0E0606600E7916
:100CA000012E01D0022E12D18668A64386604E79AD
:100CB000D0F808E09E4046EA0E0686604668AE43DD
:100CC000466045688E799640B6B235434560C56842
:100CD000A543C560CC799C40C3681C43C460521CCA
:100CE000102AC9D3F0BD4B07DB0E9A40C90810B5D6
:100CF00000EB8100016A0F249C40A1430162016A5C
:100D00001143016210BD41837047018370474269FE
:100D10004A4042617047000070B50E462DED068BCB
:100D2000F0EE408AB6EE000A8EB028EE808A0546C4
:100D3000FE4CB0EE00AAF7EE00AA94ED010AD4ED45
:100D4000030A94ED021AFA4920EE200AD4ED000AB3
:100D500000EEC10A20EE0A0A8DED0B0A94ED000A9E
:100D6000D4ED010A94ED031A20EE200AD4ED020A14
:100D700000EE810A20EE0A0A8DED0C0A94ED010ABC
:100D8000D4ED010A94ED021A20EE200AD4ED020AF5
:100D900000EE810AF0EE6A0A40EE4A0ACDED0D0A35
:100DA000B1F9000000EE100AB1F9020000EE900A5D
:100DB000B8EEC00AB8EEE01A00EE900A20EE000A83
:100DC000B1F90400F8EEE00A01EE200A00EE900A04
:100DD000B8EEE01A00EE900AF8EEE00A01EE200A02
:100DE00000F060FDA4F1580181ED030AB5F900009F
:100DF00000EE900AF8EEE00A60EE800ACDED040AFB
:100E0000B5F9020000EE900AF8EEE00A60EE800A02
:100E1000CDED050AB5F9040000EE900AC448F8EEDD
:100E2000E00A0C3820EE800A8DED060A9DED050AD9
:100E3000DDED0D0A9DED0C1A20EE200ADDED060A0F
:100E400000EEC10A8DED000A9DED060ADDED0B0AEC
:100E50009DED0D1A20EE200ADDED040A00EEC10A18
:100E60008DED010A9DED040ADDED0C0A9DED0B1AD6
:100E700020EE200ADDED050A00EEC10A8DED020A22
:100E8000D0ED000A9DED001A91ED020A41EE000A34
:100E9000C0ED000A90ED011ADDED011A01EE801A95
:100EA00080ED011AD0ED021A9DED022A42EE001AE1
:100EB000C0ED021AB5F90600DDED002A00EE100AB9
:100EC0009C48B8EEC00A90ED002A20EE022A91ED6F
:100ED000010A00EE222A72EE200ACDED000AB5F9D1
:100EE000081090ED002A00EE901AF8EEE00A60EE8D
:100EF000820A9DED012A40EE020A70EE810ACDEDD4
:100F0000010AB5F90A1000EE901A90ED001AF8EEF9
:100F1000E00A60EE810A9DED021A40EE010A30EE11
:100F2000A10A8DED020A94ED010ADDED000A9DEDA6
:100F3000011ADDED011A20EEC00AD4ED020A9DED82
:100F4000012ADDED002A00EEC10AD4ED030A9DED71
:100F5000021A00EEC10ADDED000A20EE081A94ED37
:100F6000000A20EE200AD4ED030A00EEE10AD4EDD7
:100F7000020ADDED021A00EEA10ADDED001A60EEB4
:100F8000080A94ED030A20EE210AD4ED001A01EEBE
:100F9000820AD4ED011A9DED022A01EEC20AD4EDB7
:100FA000011A9DED012A61EE821A94ED022A20EECB
:100FB000080A42EE621A94ED002ADDED022A42EEA2
:100FC000221A94ED002A32EE011A61EE881A84ED9D
:100FD000001A94ED011A71EE200AC4ED010AD4ED55
:100FE000020A30EE800A84ED020A94ED030A30EE24
:100FF000210A84ED030A94ED000AD4ED000A94ED71
:10100000011A20EE200AD4ED010A00EE810AD4ED87
:10101000020A94ED021A00EE810AD4ED030A94ED5F
:10102000031A00EE810A00F03DFCD4ED000A4349AA
:1010300060EE800AC4ED000AD4ED010A60EE800A79
:10104000C4ED010AD4ED020A60EE800AC4ED020A82
:10105000D4ED030A20EE800A84ED030AB5F90A00F4
:1010600000EE100A3448B8EEC00AD0ED000A20EEB7
:10107000200A10EE100A884204DC10EE100A3049F3
:10108000884205D9D6ED020A40EE280AC6ED020ACA
:101090002C4D286805F0FAFF94ED000AD4ED020A01
:1010A00094ED031A20EE0A0A41EC180B20EE200AF8
:1010B000D4ED010A60EE8A0A00EEC10A10EE100AB1
:1010C00005F0E4FF41EC100B01F07AFB53EC182B18
:1010D00051EC100B05F01AFD05F074FA70602868E9
:1010E00005F0D4FF94ED010AD4ED010A41EC190B8F
:1010F00020EE0A0A40EE60AA94ED020AD4ED020A3C
:1011000020EE0A0A40EE60AA1AEE900A05F0BEFF31
:1011100094ED020AD4ED030A41EC180B20EE0A0A02
:1011200020EE200AD4ED000A0EE00000900000201E
:101130003C0300208C710008887100089A99993F3F
:101140009A9999BF8471000860EE8A0A94ED011A99
:1011500000EE810A10EE100A05F098FF41EC100B2A
:10116000B0EE481AF0EE681A01F046FE53EC192B67
:1011700051EC100B05F0CAFC05F024FA30600EB0FB
:10118000BDEC068B70BDFEE770B50D4C0025C4F8B4
:1011900098520C48016821F440410160016841F413
:1011A00080410160C4F89C52022004F5267402F0CC
:1011B0005BF901202060022002F056F9256070BD25
:1011C00000804042000402401CB50121022000F0D2
:1011D0007FFBC020012400908DF8044000208DF892
:1011E000060003208DF805008DF807406946044885
:1011F000FFF73DFD0348C0F89842C0F89C421CBD73
:10120000000402400080404270B50D4C0026C4F836
:1012100098620C48016821F440410160016841F482
:10122000804101600125C4F89C52022004F5267417
:1012300002F01AF92560022002F016F9266070BD4E
:1012400000804042000402402DE9F04781461648E4
:101250000024016821F44041016001680160134EDF
:10126000254627464FF00108C6F89872022002F082
:10127000FBF8C6F898826006040ED6F81C0208B186
:10128000641CE4B2012002F0EFF86D1CEDB2082DF1
:10129000EAD3B9F1000F04D0FFF776FF2046BDE88E
:1012A000F087FFF7B1FFF9E70004024000804042F9
:1012B0002DE9F04105461448016821F440410160E0
:1012C000016841F480410160104E0027C6F8987211
:1012D0003C464FF00108E809C6F89C026806050E76
:1012E000022002F0C1F8C6F89882022002F0BCF891
:1012F000C6F89872022002F0B7F8641CE4B2082C19
:10130000E9D3BDE8F08100000004024000804042C3
:1013100070B50D48016821F440410160016841F455
:1013200080410160094C0120C4F89C02C4F8980275
:10133000042004F5267402F097F800256560042067
:1013400002F092F8256070BD000402400080404227
:101350000E4810B5016821F440410160016841F474
:10136000804101600A4C0020C4F89802C4F89C0235
:10137000042004F5267402F077F8012020606060F4
:10138000BDE81040042002F06FB8000000040240E5
:101390000080404270B512480024016821F44041A9
:1013A0000160016801600F4D0126C5F89C6230465E
:1013B00002F05AF8C5F89862012002F055F807E0EB
:1013C000641CE4B2FA2C03D9FFF7C2FF012070BD00
:1013D000D5F81C020028F3D1C5F8980270BD0000B2
:1013E00000040240008040427CB514460D4606468B
:1013F0006B4606223B21682000F080F800280BD1C4
:10140000BDF8001049BA3180BDF8021049BA2980F0
:10141000BDF8041049BA21807CBD7CB514460D4648
:1014200006466B4606224321682000F067F8002834
:101430000BD1BDF8001049BA3180BDF8021049BA8D
:101440002980BDF8041049BA21807CBD10B58021E7
:101450006B2000F0C1F8642001F0EAFF00216B204E
:1014600000F0BAF8032000F083F8012000F07BF8C8
:101470004FF4FA74204600F098F80021382000F06C
:10148000ABF800216A2000F0A7F80021232000F02B
:10149000A3F88021372000F09FF8752000F011F8A4
:1014A000682801D0012010BD01216B2000F094F8C4
:1014B00000216C2000F090F8204600F076F8002023
:1014C00010BD10B50446FFF723FFD020FFF7F0FE54
:1014D000FFF760FF2046FFF7EBFEFFF75BFFFFF72C
:1014E00017FFD120FFF7E4FEFFF754FF0020FFF7BE
:1014F000ABFE0446FFF72CFF204610BD2DE9F0415E
:101500001C4615460F460646FFF702FF7006000E02
:10151000FFF7CEFEFFF73EFF20B1FFF719FF0120D6
:10152000BDE8F0813846FFF7C3FEFFF733FFFFF752
:10153000EFFE012000EB4600C0B2FFF7B9FEFFF757
:1015400029FF08E0012D0CD00120FFF77DFE6D1E64
:1015500004F8010BEDB2002DF4D1FFF7F9FE0020E5
:10156000DEE70020F1E7C006010E1C2000F034B8D1
:10157000C006010E1B2000F02FB8BC2801D30121AA
:1015800010E0622801D302210CE02A2801D30321B4
:1015900008E0142801D3042104E00A2801D305211E
:1015A00000E006211A2000F017B810B504464FF4E9
:1015B0007A70844201D9044602E0042C00D204244B
:1015C000B0FBF4F0401EC1B2192000F005F860082D
:1015D000BDE81040FFF7D1BF70B50C460546FFF7D8
:1015E00097FED020FFF764FEFFF7D4FE50B92846DF
:1015F000FFF75EFEFFF7CEFE2046FFF759FEFFF72E
:10160000C9FE18B1FFF7A4FE012070BDFFF7A0FED0
:10161000002070BDFEE700002DE9FE436F4638460E
:10162000B91C01AAFFF7E0FE02A9B81D8A1CFFF74A
:10163000F4FEDFF89880264D002437F8141038F8AF
:101640002400091A286820F81410032C17D230F946
:10165000140004EB440100EE100A1D48103000EBAA
:10166000C106B8EEC00A304601F0CCFF96ED020A82
:101670002968BDEEC00A10EE100A21F81400022CF1
:101680001ED9E01E1149C0B2183101EB80009FED58
:10169000121A90ED000A2968DFED0E0A20EE010A09
:1016A00031F9142001EE102AB8EEC11A01EE200A19
:1016B00080ED000ABDEEC00A10EE100A21F81400F9
:1016C000641CE4B2062CB8D3BDE8FE830C030020F2
:1016D000380000209A99193E9A99593F2DE9F04710
:1016E0008AB018216846FEF7B3FF1E240021DFF8F8
:1016F000DCA008910991CAF80010CAF804104FF450
:1017000000516FF00409DFF8C88008AD06AECAF8D2
:10171000081027E00A2001F08BFEFFF77DFFD8F8C4
:101720000070002007EB4001CA8835F81030D21A4B
:1017300026F81020C98825F81010401C00B2032894
:10174000F0DBBDF91800401D0B28E3D2BDF91A00EB
:101750000528DFDC4845DDDBBDF91C000528D9DCA8
:101760004845D7DB641EE4B2D4D2002446464FF489
:10177000B2776D46FFF750FF642C0CDB3168002018
:1017800055F8202031F910301A4445F82020401C2B
:10179000C0B20628F4D3641C24B2BC42EADB0024A5
:1017A000564655F824002146021246F8242009A086
:1017B000FEF7E2FD641C24B2062CF2DB062203498C
:1017C000084800F0D3FA0AB0BDE8F0870C03002007
:1017D000380000206F66667365745B25645D3A258A
:1017E000640A000000F00F087047000030B50F23B6
:1017F000C27801780125FAB1144A126801F1E0219A
:1018000002F4E062C2F5E062C2F30722C2F104040E
:10181000D3404278A24084781C401443220181F8CE
:101820000024007800F01F018D404009800000F185
:10183000E020C0F8005130BD01F01F00854048098C
:10184000800000F1E020C0F8805130BD0CED00E0D8
:101850000249084302490860704700000000FA0589
:101860000CED00E070B506220849094800F074FA52
:10187000064D0024214655F8242006A0FEF77CFDE5
:10188000641CE4B2062CF5D370BD00000C030020EC
:1018900000F00F086F66667365745B25645D3A251A
:1018A000640A000010EE100AF6EE000A074960EE26
:1018B000200AA1EB600000EE100AB7EE081A60EEF5
:1018C000800A00EEC01A21EE000A7047DF59375F28
:1018D000044A0029116801D0014300E081431160EE
:1018E0007047000030380240044A0029116801D0D6
:1018F000014300E08143116070470000403802401E
:10190000044A0029116801D0014300E081431160BD
:101910007047000020380240044A0029116801D0B5
:10192000014300E081431160704700002438024009
:1019300070B5204B1968204C11F00C0104D06610D2
:10194000042903D0082903D004601BE0066019E0D5
:10195000184A121F1168C1F38055116801F03F0148
:1019600015B1B6FBF1F101E0B4FBF1F114681268B6
:10197000C4F388146143C2F30142521C5200B1FB0C
:10198000F2F1016019680F2202EA11110B4A545C4E
:101990000168E14041601C68072505EA9424145D54
:1019A00021FA04F484601B6805EA5333D25CD14009
:1019B000C16070BD083802400024F400D800002047
:1019C0001CB500263546344601F00EFEDFF8449182
:1019D000514F4FF49F7B4FF4167A0190DFF8388116
:1019E0004FF0FF300123009000221946D8F8040080
:1019F00003F008FF052101A803F0C2FA474800F0F0
:101A0000F5F93878C00739D0B9F8041059452CD207
:101A1000B9F80600DD2828D86D1CADB2554525D390
:101A20000221D8F8040003F055FE3878DFF8F08082
:101A300020F00100387040F69F752946404600F0BE
:101A40008FFD2946404600F08DFD2946404600F0B6
:101A50008BFD2946404600F089FD4FF40071314866
:101A6000FFF753F930A0FEF787FC0025B9F8040012
:101A70002D2842D8387820F0020044E0B9F804005C
:101A80004946584516D2CA8840F20F739A4211D37C
:101A9000761CB6B25645E9D30221D8F8040003F00B
:101AA00059FE387840F00100387024A0FEF764FC3D
:101AB0000026DBE7002640F2737290421BD3B9F890
:101AC0000600DD2817D8641CA4B25445CED3D8F83C
:101AD000100003F041FDFFF701FE00244FF40071F8
:101AE0001048FFF710F91AA0FEF746FCD8F81000CE
:101AF00003F072FCBAE70024B8E7B0F5997F04D987
:101B0000387840F00200387068E714A0FEF734FC23
:101B100064E700006E030020000000205403002052
:101B20000004004000040240466C69676874206C41
:101B30006F636B656421210A00000000466C6967D1
:101B4000687420756E6C6F636B656421210A0000F8
:101B50006F66667365746564210A0000756E6B6E4E
:101B60006F77696E67207374617465210A000000E5
:101B700008B5184C0025DFF860B06F1E4FF4FA76F8
:101B80004FF4C879A0464FF4007A01230097002251
:101B90001946606803F036FE304603F0BBF985B1A4
:101BA000304603F0B7F949460C48FEF72FFD0B48C5
:101BB00003F0E2FA0AA0FEF7DFFB084911A0FEF7E6
:101BC000DBFB98F80000C007DFD051465846FFF70E
:101BD0009EF8DAE7000000200004024064010020C3
:101BE000C8CECEF1C3FB090909D4CBD0D0CAB1BC51
:101BF000E409D4CBD0D0CBF9D5BCB0D9B7D6B1C8D5
:101C00000D0A000025730D0A00000000AFF30080EC
:101C100030B5012187B00846FFF75AFE012148047C
:101C2000FFF762FE082005900220204C8DF8180076
:101C300005A92046FFF71BF8072203212046FFF7DE
:101C400052F81B480090A014ADF804008010ADF8C5
:101C5000080000240420174DADF80A00ADF8064036
:101C6000ADF80C406946284600F034FD26218DF879
:101C7000101003208DF811008DF8124001208DF80E
:101C8000130004A8FFF7B2FD012240F225512846B7
:101C900000F008FD012240F22441284600F002FD38
:101CA0000121284600F0CEFC07B030BD0000024004
:101CB000A0860100004400401C49884201D2002057
:101CC00070471B49884201D2082070471949884251
:101CD00001D2102070471849884201D2182070475D
:101CE0001649884201D2202070471549884201D206
:101CF000282070471349884201D23020704712498A
:101D0000884201D2382070471049884201D24020D1
:101D100070470F49884201D2482070470D498842D8
:101D200001D2502070475820704700000040000842
:101D30000080000800C00008000001080000020840
:101D400000000408000006080000080800000A0857
:101D500000000C0800000E0810B5002303E010C8B6
:101D600041F823405B1C9342F9D310BD2DE9F041AB
:101D7000092690460F460446B0F1006F31D3A00704
:101D80002FD1FEF753FF0020FEF7C8FE1648254668
:101D900004EB880884420ED31AE02868401C09D05E
:101DA0002846FFF789FF0221FEF7C6FE06460928EE
:101DB00001D00FE02D1D4545EFD3092E08D009E0D5
:101DC00020463968FEF714FF092803D1241D3F1D62
:101DD0004445F5D30120FEF7A1FEBDE8F041FEF732
:101DE000FFBEBDE8F08100000000FF1F4188C1F385
:101DF0000A0240490A80C2780379D20842EA4312B3
:101E0000C2F30A024A8002794379920942EA8302C4
:101E1000837942EA8322C2F30A028A808279C379F3
:101E2000520842EAC312C2F30A02CA80C279037A94
:101E3000120942EA0312C2F30A020A81027A437AC1
:101E4000D20942EA4302837A42EA4322C2F30A02F7
:101E50004A81827AC37A920842EA8312C2F30A0262
:101E60008A81C27A037B520942EAC302CA81B0F86E
:101E70000D20C2F30A020A82827BC37BD20842EAA7
:101E80004312C2F30A024A82C27B037C920942EAED
:101E90008302437C42EA8322C2F30A028A82427CA2
:101EA000837C520842EAC312C2F30A02CA82827CCD
:101EB000C37C120942EA0312C2F30A020A83C27CFB
:101EC000037DD20942EA4302437D42EA4322C2F340
:101ED0000A024A83427D837D920842EA8312C2F35A
:101EE0000A028A83827DC07D520942EAC000C8830B
:101EF000704700006E0300200CB5002227490092B5
:101F00000192086840F4803008604FF4A0430868EC
:101F100000F4003001900098401C0090019810B926
:101F200000989842F3D10868800334D501200190CD
:101F30001A484030026842F0805202601848026835
:101F400042F44042026015480830026802600268AC
:101F500042F400420260026842F4A0520260031F91
:101F6000104A1A600A6842F080720A600A68920198
:101F7000FCD50D4940F205720A60016821F00301A9
:101F80000160016841F0020101600168C1F3810153
:101F90000229FAD10CBD01920CBD000000380240AC
:101FA0000070004008544007003C02404FF0E02120
:101FB0000428086903D020F004000861704740F04D
:101FC0000400FAE710B504F049F8012803D0BDE891
:101FD000104003F037BD10BD124810B5016841F440
:101FE000700101601048016841F0010101600E4A72
:101FF00000210832116002680C4B1A400260031D78
:102000000B4A1A60026822F48022026006480C30F3
:102010000160FFF771FF03494FF0006080390860ED
:1020200010BD000088ED00E000380240FFFFF6FE22
:102030001030002410B501218C07204600F07EF9F5
:10204000012807D106490A684868521C40F100007F
:102050000A6048602046BDE81040012100F0B8B891
:10206000D00000207FB50D46044601210846FFF749
:102070003BFC0194ADF8005000244FF08045ADF8D2
:102080000240ADF808406946284600F071FA012286
:102090001146284600F05EF90121284600F09BF821
:1020A0001C208DF80C0001208DF80D008DF80E40DD
:1020B0008DF80F0003A8FFF799FB7FBDF0B58BB03B
:1020C00001210420FFF704FC01210220FFF70CFC92
:1020D000374E304600F08AF8364F02220621384645
:1020E000FEF701FE022207213846FEF7FCFD022220
:1020F00008213846FEF7F7FD022209213846FEF78F
:10210000F2FD4FF47070089002208DF824008DF8D5
:10211000250000248DF8264001258DF8275008A9B8
:102120003846FEF7A4FD244806901420ADF81400AC
:10213000ADF81C40ADF816408DF81E4005A930469C
:1021400000F016FA6020ADF800002802ADF810008B
:10215000ADF802500294ADF80C406946304600F0EC
:1021600001F96946304600F033F96946304600F01F
:1021700079F96946304600F0B9F90821304600F097
:1021800021F90821304600F063F90821304600F0BB
:10219000A7F90821304600F0D9F90121304600F0B6
:1021A0000DF80121304600F016F80BB0F0BD00002C
:1021B00000040040000802407F3801000029018827
:1021C00002D041F0800101E021F0800101807047E0
:1021D000C943018270470029018802D041F0010102
:1021E00001E021F00101018070470000464910B56F
:1021F000884206D101210846FFF78EFB002101200D
:102200005BE0B0F1804F09D0404988420DD10121F7
:102210000220FFF775FB0021022070E00121084633
:10222000FFF76EFB0021012069E03949884206D1A1
:1022300001210420FFF764FB002104205FE0354901
:10224000884206D101210820FFF75AFB002108200F
:1022500055E03149884206D101211020FFF750FB9B
:10226000002110204BE02D49884206D10121202079
:10227000FFF746FB0021202041E02949884206D192
:1022800001210220FFF748FB0021022015E025492B
:10229000884202D101210C040AE02349884202D17C
:1022A00001214C0404E0214988420AD101218C0417
:1022B0002046FFF731FB00212046BDE81040FFF724
:1022C0002BBB1B49884206D101214020FFF718FB98
:1022D0000021402013E01749884206D101218020C7
:1022E000FFF70EFB0021802009E0134988420AD144
:1022F000841501212046FFF703FB00212046BDE89D
:102300001040FFF7FDBA10BD00000140000400407E
:1023100000080040000C0040001000400014004085
:1023200000040140004001400044014000480140D9
:1023300000180040001C0040002000400246002021
:10234000138A92890B4202EA010202D0002A00D0CD
:1023500001207047002A828901D00A4300E08A43A5
:102360008281704730B5028C22F001020284028C17
:102370008388048B22F0020224F073050C882C431E
:102380008D8915434A882A430C4DA84202D00C4D32
:10239000A8420DD122F00805CA8923F440732A43CC
:1023A00022F004058A882A430D8A1D434B8A2B4359
:1023B0008380048389684163028430BD000001404A
:1023C00000040140028B22F008020A430283704796
:1023D00070B5028C22F010020284028C8388048B78
:1023E0000D8824F4E6464FF6FF7404EA05253543CC
:1023F0008E8922F0200204EA061616434A8804EA6F
:1024000002123243104EB04202D0104EB04215D1EB
:1024100022F08006CA8923F4406304EA02123243A0
:1024200022F040068A8804EA021232430E8A04EA45
:1024300086061E434B8A04EA830333438380058365
:1024400089688163028470BD00000140000401407E
:10245000028B4FF6FF7322F4006203EA012111435D
:102460000183704770B5028C22F480720284028C62
:102470008388848B0D8824F0730425438E894FF65E
:10248000FF7422F4007204EA062616434A8804EA1E
:1024900002223243104EB04202D0104EB04215D14B
:1024A00022F40066CA8923F4405304EA022232432C
:1024B00022F480668A8804EA022232430E8A04EA01
:1024C00006161E434B8A04EA031333438380858335
:1024D0008968C163028470BD0000014000040140AE
:1024E000828B22F008020A438283704770B5028C07
:1024F00022F480520284058C8288838B0C8823F41A
:10250000E6464FF6FF7303EA0424344325F40056ED
:102510008D8903EA053535434E8803EA06362E4396
:10252000084DA84202D0084DA84205D122F48045AA
:102530000A8A03EA82122A438280848389680164BA
:10254000068470BD0000014000040140828B4FF6FC
:10255000FF7322F4006203EA012111438183704773
:102560004163704781637047C1637047016470477E
:1025700030B50288164C174DA0420DD0A8420BD0A2
:10258000B0F1804F08D0144B984205D0134B9842BD
:1025900002D0134B984203D122F070034A881A43A9
:1025A000104B984206D0104B984203D022F440734F
:1025B0000A891A4302804A68C2620A880285A042D8
:1025C00001D0A84201D1897A01860121818230BDE2
:1025D00000000140000401400004004000080040E9
:1025E000000C00400010004000140040F8B500202E
:1025F0008DF80000104F40F22551384600F033F8B6
:102600000E4D0F4C3E1D20B1318820782954401CBE
:1026100010E040F22441384600F025F800280AD0A6
:1026200038888DF8000030888DF800002078401E32
:10263000287001202070F8BD0044004054030020A1
:10264000A00000200029818902D041F4005101E05E
:1026500021F40051818170470246002012880A420D
:1026600000D00120704770B501F01F05012600243D
:10267000C1F3421306FA05F2012B0FD0022B0FD043
:10268000838A4FEA11210088134206FA01F600EA14
:10269000060001D000B10124204670BD8389F0E717
:1026A000038AEEE710B5C1F3421301F01F040121C4
:1026B000A140012B07D0022B07D01430002A02685A
:1026C00005D00A4304E00C30F8E71030F6E78A43FF
:1026D000026010BD7FB50446008A0D46C98820F40B
:1026E000405001432182A08941F20C618843A988AE
:1026F0002A8911436A8902431143A181A08A20F4E7
:102700004071A8890843A0826846FFF711F91A486A
:10271000844202D01948844201D1039800E0029813
:10272000A189090400EBC00101EB0010296801D563
:10273000490000E08900B0FBF1F06422B0FBF2F147
:1027400009010B096FF018056B4300EB8300A389A7
:102750001D044FF0320306D503EBC000B0FBF2F0CE
:1027600000F0070005E003EB0010B0FBF2F000F012
:102770000F00084320817FBD00100140001401407C
:10278000C1F3080181807047FEE703B4019841005E
:10279000009850EAC12018BF04204A0D18BF40F02D
:1027A000010040F2FF72B2EB515F08BF40F002003F
:1027B000012808BF052002B070470000000000009B
:1027C00070B5C1482DED020B2DED0E8B82B0119D21
:1027D00025F000449FEDBEDB9FEDBFEB84423EDB66
:1027E000A4F140511098A1F17F6108430FD0BC487B
:1027F000844202DC28D1109830B39DED100B02B05A
:10280000BDEC0E8B02B0BDE8704000F071BC9DEDD8
:10281000100B53EC1D2B51EC100B04F077F99DEDD0
:10282000100B41EC180B53EC1E2B51EC100B04F069
:102830006DF953EC182B03F0F7FE41EC100B02B0CE
:10284000BDEC0E8B02B070BD0120FDF731FF02B070
:10285000BDEC0E8B02B0BDE8704000F05DBCA1483D
:102860009FEDA18B844256DA9DED100BB4F1795F98
:102870000ADA51EC100BFFF788FF042808BF00F0BC
:102880005BFC9DED100BDAE753EC102B51EC100BB9
:1028900004F03CF941EC190B95480621B0EE490AC9
:1028A000F0EE690A784400F0A7FB53EC192B51ECC9
:1028B000100B04F02BF941EC1A0B8E48B0EE490ACC
:1028C000F0EE690A0421784400F096FB53EC192BD2
:1028D00051EC100B04F01AF953EC182B03F0A4FE82
:1028E00041EC100B51EC1A0B53EC102B03F050FF82
:1028F000CDE900019DED000B53EC102B9DED100B6D
:1029000051EC100B04F002F99DED101B53EC112B50
:1029100003F08AFED2E09DED100B51EC100B00F09D
:102920004BFE53EC182B04F0EFF99FED730BCDE940
:10293000000153EC102B9DED000B51EC100B04F03B
:10294000E5F841EC190B6E480621B0EE490AF0EEAD
:10295000690A784400F050FB53EC192B51EC100B32
:1029600004F0D4F841EC1B0B6648B0EE490AF0EED7
:10297000690A0421784400F03FFB53EC192B51EC19
:10298000100B04F0C3F853EC182B03F04DFE41EC90
:102990001C0B51EC190B01F0A1FD41EC180B5A482E
:1029A0009FED5BABA04222DC53EC1C2B51EC1B0BCC
:1029B00003F0EEFECDE900019DED000B51EC180B8C
:1029C00053EC102B04F0A2F853EC182B03F02CFE60
:1029D00053EC1A2B04F09AF853EC1D2B04F06CFA0C
:1029E00053EC1E2B04F090F941EC100B5FE08DEDE1
:1029F000008B002000909DED000B51EC180B53EC68
:102A0000102B03F011FE9DED000B41EC1E0B53EC5F
:102A1000102B51EC100B04F079F853EC192B04F047
:102A200073F953EC1E2B03F0B3FE41EC190B53EC7E
:102A30001C2B51EC1B0B03F0ABFE41EC1B0B53ECBE
:102A40001A2B51EC190B04F061F853EC1D2B04F018
:102A50005BF941EC190B53EC1A2B51EC180B04F0F9
:102A600055F853EC1B2B04F051F853EC192B04F0E0
:102A700023FA9DED000B41EC180B53EC1A2B51EC93
:102A8000100B04F043F89FED249B53EC192B04F03A
:102A90003BF941EC100B51EC180B53EC102B04F0EC
:102AA0000BFA53EC192B04F02FF941EC100B002D0D
:102AB0003FF7C5AE51EC100B03F078FD41EC100B65
:102AC000BDE60000000000000000F03F0000000034
:102AD000075C143326A6913C182D4454FB21F93F82
:102AE0000000F07F0000E03F000000000000F03F29
:102AF000E8480000F6480000000000000000E03F49
:102B00003A480000484800003333EF3F000000001F
:102B10000000000000000040182D4454FB21E93F54
:102B200070B59B482DED020B2DED068B079D25F012
:102B30000044A04218DC9748844202DC0AD106987F
:102B400040B19DED060BBDEC068B02B0BDE87040B8
:102B500000F0CEBA002DCCBF9FED8F0B9FED900BF8
:102B6000BDEC068B02B070BD8F48A04215DD8F48CA
:102B7000A042D8BF4FF0FF3458DD9DED060B51EC5D
:102B8000100BFFF702FE042808BF00F0D5FA9DEDF8
:102B9000060BBDEC068B02B070BD9DED060B51EC33
:102BA000100B00F009FDCDE9060181489FED828BF5
:102BB000A0423CDD8248A0421FDD00249FED82AB95
:102BC0009DED060B53EC1A2B51EC100B03F02CFD72
:102BD0009DED060B41EC190B53EC1A2B51EC100B2D
:102BE00003F094FF53EC182B04F066F953EC192B07
:102BF00003F0CEFDCDE9060149E09DED060B012471
:102C000053EC182B51EC100B03F00EFD9DED060B51
:102C100041EC190B53EC182B51EC100B04F04CF950
:102C200053EC192B03F0B4FDCDE906012FE0684801
:102C3000A0421FDD02249FED689B9DED060B53EC27
:102C4000192B51EC100B03F061FF53EC182B03F020
:102C5000EBFC9DED060B41EC180B53EC192B51ECE2
:102C6000100B04F029F953EC182B03F091FDCDE97A
:102C700006010CE09DED060B032453EC102B9FED99
:102C8000580B51EC100B03F083FDCDE906019DEDCF
:102C9000060B53EC102B51EC100B03F037FF41ECFB
:102CA000180B53EC182B03F031FF41EC190B4E4875
:102CB0000621B0EE490AF0EE690A784400F09CF96A
:102CC00053EC182B51EC100B03F020FF41EC180BC8
:102CD0004648B0EE490AF0EE690A0521784400F052
:102CE0008BF953EC192B51EC100B03F00FFF41EC57
:102CF000100B51EC180B53EC102B002C0EDA03F0D8
:102D000093FC9DED061B53EC112B03F0FFFE9DED94
:102D1000061B53EC112B03F0F7FF35E003F084FCA6
:102D20009DED061B53EC112B03F0F0FE41EC100B54
:102D30002F48784400EBC40090ED001B51EC100BC1
:102D400053EC112B04F0B8F89DED061B53EC112B3E
:102D500004F0B2F841EC100B2648784400EBC400B4
:102D600090ED001B51EC100B53EC112B03F0CCFF3A
:102D700041EC100B002DA2BFBDEC068B02B070BD64
:102D800051EC100B03F012FC41EC100B01E70000BA
:102D9000000010440000F07F182D4454FB21F93F3F
:102DA000182D4454FB21F9BF0000DC3F0000203EF9
:102DB0000000F33F00000000000000000000F03FB2
:102DC0000000E63F0000000000000000000000409E
:102DD0000080034000000000000000000000F83FF9
:102DE000000000000000F0BF8A45000040450000E0
:102DF000CA4400008244000070B56F4E2DED040BF4
:102E00002DED048B82B0DDF824C0DDE907235C42A0
:102E10002CF000411C4341EAD474069D22F000408E
:102E2000B44205D86C422C4340EAD474B4420BD966
:102E30009DED081B9DED060B02B0BDEC048B04B0AC
:102E4000BDE8704000F05EB9ACF14054A4F17F647D
:102E50001C430BD0022404EAAC7444EAD274054348
:102E60009FED578B9FED582B07D015E09DED060B7E
:102E700051EC100B00F071F942E0002C11BF012C55
:102E80009DED060B02B0BDEC048B04BF04B070BD19
:102E9000022C38D0032C3BD00B439FED4D1B9FEDF4
:102EA0004E0B0AD0B14218D1B04209D121F0804175
:102EB00020F08040099107900FE0002A15DA10E019
:102EC000474B7B44002C08BF93ED000B0DD0012C29
:102ED00010D0022C17D0032C1AD0B0421DD1002ADA
:102EE00003DAB0EE410AF0EE610A02B0BDEC048BE9
:102EF00004B070BD93ED000B51EC100B03F056FBCA
:102F000041EC100BF1E7B0EE480AF0EE680AECE78E
:102F1000B0EE420AF0EE620AE7E7401A00159FEDB4
:102F2000329B3C28C8BF8DED000B17DCBCF1000FB5
:102F3000BCBF10F13C0F8DED009B0FDB9DED080B2E
:102F400053EC102B9DED060B51EC100B03F020FC05
:102F500000F032FB00F001F9CDE90001B4B1012C21
:102F600010D0022C9FED220B53EC102B9DED000B8B
:102F700051EC100B19D003F09FFF53EC182B03F00A
:102F80009BFFBDE7019880F0004001909DED000B94
:102F900053EC192B51EC100B03F052FD04BF02202F
:102FA000FDF786FB9DED000B9FE703F085FF53ECDB
:102FB000182B03F0A9FEA3E70000F07F000000003B
:102FC000182D4454FB210940182D4454FB2109C0FD
:102FD000182D4454FB21F9BF182D4454FB21F93F0F
:102FE000B2430000000000000000000000000000EC
:102FF000075C143326A6A13C70B504462DED028B68
:103000004D1E00EBC500B0EE408AF0EE608A90EDF8
:10301000000B35F0060017D053EC182B51EC100BB9
:1030200003F074FD41EC100B6D1E04EBC50090ED38
:10303000001B51EC100B53EC112B03F0F5FA41EC93
:10304000100B35F00600E7D1022D36D0042D1CD030
:10305000062D1CBFBDEC028B70BD53EC182B51EC40
:10306000100B03F053FD94ED0A1B53EC112B03F0EE
:10307000DBFA53EC182B03F049FD94ED081B53ECDD
:10308000112B03F0D1FA41EC100B53EC182B51EC3F
:10309000100B03F03BFD94ED061B53EC112B03F0DA
:1030A000C3FA53EC182B03F031FD94ED040B53ECF1
:1030B000102B03F0B9FA41EC100B53EC182B51EC28
:1030C000100B03F023FD94ED021B53EC112B03F0C6
:1030D000ABFA53EC182B03F019FD94ED001B53ECE5
:1030E000112B03F0A1FABDEC028B41EC100B70BD6B
:1030F00010B553EC102B51EC100B03F095FA41EC8A
:10310000100B10BD10B553EC112B51EC100B03F04C
:103110008BFA41EC100B10BD9FED050B10B553EC75
:10312000102B51EC100B03F033FB41EC100B10BDD6
:1031300000000000000000009FED050B10B553ECEF
:10314000102B51EC100B03F0E1FC41EC100B10BD07
:103150000000000000000010704710B541EC100B9B
:10316000FFF7DEFC51EC100B10BD000070B5854D73
:1031700006462DED0A8B9FED84BB9FED85CB6868DD
:1031800003F09AFC9FED841B53EC112B03F0BEFC63
:103190009FED831B53EC112B03F08EFE2C6841EC4A
:1031A000180BB4F9100003F087FC41EC190B53EC39
:1031B000182B51EC180B03F0A9FC53EC192B03F05E
:1031C000A5FC53EC1B2B03F0A1FC41EC190BB4F94B
:1031D0000E0003F071FC53EC182B03F097FC9FEDED
:1031E000721B53EC112B03F091FC53EC192B03F0E1
:1031F0001BFA41EC1A0BB4F90C0003F05DFC9FEDD7
:103200006C1B53EC112B03F081FC41EC190B9FED6F
:103210006A0B51EC1A0B53EC102B03F077FC53ECB8
:10322000192B03F001FA41EC190BB4F9080003F073
:1032300043FC53EC182B03F069FC41EC1A0BB4F976
:103240000A0003F039FC53EC182B03F05FFC53EC3D
:10325000182B03F05BFC9FED5A8B53EC182B03F0FB
:1032600055FC53EC1A2B03F0DFF953EC182B03F049
:103270004DFC41EC1A0BE08803F035FC41EC180BD7
:1032800053EC1B2B51EC1A0B03F040FC9FED4E1B33
:1032900053EC112B03F0C8F953EC182B03F036FC58
:1032A00041EC180B53EC1C2B03F0CAFB06D1B0EE1B
:1032B0004C0AF0EE6C0ABDEC0A8B70BD304603F090
:1032C000FBFB9FED431B53EC112B03F01DFD41EC69
:1032D0001A0B9FED410B51EC190B53EC102B03F023
:1032E00015FC53EC1A2B03F00FFD9FED3D1B53EC27
:1032F000112B03F00BFC53EC182B03F049FA2C684C
:1033000041EC180BB4F9160003F0D6FB53EC182B64
:1033100003F0FCFB53EC182B03F0F8FB9FED321B82
:1033200053EC112B03F0F2FB41EC190BB4F9140030
:1033300003F0C2FB53EC182B03F0E8FB53EC1B2B00
:1033400003F0E4FB41EC1B0BB4F9120003F0B4FBF7
:1033500041EC1A0B53EC1B2B51EC190B03F064F9E5
:1033600053EC1A2B03F060F99FED211B53EC112B4A
:1033700003F0CCFB53EC182B03F056F941EC100B87
:1033800099E7000030000020000000000000003F2E
:103390000000000000000000000000000000E03F0E
:1033A000000000000040EF4000000000000000406E
:1033B000000000000000F040000000000000D03FCE
:1033C000000000000000C03E000000000000F03FD0
:1033D0000000000000003041000000000000303F0D
:1033E00000000000006AB840000000000000003E3D
:1033F000000000000000B03F10B504460420FEF7B6
:10340000D5FD0A484FF47A71047014FB01F10122D2
:1034100042804FF0E020026942F002020261416105
:10342000016941F00101016110BD0000C4000020EC
:1034300070B5044602F012FE01280CD0094D6888D0
:10344000844203D3B4FBF0F001F064FD6888B4FB60
:10345000F0F100FB11444FF47A706043BDE8704016
:1034600000F002B8C400002070B54FF0E025002144
:103470006C69094AAB6912785043AA699A42FCD038
:1034800002D2A3EB020302E0A4EB02063344194488
:1034900013468142F1D370BDC400002070B5050011
:1034A00005D140F2FB4214A118A0FCF765FF1B4EAA
:1034B0003068854201D1002070BD01F0E5FB6C69E8
:1034C00001F01EFCF06B844202D0306C844201D1CA
:1034D000022070BD1248844204D1A86A0028F7D1A6
:1034E000032070BD0E481438844202D00CB1012074
:1034F00070BD042070BD00002E2E5C4672656552C2
:10350000544F535C7461736B732E63004572726F1A
:10351000723A25732C25640D0A000000E800002093
:10352000DC070020214D224FDFF888904FF4007413
:1035300041F63F784FF47A7B40F69F7A2146284641
:10354000FDF7E1FB464641463846FFF70FF83146A6
:103550003846FFF709F831463846FFF703F8314699
:103560003846FEF7FDFF584601F0D4FC564651465A
:103570003846FEF7FBFF31463846FEF7F5FF314689
:103580003846FEF7EFFF31463846FEF7E9FF0121E6
:103590004E46D9F8040002F0DDF821462846FDF732
:1035A000B4FBF06801F042FDC8E7000000040240EF
:1035B000000400400000002082B0CDE9000121F0AD
:1035C000004001909DED000B02B051EC100B7047D4
:1035D00004490A885206FCD5024AC1B2121D118064
:1035E000704700000048004010B502F037FD012888
:1035F00003D0BDE8104002F03FBD0148406810BD57
:10360000C4000020D0ED000A90ED041A70EE810A8B
:10361000C0ED010A90ED051A70EE811A80EEA11A34
:1036200080ED031AD0ED021A30EE610A41EE001A65
:10363000B7EE000A30EE410AC0ED021A20EE200A71
:1036400080ED000A704700001CB501210220FEF742
:103650003FF94FF40070009001208DF80400002025
:103660008DF8060002208DF8050069460148FDF737
:10367000FEFA1CBD000402401CB54FF44070FEF77A
:10368000E7F8A820FFF7B8FEFFF7DEFF114801F0CA
:103690006FF9FEF713FDFEF7B9FAFDF795FDFDF79B
:1036A000D5FE0028FBD1FDF775F900F0C1F8FEF753
:1036B000D9F8094900200023087008310220CDE91B
:1036C00000014FF4967205A1074802F09BFC01F03F
:1036D000F7FEFEE720A107000000002053544152EE
:1036E000545F5441534B00004D450008FEB5060A97
:1036F0008DF800608DF80100080A8DF80200100AAC
:103700008DF804008DF80520DDE90854180A8DF8BD
:103710000600280A8DF808008DF80950200A8DF857
:103720000A008DF803108DF807308DF80B400C223D
:103730006946A12001F072F9FEBD000000229FED54
:103740000C0A11E050F8223083ED030A50F82230C1
:1037500083ED020A50F8223083ED0A0A50F8223035
:10376000521CD2B283ED010A8A42EBD370470000AB
:1037700000000000D0ED000A90ED091A70EEC10AB9
:1037800090ED031A00EE801A80ED031A90ED031AF3
:10379000D0ED081AB4EEE11AF1EE10FA02D290ED73
:1037A000081A0DE090ED031AD0ED071AB4EEE11AF5
:1037B000F1EE10FA02DD90ED071A01E090ED031A28
:1037C00080ED031A90ED021A70EEC11A81EE801A94
:1037D00090ED050AD0ED031A20EE210AD0ED041A6F
:1037E00001EEA00AD0ED061A01EE810A80ED0A0A68
:1037F00090ED0A0A90ED0C1AB4EEC10AF1EE10FA3F
:1038000002D290ED0C0A0DE090ED0A0A90ED0B1A31
:10381000B4EEC10AF1EE10FA02DD90ED0B0A01E000
:1038200090ED0A0A80ED0A0AC0ED020A7047000016
:103830003C4830B5B1EE040A00F1340180ED040AD1
:1038400000F1680281ED040AF2EE040AC2ED040AF6
:1038500080ED050A81ED050A9FED330AC2ED050AE8
:1038600080ED060A81ED060A9FED300A00F1D003D3
:1038700082ED060AB6EE000A00F19C0583ED040A0B
:1038800000F5827485ED040A84ED040ADFED280A50
:103890009FED280AC3ED050AC5ED050AC4ED050A2A
:1038A00080ED070A81ED070A9FED231A82ED070AD2
:1038B00080ED0B1A81ED0B1A82ED0B1A85ED070ACC
:1038C00083ED070A84ED070A85ED0B1A83ED0B1AC9
:1038D00084ED0B1A9FED190A9FED191A80ED080A65
:1038E00081ED080A82ED080A80ED0C1A81ED0C1AB0
:1038F00082ED0C1A85ED080A83ED080A84ED080AAA
:1039000085ED0C1A83ED0C1A84ED0C1A06210D4876
:10391000FFF714FF0C48C4ED090AC4ED000AC0ED1E
:10392000020A30BD94030020295C8F3D0AD7233C56
:10393000000000000000FA4300007A440000FAC3CF
:1039400000007AC4AC000020480300202DE9F041BB
:10395000184E0F460446F5683068001D01F0EAF87D
:1039600038B9306890F82C100120884031698143C3
:103970003161601C07D137B13168BDE8F0410E48B4
:10398000091D01F075B930682C44AC4244603168BF
:1039900005D2306CBDE8F041091D01F051B9F06B62
:1039A000091D01F04DF9B06A844200D2B462BDE84D
:1039B000F0810000E8000020DC0700202DE9F04144
:1039C000054601F061F92D4EB068401CB0603068CA
:1039D0002B4F10B1706930B32BE03560B06801280F
:1039E00027D1002404EB840007EB800001F01AF9D2
:1039F000641C202CF6D3234801F014F9214814301C
:103A000001F010F91F48283001F00CF91D483C3036
:103A100001F008F91B48503001F004F91948F0632F
:103A20001430306405E03068E96AC06A884200D822
:103A30003560706A0121401C70626864E86A32690E
:103A400081401143316100EB800007EB8000291DAC
:103A500001F00EF901F054F9706900280CD03068BB
:103A6000E96AC06A884207D207494FF0805008606F
:103A7000BFF34F8FBFF36F8FBDE8F081E8000020E8
:103A80000C0500208C07002004ED00E010B501F0CB
:103A9000FBF80E4C2068A0B90D4801F0C3F80C48A3
:103AA000143001F0BFF80A48E060143020610022B1
:103AB0001021052001F0DCFF206010B105A101F00C
:103AC000F5F9BDE8104001F01BB900002C01002001
:103AD000F0070020546D72510000000070B5124EC6
:103AE000124D1CE001F0A0FD306820B1002402F06E
:103AF0002FFCA4B901E00124F9E701F0C5F8F06852
:103B0000C468201D01F016F8A868401EA860686807
:103B1000401E686001F0F4F8204600F052F8686832
:103B20000028DFD170BD0000C8070020E800002099
:103B300030B4026C0B46002A0BD0C1681144C1603E
:103B40004468A14201D30168C16030BC1846FCF74B
:103B500010BD30BC70472DE9F041856B1746044617
:103B60000026026C82B1C7B1E068FCF702FDE16893
:103B7000206C091AE1602268914202D26168081A39
:103B8000E060022F16D017E02068A8B9606802F044
:103B9000EDFA0646002060600EE0A068FCF7E9FC44
:103BA000216CA0680844A0606168884204D3206842
:103BB000A06001E005B16D1E6D1CA5633046BDE837
:103BC000F08110B50446006B01F0CCF82046BDE84A
:103BD000104001F0C7B8000010484FF4A041420760
:103BE00006D0C01D0D4920F00700411AC1F5A041C3
:103BF0000B4A00230144C2E900030839103A21F0BE
:103C0000070111604B600B600B1AC0E90013936051
:103C10004FF000405360D06070470000180800204B
:103C20005C010020074E4FF08054074DFFF756FF10
:103C300030680128FAD92C60BFF34F8FBFF36F8F24
:103C4000F4E700000C05002004ED00E02DE9F0474A
:103C5000DDE909840E461746824691009946089D83
:103C6000A522206BFCF7CAFC6FF00301206B01EB6F
:103C70008701084420F00707780705D040F22B326F
:103C800019A11EA0FCF778FB00202218315C82F8F5
:103C90003410315C11B1401C1028F6D3002684F892
:103CA0004360202D00D31F25E562C4E91356201D73
:103CB00000F0C3FF04F1180000F0BFFF2461C5F15C
:103CC00020006462A0616665A66584F85C604A466F
:103CD0005146384600F072FB2060B8F1000F01D069
:103CE000C8F80040BDE8F0872E2E5C46726565522C
:103CF000544F535C7461736B732E63004572726F23
:103D0000723A25732C25640D0A00000030B5114964
:103D100000E011460A688242FBD34B685C1884427B
:103D200003D1406818444860084643681C18944210
:103D300009D1084C103C2468A24209D052681A44A8
:103D400042600A6812680260814200D0086030BD9B
:103D50000460F9E75C01002070B5002441600B4D60
:103D60000061914206D8D11A8269914206D2011DA2
:103D7000286907E09A4203D2994201D3012403E063
:103D8000011DE86800F05CFF204670BD2C0100209A
:103D900010B5044600F078FFA06B20B1002400F0BD
:103DA000AFFF204610BD0124F9E72DE9F047814619
:103DB000086892460C460025F8B1486801F10806EB
:103DC00040684860B04201D140684860D0F80C803B
:103DD000606842686260B24201D1516861606068A7
:103DE00005EBC50109EB8101C7685346012238463E
:103DF00001F082F96D1C4745EAD12846BDE8F087FD
:103E00002DE9F34100980F460026846C2CB940F64A
:103E1000CE1216A11AA0FCF7AFFAA06BE16B884294
:103E200005D340F6CF1211A115A0FCF7A5FAA06B9F
:103E3000E16B88420CD294F945503A4669462046D7
:103E4000FFF789FE0646681C05D06D1C84F84550B6
:103E50003046BDE8FC81606A0028F9D004F12400F6
:103E600002F0DEF90028F3D00126F1E72E2E5C46A1
:103E700072656552544F535C71756575652E6300AC
:103E80004572726F723A25732C25640D0A0000008A
:103E9000F8B5054614480E46C068C068C468201DC1
:103EA00000F048FEE069012817D1A0692B464119AE
:103EB00032462046FFF750FF78B100200346014606
:103EC00000902A46204602F029FB30B907494FF4FA
:103ED000027201F11800FCF74FFA616A01B0204646
:103EE000BDE8F040084700002C0100208064000875
:103EF00070B586B02F4E53E00198002806DADDE950
:103F00000301029A90470198002849DB039C6069ED
:103F100010B1201D00F00EFE05A800F0A7F8054620
:103F200001980A283CD2DFE800F00505053B273858
:103F300005053B270298A169034601442A4620460D
:103F4000FFF70AFF00282BD0616A20468847E06906
:103F5000012825D1002000900298A1690023421871
:103F60001946204602F0DAFAD0B940F2213212A105
:103F700017A0FCF701FA13E00298A06128B94FF4EA
:103F80004E720DA112A0FCF7F7F9A0692B4641195A
:103F90001A462046FFF7E0FE02E0204600F0E2FE6F
:103FA00000231A4601A9306801F09EFD0028A3D124
:103FB00006B070BD2C0100202E2E5C467265655245
:103FC000544F535C74696D6572732E63000000007A
:103FD0004572726F723A25732C25640D0A00000039
:103FE000F8B50D46064601F01FFB684600F03EF8A6
:103FF0000446009810B102F0ABF9F8BD1148ADB11C
:1040000001690968D9B10025311B2A46006800F012
:104010005FFF02F09DF90028EFD10B494FF080506F
:104020000860BFF34F8FBFF36F8FF8BDA642EBD888
:1040300002F08EF921463046FFF72AFFF8BD012530
:10404000E2E700002C01002004ED00E00648C16B0F
:10405000096829B1C16BC968C9684968816270473C
:104060004FF0FF31FAE70000E800002070B5054688
:1040700002F002F8064E0446B068844203D200F013
:1040800009F8012000E0002028602046B46070BDDF
:104090002C010020F8B5184E26E0C068C4680568F9
:1040A000201D00F047FD616A20468847E06901282D
:1040B0001AD1A0692844A84206D924616060211D54
:1040C000F06800F0BDFD0FE00020034601460090BF
:1040D0002A46204602F022FA30B9084940F29232CC
:1040E00001F11800FCF748F9F06801680029D4D103
:1040F0003169C6E90310F8BD2C0100208064000876
:1041000008484068401C05D040F20F1206A111A0DB
:10411000FCF732F9502080F31188BFF34F8FBFF3C3
:104120006F8FFEE7400100202E2E5C4672656552BF
:10413000544F535C706F727461626C655C5256448C
:10414000535C41524D5F434D34465C706F72742E28
:10415000630000004572726F723A25732C25640D5E
:104160000A00000070B50025040005D140F281620C
:1041700007A10CA0FCF700F90E496069884205D13F
:10418000A06A2839884201D000B90125284670BDAF
:104190002E2E5C4672656552544F535C7461736B8E
:1041A000732E63004572726F723A25732C25640D6D
:1041B0000A000000DC0700200346002012B19943EA
:1041C00002D070470B42FCD001207047084CE068D9
:1041D000016839B1002139B10020FFF701FFFFF775
:1041E00087FEF4E70121F6E7C0680068F5E7000004
:1041F0002C0100202DE9F041044600F045FD94F922
:10420000455004F1240610E0A06C20B100212046A6
:10421000FFF7F6FD04E0606A48B1304602F000F8AE
:1042200008B101F001F86D1E6DB2002DECDC4FF00D
:10423000FF3684F8456000F063FD00F025FD94F939
:10424000445004F1100709E0206948B1384601F0F4
:10425000E7FF08B100F0E8FF6D1E6DB2002DF3DC42
:1042600084F84460BDE8F04100F04ABD10B5044652
:10427000FCF73CF92046FCF75DF9202101E02154D0
:10428000401C0F28FBD300212154204410BD000006
:104290002DE9F0410546002601F0C6F9324F386895
:1042A00008B9FFF799FCF86805424FD1002D4DD0B1
:1042B000083568070BD005F00700C0F10800054479
:1042C000680704D0BF2229A132A0FCF755F8002DC1
:1042D0003CD07868854239D82349103108460468B3
:1042E00001E0214604466068A84202D22068002806
:1042F000F7D13868B846844228D00E682068086034
:1043000060680836401B10280ED96719780704D05A
:10431000EC2216A11FA0FCF72FF86068401B786004
:1043200038466560FFF7F2FC6168D8F80400424641
:10433000401AC8F80400D8F80830984200D29060BB
:10434000D8F80C0001430020C4E9000102F000F895
:10435000700705D04FF4967204A10EA0FCF70CF87C
:104360003046BDE8F08100004C0100202E2E5C4656
:1043700072656552544F535C706F727461626C6504
:104380005C4D656D4D616E675C686561705F342E74
:10439000630000004572726F723A25732C25640D1C
:1043A0000A0000000449086818B10868026D521C30
:1043B0000265086870470000E800002010B5031F80
:1043C0004FF080741C601B1F21F001011960191F40
:1043D000044B0B6014390A60091F6FF00202443865
:1043E0000A6010BD014100082DED028B86B000254A
:1043F000FFF7FAF8334E9FED348A344C05900521CF
:1044000005A800F0BDFDFCF765FA8DED000BFDF78A
:1044100003F9B0EE480A2E492C48FCF77DFC3078B1
:10442000C00708D02B488088B0F59A7F03D3B0EE40
:10443000480A00F003F9002DE1D0B4F90A10B4F9EC
:104440000800CDE90001B4F90630B4F90420B4F94C
:104450000210B4F90000FFF749F91D48F2EE040A12
:10446000B4F90A3090ED020A20EE200AD0ED010ADC
:10447000BDEEC00A10EE101A9FED170A09B260EEE9
:10448000800AFDEEE00A10EE902AD0ED000A0193BA
:1044900012B220EE800A0491BDEEC00A10EE100A9E
:1044A00000B2CDE90202B4F908000090B4F9063078
:1044B000B4F90420B4F90210B4F9000000F0DEFAF7
:1044C0009DE70000000000200AD7A33B3C0300202A
:1044D000480300206E0300200000C84200B52DED07
:1044E000048B83B041EC190B02F01AFC41EC180B61
:1044F00018EE100A18EE901A8DED008B002818BFE8
:104500000120084320F00040C0F17F6000F1E0404E
:10451000C00F14D019EE101A19EE900A8DED009B01
:10452000002918BF0121084320F00040C0F17F603E
:1045300000F1E040C00F04BF0120FCF7B9F851ECD6
:10454000180B03B0BDEC048B00BD00007CB500F07F
:104550009BFB01F0F1F81F4C002304F10C0160609B
:104560000620CDE900014FF480721BA11E4801F026
:1045700049FD04F110010520CDE900014FF400755B
:1045800000232A4619A11D4801F03CFD04F1180141
:104590000320CDE9000100232A4619A11D4801F09E
:1045A00031FD04F114010420CDE9000100232A4665
:1045B00019A11B4801F026FD01F0B4F9014619A02C
:1045C000FBF7DAFEA06800F031FDBDE87C4000F0AA
:1045D00097BB000000000020657363696E69745F1B
:1045E0007461736B000000002535000873656E73FD
:1045F0006F72735F7461736B00000000E943000821
:1046000052756E54696D6553746174735F74617330
:104610006B000000711B000852435F7461736B00F4
:10462000C11900084672656520686561703A2025E9
:10463000642062797465730A000000002DE9F04778
:10464000BD4B4FF47A6140F69F799888F0EE402A8E
:10465000A0F59C7048434FF4C86190FBF1F000F660
:104660009F7080B2484502D2DFEDB40A0AE041F6FD
:104670005731884202D9DFEDB20A03E000EE900A1A
:10468000F8EE600AAF4DFDEEE00A10EE900AE88009
:10469000A880688028805888783800EE900AB8EEA4
:1046A000E00A9FEDA91A20EE012ADFEDA80AA84929
:1046B000B3EE0E0AC2EE201ABBEE0E2A01F134024E
:1046C000A44EA54C71EE821AC1ED001A18887838F4
:1046D00001EE900AF8EEE11A61EE811A81EEA01A5D
:1046E00030EE410A82ED000AD1ED000A10EE900A88
:1046F000DFED9A0AB04207D291ED001A11EE100ACE
:10470000A04201DAC1ED000A92ED001A11EE100A82
:10471000B04207D292ED001A11EE100AA04201DA5F
:10472000C2ED000A8A4E588940F2F463DFF8308205
:10473000683698427DD38B488B4FB0F9063000EE37
:10474000903AA6F58273B8EEE00AD7ED000A20EEA3
:10475000200A83ED090AB0F9084000EE904A03F1FF
:104760003404B8EEE00AD7ED000A20EE200A84ED0A
:10477000090AB0F90A0000EE900A03F1D000B8EE81
:10478000E00AD7ED000A03F1680720EE200A87ED62
:10479000090A98ED010A81ED090A98ED000A82EDF7
:1047A000090A98ED020A86ED090AB0EE620AFEF7E0
:1047B000E1FF92ED0A0AA4F1340083ED000AB0EEA5
:1047C000620AFEF7D7FFB0EE620A6148FEF7D2FF39
:1047D00091ED0A0A204684ED000AB0EE620AFEF767
:1047E000C9FFB0EE620A31463846FCF778F993ED1E
:1047F0000A0AD4ED0A0AB5F9000030EE600AD7EDD6
:104800000A0A70EE200A00EE100AB8EEC00A30EE76
:10481000800ABDEEC00A10EE100A288093ED0A0A45
:10482000D4ED0A0AB1EE400A30EE600AD7ED0A0A6A
:1048300000E03DE0B5F9020070EE600A00EE100AFB
:10484000B8EEC00A30EE800ABDEEC00A10EE100AC3
:10485000688094ED0A0AD3ED0A0AB5F9040030EE37
:10486000600AD7ED0A0A70EE200A00EE100AB8EED0
:10487000C00A30EE800ABDEEC00A10EE100AA88011
:1048800093ED0A0AD4ED0A0AB5F9060030EE200AC3
:10489000D7ED0A0A70EE600A00EE100AB8EEC00A00
:1048A00030EE800ABDEEC00A10EE100AE8800AE081
:1048B000244806210830FEF741FFC6ED090AC6ED7F
:1048C000000AC8ED020AB5F900104FF4FA564F4637
:1048D000741EB94201DA494602E0B14200DB2146CA
:1048E000DFF888804046FDF73BFEB5F90210B9427B
:1048F00001DA394602E0B14200DB21464046FDF7CD
:1049000031FEB5F90410B94201DA394602E0B1428C
:1049100000DB21464046FDF727FEB5F90610B942F7
:1049200001DA394602E0B14200DB21464046BDE8EB
:10493000F047FDF71BBE00006E03002000F0794534
:1049400000B8DA45A4000020000070420000C8440E
:10495000300400206666E6BF6666E63F00000000A1
:10496000480300203C030020887100080004004038
:10497000F0B5074687B001210220FCF7A9FF01210D
:104980008804FCF7B1FF234E07220A213046FCF7CA
:10499000AAF907220B213046FCF7A5F94FF4406035
:1049A000049002208DF814008DF8150000248DF875
:1049B000164001258DF8175004A93046FCF757F929
:1049C000ADF808400C20144EADF80440ADF80A00D4
:1049D0000097ADF80640ADF80C4069463046FDF74B
:1049E00079FE01213046FDF72DFE012240F22551CE
:1049F0003046FDF757FE27208DF818000F208DF860
:104A000019008DF81A408DF81B5006A8FCF7EEFE31
:104A100007B0F0BD000402400048004070B588B007
:104A20001C2A29D80DEB02030024DC7088248DF8A1
:104A300000408DF801006D468DF80220002004E052
:104A40000C5C2E18401CF470C0B29042F8D30020C9
:104A5000D41C05E02E5CD978401C3144D970C0B21A
:104A6000A042F7D30024161D04E0285D00F050F8A2
:104A7000641CE4B2B442F8D308B070BD2DE9F0472D
:104A800088B010ACDDE913C794E800070024254680
:104A90006E463555641CE4B21C2CFAD3040A8DF81A
:104AA00000408DF80100080A8DF80200100A8DF808
:104AB00004008DF80520180A8DF806004FEA18202A
:104AC0008DF808008DF809804FEA19208DF80A004A
:104AD0004FEA1A208DF812008DF803104FEA1C20BF
:104AE0008DF814008DF815C0380A8DF816008DF871
:104AF00007308DF80B908DF813A08DF817701C22DD
:104B00003146AF20FFF78AFF08B0BDE8F08700000C
:104B100070B5074C054640212046FDF79DFD002855
:104B2000F9D029462046BDE87040FDF729BE0000B7
:104B300000480040D0E9013201699A60D0E90123C0
:104B40005A604A68824201D182684A60002202614A
:104B50000868401E086070472DE9F04717460A466E
:104B600006460024202500F05FFDDFF89080D8F88D
:104B7000080082423CD3DFF888906D1E05EB85016A
:104B800004EBC40009EB810106EB80000122FFF772
:104B90000CF90444002DF0D104EBC40006EB8000B6
:104BA00002224546D8F83C10FFF7FFF8044404EB16
:104BB000C40006EB80000222296CFFF7F6F80444DB
:104BC00004EBC40006EB800004220E49FFF7EDF869
:104BD00004440C4904EBC40006EB800003221431AA
:104BE000FFF7E3F804441FB10748016840683960E3
:104BF00001F0AEFB2046BDE8F0870000E800002091
:104C00000C050020C8070020D000002004490868D7
:104C10000A688069D26A0968C2F120028A61704715
:104C2000E800002000F108014FF0FF32C0E9011256
:104C3000C16001610021016070470021016170477E
:104C400030B50C68621C02D000F1080202E0026973
:104C500004E01A4653681D68A542FAD953684B60B0
:104C600099608A60516008610168491C016030BD2B
:104C700042684A6093688B609368596091600861EC
:104C80000168491C01607047502080F31188BFF310
:104C90004F8FBFF36F8F09494868401C4860012857
:104CA0000AD10748006810F0FF0F05D040F2B91292
:104CB00004A10FA0FBF760BB70470000400100207B
:104CC00004ED00E02E2E5C4672656552544F535C35
:104CD000706F727461626C655C525644535C4152F1
:104CE0004D5F434D34465C706F72742E630000005C
:104CF0004572726F723A25732C25640D0A0000000C
:104D000010B5084C606828B94FF4E07206A111A0F4
:104D1000FBF732FB6068401E606001D180F31188B0
:104D200010BD0000400100202E2E5C4672656552C9
:104D3000544F535C706F727461626C655C52564480
:104D4000535C41524D5F434D34465C706F72742E1C
:104D5000630000004572726F723A25732C25640D52
:104D60000A00000070B500282AD0164DA0F10804F2
:104D70006068E968084205D14FF4A07212A11CA036
:104D8000FBF7FAFA206828B140F241120EA118A0F0
:104D9000FBF7F2FA6068E968084211D02268002A3D
:104DA0000ED18843606000F03FFC60686968084489
:104DB00068602046FEF7AAFFBDE8704001F0C8BA5F
:104DC00070BD00004C0100202E2E5C4672656552BD
:104DD000544F535C706F727461626C655C4D656DAD
:104DE0004D616E675C686561705F342E6300000022
:104DF0004572726F723A25732C25640D0A0000000B
:104E000006484FF47A710068B0FBF1F14FF0E020F2
:104E1000491E416107210161704700001C0000200C
:104E200010B5FBF783FA104C10280CD300F1E020EA
:104E300090F8F0032178884205D24FF440720BA11C
:104E400015A0FBF799FA18480068A16800F4E06023
:104E5000884207D9BDE810404FF4447203A10EA068
:104E6000FBF78ABA10BD0000400100202E2E5C46E0
:104E700072656552544F535C706F727461626C65F9
:104E80005C525644535C41524D5F434D34465C7016
:104E90006F72742E630000004572726F723A257350
:104EA0002C25640D0A0000000CED00E010B5074B46
:104EB000002253F832401CB1521C082AF9D310BD0D
:104EC00043F8321003EBC201486010BDCC0400204F
:104ED00070B515460E460446FFF7D6FE94F9441009
:104EE0000020491C01D184F8440094F94510491C64
:104EF00001D184F84500FFF703FFA06B28B92A46CB
:104F0000314604F1240000F0BFF92046BDE87040AE
:104F1000FFF770B910B5040012D00E49096B29B122
:104F200040F2CF420CA111A0FBF726FA00F07CFB67
:104F300000212046FEF70AFD01F00AFA002807D1F9
:104F40000E494FF080500860BFF34F8FBFF36F8F53
:104F500010BD0000E80000202E2E5C4672656552F0
:104F6000544F535C7461736B732E63004572726FA0
:104F7000723A25732C25640D0A00000004ED00E050
:104F80002DE9F0410E4605004FF0000405D140F236
:104F900079421BA11FA0FBF7EFF92EB940F27A422C
:104FA00017A11CA0FBF7E8F91E4F386B28B140F29F
:104FB0007B4213A117A0FBF7DFF900F035FBFA687D
:104FC00028688119904202D9884202D804E08842B8
:104FD00001D8914200D9012429601CB1881A00210E
:104FE000FEF7B4FC01F0B4F9002807D10E494FF0E8
:104FF00080500860BFF34F8FBFF36F8FBDE8F08123
:105000002E2E5C4672656552544F535C7461736B0F
:10501000732E63004572726F723A25732C25640DEE
:105020000A000000E800002004ED00E070B504462E
:10503000FFF72AFE234D04B92C68201DFFF77AFDE7
:1050400058B9E06A204A00EB800152F8211021B9DA
:1050500001218140286988432861A06A18B104F1C0
:105060001800FFF767FD686A401C68622868844280
:1050700007D1211D1548FFF7FBFD6868401C6860DB
:1050800007E0A868401EA8602046FEF79AFDFEF7DC
:10509000DDFFFFF735FE6869002812D028688442DA
:1050A0000FD1286B28B140F2654209A10DA0FBF792
:1050B00063F910494FF080500860BFF34F8FBFF382
:1050C0006F8F70BDE80000200C050020C80700208D
:1050D0002E2E5C4672656552544F535C7461736B3F
:1050E000732E63004572726F723A25732C25640D1E
:1050F0000A00000004ED00E02DE9F0411E46904654
:105100000C4607000ED0054605F13400C4E90050F6
:10511000E86A2061286BE061686CA060207B03284E
:1051200003D00AE013480568EEE700F07DFAA86AAC
:1051300008B10220207301F00BF9E86C6061686D22
:10514000A061052E01D0267303E03846FEF7A6F9CC
:105150002073B8F1000F0BD00021286B01E0401C38
:10516000491C0278A52AFAD088082084BDE8F0817D
:105170000020FAE7E8000020FEB50025064605708D
:10518000224881680191806800EBC0008000FFF731
:105190007FF8040038D002AA0199FFF7DDFC0190E6
:1051A00002986421B0FBF1F0029050B328460095BC
:1051B00024E000EBC00004EB8000029A8169B1FB9F
:1051C000F2F541683046FFF751F80646009800EBCB
:1051D000C00004EB800082692DB12B460CA1304643
:1051E000FBF7D6F803E00DA13046FBF7D1F83046C7
:1051F000FBF7A0F906440098401C009001998842F2
:10520000D7D32046FFF7AEFDFEBD0000E80000202A
:105210000925750909257525250D0A000925750932
:10522000093C3125250D0A0001490120C86170475C
:10523000E800002070B50D46040005D140F60632A6
:1052400007A10CA0FBF798F80E480168204618311A
:10525000FFF7F6FC2846BDE870400121FEF776BB5B
:105260002E2E5C4672656552544F535C7461736BAD
:10527000732E63004572726F723A25732C25640D8C
:105280000A000000E800002070B514460E46050034
:1052900005D140F6313209A10DA0FBF76DF8104899
:1052A000016828461831FFF7E3FC0CB14FF0FF36D8
:1052B00021463046BDE87040FEF748BB2E2E5C46C6
:1052C00072656552544F535C7461736B732E630047
:1052D0004572726F723A25732C25640D0A00000026
:1052E000E80000202DE9F04117460E46050005D1E3
:1052F00040F617320DA112A0FBF73EF8144C206BBC
:1053000028B940F61B3209A10DA0FBF735F821683A
:1053100046F000408861216828461831FFF7A8FC54
:105320003846BDE8F0410121FEF710BB2E2E5C4649
:1053300072656552544F535C7461736B732E6300D6
:105340004572726F723A25732C25640D0A000000B5
:10535000E800002070B5040039D01D4DE06A2968CE
:10536000C96A884233D2A069002804DB2868C06A71
:10537000C0F12000A061E06A164E00EB8000616978
:1053800006EB800081421FD1201DFFF7D3FB0121D6
:1053900050B9E06A00EB800256F8222022B92A694F
:1053A00001FA00F082432A612868C06AE0622A6933
:1053B00081401143296100EB800006EB8000211D34
:1053C000BDE87040FFF754BC2868C06AE06270BD59
:1053D000E80000200C05002070B504002BD01A4D09
:1053E000286884422FD0FFF74FFC2046FEF7BAFE14
:1053F000E8B1201DFFF79EFBE06A01212A69814088
:1054000011432961114900EB800001EB8000211D4F
:10541000FFF72EFCE06A2968C96A884207D30C4965
:105420004FF080500860BFF34F8FBFF36F8FBDE820
:105430007040FFF765BCBDE8704040F2AB6205A16B
:1054400009A0FAF799BF70BDE80000200C05002004
:1054500004ED00E02E2E5C4672656552544F535C9D
:105460007461736B732E63004572726F723A2573A9
:105470002C25640D0A00000010B5040005D140F68B
:10548000C13205A109A0FAF777FF0C48016A216033
:10549000C068606010BD00002E2E5C4672656552CB
:1054A000544F535C7461736B732E63004572726F5B
:1054B000723A25732C25640D0A000000E8000020D4
:1054C0001CB518480024CDE900402346822216A1CD
:1054D000174800F097FD012803D100F0E5FF0128EF
:1054E0000AD0401C1DD102B040F28472BDE81040C9
:1054F00010A115A0FAF740BF502080F31188BFF328
:105500004F8FBFF36F8F07484FF0FF312C38816208
:1055100001214161C460FBF7F5FABDE81C4000F0D1
:1055200007BA1CBD1401002049444C45000000008E
:10553000253C00082E2E5C4672656552544F535C24
:105540007461736B732E63004572726F723A2573C8
:105550002C25640D0A00000070B50446FFF794FB8B
:10556000244D04B92C68201DFFF7E4FA58B9E06A0D
:10557000214A00EB800152F8211021B9012181401C
:10558000286988432861A06A18B104F11800FFF760
:10559000D1FA211D1948FFF76BFBFFF7B1FB6869D2
:1055A00028B1FFF771FBFEF751FDFFF7A9FB286853
:1055B000844211D1686980B1286B28B140F25762EA
:1055C0000FA114A0FAF7D8FE16494FF080500860DA
:1055D000BFF34F8FBFF36F8F70BD0848A968006895
:1055E000884202D10020286070BDBDE8704000F004
:1055F00023B80000E80000200C050020DC07002094
:105600002E2E5C4672656552544F535C7461736B09
:10561000732E63004572726F723A25732C25640DE8
:105620000A00000004ED00E00248016B491C016320
:1056300070470000E800002070B51A4C206B10B1D4
:105640000120E06170BD0020E061174908684968E9
:10565000A063626B904204D92168821A4B6D1A4490
:105660004A6560632069114EB0FA80F0C0F11F00F6
:1056700000EB800556F8250028B940F6F6220CA16B
:1056800010A0FAF779FE06EB850000F108024168E8
:1056900049684160914201D149684160C868206011
:1056A00070BD0000E8000020D00000200C050020A4
:1056B0002E2E5C4672656552544F535C7461736B59
:1056C000732E63004572726F723A25732C25640D38
:1056D0000A00000070B50E46040005D140F2DF124A
:1056E0000AA111A0FAF748FE300E05D04FF4F0726F
:1056F00006A10DA0FAF740FEFFF7C6FA256825EAD5
:1057000006002060FFF7FCFA284670BD2E2E5C468E
:1057100072656552544F535C6576656E745F67724F
:105720006F7570732E6300004572726F723A257345
:105730002C25640D0A00000010B51C20FEF7A8FD02
:10574000040004D000202060201DFFF76BFA2046E3
:1057500010BD00002DE9F04100258846040005D168
:1057600040F21D221CA123A0FAF706FE5FEA186092
:1057700005D040F21E2218A11EA0FAF7FDFD261D3D
:1057800004F10C07FFF750FF2168F06841EA0801B7
:10579000216017E0D0E9001601F07F425301236831
:1057A00021F07F4102D40B4203D10AE031EA030326
:1057B00007D1D20100D50D43216841F0007100F0FE
:1057C0007BFD3046B842E5D12068A843206000F058
:1057D000BFFD2068BDE8F0812E2E5C4672656552E3
:1057E000544F535C6576656E745F67726F75707346
:1057F0002E6300004572726F723A25732C25640D7A
:105800000A0000002DE9F047089F9A4691460D4690
:1058100004004FF0000605D140F24D1235A13CA026
:10582000FAF7AAFD280E05D04FF4A77231A138A0CF
:10583000FAF7A2FD2DB940F24F122EA134A0FAF7CB
:105840009BFD00F00BFC30B92FB14FF4A97229A1D8
:105850002FA0FAF791FDFFF7E7FED4F8008052463B
:1058600029464046FEF7A8FC40B100274646B9F15C
:10587000000F15D02068A843206011E0AFB1B9F146
:10588000000F01D04FF08076BAF1000F01D046F042
:10589000806645EA06013A46201DFFF723FD0026F3
:1058A00000F056FD1FB310B109E04646F8E71C4969
:1058B0004FF080500860BFF34F8FBFF36F8FFFF73B
:1058C000A5F90646800110D4FFF7DEF92668524696
:1058D00029463046FEF770FC28B1B9F1000F02D01E
:1058E0002068A8432060FFF70BFA26F07F46304679
:1058F000BDE8F0872E2E5C4672656552544F535CAE
:105900006576656E745F67726F7570732E630000E5
:105910004572726F723A25732C25640D0A000000DF
:1059200004ED00E001484068704700004C01002091
:105930001CB5304C20683049884205D140F25912DC
:105940002EA139A0FAF718FD20682B49491E88427C
:1059500005D14FF4AD7229A133A0FAF70DFD364CF5
:1059600020780190FF20207020788DF800009DF8AD
:1059700000009DF8001000F0F000884205D040F2D1
:1059800073121EA128A0FAF7F7FC9DF800002B4A1D
:1059900000F0500010700720906007E09068401EF3
:1059A00090609DF8000040008DF800009DF8000018
:1059B0000006F3D4107A000200F4E06090600198D1
:1059C00020700C482030016841F4700101600168CA
:1059D00041F070410160FFF713FA00205060FAF7C0
:1059E0006DFC1748016841F040410160FAF756FC30
:1059F00000201CBD00ED00E071C20F412E2E5C4660
:105A000072656552544F535C706F727461626C655D
:105A10005C525644535C41524D5F434D34465C707A
:105A20006F72742E630000004572726F723A2573B4
:105A30002C25640D0A00000000E400E04001002075
:105A400034EF00E010B5502080F31188BFF34F8F82
:105A5000BFF36F8F00F016FB18B104494FF0805070
:105A60000860002080F3118810BD000004ED00E004
:105A70002DE9F04117460E46050005D14FF4C472DA
:105A800010A115A0FAF778FCBEB105FB06F0543062
:105A9000FEF7FEFB04000ED004F154007EB120603E
:105AA000C4E90F562046012100F0E0F884F8507058
:105AB00000212046A164BDE8F0810020E7E72460D2
:105AC000EEE700002E2E5C4672656552544F535C23
:105AD00071756575652E63004572726F723A257334
